{"abi":[{"type":"constructor","inputs":[{"name":"_clawToken","type":"address","internalType":"address"},{"name":"_revenueToken","type":"address","internalType":"address"},{"name":"_owner","type":"address","internalType":"address"}],"stateMutability":"nonpayable"},{"type":"function","name":"LOCK_PERIOD","inputs":[],"outputs":[{"name":"","type":"uint256","internalType":"uint256"}],"stateMutability":"view"},{"type":"function","name":"approve","inputs":[{"name":"to","type":"address","internalType":"address"},{"name":"tokenId","type":"uint256","internalType":"uint256"}],"outputs":[],"stateMutability":"nonpayable"},{"type":"function","name":"balanceOf","inputs":[{"name":"owner","type":"address","internalType":"address"}],"outputs":[{"name":"","type":"uint256","internalType":"uint256"}],"stateMutability":"view"},{"type":"function","name":"baseTokenURI","inputs":[],"outputs":[{"name":"","type":"string","internalType":"string"}],"stateMutability":"view"},{"type":"function","name":"claimRevenue","inputs":[],"outputs":[],"stateMutability":"nonpayable"},{"type":"function","name":"clawToken","inputs":[],"outputs":[{"name":"","type":"address","internalType":"contract IERC20"}],"stateMutability":"view"},{"type":"function","name":"feeNotifiers","inputs":[{"name":"","type":"address","internalType":"address"}],"outputs":[{"name":"","type":"bool","internalType":"bool"}],"stateMutability":"view"},{"type":"function","name":"getApproved","inputs":[{"name":"tokenId","type":"uint256","internalType":"uint256"}],"outputs":[{"name":"","type":"address","internalType":"address"}],"stateMutability":"view"},{"type":"function","name":"isApprovedForAll","inputs":[{"name":"owner","type":"address","internalType":"address"},{"name":"operator","type":"address","internalType":"address"}],"outputs":[{"name":"","type":"bool","internalType":"bool"}],"stateMutability":"view"},{"type":"function","name":"lockRemaining","inputs":[{"name":"staker","type":"address","internalType":"address"}],"outputs":[{"name":"","type":"uint256","internalType":"uint256"}],"stateMutability":"view"},{"type":"function","name":"name","inputs":[],"outputs":[{"name":"","type":"string","internalType":"string"}],"stateMutability":"view"},{"type":"function","name":"nextPassId","inputs":[],"outputs":[{"name":"","type":"uint256","internalType":"uint256"}],"stateMutability":"view"},{"type":"function","name":"notifyFee","inputs":[{"name":"amount","type":"uint256","internalType":"uint256"}],"outputs":[],"stateMutability":"nonpayable"},{"type":"function","name":"owner","inputs":[],"outputs":[{"name":"","type":"address","internalType":"address"}],"stateMutability":"view"},{"type":"function","name":"ownerOf","inputs":[{"name":"tokenId","type":"uint256","internalType":"uint256"}],"outputs":[{"name":"","type":"address","internalType":"address"}],"stateMutability":"view"},{"type":"function","name":"pendingRevenue","inputs":[{"name":"staker","type":"address","internalType":"address"}],"outputs":[{"name":"","type":"uint256","internalType":"uint256"}],"stateMutability":"view"},{"type":"function","name":"positions","inputs":[{"name":"","type":"address","internalType":"address"}],"outputs":[{"name":"staked","type":"uint256","internalType":"uint256"},{"name":"stakedAt","type":"uint256","internalType":"uint256"},{"name":"rewardDebt","type":"uint256","internalType":"uint256"},{"name":"passId","type":"uint256","internalType":"uint256"},{"name":"hasPass","type":"bool","internalType":"bool"}],"stateMutability":"view"},{"type":"function","name":"renounceOwnership","inputs":[],"outputs":[],"stateMutability":"nonpayable"},{"type":"function","name":"revenuePerShareAccumulated","inputs":[],"outputs":[{"name":"","type":"uint256","internalType":"uint256"}],"stateMutability":"view"},{"type":"function","name":"revenueToken","inputs":[],"outputs":[{"name":"","type":"address","internalType":"contract IERC20"}],"stateMutability":"view"},{"type":"function","name":"safeTransferFrom","inputs":[{"name":"from","type":"address","internalType":"address"},{"name":"to","type":"address","internalType":"address"},{"name":"tokenId","type":"uint256","internalType":"uint256"}],"outputs":[],"stateMutability":"nonpayable"},{"type":"function","name":"safeTransferFrom","inputs":[{"name":"from","type":"address","internalType":"address"},{"name":"to","type":"address","internalType":"address"},{"name":"tokenId","type":"uint256","internalType":"uint256"},{"name":"data","type":"bytes","internalType":"bytes"}],"outputs":[],"stateMutability":"nonpayable"},{"type":"function","name":"setApprovalForAll","inputs":[{"name":"operator","type":"address","internalType":"address"},{"name":"approved","type":"bool","internalType":"bool"}],"outputs":[],"stateMutability":"nonpayable"},{"type":"function","name":"setBaseURI","inputs":[{"name":"uri","type":"string","internalType":"string"}],"outputs":[],"stateMutability":"nonpayable"},{"type":"function","name":"setFeeNotifier","inputs":[{"name":"notifier","type":"address","internalType":"address"},{"name":"enabled","type":"bool","internalType":"bool"}],"outputs":[],"stateMutability":"nonpayable"},{"type":"function","name":"stake","inputs":[{"name":"amount","type":"uint256","internalType":"uint256"}],"outputs":[],"stateMutability":"nonpayable"},{"type":"function","name":"supportsInterface","inputs":[{"name":"interfaceId","type":"bytes4","internalType":"bytes4"}],"outputs":[{"name":"","type":"bool","internalType":"bool"}],"stateMutability":"view"},{"type":"function","name":"symbol","inputs":[],"outputs":[{"name":"","type":"string","internalType":"string"}],"stateMutability":"view"},{"type":"function","name":"tokenURI","inputs":[{"name":"tokenId","type":"uint256","internalType":"uint256"}],"outputs":[{"name":"","type":"string","internalType":"string"}],"stateMutability":"view"},{"type":"function","name":"totalStaked","inputs":[],"outputs":[{"name":"","type":"uint256","internalType":"uint256"}],"stateMutability":"view"},{"type":"function","name":"transferFrom","inputs":[{"name":"from","type":"address","internalType":"address"},{"name":"to","type":"address","internalType":"address"},{"name":"tokenId","type":"uint256","internalType":"uint256"}],"outputs":[],"stateMutability":"nonpayable"},{"type":"function","name":"transferOwnership","inputs":[{"name":"newOwner","type":"address","internalType":"address"}],"outputs":[],"stateMutability":"nonpayable"},{"type":"function","name":"unstake","inputs":[],"outputs":[],"stateMutability":"nonpayable"},{"type":"event","name":"Approval","inputs":[{"name":"owner","type":"address","indexed":true,"internalType":"address"},{"name":"approved","type":"address","indexed":true,"internalType":"address"},{"name":"tokenId","type":"uint256","indexed":true,"internalType":"uint256"}],"anonymous":false},{"type":"event","name":"ApprovalForAll","inputs":[{"name":"owner","type":"address","indexed":true,"internalType":"address"},{"name":"operator","type":"address","indexed":true,"internalType":"address"},{"name":"approved","type":"bool","indexed":false,"internalType":"bool"}],"anonymous":false},{"type":"event","name":"BaseURIUpdated","inputs":[{"name":"newURI","type":"string","indexed":false,"internalType":"string"}],"anonymous":false},{"type":"event","name":"FeeNotified","inputs":[{"name":"notifier","type":"address","indexed":true,"internalType":"address"},{"name":"amount","type":"uint256","indexed":false,"internalType":"uint256"}],"anonymous":false},{"type":"event","name":"FeeNotifierSet","inputs":[{"name":"notifier","type":"address","indexed":true,"internalType":"address"},{"name":"enabled","type":"bool","indexed":false,"internalType":"bool"}],"anonymous":false},{"type":"event","name":"OwnershipTransferred","inputs":[{"name":"previousOwner","type":"address","indexed":true,"internalType":"address"},{"name":"newOwner","type":"address","indexed":true,"internalType":"address"}],"anonymous":false},{"type":"event","name":"RevenueClaimed","inputs":[{"name":"staker","type":"address","indexed":true,"internalType":"address"},{"name":"amount","type":"uint256","indexed":false,"internalType":"uint256"}],"anonymous":false},{"type":"event","name":"Staked","inputs":[{"name":"staker","type":"address","indexed":true,"internalType":"address"},{"name":"amount","type":"uint256","indexed":false,"internalType":"uint256"},{"name":"totalStaked","type":"uint256","indexed":false,"internalType":"uint256"}],"anonymous":false},{"type":"event","name":"Transfer","inputs":[{"name":"from","type":"address","indexed":true,"internalType":"address"},{"name":"to","type":"address","indexed":true,"internalType":"address"},{"name":"tokenId","type":"uint256","indexed":true,"internalType":"uint256"}],"anonymous":false},{"type":"event","name":"Unstaked","inputs":[{"name":"staker","type":"address","indexed":true,"internalType":"address"},{"name":"amount","type":"uint256","indexed":false,"internalType":"uint256"}],"anonymous":false},{"type":"error","name":"ERC721IncorrectOwner","inputs":[{"name":"sender","type":"address","internalType":"address"},{"name":"tokenId","type":"uint256","internalType":"uint256"},{"name":"owner","type":"address","internalType":"address"}]},{"type":"error","name":"ERC721InsufficientApproval","inputs":[{"name":"operator","type":"address","internalType":"address"},{"name":"tokenId","type":"uint256","internalType":"uint256"}]},{"type":"error","name":"ERC721InvalidApprover","inputs":[{"name":"approver","type":"address","internalType":"address"}]},{"type":"error","name":"ERC721InvalidOperator","inputs":[{"name":"operator","type":"address","internalType":"address"}]},{"type":"error","name":"ERC721InvalidOwner","inputs":[{"name":"owner","type":"address","internalType":"address"}]},{"type":"error","name":"ERC721InvalidReceiver","inputs":[{"name":"receiver","type":"address","internalType":"address"}]},{"type":"error","name":"ERC721InvalidSender","inputs":[{"name":"sender","type":"address","internalType":"address"}]},{"type":"error","name":"ERC721NonexistentToken","inputs":[{"name":"tokenId","type":"uint256","internalType":"uint256"}]},{"type":"error","name":"OwnableInvalidOwner","inputs":[{"name":"owner","type":"address","internalType":"address"}]},{"type":"error","name":"OwnableUnauthorizedAccount","inputs":[{"name":"account","type":"address","internalType":"address"}]},{"type":"error","name":"ReentrancyGuardReentrantCall","inputs":[]}],"bytecode":{"object":"0x60c06040526001600b5534801562000015575f80fd5b506040516200235f3803806200235f833981016040819052620000389162000181565b8060405180604001604052806008815260200167436c61775061737360c01b81525060405180604001604052806008815260200167434c41575041535360c01b815250815f90816200008b919062000266565b5060016200009a828262000266565b5050506001600160a01b038116620000cb57604051631e4fbdf760e01b81525f600482015260240160405180910390fd5b620000d68162000114565b5060017f9b779b17422d0df92223018b32b4d1fa46e071723d6817e2486d003becc55f0055506001600160a01b039182166080521660a05262000332565b600680546001600160a01b038381166001600160a01b0319831681179093556040519116919082907f8be0079c531659141344cd1fd0a4f28419497f9722a3daafe3b4186f6b6457e0905f90a35050565b80516001600160a01b03811681146200017c575f80fd5b919050565b5f805f6060848603121562000194575f80fd5b6200019f8462000165565b9250620001af6020850162000165565b9150620001bf6040850162000165565b90509250925092565b634e487b7160e01b5f52604160045260245ffd5b600181811c90821680620001f157607f821691505b6020821081036200021057634e487b7160e01b5f52602260045260245ffd5b50919050565b601f8211156200026157805f5260205f20601f840160051c810160208510156200023d5750805b601f840160051c820191505b818110156200025e575f815560010162000249565b50505b505050565b81516001600160401b03811115620002825762000282620001c8565b6200029a81620002938454620001dc565b8462000216565b602080601f831160018114620002d0575f8415620002b85750858301515b5f19600386901b1c1916600185901b1785556200032a565b5f85815260208120601f198616915b828110156200030057888601518255948401946001909101908401620002df565b50858210156200031e57878501515f19600388901b60f8161c191681555b505060018460011b0185555b505050505050565b60805160a051611ff6620003695f395f8181610300015261116801525f818161045f0152818161082f0152610b740152611ff65ff3fe608060405234801561000f575f80fd5b50600436106101f2575f3560e01c80636352211e11610114578063a22cb465116100a9578063c87b56dd11610079578063c87b56dd14610481578063d547cfb714610494578063e985e9c51461049c578063f2fde38b146104af578063fd5773a9146104c2575f80fd5b8063a22cb46514610421578063a694fc3a14610434578063b88d4fde14610447578063c790fb671461045a575f80fd5b8063817b1cd2116100e4578063817b1cd2146103dd5780638da5cb5b146103e657806395d89b41146103f757806398bd6818146103ff575f80fd5b80636352211e146103a657806370a08231146103b9578063714c595a146103cc578063715018a6146103d5575f80fd5b80632def66201161018a578063556e4e681161015a578063556e4e68146102fb57806355f575101461032257806355f804b31461038b578063564f4f761461039e575f80fd5b80632def6620146102c457806342842e0e146102cc57806345f93f50146102df57806347444049146102e8575f80fd5b80631820cabb116101c55780631820cabb1461027357806320b6b2fc1461028b5780632139f1d41461029e57806323b872dd146102b1575f80fd5b806301ffc9a7146101f657806306fdde031461021e578063081812fc14610233578063095ea7b31461025e575b5f80fd5b610209610204366004611a26565b6104d5565b60405190151581526020015b60405180910390f35b610226610526565b6040516102159190611a8e565b610246610241366004611aa0565b6105b5565b6040516001600160a01b039091168152602001610215565b61027161026c366004611ad2565b6105dc565b005b61027d62278d0081565b604051908152602001610215565b61027d610299366004611afa565b6105eb565b61027d6102ac366004611afa565b610651565b6102716102bf366004611b13565b6106a8565b610271610726565b6102716102da366004611b13565b610932565b61027d600b5481565b6102716102f6366004611b59565b61094c565b6102467f000000000000000000000000000000000000000000000000000000000000000081565b610361610330366004611afa565b60096020525f9081526040902080546001820154600283015460038401546004909401549293919290919060ff1685565b6040805195865260208601949094529284019190915260608301521515608082015260a001610215565b610271610399366004611b8e565b6109b2565b610271610a05565b6102466103b4366004611aa0565b610a78565b61027d6103c7366004611afa565b610a82565b61027d60085481565b610271610ac7565b61027d600a5481565b6006546001600160a01b0316610246565b610226610ad8565b61020961040d366004611afa565b60076020525f908152604090205460ff1681565b61027161042f366004611b59565b610ae7565b610271610442366004611aa0565b610af2565b610271610455366004611c0e565b610d04565b6102467f000000000000000000000000000000000000000000000000000000000000000081565b61022661048f366004611aa0565b610d7f565b610226610de4565b6102096104aa366004611ce3565b610e70565b6102716104bd366004611afa565b610e9d565b6102716104d0366004611aa0565b610ed7565b5f6001600160e01b031982166380ac58cd60e01b148061050557506001600160e01b03198216635b5e139f60e01b145b8061052057506301ffc9a760e01b6001600160e01b03198316145b92915050565b60605f805461053490611d14565b80601f016020809104026020016040519081016040528092919081815260200182805461056090611d14565b80156105ab5780601f10610582576101008083540402835291602001916105ab565b820191905f5260205f20905b81548152906001019060200180831161058e57829003601f168201915b5050505050905090565b5f6105bf82610fe7565b505f828152600460205260409020546001600160a01b0316610520565b6105e782823361101f565b5050565b6001600160a01b0381165f9081526009602052604081208054820361061257505f92915050565b5f81600201546008546106259190611d60565b9050670de0b6b3a764000081835f015461063f9190611d73565b6106499190611d8a565b949350505050565b6001600160a01b0381165f9081526009602052604081208054820361067857505f92915050565b5f62278d00826001015461068c9190611da9565b905080421061069e57505f9392505050565b6106494282611d60565b6001600160a01b03831615806106c557506001600160a01b038216155b6107165760405162461bcd60e51b815260206004820152601a60248201527f436c6177506173733a206e6f6e2d7472616e7366657261626c6500000000000060448201526064015b60405180910390fd5b61072183838361102c565b505050565b61072e6110af565b335f908152600960205260409020805461077b5760405162461bcd60e51b815260206004820152600e60248201526d139bdd1a1a5b99c81cdd185ad95960921b604482015260640161070d565b62278d00816001015461078e9190611da9565b4210156107cc5760405162461bcd60e51b815260206004820152600c60248201526b14dd1a5b1b081b1bd8dad95960a21b604482015260640161070d565b6107d5336110ca565b80546003820180545f80855560048501805460ff1916905591829055600a805491928492610804908490611d60565b90915550610813905081611267565b60405163a9059cbb60e01b8152336004820152602481018390527f00000000000000000000000000000000000000000000000000000000000000006001600160a01b03169063a9059cbb906044016020604051808303815f875af115801561087d573d5f803e3d5ffd5b505050506040513d601f19601f820116820180604052508101906108a19190611dbc565b6108e25760405162461bcd60e51b815260206004820152601260248201527110d31055c81c995d1d5c9b8819985a5b195960721b604482015260640161070d565b60405182815233907f0f5bb82176feb1b5e747e28471aa92156a04d9f3ab9f45f28e2d704232b93f759060200160405180910390a250505061093060015f80516020611fa183398151915255565b565b61072183838360405180602001604052805f815250610d04565b61095461129f565b6001600160a01b0382165f81815260076020908152604091829020805460ff191685151590811790915591519182527f1e77e39b331d87619955b13d6b386efa8de48879580a072975c0fdfd38e77c9b910160405180910390a25050565b6109ba61129f565b600c6109c7828483611e1b565b507f6741b2fc379fad678116fe3d4d4b9a1a184ab53ba36b86ad0fa66340b1ab41ad82826040516109f9929190611ed5565b60405180910390a15050565b610a0d6110af565b335f90815260096020526040902054610a595760405162461bcd60e51b815260206004820152600e60248201526d139bdd1a1a5b99c81cdd185ad95960921b604482015260640161070d565b610a62336110ca565b61093060015f80516020611fa183398151915255565b5f61052082610fe7565b5f6001600160a01b038216610aac576040516322718ad960e21b81525f600482015260240161070d565b506001600160a01b03165f9081526003602052604090205490565b610acf61129f565b6109305f6112cc565b60606001805461053490611d14565b6105e733838361131d565b610afa6110af565b5f8111610b3a5760405162461bcd60e51b815260206004820152600e60248201526d043616e6e6f74207374616b6520360941b604482015260640161070d565b335f81815260096020526040902090610b52906110ca565b6040516323b872dd60e01b8152336004820152306024820152604481018390527f00000000000000000000000000000000000000000000000000000000000000006001600160a01b0316906323b872dd906064016020604051808303815f875af1158015610bc2573d5f803e3d5ffd5b505050506040513d601f19601f82011682018060405250810190610be69190611dbc565b610c245760405162461bcd60e51b815260206004820152600f60248201526e151c985b9cd9995c8819985a5b1959608a1b604482015260640161070d565b81815f015f828254610c369190611da9565b90915550504260018201556008546002820155600a80548391905f90610c5d908490611da9565b9091555050600481015460ff16610ca657600b80545f9182610c7e83611f03565b909155506003830181905560048301805460ff191660011790559050610ca433826113e4565b505b600a5460405133917f1449c6dd7851abc30abf37f57715f492010519147cc2652fbc38202c18a6ee9091610ce291868252602082015260400190565b60405180910390a250610d0160015f80516020611fa183398151915255565b50565b6001600160a01b0384161580610d2157506001600160a01b038316155b610d6d5760405162461bcd60e51b815260206004820152601a60248201527f436c6177506173733a206e6f6e2d7472616e7366657261626c65000000000000604482015260640161070d565b610d79848484846113fd565b50505050565b6060610d8a82610fe7565b505f610d94611415565b90505f815111610db25760405180602001604052805f815250610ddd565b80610dbc84611424565b604051602001610dcd929190611f1b565b6040516020818303038152906040525b9392505050565b600c8054610df190611d14565b80601f0160208091040260200160405190810160405280929190818152602001828054610e1d90611d14565b8015610e685780601f10610e3f57610100808354040283529160200191610e68565b820191905f5260205f20905b815481529060010190602001808311610e4b57829003601f168201915b505050505081565b6001600160a01b039182165f90815260056020908152604080832093909416825291909152205460ff1690565b610ea561129f565b6001600160a01b038116610ece57604051631e4fbdf760e01b81525f600482015260240161070d565b610d01816112cc565b335f9081526007602052604090205460ff16610f355760405162461bcd60e51b815260206004820152601b60248201527f4e6f7420617574686f726973656420666565206e6f7469666965720000000000604482015260640161070d565b5f8111610f6f5760405162461bcd60e51b81526020600482015260086024820152675a65726f2066656560c01b604482015260640161070d565b600a545f03610f7b5750565b600a54610f90670de0b6b3a764000083611d73565b610f9a9190611d8a565b60085f828254610faa9190611da9565b909155505060405181815233907f38f4be18d784b9c75c2b344863114132dfb056ef5da8d5a73439ab48ce3c5a899060200160405180910390a250565b5f818152600260205260408120546001600160a01b03168061052057604051637e27328960e01b81526004810184905260240161070d565b61072183838360016114b4565b6001600160a01b03821661105557604051633250574960e11b81525f600482015260240161070d565b5f6110618383336115b8565b9050836001600160a01b0316816001600160a01b031614610d79576040516364283d7b60e01b81526001600160a01b038086166004830152602482018490528216604482015260640161070d565b6110b76116aa565b60025f80516020611fa183398151915255565b6001600160a01b0381165f90815260096020526040812080549091036110ee575050565b5f81600201546008546111019190611d60565b9050805f0361110f57505050565b5f670de0b6b3a764000082845f01546111289190611d73565b6111329190611d8a565b600854600285015590508015610d795760405163a9059cbb60e01b81526001600160a01b038581166004830152602482018390527f0000000000000000000000000000000000000000000000000000000000000000169063a9059cbb906044016020604051808303815f875af11580156111ae573d5f803e3d5ffd5b505050506040513d601f19601f820116820180604052508101906111d29190611dbc565b61121e5760405162461bcd60e51b815260206004820152601760248201527f526576656e7565207472616e73666572206661696c6564000000000000000000604482015260640161070d565b836001600160a01b03167fc15f451120b13b6b40c6ad6203614ab3088308bef9150c0d6f46ea79bf4642248260405161125991815260200190565b60405180910390a250505050565b5f6112735f835f6115b8565b90506001600160a01b0381166105e757604051637e27328960e01b81526004810183905260240161070d565b6006546001600160a01b031633146109305760405163118cdaa760e01b815233600482015260240161070d565b600680546001600160a01b038381166001600160a01b0319831681179093556040519116919082907f8be0079c531659141344cd1fd0a4f28419497f9722a3daafe3b4186f6b6457e0905f90a35050565b6001600160a01b0383166113465760405163a9fbf51f60e01b81525f600482015260240161070d565b6001600160a01b03821661137857604051630b61174360e31b81526001600160a01b038316600482015260240161070d565b6001600160a01b038381165f81815260056020908152604080832094871680845294825291829020805460ff191686151590811790915591519182527f17307eab39ab6107e8899845ad3d59bd9653f200f220920489ca2b5937696c31910160405180910390a3505050565b6105e7828260405180602001604052805f8152506116d9565b6114088484846106a8565b610d7933858585856116ec565b6060600c805461053490611d14565b60605f61143083611814565b60010190505f8167ffffffffffffffff81111561144f5761144f611bfa565b6040519080825280601f01601f191660200182016040528015611479576020820181803683370190505b5090508181016020015b5f19016f181899199a1a9b1b9c1cb0b131b232b360811b600a86061a8153600a850494508461148357509392505050565b80806114c857506001600160a01b03821615155b15611589575f6114d784610fe7565b90506001600160a01b038316158015906115035750826001600160a01b0316816001600160a01b031614155b801561151657506115148184610e70565b155b1561153f5760405163a9fbf51f60e01b81526001600160a01b038416600482015260240161070d565b81156115875783856001600160a01b0316826001600160a01b03167f8c5be1e5ebec7d5bd14f71427d1e84f3dd0314c0f7b2291e5b200ac8c7c3b92560405160405180910390a45b505b50505f90815260046020526040902080546001600160a01b0319166001600160a01b0392909216919091179055565b5f828152600260205260408120546001600160a01b03908116908316156115e4576115e48184866118eb565b6001600160a01b0381161561161e576115ff5f855f806114b4565b6001600160a01b0381165f90815260036020526040902080545f190190555b6001600160a01b0385161561164c576001600160a01b0385165f908152600360205260409020805460010190555b5f8481526002602052604080822080546001600160a01b0319166001600160a01b0389811691821790925591518793918516917fddf252ad1be2c89b69c2b068fc378daa952ba7f163c4a11628f55a4df523b3ef91a4949350505050565b5f80516020611fa18339815191525460020361093057604051633ee5aeb560e01b815260040160405180910390fd5b6116e3838361194f565b610721335f8585855b6001600160a01b0383163b1561180d57604051630a85bd0160e11b81526001600160a01b0384169063150b7a029061172e908890889087908790600401611f49565b6020604051808303815f875af1925050508015611768575060408051601f3d908101601f1916820190925261176591810190611f85565b60015b6117cf573d808015611795576040519150601f19603f3d011682016040523d82523d5f602084013e61179a565b606091505b5080515f036117c757604051633250574960e11b81526001600160a01b038516600482015260240161070d565b805160208201fd5b6001600160e01b03198116630a85bd0160e11b1461180b57604051633250574960e11b81526001600160a01b038516600482015260240161070d565b505b5050505050565b5f8072184f03e93ff9f4daa797ed6e38ed64bf6a1f0160401b83106118525772184f03e93ff9f4daa797ed6e38ed64bf6a1f0160401b830492506040015b6d04ee2d6d415b85acef8100000000831061187e576d04ee2d6d415b85acef8100000000830492506020015b662386f26fc10000831061189c57662386f26fc10000830492506010015b6305f5e10083106118b4576305f5e100830492506008015b61271083106118c857612710830492506004015b606483106118da576064830492506002015b600a83106105205760010192915050565b6118f68383836119b0565b610721576001600160a01b03831661192457604051637e27328960e01b81526004810182905260240161070d565b60405163177e802f60e01b81526001600160a01b03831660048201526024810182905260440161070d565b6001600160a01b03821661197857604051633250574960e11b81525f600482015260240161070d565b5f61198483835f6115b8565b90506001600160a01b03811615610721576040516339e3563760e11b81525f600482015260240161070d565b5f6001600160a01b038316158015906106495750826001600160a01b0316846001600160a01b031614806119e957506119e98484610e70565b806106495750505f908152600460205260409020546001600160a01b03908116911614919050565b6001600160e01b031981168114610d01575f80fd5b5f60208284031215611a36575f80fd5b8135610ddd81611a11565b5f5b83811015611a5b578181015183820152602001611a43565b50505f910152565b5f8151808452611a7a816020860160208601611a41565b601f01601f19169290920160200192915050565b602081525f610ddd6020830184611a63565b5f60208284031215611ab0575f80fd5b5035919050565b80356001600160a01b0381168114611acd575f80fd5b919050565b5f8060408385031215611ae3575f80fd5b611aec83611ab7565b946020939093013593505050565b5f60208284031215611b0a575f80fd5b610ddd82611ab7565b5f805f60608486031215611b25575f80fd5b611b2e84611ab7565b9250611b3c60208501611ab7565b9150604084013590509250925092565b8015158114610d01575f80fd5b5f8060408385031215611b6a575f80fd5b611b7383611ab7565b91506020830135611b8381611b4c565b809150509250929050565b5f8060208385031215611b9f575f80fd5b823567ffffffffffffffff80821115611bb6575f80fd5b818501915085601f830112611bc9575f80fd5b813581811115611bd7575f80fd5b866020828501011115611be8575f80fd5b60209290920196919550909350505050565b634e487b7160e01b5f52604160045260245ffd5b5f805f8060808587031215611c21575f80fd5b611c2a85611ab7565b9350611c3860208601611ab7565b925060408501359150606085013567ffffffffffffffff80821115611c5b575f80fd5b818701915087601f830112611c6e575f80fd5b813581811115611c8057611c80611bfa565b604051601f8201601f19908116603f01168101908382118183101715611ca857611ca8611bfa565b816040528281528a6020848701011115611cc0575f80fd5b826020860160208301375f60208483010152809550505050505092959194509250565b5f8060408385031215611cf4575f80fd5b611cfd83611ab7565b9150611d0b60208401611ab7565b90509250929050565b600181811c90821680611d2857607f821691505b602082108103611d4657634e487b7160e01b5f52602260045260245ffd5b50919050565b634e487b7160e01b5f52601160045260245ffd5b8181038181111561052057610520611d4c565b808202811582820484141761052057610520611d4c565b5f82611da457634e487b7160e01b5f52601260045260245ffd5b500490565b8082018082111561052057610520611d4c565b5f60208284031215611dcc575f80fd5b8151610ddd81611b4c565b601f82111561072157805f5260205f20601f840160051c81016020851015611dfc5750805b601f840160051c820191505b8181101561180d575f8155600101611e08565b67ffffffffffffffff831115611e3357611e33611bfa565b611e4783611e418354611d14565b83611dd7565b5f601f841160018114611e78575f8515611e615750838201355b5f19600387901b1c1916600186901b17835561180d565b5f83815260208120601f198716915b82811015611ea75786850135825560209485019460019092019101611e87565b5086821015611ec3575f1960f88860031b161c19848701351681555b505060018560011b0183555050505050565b60208152816020820152818360408301375f818301604090810191909152601f909201601f19160101919050565b5f60018201611f1457611f14611d4c565b5060010190565b5f8351611f2c818460208801611a41565b835190830190611f40818360208801611a41565b01949350505050565b6001600160a01b03858116825284166020820152604081018390526080606082018190525f90611f7b90830184611a63565b9695505050505050565b5f60208284031215611f95575f80fd5b8151610ddd81611a1156fe9b779b17422d0df92223018b32b4d1fa46e071723d6817e2486d003becc55f00a26469706673582212201542afba010e6575d05d12bef481414f4126b8dd26aac65b99bcebcb62b2de6b64736f6c63430008180033","linkReferences":{}},"methodIdentifiers":{"LOCK_PERIOD()":"1820cabb","approve(address,uint256)":"095ea7b3","balanceOf(address)":"70a08231","baseTokenURI()":"d547cfb7","claimRevenue()":"564f4f76","clawToken()":"c790fb67","feeNotifiers(address)":"98bd6818","getApproved(uint256)":"081812fc","isApprovedForAll(address,address)":"e985e9c5","lockRemaining(address)":"2139f1d4","name()":"06fdde03","nextPassId()":"45f93f50","notifyFee(uint256)":"fd5773a9","owner()":"8da5cb5b","ownerOf(uint256)":"6352211e","pendingRevenue(address)":"20b6b2fc","positions(address)":"55f57510","renounceOwnership()":"715018a6","revenuePerShareAccumulated()":"714c595a","revenueToken()":"556e4e68","safeTransferFrom(address,address,uint256)":"42842e0e","safeTransferFrom(address,address,uint256,bytes)":"b88d4fde","setApprovalForAll(address,bool)":"a22cb465","setBaseURI(string)":"55f804b3","setFeeNotifier(address,bool)":"47444049","stake(uint256)":"a694fc3a","supportsInterface(bytes4)":"01ffc9a7","symbol()":"95d89b41","tokenURI(uint256)":"c87b56dd","totalStaked()":"817b1cd2","transferFrom(address,address,uint256)":"23b872dd","transferOwnership(address)":"f2fde38b","unstake()":"2def6620"},"id":3}