{"abi":[{"type":"constructor","inputs":[{"name":"_clawToken","type":"address","internalType":"address"},{"name":"_revenueToken","type":"address","internalType":"address"},{"name":"_owner","type":"address","internalType":"address"}],"stateMutability":"nonpayable"},{"type":"function","name":"LOCK_PERIOD","inputs":[],"outputs":[{"name":"","type":"uint256","internalType":"uint256"}],"stateMutability":"view"},{"type":"function","name":"approve","inputs":[{"name":"","type":"address","internalType":"address"},{"name":"","type":"uint256","internalType":"uint256"}],"outputs":[],"stateMutability":"nonpayable"},{"type":"function","name":"balanceOf","inputs":[{"name":"owner","type":"address","internalType":"address"}],"outputs":[{"name":"","type":"uint256","internalType":"uint256"}],"stateMutability":"view"},{"type":"function","name":"baseTokenURI","inputs":[],"outputs":[{"name":"","type":"string","internalType":"string"}],"stateMutability":"view"},{"type":"function","name":"claimRevenue","inputs":[],"outputs":[],"stateMutability":"nonpayable"},{"type":"function","name":"clawToken","inputs":[],"outputs":[{"name":"","type":"address","internalType":"contract IERC20"}],"stateMutability":"view"},{"type":"function","name":"feeNotifiers","inputs":[{"name":"","type":"address","internalType":"address"}],"outputs":[{"name":"","type":"bool","internalType":"bool"}],"stateMutability":"view"},{"type":"function","name":"getApproved","inputs":[{"name":"tokenId","type":"uint256","internalType":"uint256"}],"outputs":[{"name":"","type":"address","internalType":"address"}],"stateMutability":"view"},{"type":"function","name":"isApprovedForAll","inputs":[{"name":"owner","type":"address","internalType":"address"},{"name":"operator","type":"address","internalType":"address"}],"outputs":[{"name":"","type":"bool","internalType":"bool"}],"stateMutability":"view"},{"type":"function","name":"lockRemaining","inputs":[{"name":"staker","type":"address","internalType":"address"}],"outputs":[{"name":"","type":"uint256","internalType":"uint256"}],"stateMutability":"view"},{"type":"function","name":"name","inputs":[],"outputs":[{"name":"","type":"string","internalType":"string"}],"stateMutability":"view"},{"type":"function","name":"nextPassId","inputs":[],"outputs":[{"name":"","type":"uint256","internalType":"uint256"}],"stateMutability":"view"},{"type":"function","name":"notifyFee","inputs":[{"name":"amount","type":"uint256","internalType":"uint256"}],"outputs":[],"stateMutability":"nonpayable"},{"type":"function","name":"owner","inputs":[],"outputs":[{"name":"","type":"address","internalType":"address"}],"stateMutability":"view"},{"type":"function","name":"ownerOf","inputs":[{"name":"tokenId","type":"uint256","internalType":"uint256"}],"outputs":[{"name":"","type":"address","internalType":"address"}],"stateMutability":"view"},{"type":"function","name":"pendingRevenue","inputs":[{"name":"staker","type":"address","internalType":"address"}],"outputs":[{"name":"","type":"uint256","internalType":"uint256"}],"stateMutability":"view"},{"type":"function","name":"positions","inputs":[{"name":"","type":"address","internalType":"address"}],"outputs":[{"name":"staked","type":"uint256","internalType":"uint256"},{"name":"stakedAt","type":"uint256","internalType":"uint256"},{"name":"rewardDebt","type":"uint256","internalType":"uint256"},{"name":"passId","type":"uint256","internalType":"uint256"},{"name":"hasPass","type":"bool","internalType":"bool"}],"stateMutability":"view"},{"type":"function","name":"renounceOwnership","inputs":[],"outputs":[],"stateMutability":"nonpayable"},{"type":"function","name":"revenuePerShareAccumulated","inputs":[],"outputs":[{"name":"","type":"uint256","internalType":"uint256"}],"stateMutability":"view"},{"type":"function","name":"revenueToken","inputs":[],"outputs":[{"name":"","type":"address","internalType":"contract IERC20"}],"stateMutability":"view"},{"type":"function","name":"safeTransferFrom","inputs":[{"name":"from","type":"address","internalType":"address"},{"name":"to","type":"address","internalType":"address"},{"name":"tokenId","type":"uint256","internalType":"uint256"}],"outputs":[],"stateMutability":"nonpayable"},{"type":"function","name":"safeTransferFrom","inputs":[{"name":"from","type":"address","internalType":"address"},{"name":"to","type":"address","internalType":"address"},{"name":"tokenId","type":"uint256","internalType":"uint256"},{"name":"data","type":"bytes","internalType":"bytes"}],"outputs":[],"stateMutability":"nonpayable"},{"type":"function","name":"setApprovalForAll","inputs":[{"name":"","type":"address","internalType":"address"},{"name":"","type":"bool","internalType":"bool"}],"outputs":[],"stateMutability":"nonpayable"},{"type":"function","name":"setBaseURI","inputs":[{"name":"uri","type":"string","internalType":"string"}],"outputs":[],"stateMutability":"nonpayable"},{"type":"function","name":"setFeeNotifier","inputs":[{"name":"notifier","type":"address","internalType":"address"},{"name":"enabled","type":"bool","internalType":"bool"}],"outputs":[],"stateMutability":"nonpayable"},{"type":"function","name":"stake","inputs":[{"name":"amount","type":"uint256","internalType":"uint256"}],"outputs":[],"stateMutability":"nonpayable"},{"type":"function","name":"supportsInterface","inputs":[{"name":"interfaceId","type":"bytes4","internalType":"bytes4"}],"outputs":[{"name":"","type":"bool","internalType":"bool"}],"stateMutability":"view"},{"type":"function","name":"symbol","inputs":[],"outputs":[{"name":"","type":"string","internalType":"string"}],"stateMutability":"view"},{"type":"function","name":"tokenURI","inputs":[{"name":"tokenId","type":"uint256","internalType":"uint256"}],"outputs":[{"name":"","type":"string","internalType":"string"}],"stateMutability":"view"},{"type":"function","name":"totalStaked","inputs":[],"outputs":[{"name":"","type":"uint256","internalType":"uint256"}],"stateMutability":"view"},{"type":"function","name":"transferFrom","inputs":[{"name":"from","type":"address","internalType":"address"},{"name":"to","type":"address","internalType":"address"},{"name":"tokenId","type":"uint256","internalType":"uint256"}],"outputs":[],"stateMutability":"nonpayable"},{"type":"function","name":"transferOwnership","inputs":[{"name":"newOwner","type":"address","internalType":"address"}],"outputs":[],"stateMutability":"nonpayable"},{"type":"function","name":"unallocatedFees","inputs":[],"outputs":[{"name":"","type":"uint256","internalType":"uint256"}],"stateMutability":"view"},{"type":"function","name":"unstake","inputs":[],"outputs":[],"stateMutability":"nonpayable"},{"type":"function","name":"withdrawUnallocatedFees","inputs":[{"name":"to","type":"address","internalType":"address"}],"outputs":[],"stateMutability":"nonpayable"},{"type":"event","name":"Approval","inputs":[{"name":"owner","type":"address","indexed":true,"internalType":"address"},{"name":"approved","type":"address","indexed":true,"internalType":"address"},{"name":"tokenId","type":"uint256","indexed":true,"internalType":"uint256"}],"anonymous":false},{"type":"event","name":"ApprovalForAll","inputs":[{"name":"owner","type":"address","indexed":true,"internalType":"address"},{"name":"operator","type":"address","indexed":true,"internalType":"address"},{"name":"approved","type":"bool","indexed":false,"internalType":"bool"}],"anonymous":false},{"type":"event","name":"BaseURIUpdated","inputs":[{"name":"newURI","type":"string","indexed":false,"internalType":"string"}],"anonymous":false},{"type":"event","name":"FeeNotified","inputs":[{"name":"notifier","type":"address","indexed":true,"internalType":"address"},{"name":"amount","type":"uint256","indexed":false,"internalType":"uint256"}],"anonymous":false},{"type":"event","name":"FeeNotifierSet","inputs":[{"name":"notifier","type":"address","indexed":true,"internalType":"address"},{"name":"enabled","type":"bool","indexed":false,"internalType":"bool"}],"anonymous":false},{"type":"event","name":"OwnershipTransferred","inputs":[{"name":"previousOwner","type":"address","indexed":true,"internalType":"address"},{"name":"newOwner","type":"address","indexed":true,"internalType":"address"}],"anonymous":false},{"type":"event","name":"RevenueClaimed","inputs":[{"name":"staker","type":"address","indexed":true,"internalType":"address"},{"name":"amount","type":"uint256","indexed":false,"internalType":"uint256"}],"anonymous":false},{"type":"event","name":"Staked","inputs":[{"name":"staker","type":"address","indexed":true,"internalType":"address"},{"name":"amount","type":"uint256","indexed":false,"internalType":"uint256"},{"name":"totalStaked","type":"uint256","indexed":false,"internalType":"uint256"}],"anonymous":false},{"type":"event","name":"Transfer","inputs":[{"name":"from","type":"address","indexed":true,"internalType":"address"},{"name":"to","type":"address","indexed":true,"internalType":"address"},{"name":"tokenId","type":"uint256","indexed":true,"internalType":"uint256"}],"anonymous":false},{"type":"event","name":"Unstaked","inputs":[{"name":"staker","type":"address","indexed":true,"internalType":"address"},{"name":"amount","type":"uint256","indexed":false,"internalType":"uint256"}],"anonymous":false},{"type":"error","name":"ERC721IncorrectOwner","inputs":[{"name":"sender","type":"address","internalType":"address"},{"name":"tokenId","type":"uint256","internalType":"uint256"},{"name":"owner","type":"address","internalType":"address"}]},{"type":"error","name":"ERC721InsufficientApproval","inputs":[{"name":"operator","type":"address","internalType":"address"},{"name":"tokenId","type":"uint256","internalType":"uint256"}]},{"type":"error","name":"ERC721InvalidApprover","inputs":[{"name":"approver","type":"address","internalType":"address"}]},{"type":"error","name":"ERC721InvalidOperator","inputs":[{"name":"operator","type":"address","internalType":"address"}]},{"type":"error","name":"ERC721InvalidOwner","inputs":[{"name":"owner","type":"address","internalType":"address"}]},{"type":"error","name":"ERC721InvalidReceiver","inputs":[{"name":"receiver","type":"address","internalType":"address"}]},{"type":"error","name":"ERC721InvalidSender","inputs":[{"name":"sender","type":"address","internalType":"address"}]},{"type":"error","name":"ERC721NonexistentToken","inputs":[{"name":"tokenId","type":"uint256","internalType":"uint256"}]},{"type":"error","name":"OwnableInvalidOwner","inputs":[{"name":"owner","type":"address","internalType":"address"}]},{"type":"error","name":"OwnableUnauthorizedAccount","inputs":[{"name":"account","type":"address","internalType":"address"}]},{"type":"error","name":"ReentrancyGuardReentrantCall","inputs":[]}],"bytecode":{"object":"0x60c034620003fe576001600160401b0390601f90601f196200245338819003848101831684019190868311858410176200032057808592606094604052833981010312620003fe57620000528262000422565b936020916200007160406200006985870162000422565b950162000422565b946200007c62000402565b936008855267436c61775061737360c01b818601526200009b62000402565b906008825267434c41575041535360c01b81830152855185811162000320575f546001978882811c92168015620003f3575b8483101462000301578186849311620003a0575b50839086831160011462000340575f9262000334575b50505f19600383901b1c191690871b175f555b815194851162000320578554938685811c9516801562000315575b8286101462000301578484879611620002a8575b5081938511600114620002445750505f9262000238575b50505f19600383901b1c191690821b1781555b6001600160a01b039283169384156200022057600680546001600160a01b0319811687179091556040519585939184167f8be0079c531659141344cd1fd0a4f28419497f9722a3daafe3b4186f6b6457e05f80a3807f9b779b17422d0df92223018b32b4d1fa46e071723d6817e2486d003becc55f0055600c55166080521660a05261201b90816200043882396080518181816104e001528181610603015261120d015260a051818181610a28015281816110220152611eb00152f35b604051631e4fbdf760e01b81525f6004820152602490fd5b015190505f8062000150565b86959392919316855f52835f20935f905b8282106200028e575050841162000275575b505050811b01815562000163565b01515f1960f88460031b161c191690555f808062000267565b848401518655889790950194938401939081019062000255565b909192939450865f52825f208580880160051c820192858910620002f7575b9188978a9297969594930160051c01915b828110620002e857505062000139565b5f8155889750899101620002d8565b92508192620002c7565b634e487b7160e01b5f52602260045260245ffd5b94607f169462000125565b634e487b7160e01b5f52604160045260245ffd5b015190505f80620000f7565b90878a9416915f8052855f20925f5b8782821062000389575050841162000370575b505050811b015f556200010a565b01515f1960f88460031b161c191690555f808062000362565b8385015186558d979095019493840193016200034f565b9091505f8052835f208680850160051c820192868610620003e9575b918b91869594930160051c01915b828110620003da575050620000e1565b5f81558594508b9101620003ca565b92508192620003bc565b91607f1691620000cd565b5f80fd5b60408051919082016001600160401b038111838210176200032057604052565b51906001600160a01b0382168203620003fe5756fe608060409080825260049182361015610016575f80fd5b5f3560e01c91826301ffc9a7146114fa5750816306fdde031461144e578163081812fc14611415578163095ea7b3146113e35781631820cabb146113c757816320b6b2fc146113a35781632139f1d41461137857816323b872dd146113615781632def6620146110fe57816342842e0e146110d757816345f93f50146110ba5781634744404914611051578163556e4e681461100f57816355f5751014610fa957816355f804b314610dac578163564f4f7614610d625781636352211e14610d3257816370a0823114610cdd578163714c595a14610cc0578163715018a614610c65578163817b1cd214610c485781638da5cb5b14610c215781638fe9cb3014610c0457816395d89b4114610b3157816398bd681814610af65781639aa06298146109ac578163a22cb4651461097f578163a694fc3a14610594578163b88d4fde1461050f578163c790fb67146104cd578163c87b56dd146102cc578163d547cfb714610299578163e985e9c51461024c578163f2fde38b146101c3575063fd5773a9146101a2575f80fd5b346101bf5760203660031901126101bf576101bd9035611c9c565b005b5f80fd5b82346101bf5760203660031901126101bf576101dd6115aa565b906101e6611f99565b6001600160a01b03918216928315610236575050600654826001600160601b0360a01b821617600655167f8be0079c531659141344cd1fd0a4f28419497f9722a3daafe3b4186f6b6457e05f80a3005b905f6024925191631e4fbdf760e01b8352820152fd5b346101bf57806003193601126101bf576020906102676115aa565b61026f6115c0565b9060018060a01b038091165f5260058452825f2091165f52825260ff815f20541690519015158152f35b346101bf575f3660031901126101bf576102c8906102b56116e0565b9051918291602083526020830190611585565b0390f35b82346101bf57602090816003193601126101bf57808291356102ed81611db1565b506102f66116e0565b8051909290156104b2575f919081907a184f03e93ff9f4daa797ed6e38ed64bf6a1f01000000000000000082818110156104a5575b5050856d04ee2d6d415b85acef810000000080841015610497575b5050662386f26fc1000080831015610488575b506305f5e10080831015610479575b506127108083101561046d575b5050606481101561045f575b600a80911015610455575b6001808401928160216103b66103a18761168c565b966103ae8d51988961166a565b80885261168c565b868a019790601f1901368937860101905b610420575b50505050926104039261040f926102c895885195836103f48895518092888089019101611564565b84019151809386840190611564565b0103808452018261166a565b925b51928284938452830190611585565b5f19019083906f181899199a1a9b1b9c1cb0b131b232b360811b8282061a835304918215610450579190826103c7565b6103cc565b916001019161038c565b606460029104920191610381565b93019290048780610375565b60089194920491019288610368565b60109194920491019288610359565b940193909104908589610346565b899550049150888061032b565b505050506102c882516104c48161163a565b5f815292610411565b346101bf575f3660031901126101bf57517f00000000000000000000000000000000000000000000000000000000000000006001600160a01b03168152602090f35b9050346101bf5760803660031901126101bf5761052a6115aa565b6105326115c0565b6064359367ffffffffffffffff85116101bf57366023860112156101bf5784013561056861055f8261168c565b9451948561166a565b80845236602482870101116101bf576020815f9260246101bd9801838801378501015260443591611b30565b9050346101bf57602090816003193601126101bf578235916105b4611deb565b821561094c57335f52600a8152815f20936105ce33611e1a565b82516323b872dd60e01b81523382820152306024808301919091526044820186905295906001600160a01b039084816064815f7f000000000000000000000000000000000000000000000000000000000000000087165af1908115610942579061063f915f91610915575b50611af2565b61064a86835461185d565b8255426001830155600854600283015561066686600b5461185d565b600b558282019160ff835416156106be575b867f1449c6dd7851abc30abf37f57715f492010519147cc2652fbc38202c18a6ee908787600b549082519485528401523392a260015f80516020611fc683398151915255005b600c54925f1991828514610903576003859160018301600c550155600160ff198254161790558551916106f08361163a565b5f835233156108ee578390815f5260028752875f20541680151592836108c2575b50335f5260038752875f2060018154019055815f5260028752875f20336001600160601b0360a01b82541617905533907fddf252ad1be2c89b69c2b068fc378daa952ba7f163c4a11628f55a4df523b3ef5f80a46108ad57333b610776575b80610678565b836107b091869794975180938192630a85bd0160e11b96878452338c8501525f8d8501526044840152608060648401526084830190611585565b03815f335af15f918161086d575b50610817575050503d5f1461080f573d906107d88261168c565b916107e58451938461166a565b82523d5f8284013e5b8151918261080c575050505190633250574960e11b82523390820152fd5b01fd5b6060906107ee565b9194916001600160e01b0319160361085757507f1449c6dd7851abc30abf37f57715f492010519147cc2652fbc38202c18a6ee9092935083925f80610770565b9250505190633250574960e11b82523390820152fd5b9091508481813d83116108a6575b610885818361166a565b810103126101bf57516001600160e01b0319811681036101bf57905f6107be565b503d61087b565b84516339e3563760e11b81525f818501528790fd5b868852885f206001600160601b0360a01b8154169055815f5260038852885f209081540190555f610711565b8651633250574960e11b81525f818701528990fd5b89601187634e487b7160e01b5f52525ffd5b6109359150863d881161093b575b61092d818361166a565b810190611ada565b5f610639565b503d610923565b86513d5f823e3d90fd5b8390606492519162461bcd60e51b8352820152600e60248201526d043616e6e6f74207374616b6520360941b6044820152fd5b82346101bf576109a8916109923661160b565b50505162461bcd60e51b815291829182016117a3565b0390fd5b82346101bf57602090816003193601126101bf576109c86115aa565b6109d0611f99565b6001600160a01b039080821615610ac457600954928315610a8b575f6009819055865163a9059cbb60e01b81526001600160a01b039390931691830191825260208201949094529092849284928390036040019183917f0000000000000000000000000000000000000000000000000000000000000000165af1918215610a81576101bd93505f92610a64575b5050611af2565b610a7a9250803d1061093b5761092d818361166a565b8280610a5d565b83513d5f823e3d90fd5b855162461bcd60e51b815290810185905260136024820152724e6f20756e616c6c6f6361746564206665657360681b6044820152606490fd5b845162461bcd60e51b8152808401859052600c60248201526b5a65726f206164647265737360a01b6044820152606490fd5b346101bf5760203660031901126101bf576020906001600160a01b03610b1a6115aa565b165f526007825260ff815f20541690519015158152f35b346101bf575f3660031901126101bf578051905f908260019260015493610b57856116a8565b90818452602095866001821691825f14610be2575050600114610b87575b50506102c8929161041191038561166a565b9085925060015f527fb10e2d527612073b26eecdfd717e6a320cf44b4afac2b0732d9fcbe2b7fa0cf6915f925b828410610bca5750505082010181610411610b75565b8054848a018601528895508794909301928101610bb4565b60ff19168682015292151560051b850190920192508391506104119050610b75565b346101bf575f3660031901126101bf576020906009549051908152f35b346101bf575f3660031901126101bf5760065490516001600160a01b039091168152602090f35b346101bf575f3660031901126101bf57602090600b549051908152f35b346101bf575f3660031901126101bf57610c7d611f99565b600680546001600160a01b031981169091555f906001600160a01b03167f8be0079c531659141344cd1fd0a4f28419497f9722a3daafe3b4186f6b6457e08280a3005b346101bf575f3660031901126101bf576020906008549051908152f35b9050346101bf5760203660031901126101bf576001600160a01b03610d006115aa565b168015610d1c57602092505f5260038252805f20549051908152f35b81516322718ad960e21b81525f81850152602490fd5b9050346101bf5760203660031901126101bf57610d5160209235611db1565b90516001600160a01b039091168152f35b346101bf575f3660031901126101bf57610d9090610d7e611deb565b335f52600a6020525f20541515611a9d565b610d9933611e1a565b60015f80516020611fc683398151915255005b82346101bf57602091826003193601126101bf5781359267ffffffffffffffff928385116101bf57366023860112156101bf578401359283116101bf5760249336602485830101116101bf57610e00611f99565b610e0b600d546116a8565b601f8111610f47575b505f94601f8511600114610e9957508360248192827f6741b2fc379fad678116fe3d4d4b9a1a184ab53ba36b86ad0fa66340b1ab41ad985f91610e8c575b508360011b905f198560031b1c191617600d555b855196858896875286015201848401375f828201840152601f01601f19168101030190a1005b8391508201013589610e52565b94601f198516600d5f527fd7b6990105719101dabeb77144f2a3385c8033acd3af97e9423a695e81ad1eb5965f905b828210610f2c57505085927f6741b2fc379fad678116fe3d4d4b9a1a184ab53ba36b86ad0fa66340b1ab41ad9784938460249410610f11575b5050600183811b01600d55610e66565b82018301355f19600386901b60f8161c191690558880610f01565b84840181013589556001909801979285019290850190610ec8565b600d5f527fd7b6990105719101dabeb77144f2a3385c8033acd3af97e9423a695e81ad1eb5601f860160051c810191848710610f9f575b601f0160051c01905b818110610f945750610e14565b5f8155600101610f87565b9091508190610f7e565b82346101bf5760203660031901126101bf5760a0916001600160a01b03610fce6115aa565b165f52600a602052805f2080549260018201549260ff6002840154926003850154940154169381519586526020860152840152606083015215156080820152f35b346101bf575f3660031901126101bf57517f00000000000000000000000000000000000000000000000000000000000000006001600160a01b03168152602090f35b346101bf577f1e77e39b331d87619955b13d6b386efa8de48879580a072975c0fdfd38e77c9b60206110823661160b565b9061108b611f99565b6001600160a01b03165f81815260078452859020805460ff191692151560ff81169390931790559351908152a2005b346101bf575f3660031901126101bf57602090600c549051908152f35b346101bf576101bd906110e9366115d6565b919251926110f68461163a565b5f8452611b30565b82346101bf575f3660031901126101bf57611117611deb565b335f526020600a8152825f209161113083541515611a9d565b600183015462278d00810180911161134e57421061131e5761115133611e1a565b8254925f60038201838154938381550160ff1981541690555561117684600b546117db565b600b555f81815260028452858120546001600160a01b039291908316801591839183156112f4575b8282526002885289822080546001600160a01b03191690557fddf252ad1be2c89b69c2b068fc378daa952ba7f163c4a11628f55a4df523b3ef8280a46112de5750845163a9059cbb60e01b815233838201908152602081018690529091849183919082905f90829060400103927f0000000000000000000000000000000000000000000000000000000000000000165af19081156112d4575f916112b7575b501561128157507f0f5bb82176feb1b5e747e28471aa92156a04d9f3ab9f45f28e2d704232b93f759192519283523392a260015f80516020611fc683398151915255005b60649184519162461bcd60e51b8352820152601260248201527110d31055c81c995d1d5c9b8819985a5b195960721b6044820152fd5b6112ce9150833d851161093b5761092d818361166a565b8561123d565b85513d5f823e3d90fd5b82602491875191637e27328960e01b8352820152fd5b86885289822080546001600160a01b0319169055808252600388528982208054831901905561119e565b60649184519162461bcd60e51b8352820152600c60248201526b14dd1a5b1b081b1bd8dad95960a21b6044820152fd5b601182634e487b7160e01b5f525260245ffd5b346101bf576101bd611372366115d6565b916118d3565b346101bf5760203660031901126101bf5760209061139c6113976115aa565b61186a565b9051908152f35b346101bf5760203660031901126101bf5760209061139c6113c26115aa565b61180f565b346101bf575f3660031901126101bf576020905162278d008152f35b82346101bf57816003193601126101bf576109a8916114006115aa565b505162461bcd60e51b815291829182016117a3565b9050346101bf5760203660031901126101bf57816020923561143681611db1565b505f52825260018060a01b03815f2054169051908152f35b346101bf575f3660031901126101bf578051905f90825f5492611470846116a8565b808352602094600190866001821691825f14610be25750506001146114a15750506102c8929161041191038561166a565b5f80805286935091907f290decd9548b62a8d60345a988386fc84ba6bc95484008f6362f93160ef3e5635b8284106114e25750505082010181610411610b75565b8054848a0186015288955087949093019281016114cc565b83346101bf5760203660031901126101bf57359063ffffffff60e01b82168092036101bf576020916380ac58cd60e01b8114908115611553575b8115611542575b5015158152f35b6301ffc9a760e01b1490508361153b565b635b5e139f60e01b81149150611534565b5f5b8381106115755750505f910152565b8181015183820152602001611566565b9060209161159e81518092818552858086019101611564565b601f01601f1916010190565b600435906001600160a01b03821682036101bf57565b602435906001600160a01b03821682036101bf57565b60609060031901126101bf576001600160a01b039060043582811681036101bf579160243590811681036101bf579060443590565b60409060031901126101bf576004356001600160a01b03811681036101bf579060243580151581036101bf5790565b6020810190811067ffffffffffffffff82111761165657604052565b634e487b7160e01b5f52604160045260245ffd5b90601f8019910116810190811067ffffffffffffffff82111761165657604052565b67ffffffffffffffff811161165657601f01601f191660200190565b90600182811c921680156116d6575b60208310146116c257565b634e487b7160e01b5f52602260045260245ffd5b91607f16916116b7565b604051905f82600d54916116f3836116a8565b8083529260209060019081811690811561177f5750600114611720575b505061171e9250038361166a565b565b915092600d5f527fd7b6990105719101dabeb77144f2a3385c8033acd3af97e9423a695e81ad1eb5935f925b828410611767575061171e9450505081016020015f80611710565b8554888501830152948501948794509281019261174c565b9150506020925061171e94915060ff191682840152151560051b8201015f80611710565b60609060208152601a60208201527f436c6177506173733a206e6f6e2d7472616e7366657261626c6500000000000060408201520190565b919082039182116117e857565b634e487b7160e01b5f52601160045260245ffd5b818102929181159184041417156117e857565b6001600160a01b03165f908152600a60205260409020805490811561185757670de0b6b3a76400009161184d611853926002600854910154906117db565b906117fc565b0490565b50505f90565b919082018092116117e857565b6001600160a01b03165f908152600a602052604090208054156118ae576001015462278d0081018091116117e857804210156118ae576118ab9042906117db565b90565b505f90565b156118ba57565b60405162461bcd60e51b8152806109a8600482016117a3565b6001600160a01b03908116929091829084158015611a93575b6118f5906118b3565b168015611a7b57815f52816020916002835260409285845f2054169533151590816119d2575b5050600290866119a3575b825f5260038152845f2060018154019055835f5252825f20816001600160601b0360a01b825416179055847fddf252ad1be2c89b69c2b068fc378daa952ba7f163c4a11628f55a4df523b3ef5f80a48383036119825750505050565b6064945051926364283d7b60e01b8452600484015260248301526044820152fd5b5f8481526004825285812080546001600160a01b03191690558781526003825285902080545f19019055611926565b929350909181611a2c575b50156119ed579083915f8061191b565b505091155f14611a0d576024915190637e27328960e01b82526004820152fd5b905163177e802f60e01b81523360048201526024810191909152604490fd5b33871491508115611a5d575b8115611a46575b505f6119dd565b9050845f52600482523390845f205416145f611a3f565b9050855f5260058252835f20335f52825260ff845f20541690611a38565b604051633250574960e11b81525f6004820152602490fd5b50808216156118ec565b15611aa457565b60405162461bcd60e51b815260206004820152600e60248201526d139bdd1a1a5b99c81cdd185ad95960921b6044820152606490fd5b908160209103126101bf575180151581036101bf5790565b15611af957565b60405162461bcd60e51b815260206004820152600f60248201526e151c985b9cd9995c8819985a5b1959608a1b6044820152606490fd5b6001600160a01b0380821693929091611b5e908490839087158015611c92575b611b59906118b3565b6118d3565b803b611b6c575b5050505050565b90611bae95939291169360405191630a85bd0160e11b938484523360048501526024840152604483015260806064830152818060209788936084830190611585565b03815f885af15f9181611c52575b50611c1b575050503d5f14611c13573d91611bd68361168c565b92611be4604051948561166a565b83523d5f8285013e5b82519283611c0e57604051633250574960e11b815260048101849052602490fd5b019050fd5b606091611bed565b9193506001600160e01b031990911603611c3a57505f80808080611b65565b60249060405190633250574960e11b82526004820152fd5b9091508581813d8311611c8b575b611c6a818361166a565b810103126101bf57516001600160e01b0319811681036101bf57905f611bbc565b503d611c60565b5081861615611b50565b335f52600760205260ff60405f20541615611d6c578015611d3c57600b54908115611d2a57600954611ccd9161185d565b905f600955670de0b6b3a7640000908183029183830414831517156117e857611cf9910460085461185d565b6008556040519081527f38f4be18d784b9c75c2b344863114132dfb056ef5da8d5a73439ab48ce3c5a8960203392a2565b611d37915060095461185d565b600955565b60405162461bcd60e51b81526020600482015260086024820152675a65726f2066656560c01b6044820152606490fd5b60405162461bcd60e51b815260206004820152601b60248201527f4e6f7420617574686f726973656420666565206e6f74696669657200000000006044820152606490fd5b5f818152600260205260409020546001600160a01b0316908115611dd3575090565b60249060405190637e27328960e01b82526004820152fd5b5f80516020611fc68339815191526002815414611e085760029055565b604051633ee5aeb560e01b8152600490fd5b6001600160a01b038181165f818152600a60209081526040909120805492949193908315611f91576002600854910193611e558554836117db565b908115611f8757670de0b6b3a764000091611e6f916117fc565b04935582611e7e575050505050565b60405163a9059cbb60e01b81526001600160a01b03929092166004830152602482018390528390829060449082905f907f0000000000000000000000000000000000000000000000000000000000000000165af1908115611f7c575f91611f5f575b5015611f1a57907fc15f451120b13b6b40c6ad6203614ab3088308bef9150c0d6f46ea79bf46422491604051908152a25f80808080611b65565b60405162461bcd60e51b815260048101839052601760248201527f526576656e7565207472616e73666572206661696c65640000000000000000006044820152606490fd5b611f769150833d851161093b5761092d818361166a565b5f611ee0565b6040513d5f823e3d90fd5b5050505050505050565b505050505050565b6006546001600160a01b03163303611fad57565b60405163118cdaa760e01b8152336004820152602490fdfe9b779b17422d0df92223018b32b4d1fa46e071723d6817e2486d003becc55f00a2646970667358221220127a0daa1466ff9583e061c812a62c9158db35b641f0578cca58eddc5ce04fd364736f6c63430008180033","linkReferences":{}},"methodIdentifiers":{"LOCK_PERIOD()":"1820cabb","approve(address,uint256)":"095ea7b3","balanceOf(address)":"70a08231","baseTokenURI()":"d547cfb7","claimRevenue()":"564f4f76","clawToken()":"c790fb67","feeNotifiers(address)":"98bd6818","getApproved(uint256)":"081812fc","isApprovedForAll(address,address)":"e985e9c5","lockRemaining(address)":"2139f1d4","name()":"06fdde03","nextPassId()":"45f93f50","notifyFee(uint256)":"fd5773a9","owner()":"8da5cb5b","ownerOf(uint256)":"6352211e","pendingRevenue(address)":"20b6b2fc","positions(address)":"55f57510","renounceOwnership()":"715018a6","revenuePerShareAccumulated()":"714c595a","revenueToken()":"556e4e68","safeTransferFrom(address,address,uint256)":"42842e0e","safeTransferFrom(address,address,uint256,bytes)":"b88d4fde","setApprovalForAll(address,bool)":"a22cb465","setBaseURI(string)":"55f804b3","setFeeNotifier(address,bool)":"47444049","stake(uint256)":"a694fc3a","supportsInterface(bytes4)":"01ffc9a7","symbol()":"95d89b41","tokenURI(uint256)":"c87b56dd","totalStaked()":"817b1cd2","transferFrom(address,address,uint256)":"23b872dd","transferOwnership(address)":"f2fde38b","unallocatedFees()":"8fe9cb30","unstake()":"2def6620","withdrawUnallocatedFees(address)":"9aa06298"},"id":3}