{"abi":[{"type":"constructor","inputs":[],"stateMutability":"nonpayable"},{"type":"function","name":"DEFAULT_ADMIN_ROLE","inputs":[],"outputs":[{"name":"","type":"bytes32","internalType":"bytes32"}],"stateMutability":"view"},{"type":"function","name":"MINTER_ROLE","inputs":[],"outputs":[{"name":"","type":"bytes32","internalType":"bytes32"}],"stateMutability":"view"},{"type":"function","name":"UPGRADE_INTERFACE_VERSION","inputs":[],"outputs":[{"name":"","type":"string","internalType":"string"}],"stateMutability":"view"},{"type":"function","name":"approve","inputs":[{"name":"to","type":"address","internalType":"address"},{"name":"tokenId","type":"uint256","internalType":"uint256"}],"outputs":[],"stateMutability":"nonpayable"},{"type":"function","name":"balanceOf","inputs":[{"name":"owner","type":"address","internalType":"address"}],"outputs":[{"name":"","type":"uint256","internalType":"uint256"}],"stateMutability":"view"},{"type":"function","name":"depositBundle","inputs":[{"name":"erc20Tokens","type":"address[]","internalType":"address[]"},{"name":"erc20Amounts","type":"uint256[]","internalType":"uint256[]"},{"name":"erc721Contracts","type":"address[]","internalType":"address[]"},{"name":"erc721Ids","type":"uint256[]","internalType":"uint256[]"},{"name":"metadataURI","type":"string","internalType":"string"}],"outputs":[{"name":"","type":"uint256","internalType":"uint256"}],"stateMutability":"nonpayable"},{"type":"function","name":"getApproved","inputs":[{"name":"tokenId","type":"uint256","internalType":"uint256"}],"outputs":[{"name":"","type":"address","internalType":"address"}],"stateMutability":"view"},{"type":"function","name":"getBundleContent","inputs":[{"name":"tokenId","type":"uint256","internalType":"uint256"}],"outputs":[{"name":"erc20Tokens","type":"address[]","internalType":"address[]"},{"name":"erc20Amounts","type":"uint256[]","internalType":"uint256[]"},{"name":"erc721Contracts","type":"address[]","internalType":"address[]"},{"name":"erc721Ids","type":"uint256[]","internalType":"uint256[]"}],"stateMutability":"view"},{"type":"function","name":"getRoleAdmin","inputs":[{"name":"role","type":"bytes32","internalType":"bytes32"}],"outputs":[{"name":"","type":"bytes32","internalType":"bytes32"}],"stateMutability":"view"},{"type":"function","name":"grantRole","inputs":[{"name":"role","type":"bytes32","internalType":"bytes32"},{"name":"account","type":"address","internalType":"address"}],"outputs":[],"stateMutability":"nonpayable"},{"type":"function","name":"hasRole","inputs":[{"name":"role","type":"bytes32","internalType":"bytes32"},{"name":"account","type":"address","internalType":"address"}],"outputs":[{"name":"","type":"bool","internalType":"bool"}],"stateMutability":"view"},{"type":"function","name":"initialize","inputs":[{"name":"name","type":"string","internalType":"string"},{"name":"symbol","type":"string","internalType":"string"}],"outputs":[],"stateMutability":"nonpayable"},{"type":"function","name":"isApprovedForAll","inputs":[{"name":"owner","type":"address","internalType":"address"},{"name":"operator","type":"address","internalType":"address"}],"outputs":[{"name":"","type":"bool","internalType":"bool"}],"stateMutability":"view"},{"type":"function","name":"name","inputs":[],"outputs":[{"name":"","type":"string","internalType":"string"}],"stateMutability":"view"},{"type":"function","name":"ownerOf","inputs":[{"name":"tokenId","type":"uint256","internalType":"uint256"}],"outputs":[{"name":"","type":"address","internalType":"address"}],"stateMutability":"view"},{"type":"function","name":"proxiableUUID","inputs":[],"outputs":[{"name":"","type":"bytes32","internalType":"bytes32"}],"stateMutability":"view"},{"type":"function","name":"renounceRole","inputs":[{"name":"role","type":"bytes32","internalType":"bytes32"},{"name":"callerConfirmation","type":"address","internalType":"address"}],"outputs":[],"stateMutability":"nonpayable"},{"type":"function","name":"revokeRole","inputs":[{"name":"role","type":"bytes32","internalType":"bytes32"},{"name":"account","type":"address","internalType":"address"}],"outputs":[],"stateMutability":"nonpayable"},{"type":"function","name":"safeTransferFrom","inputs":[{"name":"from","type":"address","internalType":"address"},{"name":"to","type":"address","internalType":"address"},{"name":"tokenId","type":"uint256","internalType":"uint256"}],"outputs":[],"stateMutability":"nonpayable"},{"type":"function","name":"safeTransferFrom","inputs":[{"name":"from","type":"address","internalType":"address"},{"name":"to","type":"address","internalType":"address"},{"name":"tokenId","type":"uint256","internalType":"uint256"},{"name":"data","type":"bytes","internalType":"bytes"}],"outputs":[],"stateMutability":"nonpayable"},{"type":"function","name":"setApprovalForAll","inputs":[{"name":"operator","type":"address","internalType":"address"},{"name":"approved","type":"bool","internalType":"bool"}],"outputs":[],"stateMutability":"nonpayable"},{"type":"function","name":"supportsInterface","inputs":[{"name":"interfaceId","type":"bytes4","internalType":"bytes4"}],"outputs":[{"name":"","type":"bool","internalType":"bool"}],"stateMutability":"view"},{"type":"function","name":"symbol","inputs":[],"outputs":[{"name":"","type":"string","internalType":"string"}],"stateMutability":"view"},{"type":"function","name":"tokenURI","inputs":[{"name":"tokenId","type":"uint256","internalType":"uint256"}],"outputs":[{"name":"","type":"string","internalType":"string"}],"stateMutability":"view"},{"type":"function","name":"transferFrom","inputs":[{"name":"from","type":"address","internalType":"address"},{"name":"to","type":"address","internalType":"address"},{"name":"tokenId","type":"uint256","internalType":"uint256"}],"outputs":[],"stateMutability":"nonpayable"},{"type":"function","name":"upgradeToAndCall","inputs":[{"name":"newImplementation","type":"address","internalType":"address"},{"name":"data","type":"bytes","internalType":"bytes"}],"outputs":[],"stateMutability":"payable"},{"type":"function","name":"withdrawBundle","inputs":[{"name":"tokenId","type":"uint256","internalType":"uint256"}],"outputs":[],"stateMutability":"nonpayable"},{"type":"event","name":"Approval","inputs":[{"name":"owner","type":"address","indexed":true,"internalType":"address"},{"name":"approved","type":"address","indexed":true,"internalType":"address"},{"name":"tokenId","type":"uint256","indexed":true,"internalType":"uint256"}],"anonymous":false},{"type":"event","name":"ApprovalForAll","inputs":[{"name":"owner","type":"address","indexed":true,"internalType":"address"},{"name":"operator","type":"address","indexed":true,"internalType":"address"},{"name":"approved","type":"bool","indexed":false,"internalType":"bool"}],"anonymous":false},{"type":"event","name":"BatchMetadataUpdate","inputs":[{"name":"_fromTokenId","type":"uint256","indexed":false,"internalType":"uint256"},{"name":"_toTokenId","type":"uint256","indexed":false,"internalType":"uint256"}],"anonymous":false},{"type":"event","name":"BundleDeposited","inputs":[{"name":"tokenId","type":"uint256","indexed":true,"internalType":"uint256"},{"name":"owner","type":"address","indexed":true,"internalType":"address"}],"anonymous":false},{"type":"event","name":"BundleWithdrawn","inputs":[{"name":"tokenId","type":"uint256","indexed":true,"internalType":"uint256"},{"name":"to","type":"address","indexed":true,"internalType":"address"}],"anonymous":false},{"type":"event","name":"Initialized","inputs":[{"name":"version","type":"uint64","indexed":false,"internalType":"uint64"}],"anonymous":false},{"type":"event","name":"MetadataUpdate","inputs":[{"name":"_tokenId","type":"uint256","indexed":false,"internalType":"uint256"}],"anonymous":false},{"type":"event","name":"RoleAdminChanged","inputs":[{"name":"role","type":"bytes32","indexed":true,"internalType":"bytes32"},{"name":"previousAdminRole","type":"bytes32","indexed":true,"internalType":"bytes32"},{"name":"newAdminRole","type":"bytes32","indexed":true,"internalType":"bytes32"}],"anonymous":false},{"type":"event","name":"RoleGranted","inputs":[{"name":"role","type":"bytes32","indexed":true,"internalType":"bytes32"},{"name":"account","type":"address","indexed":true,"internalType":"address"},{"name":"sender","type":"address","indexed":true,"internalType":"address"}],"anonymous":false},{"type":"event","name":"RoleRevoked","inputs":[{"name":"role","type":"bytes32","indexed":true,"internalType":"bytes32"},{"name":"account","type":"address","indexed":true,"internalType":"address"},{"name":"sender","type":"address","indexed":true,"internalType":"address"}],"anonymous":false},{"type":"event","name":"Transfer","inputs":[{"name":"from","type":"address","indexed":true,"internalType":"address"},{"name":"to","type":"address","indexed":true,"internalType":"address"},{"name":"tokenId","type":"uint256","indexed":true,"internalType":"uint256"}],"anonymous":false},{"type":"event","name":"Upgraded","inputs":[{"name":"implementation","type":"address","indexed":true,"internalType":"address"}],"anonymous":false},{"type":"error","name":"AccessControlBadConfirmation","inputs":[]},{"type":"error","name":"AccessControlUnauthorizedAccount","inputs":[{"name":"account","type":"address","internalType":"address"},{"name":"neededRole","type":"bytes32","internalType":"bytes32"}]},{"type":"error","name":"AddressEmptyCode","inputs":[{"name":"target","type":"address","internalType":"address"}]},{"type":"error","name":"ERC1967InvalidImplementation","inputs":[{"name":"implementation","type":"address","internalType":"address"}]},{"type":"error","name":"ERC1967NonPayable","inputs":[]},{"type":"error","name":"ERC721IncorrectOwner","inputs":[{"name":"sender","type":"address","internalType":"address"},{"name":"tokenId","type":"uint256","internalType":"uint256"},{"name":"owner","type":"address","internalType":"address"}]},{"type":"error","name":"ERC721InsufficientApproval","inputs":[{"name":"operator","type":"address","internalType":"address"},{"name":"tokenId","type":"uint256","internalType":"uint256"}]},{"type":"error","name":"ERC721InvalidApprover","inputs":[{"name":"approver","type":"address","internalType":"address"}]},{"type":"error","name":"ERC721InvalidOperator","inputs":[{"name":"operator","type":"address","internalType":"address"}]},{"type":"error","name":"ERC721InvalidOwner","inputs":[{"name":"owner","type":"address","internalType":"address"}]},{"type":"error","name":"ERC721InvalidReceiver","inputs":[{"name":"receiver","type":"address","internalType":"address"}]},{"type":"error","name":"ERC721InvalidSender","inputs":[{"name":"sender","type":"address","internalType":"address"}]},{"type":"error","name":"ERC721NonexistentToken","inputs":[{"name":"tokenId","type":"uint256","internalType":"uint256"}]},{"type":"error","name":"FailedCall","inputs":[]},{"type":"error","name":"InvalidInitialization","inputs":[]},{"type":"error","name":"NotInitializing","inputs":[]},{"type":"error","name":"UUPSUnauthorizedCallContext","inputs":[]},{"type":"error","name":"UUPSUnsupportedProxiableUUID","inputs":[{"name":"slot","type":"bytes32","internalType":"bytes32"}]}],"bytecode":{"object":"0x60a06040523060805234801562000014575f80fd5b506200001f62000025565b620000d9565b7ff0c57e16840df040f15088dc2f81fe391c3923bec73e23a9662efc9c229c6a00805468010000000000000000900460ff1615620000765760405163f92ee8a960e01b815260040160405180910390fd5b80546001600160401b0390811614620000d65780546001600160401b0319166001600160401b0390811782556040519081527fc7f505b2f371ae2175ee4913f4499e1f2633a7b5936321eed1cdaeb6115181d29060200160405180910390a15b50565b608051612b4f620001005f395f81816115510152818161157a01526116bb0152612b4f5ff3fe608060405260043610610195575f3560e01c80636e9fb8a5116100e7578063ad3cb1cc11610087578063d539139311610062578063d539139314610494578063d547741f146104c7578063e985e9c5146104e6578063f008852d14610505575f80fd5b8063ad3cb1cc14610426578063b88d4fde14610456578063c87b56dd14610475575f80fd5b806391d14854116100c257806391d14854146103c157806395d89b41146103e0578063a217fddf146103f4578063a22cb46514610407575f80fd5b80636e9fb8a51461035457806370a08231146103835780638dd946ef146103a2575f80fd5b80632f2ff15d116101525780634cd88b761161012d5780634cd88b76146102ef5780634f1ef2861461030e57806352d1902d146103215780636352211e14610335575f80fd5b80632f2ff15d1461029257806336568abe146102b157806342842e0e146102d0575f80fd5b806301ffc9a71461019957806306fdde03146101cd578063081812fc146101ee578063095ea7b31461022557806323b872dd14610246578063248a9ca314610265575b5f80fd5b3480156101a4575f80fd5b506101b86101b3366004612301565b610524565b60405190151581526020015b60405180910390f35b3480156101d8575f80fd5b506101e1610534565b6040516101c49190612369565b3480156101f9575f80fd5b5061020d61020836600461237b565b6105d5565b6040516001600160a01b0390911681526020016101c4565b348015610230575f80fd5b5061024461023f3660046123ad565b6105e9565b005b348015610251575f80fd5b506102446102603660046123d5565b6105f8565b348015610270575f80fd5b5061028461027f36600461237b565b610686565b6040519081526020016101c4565b34801561029d575f80fd5b506102446102ac36600461240e565b6106a6565b3480156102bc575f80fd5b506102446102cb36600461240e565b6106c2565b3480156102db575f80fd5b506102446102ea3660046123d5565b6106fa565b3480156102fa575f80fd5b506102446103093660046124d5565b610714565b61024461031c366004612535565b610855565b34801561032c575f80fd5b50610284610870565b348015610340575f80fd5b5061020d61034f36600461237b565b61088b565b34801561035f575f80fd5b5061037361036e36600461237b565b610895565b6040516101c494939291906125e8565b34801561038e575f80fd5b5061028461039d36600461263f565b610a22565b3480156103ad575f80fd5b506102846103bc3660046126de565b610a7a565b3480156103cc575f80fd5b506101b86103db36600461240e565b610ea2565b3480156103eb575f80fd5b506101e1610ed8565b3480156103ff575f80fd5b506102845f81565b348015610412575f80fd5b506102446104213660046127d1565b610f16565b348015610431575f80fd5b506101e1604051806040016040528060058152602001640352e302e360dc1b81525081565b348015610461575f80fd5b50610244610470366004612806565b610f21565b348015610480575f80fd5b506101e161048f36600461237b565b610f39565b34801561049f575f80fd5b506102847f9f2df0fed2c77648de5860a4cc508cd0818c85b8b8a1ab4ceeef8d981c8956a681565b3480156104d2575f80fd5b506102446104e136600461240e565b610f44565b3480156104f1575f80fd5b506101b861050036600461286a565b610f60565b348015610510575f80fd5b5061024461051f36600461237b565b610fac565b5f61052e82611231565b92915050565b5f80516020612aba833981519152805460609190819061055390612892565b80601f016020809104026020016040519081016040528092919081815260200182805461057f90612892565b80156105ca5780601f106105a1576101008083540402835291602001916105ca565b820191905f5260205f20905b8154815290600101906020018083116105ad57829003601f168201915b505050505091505090565b5f6105df82611255565b5061052e8261128c565b6105f48282336112c5565b5050565b6001600160a01b03821661062657604051633250574960e11b81525f60048201526024015b60405180910390fd5b5f6106328383336112d2565b9050836001600160a01b0316816001600160a01b031614610680576040516364283d7b60e01b81526001600160a01b038086166004830152602482018490528216604482015260640161061d565b50505050565b5f9081525f80516020612afa833981519152602052604090206001015490565b6106af82610686565b6106b8816113d4565b61068083836113e1565b6001600160a01b03811633146106eb5760405163334bd91960e11b815260040160405180910390fd5b6106f58282611489565b505050565b6106f583838360405180602001604052805f815250610f21565b5f61071d611502565b805490915060ff600160401b820416159067ffffffffffffffff165f811580156107445750825b90505f8267ffffffffffffffff1660011480156107605750303b155b90508115801561076e575080155b1561078c5760405163f92ee8a960e01b815260040160405180910390fd5b845467ffffffffffffffff1916600117855583156107b657845460ff60401b1916600160401b1785555b6107c0878761152a565b6107c861153c565b6107d061153c565b6107da5f336113e1565b506108057f9f2df0fed2c77648de5860a4cc508cd0818c85b8b8a1ab4ceeef8d981c8956a6336113e1565b50831561084c57845460ff60401b19168555604051600181527fc7f505b2f371ae2175ee4913f4499e1f2633a7b5936321eed1cdaeb6115181d29060200160405180910390a15b50505050505050565b61085d611546565b610866826115ea565b6105f482826115f4565b5f6108796116b0565b505f80516020612ada83398151915290565b5f61052e82611255565b6060806060805f60015f8781526020019081526020015f209050805f018160010182600201836003018380548060200260200160405190810160405280929190818152602001828054801561091157602002820191905f5260205f20905b81546001600160a01b031681526001909101906020018083116108f3575b505050505093508280548060200260200160405190810160405280929190818152602001828054801561096157602002820191905f5260205f20905b81548152602001906001019080831161094d575b50505050509250818054806020026020016040519081016040528092919081815260200182805480156109bb57602002820191905f5260205f20905b81546001600160a01b0316815260019091019060200180831161099d575b5050505050915080805480602002602001604051908101604052809291908181526020018280548015610a0b57602002820191905f5260205f20905b8154815260200190600101908083116109f7575b505050505090509450945094509450509193509193565b5f5f80516020612aba8339815191526001600160a01b038316610a5a576040516322718ad960e21b81525f600482015260240161061d565b6001600160a01b039092165f908152600390920160205250604090205490565b5f898814610ac25760405162461bcd60e51b815260206004820152601560248201527408aa486646040d8cadccee8d040dad2e6dac2e8c6d605b1b604482015260640161061d565b858414610b0a5760405162461bcd60e51b815260206004820152601660248201527508aa4866e646240d8cadccee8d040dad2e6dac2e8c6d60531b604482015260640161061d565b5f80548180610b18836128ca565b9190505590505f5b8b811015610bf7578c8c82818110610b3a57610b3a6128ee565b9050602002016020810190610b4f919061263f565b6001600160a01b03166323b872dd33308e8e86818110610b7157610b716128ee565b6040516001600160e01b031960e088901b1681526001600160a01b039586166004820152949093166024850152506020909102013560448201526064016020604051808303815f875af1158015610bca573d5f803e3d5ffd5b505050506040513d601f19601f82011682018060405250810190610bee9190612902565b50600101610b20565b505f5b87811015610cc157888882818110610c1457610c146128ee565b9050602002016020810190610c29919061263f565b6001600160a01b03166323b872dd33308a8a86818110610c4b57610c4b6128ee565b6040516001600160e01b031960e088901b1681526001600160a01b039586166004820152949093166024850152506020909102013560448201526064015f604051808303815f87803b158015610c9f575f80fd5b505af1158015610cb1573d5f803e3d5ffd5b505060019092019150610bfa9050565b50610ccc33826116f9565b610d0b8185858080601f0160208091040260200160405190810160405280939291908181526020018383808284375f9201919091525061171292505050565b60405180608001604052808d8d808060200260200160405190810160405280939291908181526020018383602002808284375f920191909152505050908252506040805160208d810282810182019093528d82529283019290918e918e9182918501908490808284375f920191909152505050908252506040805160208b810282810182019093528b82529283019290918c918c9182918501908490808284375f9201919091525050509082525060408051602089810282810182019093528982529283019290918a918a9182918501908490808284375f92018290525093909452505083815260016020908152604090912083518051919350610e13928492910190612225565b506020828101518051610e2c9260018501920190612288565b5060408201518051610e48916002840191602090910190612225565b5060608201518051610e64916003840191602090910190612288565b505060405133915082907f046c8e6748b710b61537f326afe724e1564c33ac1fabb63ff839547772186510905f90a39b9a5050505050505050505050565b5f9182525f80516020612afa833981519152602090815260408084206001600160a01b0393909316845291905290205460ff1690565b7f80bb2b638cc20bc4d0a60d66940f3ab4a00c1d7b313497ca82fb0b4ab007930180546060915f80516020612aba8339815191529161055390612892565b6105f4338383611784565b610f2c8484846105f8565b610680338585858561185c565b606061052e82611984565b610f4d82610686565b610f56816113d4565b6106808383611489565b6001600160a01b039182165f9081527f80bb2b638cc20bc4d0a60d66940f3ab4a00c1d7b313497ca82fb0b4ab00793056020908152604080832093909416825291909152205460ff1690565b33610fb68261088b565b6001600160a01b031614610ff85760405162461bcd60e51b81526020600482015260096024820152682737ba1037bbb732b960b91b604482015260640161061d565b5f818152600160205260408120905b81548110156110d957815f018181548110611024576110246128ee565b5f918252602090912001546001830180546001600160a01b039092169163a9059cbb91339185908110611059576110596128ee565b5f918252602090912001546040516001600160e01b031960e085901b1681526001600160a01b03909216600483015260248201526044016020604051808303815f875af11580156110ac573d5f803e3d5ffd5b505050506040513d601f19601f820116820180604052508101906110d09190612902565b50600101611007565b505f5b60028201548110156111b6578160020181815481106110fd576110fd6128ee565b905f5260205f20015f9054906101000a90046001600160a01b03166001600160a01b03166323b872dd303385600301858154811061113d5761113d6128ee565b5f918252602090912001546040516001600160e01b031960e086901b1681526001600160a01b03938416600482015292909116602483015260448201526064015f604051808303815f87803b158015611194575f80fd5b505af11580156111a6573d5f803e3d5ffd5b5050600190920191506110dc9050565b506111c082611a05565b5f828152600160205260408120906111d882826122c1565b6111e5600183015f6122c1565b6111f2600283015f6122c1565b6111ff600383015f6122c1565b5050604051339083907f1390246249aa526c71095d63ebf29c1a09e99806099505de416330643826897b905f90a35050565b5f6001600160e01b03198216632483248360e11b148061052e575061052e82611a3d565b5f8061126083611a7c565b90506001600160a01b03811661052e57604051637e27328960e01b81526004810184905260240161061d565b5f9081527f80bb2b638cc20bc4d0a60d66940f3ab4a00c1d7b313497ca82fb0b4ab007930460205260409020546001600160a01b031690565b6106f58383836001611ab5565b5f5f80516020612aba833981519152816112eb85611a7c565b90506001600160a01b0384161561130757611307818587611bc8565b6001600160a01b03811615611343576113225f865f80611ab5565b6001600160a01b0381165f908152600383016020526040902080545f190190555b6001600160a01b03861615611373576001600160a01b0386165f9081526003830160205260409020805460010190555b5f85815260028301602052604080822080546001600160a01b0319166001600160a01b038a811691821790925591518893918516917fddf252ad1be2c89b69c2b068fc378daa952ba7f163c4a11628f55a4df523b3ef91a495945050505050565b6113de8133611c2c565b50565b5f5f80516020612afa8339815191526113fa8484610ea2565b611479575f848152602082815260408083206001600160a01b03871684529091529020805460ff1916600117905561142f3390565b6001600160a01b0316836001600160a01b0316857f2f8788117e7eff1d82e926ec794901d17c78024a50270940304540a733656f0d60405160405180910390a4600191505061052e565b5f91505061052e565b5092915050565b5f5f80516020612afa8339815191526114a28484610ea2565b15611479575f848152602082815260408083206001600160a01b0387168085529252808320805460ff1916905551339287917ff6391f5c32d9c69d2a47ea670b442974b53935d1edc7fd64eb21e047a839171b9190a4600191505061052e565b5f807ff0c57e16840df040f15088dc2f81fe391c3923bec73e23a9662efc9c229c6a0061052e565b611532611c65565b6105f48282611c8a565b611544611c65565b565b306001600160a01b037f00000000000000000000000000000000000000000000000000000000000000001614806115cc57507f00000000000000000000000000000000000000000000000000000000000000006001600160a01b03166115c05f80516020612ada833981519152546001600160a01b031690565b6001600160a01b031614155b156115445760405163703e46dd60e11b815260040160405180910390fd5b5f6105f4816113d4565b816001600160a01b03166352d1902d6040518163ffffffff1660e01b8152600401602060405180830381865afa92505050801561164e575060408051601f3d908101601f1916820190925261164b9181019061291d565b60015b61167657604051634c9c8ce360e01b81526001600160a01b038316600482015260240161061d565b5f80516020612ada83398151915281146116a657604051632a87526960e21b81526004810182905260240161061d565b6106f58383611cba565b306001600160a01b037f000000000000000000000000000000000000000000000000000000000000000016146115445760405163703e46dd60e11b815260040160405180910390fd5b6105f4828260405180602001604052805f815250611d0f565b5f8281527f0542a41881ee128a365a727b282c86fa859579490b9bb45aab8503648c8e79006020819052604090912061174b8382612978565b506040518381527ff8e1a15aba9398e019f0b49df1a4fde98ee17ae345cb5f6b5e2c27f5033e8ce79060200160405180910390a1505050565b5f80516020612aba8339815191526001600160a01b0384166117bb5760405163a9fbf51f60e01b81525f600482015260240161061d565b6001600160a01b0383166117ed57604051630b61174360e31b81526001600160a01b038416600482015260240161061d565b6001600160a01b038481165f818152600584016020908152604080832094881680845294825291829020805460ff191687151590811790915591519182527f17307eab39ab6107e8899845ad3d59bd9653f200f220920489ca2b5937696c31910160405180910390a350505050565b6001600160a01b0383163b1561197d57604051630a85bd0160e11b81526001600160a01b0384169063150b7a029061189e908890889087908790600401612a34565b6020604051808303815f875af19250505080156118d8575060408051601f3d908101601f191682019092526118d591810190612a70565b60015b61193f573d808015611905576040519150601f19603f3d011682016040523d82523d5f602084013e61190a565b606091505b5080515f0361193757604051633250574960e11b81526001600160a01b038516600482015260240161061d565b805160208201fd5b6001600160e01b03198116630a85bd0160e11b1461197b57604051633250574960e11b81526001600160a01b038516600482015260240161061d565b505b5050505050565b606061198f82611255565b505f6119a560408051602081019091525f815290565b90505f6119b184611d26565b905081515f036119c2579392505050565b8051156119f45781816040516020016119dc929190612a8b565b60405160208183030381529060405292505050919050565b6119fd84611de9565b949350505050565b5f611a115f835f6112d2565b90506001600160a01b0381166105f457604051637e27328960e01b81526004810183905260240161061d565b5f6001600160e01b031982166380ac58cd60e01b1480611a6d57506001600160e01b03198216635b5e139f60e01b145b8061052e575061052e82611e5a565b5f9081527f80bb2b638cc20bc4d0a60d66940f3ab4a00c1d7b313497ca82fb0b4ab007930260205260409020546001600160a01b031690565b5f80516020612aba8339815191528180611ad757506001600160a01b03831615155b15611b98575f611ae685611255565b90506001600160a01b03841615801590611b125750836001600160a01b0316816001600160a01b031614155b8015611b255750611b238185610f60565b155b15611b4e5760405163a9fbf51f60e01b81526001600160a01b038516600482015260240161061d565b8215611b965784866001600160a01b0316826001600160a01b03167f8c5be1e5ebec7d5bd14f71427d1e84f3dd0314c0f7b2291e5b200ac8c7c3b92560405160405180910390a45b505b5f93845260040160205250506040902080546001600160a01b0319166001600160a01b0392909216919091179055565b611bd3838383611e8e565b6106f5576001600160a01b038316611c0157604051637e27328960e01b81526004810182905260240161061d565b60405163177e802f60e01b81526001600160a01b03831660048201526024810182905260440161061d565b611c368282610ea2565b6105f45760405163e2517d3f60e01b81526001600160a01b03821660048201526024810183905260440161061d565b611c6d611ef2565b61154457604051631afcd79f60e31b815260040160405180910390fd5b611c92611c65565b5f80516020612aba83398151915280611cab8482612978565b50600181016106808382612978565b611cc382611f0b565b6040516001600160a01b038316907fbc7cd75a20ee27fd9adebab32041f755214dbc6bffa90cc0225b39da2e5c2d3b905f90a2805115611d07576106f58282611f6e565b6105f4612007565b611d198383612026565b6106f5335f85858561185c565b5f8181527f0542a41881ee128a365a727b282c86fa859579490b9bb45aab8503648c8e79006020819052604090912080546060929190611d6590612892565b80601f0160208091040260200160405190810160405280929190818152602001828054611d9190612892565b8015611ddc5780601f10611db357610100808354040283529160200191611ddc565b820191905f5260205f20905b815481529060010190602001808311611dbf57829003601f168201915b5050505050915050919050565b6060611df482611255565b505f611e0a60408051602081019091525f815290565b90505f815111611e285760405180602001604052805f815250611e53565b80611e3284612087565b604051602001611e43929190612a8b565b6040516020818303038152906040525b9392505050565b5f6001600160e01b03198216637965db0b60e01b148061052e57506301ffc9a760e01b6001600160e01b031983161461052e565b5f6001600160a01b038316158015906119fd5750826001600160a01b0316846001600160a01b03161480611ec75750611ec78484610f60565b806119fd5750826001600160a01b0316611ee08361128c565b6001600160a01b031614949350505050565b5f611efb611502565b54600160401b900460ff16919050565b806001600160a01b03163b5f03611f4057604051634c9c8ce360e01b81526001600160a01b038216600482015260240161061d565b5f80516020612ada83398151915280546001600160a01b0319166001600160a01b0392909216919091179055565b60605f611f7b8484612117565b9050808015611f9c57505f3d1180611f9c57505f846001600160a01b03163b115b15611fb157611fa961212a565b91505061052e565b8015611fdb57604051639996b31560e01b81526001600160a01b038516600482015260240161061d565b3d15611fee57611fe9612143565b611482565b60405163d6bda27560e01b815260040160405180910390fd5b34156115445760405163b398979f60e01b815260040160405180910390fd5b6001600160a01b03821661204f57604051633250574960e11b81525f600482015260240161061d565b5f61205b83835f6112d2565b90506001600160a01b038116156106f5576040516339e3563760e11b81525f600482015260240161061d565b60605f6120938361214e565b60010190505f8167ffffffffffffffff8111156120b2576120b2612438565b6040519080825280601f01601f1916602001820160405280156120dc576020820181803683370190505b5090508181016020015b5f19016f181899199a1a9b1b9c1cb0b131b232b360811b600a86061a8153600a85049450846120e657509392505050565b5f805f835160208501865af49392505050565b6040513d81523d5f602083013e3d602001810160405290565b6040513d5f823e3d81fd5b5f8072184f03e93ff9f4daa797ed6e38ed64bf6a1f0160401b831061218c5772184f03e93ff9f4daa797ed6e38ed64bf6a1f0160401b830492506040015b6d04ee2d6d415b85acef810000000083106121b8576d04ee2d6d415b85acef8100000000830492506020015b662386f26fc1000083106121d657662386f26fc10000830492506010015b6305f5e10083106121ee576305f5e100830492506008015b612710831061220257612710830492506004015b60648310612214576064830492506002015b600a831061052e5760010192915050565b828054828255905f5260205f20908101928215612278579160200282015b8281111561227857825182546001600160a01b0319166001600160a01b03909116178255602090920191600190910190612243565b506122849291506122d8565b5090565b828054828255905f5260205f20908101928215612278579160200282015b828111156122785782518255916020019190600101906122a6565b5080545f8255905f5260205f20908101906113de91905b5b80821115612284575f81556001016122d9565b6001600160e01b0319811681146113de575f80fd5b5f60208284031215612311575f80fd5b8135611e53816122ec565b5f5b8381101561233657818101518382015260200161231e565b50505f910152565b5f815180845261235581602086016020860161231c565b601f01601f19169290920160200192915050565b602081525f611e53602083018461233e565b5f6020828403121561238b575f80fd5b5035919050565b80356001600160a01b03811681146123a8575f80fd5b919050565b5f80604083850312156123be575f80fd5b6123c783612392565b946020939093013593505050565b5f805f606084860312156123e7575f80fd5b6123f084612392565b92506123fe60208501612392565b9150604084013590509250925092565b5f806040838503121561241f575f80fd5b8235915061242f60208401612392565b90509250929050565b634e487b7160e01b5f52604160045260245ffd5b5f82601f83011261245b575f80fd5b813567ffffffffffffffff8082111561247657612476612438565b604051601f8301601f19908116603f0116810190828211818310171561249e5761249e612438565b816040528381528660208588010111156124b6575f80fd5b836020870160208301375f602085830101528094505050505092915050565b5f80604083850312156124e6575f80fd5b823567ffffffffffffffff808211156124fd575f80fd5b6125098683870161244c565b9350602085013591508082111561251e575f80fd5b5061252b8582860161244c565b9150509250929050565b5f8060408385031215612546575f80fd5b61254f83612392565b9150602083013567ffffffffffffffff81111561256a575f80fd5b61252b8582860161244c565b5f815180845260208085019450602084015f5b838110156125ae5781516001600160a01b031687529582019590820190600101612589565b509495945050505050565b5f815180845260208085019450602084015f5b838110156125ae578151875295820195908201906001016125cc565b608081525f6125fa6080830187612576565b828103602084015261260c81876125b9565b905082810360408401526126208186612576565b9050828103606084015261263481856125b9565b979650505050505050565b5f6020828403121561264f575f80fd5b611e5382612392565b5f8083601f840112612668575f80fd5b50813567ffffffffffffffff81111561267f575f80fd5b6020830191508360208260051b8501011115612699575f80fd5b9250929050565b5f8083601f8401126126b0575f80fd5b50813567ffffffffffffffff8111156126c7575f80fd5b602083019150836020828501011115612699575f80fd5b5f805f805f805f805f8060a08b8d0312156126f7575f80fd5b8a3567ffffffffffffffff8082111561270e575f80fd5b61271a8e838f01612658565b909c509a5060208d0135915080821115612732575f80fd5b61273e8e838f01612658565b909a50985060408d0135915080821115612756575f80fd5b6127628e838f01612658565b909850965060608d013591508082111561277a575f80fd5b6127868e838f01612658565b909650945060808d013591508082111561279e575f80fd5b506127ab8d828e016126a0565b915080935050809150509295989b9194979a5092959850565b80151581146113de575f80fd5b5f80604083850312156127e2575f80fd5b6127eb83612392565b915060208301356127fb816127c4565b809150509250929050565b5f805f8060808587031215612819575f80fd5b61282285612392565b935061283060208601612392565b925060408501359150606085013567ffffffffffffffff811115612852575f80fd5b61285e8782880161244c565b91505092959194509250565b5f806040838503121561287b575f80fd5b61288483612392565b915061242f60208401612392565b600181811c908216806128a657607f821691505b6020821081036128c457634e487b7160e01b5f52602260045260245ffd5b50919050565b5f600182016128e757634e487b7160e01b5f52601160045260245ffd5b5060010190565b634e487b7160e01b5f52603260045260245ffd5b5f60208284031215612912575f80fd5b8151611e53816127c4565b5f6020828403121561292d575f80fd5b5051919050565b601f8211156106f557805f5260205f20601f840160051c810160208510156129595750805b601f840160051c820191505b8181101561197d575f8155600101612965565b815167ffffffffffffffff81111561299257612992612438565b6129a6816129a08454612892565b84612934565b602080601f8311600181146129d9575f84156129c25750858301515b5f19600386901b1c1916600185901b17855561197b565b5f85815260208120601f198616915b82811015612a07578886015182559484019460019091019084016129e8565b5085821015612a2457878501515f19600388901b60f8161c191681555b5050505050600190811b01905550565b6001600160a01b03858116825284166020820152604081018390526080606082018190525f90612a669083018461233e565b9695505050505050565b5f60208284031215612a80575f80fd5b8151611e53816122ec565b5f8351612a9c81846020880161231c565b835190830190612ab081836020880161231c565b0194935050505056fe80bb2b638cc20bc4d0a60d66940f3ab4a00c1d7b313497ca82fb0b4ab0079300360894a13ba1a3210667c828492db98dca3e2076cc3735a920a3ca505d382bbc02dd7bc7dec4dceedda775e58dd541e08a116c6c53815c0bd028192f7b626800a2646970667358221220e0686135ca1cd4b11bf6d2aa346c20f27045e6940d81f74b8479470fe80a338b64736f6c63430008180033","linkReferences":{}},"methodIdentifiers":{"DEFAULT_ADMIN_ROLE()":"a217fddf","MINTER_ROLE()":"d5391393","UPGRADE_INTERFACE_VERSION()":"ad3cb1cc","approve(address,uint256)":"095ea7b3","balanceOf(address)":"70a08231","depositBundle(address[],uint256[],address[],uint256[],string)":"8dd946ef","getApproved(uint256)":"081812fc","getBundleContent(uint256)":"6e9fb8a5","getRoleAdmin(bytes32)":"248a9ca3","grantRole(bytes32,address)":"2f2ff15d","hasRole(bytes32,address)":"91d14854","initialize(string,string)":"4cd88b76","isApprovedForAll(address,address)":"e985e9c5","name()":"06fdde03","ownerOf(uint256)":"6352211e","proxiableUUID()":"52d1902d","renounceRole(bytes32,address)":"36568abe","revokeRole(bytes32,address)":"d547741f","safeTransferFrom(address,address,uint256)":"42842e0e","safeTransferFrom(address,address,uint256,bytes)":"b88d4fde","setApprovalForAll(address,bool)":"a22cb465","supportsInterface(bytes4)":"01ffc9a7","symbol()":"95d89b41","tokenURI(uint256)":"c87b56dd","transferFrom(address,address,uint256)":"23b872dd","upgradeToAndCall(address,bytes)":"4f1ef286","withdrawBundle(uint256)":"f008852d"},"id":0}