{"abi":[{"type":"constructor","inputs":[],"stateMutability":"nonpayable"},{"type":"function","name":"DEFAULT_ADMIN_ROLE","inputs":[],"outputs":[{"name":"","type":"bytes32","internalType":"bytes32"}],"stateMutability":"view"},{"type":"function","name":"MINTER_ROLE","inputs":[],"outputs":[{"name":"","type":"bytes32","internalType":"bytes32"}],"stateMutability":"view"},{"type":"function","name":"UPGRADE_INTERFACE_VERSION","inputs":[],"outputs":[{"name":"","type":"string","internalType":"string"}],"stateMutability":"view"},{"type":"function","name":"approve","inputs":[{"name":"to","type":"address","internalType":"address"},{"name":"tokenId","type":"uint256","internalType":"uint256"}],"outputs":[],"stateMutability":"nonpayable"},{"type":"function","name":"balanceOf","inputs":[{"name":"owner","type":"address","internalType":"address"}],"outputs":[{"name":"","type":"uint256","internalType":"uint256"}],"stateMutability":"view"},{"type":"function","name":"depositBundle","inputs":[{"name":"erc20Tokens","type":"address[]","internalType":"address[]"},{"name":"erc20Amounts","type":"uint256[]","internalType":"uint256[]"},{"name":"erc721Contracts","type":"address[]","internalType":"address[]"},{"name":"erc721Ids","type":"uint256[]","internalType":"uint256[]"},{"name":"metadataURI","type":"string","internalType":"string"}],"outputs":[{"name":"","type":"uint256","internalType":"uint256"}],"stateMutability":"nonpayable"},{"type":"function","name":"getApproved","inputs":[{"name":"tokenId","type":"uint256","internalType":"uint256"}],"outputs":[{"name":"","type":"address","internalType":"address"}],"stateMutability":"view"},{"type":"function","name":"getBundleContent","inputs":[{"name":"tokenId","type":"uint256","internalType":"uint256"}],"outputs":[{"name":"erc20Tokens","type":"address[]","internalType":"address[]"},{"name":"erc20Amounts","type":"uint256[]","internalType":"uint256[]"},{"name":"erc721Contracts","type":"address[]","internalType":"address[]"},{"name":"erc721Ids","type":"uint256[]","internalType":"uint256[]"}],"stateMutability":"view"},{"type":"function","name":"getRoleAdmin","inputs":[{"name":"role","type":"bytes32","internalType":"bytes32"}],"outputs":[{"name":"","type":"bytes32","internalType":"bytes32"}],"stateMutability":"view"},{"type":"function","name":"grantRole","inputs":[{"name":"role","type":"bytes32","internalType":"bytes32"},{"name":"account","type":"address","internalType":"address"}],"outputs":[],"stateMutability":"nonpayable"},{"type":"function","name":"hasRole","inputs":[{"name":"role","type":"bytes32","internalType":"bytes32"},{"name":"account","type":"address","internalType":"address"}],"outputs":[{"name":"","type":"bool","internalType":"bool"}],"stateMutability":"view"},{"type":"function","name":"initialize","inputs":[{"name":"name","type":"string","internalType":"string"},{"name":"symbol","type":"string","internalType":"string"}],"outputs":[],"stateMutability":"nonpayable"},{"type":"function","name":"isApprovedForAll","inputs":[{"name":"owner","type":"address","internalType":"address"},{"name":"operator","type":"address","internalType":"address"}],"outputs":[{"name":"","type":"bool","internalType":"bool"}],"stateMutability":"view"},{"type":"function","name":"name","inputs":[],"outputs":[{"name":"","type":"string","internalType":"string"}],"stateMutability":"view"},{"type":"function","name":"ownerOf","inputs":[{"name":"tokenId","type":"uint256","internalType":"uint256"}],"outputs":[{"name":"","type":"address","internalType":"address"}],"stateMutability":"view"},{"type":"function","name":"proxiableUUID","inputs":[],"outputs":[{"name":"","type":"bytes32","internalType":"bytes32"}],"stateMutability":"view"},{"type":"function","name":"renounceRole","inputs":[{"name":"role","type":"bytes32","internalType":"bytes32"},{"name":"callerConfirmation","type":"address","internalType":"address"}],"outputs":[],"stateMutability":"nonpayable"},{"type":"function","name":"revokeRole","inputs":[{"name":"role","type":"bytes32","internalType":"bytes32"},{"name":"account","type":"address","internalType":"address"}],"outputs":[],"stateMutability":"nonpayable"},{"type":"function","name":"safeTransferFrom","inputs":[{"name":"from","type":"address","internalType":"address"},{"name":"to","type":"address","internalType":"address"},{"name":"tokenId","type":"uint256","internalType":"uint256"}],"outputs":[],"stateMutability":"nonpayable"},{"type":"function","name":"safeTransferFrom","inputs":[{"name":"from","type":"address","internalType":"address"},{"name":"to","type":"address","internalType":"address"},{"name":"tokenId","type":"uint256","internalType":"uint256"},{"name":"data","type":"bytes","internalType":"bytes"}],"outputs":[],"stateMutability":"nonpayable"},{"type":"function","name":"setApprovalForAll","inputs":[{"name":"operator","type":"address","internalType":"address"},{"name":"approved","type":"bool","internalType":"bool"}],"outputs":[],"stateMutability":"nonpayable"},{"type":"function","name":"supportsInterface","inputs":[{"name":"interfaceId","type":"bytes4","internalType":"bytes4"}],"outputs":[{"name":"","type":"bool","internalType":"bool"}],"stateMutability":"view"},{"type":"function","name":"symbol","inputs":[],"outputs":[{"name":"","type":"string","internalType":"string"}],"stateMutability":"view"},{"type":"function","name":"tokenURI","inputs":[{"name":"tokenId","type":"uint256","internalType":"uint256"}],"outputs":[{"name":"","type":"string","internalType":"string"}],"stateMutability":"view"},{"type":"function","name":"transferFrom","inputs":[{"name":"from","type":"address","internalType":"address"},{"name":"to","type":"address","internalType":"address"},{"name":"tokenId","type":"uint256","internalType":"uint256"}],"outputs":[],"stateMutability":"nonpayable"},{"type":"function","name":"upgradeToAndCall","inputs":[{"name":"newImplementation","type":"address","internalType":"address"},{"name":"data","type":"bytes","internalType":"bytes"}],"outputs":[],"stateMutability":"payable"},{"type":"function","name":"withdrawBundle","inputs":[{"name":"tokenId","type":"uint256","internalType":"uint256"}],"outputs":[],"stateMutability":"nonpayable"},{"type":"event","name":"Approval","inputs":[{"name":"owner","type":"address","indexed":true,"internalType":"address"},{"name":"approved","type":"address","indexed":true,"internalType":"address"},{"name":"tokenId","type":"uint256","indexed":true,"internalType":"uint256"}],"anonymous":false},{"type":"event","name":"ApprovalForAll","inputs":[{"name":"owner","type":"address","indexed":true,"internalType":"address"},{"name":"operator","type":"address","indexed":true,"internalType":"address"},{"name":"approved","type":"bool","indexed":false,"internalType":"bool"}],"anonymous":false},{"type":"event","name":"BatchMetadataUpdate","inputs":[{"name":"_fromTokenId","type":"uint256","indexed":false,"internalType":"uint256"},{"name":"_toTokenId","type":"uint256","indexed":false,"internalType":"uint256"}],"anonymous":false},{"type":"event","name":"BundleDeposited","inputs":[{"name":"tokenId","type":"uint256","indexed":true,"internalType":"uint256"},{"name":"owner","type":"address","indexed":true,"internalType":"address"}],"anonymous":false},{"type":"event","name":"BundleWithdrawn","inputs":[{"name":"tokenId","type":"uint256","indexed":true,"internalType":"uint256"},{"name":"to","type":"address","indexed":true,"internalType":"address"}],"anonymous":false},{"type":"event","name":"Initialized","inputs":[{"name":"version","type":"uint64","indexed":false,"internalType":"uint64"}],"anonymous":false},{"type":"event","name":"MetadataUpdate","inputs":[{"name":"_tokenId","type":"uint256","indexed":false,"internalType":"uint256"}],"anonymous":false},{"type":"event","name":"RoleAdminChanged","inputs":[{"name":"role","type":"bytes32","indexed":true,"internalType":"bytes32"},{"name":"previousAdminRole","type":"bytes32","indexed":true,"internalType":"bytes32"},{"name":"newAdminRole","type":"bytes32","indexed":true,"internalType":"bytes32"}],"anonymous":false},{"type":"event","name":"RoleGranted","inputs":[{"name":"role","type":"bytes32","indexed":true,"internalType":"bytes32"},{"name":"account","type":"address","indexed":true,"internalType":"address"},{"name":"sender","type":"address","indexed":true,"internalType":"address"}],"anonymous":false},{"type":"event","name":"RoleRevoked","inputs":[{"name":"role","type":"bytes32","indexed":true,"internalType":"bytes32"},{"name":"account","type":"address","indexed":true,"internalType":"address"},{"name":"sender","type":"address","indexed":true,"internalType":"address"}],"anonymous":false},{"type":"event","name":"Transfer","inputs":[{"name":"from","type":"address","indexed":true,"internalType":"address"},{"name":"to","type":"address","indexed":true,"internalType":"address"},{"name":"tokenId","type":"uint256","indexed":true,"internalType":"uint256"}],"anonymous":false},{"type":"event","name":"Upgraded","inputs":[{"name":"implementation","type":"address","indexed":true,"internalType":"address"}],"anonymous":false},{"type":"error","name":"AccessControlBadConfirmation","inputs":[]},{"type":"error","name":"AccessControlUnauthorizedAccount","inputs":[{"name":"account","type":"address","internalType":"address"},{"name":"neededRole","type":"bytes32","internalType":"bytes32"}]},{"type":"error","name":"AddressEmptyCode","inputs":[{"name":"target","type":"address","internalType":"address"}]},{"type":"error","name":"ERC1967InvalidImplementation","inputs":[{"name":"implementation","type":"address","internalType":"address"}]},{"type":"error","name":"ERC1967NonPayable","inputs":[]},{"type":"error","name":"ERC721IncorrectOwner","inputs":[{"name":"sender","type":"address","internalType":"address"},{"name":"tokenId","type":"uint256","internalType":"uint256"},{"name":"owner","type":"address","internalType":"address"}]},{"type":"error","name":"ERC721InsufficientApproval","inputs":[{"name":"operator","type":"address","internalType":"address"},{"name":"tokenId","type":"uint256","internalType":"uint256"}]},{"type":"error","name":"ERC721InvalidApprover","inputs":[{"name":"approver","type":"address","internalType":"address"}]},{"type":"error","name":"ERC721InvalidOperator","inputs":[{"name":"operator","type":"address","internalType":"address"}]},{"type":"error","name":"ERC721InvalidOwner","inputs":[{"name":"owner","type":"address","internalType":"address"}]},{"type":"error","name":"ERC721InvalidReceiver","inputs":[{"name":"receiver","type":"address","internalType":"address"}]},{"type":"error","name":"ERC721InvalidSender","inputs":[{"name":"sender","type":"address","internalType":"address"}]},{"type":"error","name":"ERC721NonexistentToken","inputs":[{"name":"tokenId","type":"uint256","internalType":"uint256"}]},{"type":"error","name":"FailedCall","inputs":[]},{"type":"error","name":"InvalidInitialization","inputs":[]},{"type":"error","name":"NotInitializing","inputs":[]},{"type":"error","name":"ReentrancyGuardReentrantCall","inputs":[]},{"type":"error","name":"SafeERC20FailedOperation","inputs":[{"name":"token","type":"address","internalType":"address"}]},{"type":"error","name":"UUPSUnauthorizedCallContext","inputs":[]},{"type":"error","name":"UUPSUnsupportedProxiableUUID","inputs":[{"name":"slot","type":"bytes32","internalType":"bytes32"}]}],"bytecode":{"object":"0x60a080604052346100f0573060805260017f9b779b17422d0df92223018b32b4d1fa46e071723d6817e2486d003becc55f00557ff0c57e16840df040f15088dc2f81fe391c3923bec73e23a9662efc9c229c6a009081549060ff8260401c166100e157506001600160401b036002600160401b03198282160161009c575b6040516129e590816100f582396080518181816111f3015261129b0152f35b6001600160401b031990911681179091556040519081527fc7f505b2f371ae2175ee4913f4499e1f2633a7b5936321eed1cdaeb6115181d290602090a15f808061007d565b63f92ee8a960e01b8152600490fd5b5f80fdfe6080806040526004361015610012575f80fd5b5f3560e01c90816301ffc9a714611b805750806306fdde0314611ab7578063081812fc14611a6f578063095ea7b31461198d57806323b872dd14611976578063248a9ca31461193d5780632f2ff15d146118f457806336568abe146118ad57806342842e0e146118805780634cd88b76146114895780634f1ef2861461125d57806352d1902d146111e15780636352211e146111b15780636e9fb8a51461111857806370a08231146110c45780638dd946ef1461083457806391d14854146107df57806395d89b41146106df578063a217fddf146106c5578063a22cb46514610609578063ad3cb1cc1461059e578063b88d4fde14610544578063c87b56dd1461050d578063d5391393146104d3578063d547741f14610488578063e985e9c51461043c5763f008852d14610145575f80fd5b346103605760208060031936011261036057600435610162612563565b61016b81612272565b6001600160a01b039290339084160361040c57815f5260019283825260405f20845f818301915b610369575b5050845f91600281016003809201925b6102cc575b50505050825f52825f5f805160206129708339815191529283855260408220541680159384156102ae575b83835285526040822080546001600160a01b03191690557fddf252ad1be2c89b69c2b068fc378daa952ba7f163c4a11628f55a4df523b3ef8280a4610295578290825f525261024b600360405f2061022e81612205565b610239858201612205565b61024560028201612205565b01612205565b33907f1390246249aa526c71095d63ebf29c1a09e99806099505de416330643826897b5f80a37f9b779b17422d0df92223018b32b4d1fa46e071723d6817e2486d003becc55f0055005b604051637e27328960e01b815260048101839052602490fd5b6102b784612854565b6102c082612084565b831981540190556101d7565b805484101561036457846102e0858361225d565b905490841b1c16936102f2818561225d565b905490841b1c94803b15610360576040516323b872dd60e01b815230600482015233602482015260448101969096525f908690606490829084905af19081156103555789958692610346575b5001936101a7565b61034f90611cc6565b5f61033e565b6040513d5f823e3d90fd5b5f80fd5b6101ac565b8254811015610407578361037d828561225d565b919054600392831b1c1690610392838561225d565b9054911b1c906040519063a9059cbb60e01b5f52336004526024928352875f60448180855af18a5f51148116156103e9575b82604052156103d857505050860186610192565b635274afe760e01b82526004820152fd5b8a8115166103fe57813b15153d1516166103c4565b823d5f823e3d90fd5b610197565b6064906040519062461bcd60e51b8252600482015260096024820152682737ba1037bbb732b960b91b6044820152fd5b3461036057604036600319011261036057610455611c65565b610466610460611c7b565b916120bc565b9060018060a01b03165f52602052602060ff60405f2054166040519015158152f35b34610360576040366003190112610360576104d16004356104a7611c7b565b90805f525f805160206129508339815191526020526104cc600160405f2001546122b8565b6124e4565b005b34610360575f3660031901126103605760206040517f9f2df0fed2c77648de5860a4cc508cd0818c85b8b8a1ab4ceeef8d981c8956a68152f35b346103605760203660031901126103605761054061052c6004356126ef565b604051918291602083526020830190611c40565b0390f35b346103605760803660031901126103605761055d611c65565b610565611c7b565b90604435606435926001600160401b0384116103605761058c6104d1943690600401611d66565b92610598838383611e5b565b336125a5565b34610360575f3660031901126103605760405160408101908082106001600160401b038311176105f5576105409160405260058152640352e302e360dc1b6020820152604051918291602083526020830190611c40565b634e487b7160e01b5f52604160045260245ffd5b3461036057604036600319011261036057610622611c65565b602435908115158092036103605733156106ad576001600160a01b03169081156106945761064f336120bc565b825f5260205260405f2060ff1981541660ff83161790556040519081527f17307eab39ab6107e8899845ad3d59bd9653f200f220920489ca2b5937696c3160203392a3005b604051630b61174360e31b815260048101839052602490fd5b60405163a9fbf51f60e01b81525f6004820152602490fd5b34610360575f3660031901126103605760206040515f8152f35b34610360575f366003190112610360576040517f80bb2b638cc20bc4d0a60d66940f3ab4a00c1d7b313497ca82fb0b4ab00793018054825f61072083611e23565b92838352602094600191866001821691825f146107bd575050600114610763575b505061074f92500383611cf4565b610540604051928284938452830190611c40565b8592505f527ff4bad0a69248f59680a4f2b3000328cec71a413447c96781cfe5996daa8c456e905f915b8583106107a557505061074f93508201018580610741565b8054838901850152879450869390920191810161078d565b925093505061074f94915060ff191682840152151560051b8201018580610741565b34610360576040366003190112610360576107f8611c7b565b6004355f525f8051602061295083398151915260205260405f209060018060a01b03165f52602052602060ff60405f2054166040519015158152f35b346103605760a0366003190112610360576004356001600160401b03811161036057610864903690600401611df3565b6024356001600160401b03811161036057610883903690600401611df3565b916044356001600160401b038111610360576108a3903690600401611df3565b93906064356001600160401b038111610360576108c4903690600401611df3565b9390916001600160401b036084351161036057366023608435011215610360576001600160401b036084356004013511610360573660246084356004013560843501011161036057610914612563565b8382036110875784870361104957868201808311610ff7571561100b575f54975f198914610ff757600189015f555f5b838110610f6157505f5b888110610edd575060405161096281611cd9565b5f81523315610ec5575f8a81525f8051602061297083398151915260205260409020546001600160a01b0316801515908b9082610ea7575b6109a333612084565b60018154019055815f525f8051602061297083398151915260205260405f20336001600160601b0360a01b82541617905533907fddf252ad1be2c89b69c2b068fc378daa952ba7f163c4a11628f55a4df523b3ef5f80a4610e8f57333b610d73575b50610a1c3660843560040135602460843501611d30565b895f527f0542a41881ee128a365a727b282c86fa859579490b9bb45aab8503648c8e790060205260405f20908051906001600160401b0382116105f5578190610a658454611e23565b601f8111610d38575b50602090601f8311600114610cd4575f92610cc9575b50508160011b915f199060031b1c19161790555b7ff8e1a15aba9398e019f0b49df1a4fde98ee17ae345cb5f6b5e2c27f5033e8ce760206040518b8152a1604051968760808101106001600160401b0360808a0111176105f557610b2295610afb610b0493610b139660808c016040523691612143565b895236916121a1565b96602087019788523691612143565b926040850193845236916121a1565b9260608301938452845f52600160205260405f2092518051906001600160401b0382116105f557602090610b568387612226565b01845f5260205f205f5b838110610cac5750505050600183019051908151916001600160401b0383116105f557602090610b908484612226565b01905f5260205f205f5b838110610c985750505050600282019051908151916001600160401b0383116105f557602090610bca8484612226565b01905f5260205f205f5b838110610c7b5785518051889160038801906001600160401b0383116105f557602090610c018484612226565b01905f5260205f205f5b838110610c67576020856040519033817f046c8e6748b710b61537f326afe724e1564c33ac1fabb63ff8395477721865105f80a360017f9b779b17422d0df92223018b32b4d1fa46e071723d6817e2486d003becc55f00558152f35b600190602084519401938184015501610c0b565b82516001600160a01b031681830155602090920191600101610bd4565b600190602084519401938184015501610b9a565b82516001600160a01b031681830155602090920191600101610b60565b015190508c80610a84565b5f858152602081209350601f198516905b818110610d205750908460019594939210610d08575b505050811b019055610a98565b01515f1960f88460031b161c191690558c8080610cfb565b92936020600181928786015181550195019301610ce5565b610d6390855f5260205f20601f850160051c81019160208610610d69575b601f0160051c01906121ef565b8d610a6e565b9091508190610d56565b6020610dae918b6040519384928392630a85bd0160e11b84523360048501525f60248501526044840152608060648401526084830190611c40565b03815f335af15f9181610e4a575b50610e15573d15610e0e573d610dd181611d15565b90610ddf6040519283611cf4565b81523d5f602083013e5b80519081610e0957604051633250574960e11b8152336004820152602490fd5b602001fd5b6060610de9565b6001600160e01b03191663757a42ff60e11b01610e325789610a05565b604051633250574960e11b8152336004820152602490fd5b9091506020813d602011610e87575b81610e6660209383611cf4565b8101031261036057516001600160e01b03198116810361036057908b610dbc565b3d9150610e59565b6040516339e3563760e11b81525f6004820152602490fd5b610eb082612854565b610eb981612084565b80545f1901905561099a565b604051633250574960e11b81525f6004820152602490fd5b6001600160a01b03610ef8610ef3838c876120f4565b612118565b1690610f058189886120f4565b3591803b15610360576040516323b872dd60e01b815233600482015230602482015260448101939093525f908390606490829084905af191821561035557600192610f52575b500161094e565b610f5b90611cc6565b8b610f4b565b6001600160a01b03610f77610ef38387866120f4565b16610f8382888b6120f4565b3590604051916323b872dd60e01b5f52336004523060245260445260205f60648180855af160015f5114811615610fe1575b826040525f60605215610fcc575050600101610944565b635274afe760e01b8252600482015260249150fd5b60018115166103fe57813b15153d151616610fb5565b634e487b7160e01b5f52601160045260245ffd5b60405162461bcd60e51b815260206004820152601660248201527542756e646c652063616e6e6f7420626520656d70747960501b6044820152606490fd5b60405162461bcd60e51b815260206004820152601660248201527508aa4866e646240d8cadccee8d040dad2e6dac2e8c6d60531b6044820152606490fd5b60405162461bcd60e51b815260206004820152601560248201527408aa486646040d8cadccee8d040dad2e6dac2e8c6d605b1b6044820152606490fd5b34610360576020366003190112610360576110dd611c65565b6001600160a01b03811615611100576110f7602091612084565b54604051908152f35b6040516322718ad960e21b81525f6004820152602490fd5b34610360576020366003190112610360576004355f52600160205261118760405f2061054061114682611fdd565b916111a361115660018301612036565b91611195611172600361116b60028501611fdd565b9301612036565b93604051978897608089526080890190611d84565b908782036020890152611dc0565b908582036040870152611d84565b908382036060850152611dc0565b346103605760203660031901126103605760206111cf600435612272565b6040516001600160a01b039091168152f35b34610360575f366003190112610360577f00000000000000000000000000000000000000000000000000000000000000006001600160a01b0316300361124b5760206040517f360894a13ba1a3210667c828492db98dca3e2076cc3735a920a3ca505d382bbc8152f35b60405163703e46dd60e11b8152600490fd5b604036600319011261036057611271611c65565b6024356001600160401b03811161036057611290903690600401611d66565b6001600160a01b03917f0000000000000000000000000000000000000000000000000000000000000000831630811490811561145b575b5061124b57335f9081527fb7db2dd08fcb62d0c9e08c51941cae53c267786a0b75803fb7960902fc8ef97d602090815260409091205490939060ff161561143d576040516352d1902d60e01b8152908216938082600481885afa9182915f9361140d575b505061134a57604051634c9c8ce360e01b815260048101859052602490fd5b7f360894a13ba1a3210667c828492db98dca3e2076cc3735a920a3ca505d382bbc908181036113f55750813b156113dc5780546001600160a01b03191684179055604051927fbc7cd75a20ee27fd9adebab32041f755214dbc6bffa90cc0225b39da2e5c2d3b5f80a28151156113c4576104d192506128be565b5050346113cd57005b63b398979f60e01b8152600490fd5b604051634c9c8ce360e01b815260048101859052602490fd5b60249060405190632a87526960e21b82526004820152fd5b9080929350813d8311611436575b6114258183611cf4565b81010312610360575190858061132b565b503d61141b565b60405163e2517d3f60e01b81523360048201525f6024820152604490fd5b9050837f360894a13ba1a3210667c828492db98dca3e2076cc3735a920a3ca505d382bbc54161415846112c7565b34610360576040366003190112610360576001600160401b03600435818111610360576114ba903690600401611d66565b602435828111610360576114d2903690600401611d66565b907ff0c57e16840df040f15088dc2f81fe391c3923bec73e23a9662efc9c229c6a009182549360ff8560401c16159281861695861580611879575b6001809814908161186f575b159081611866575b506118545767ffffffffffffffff1981168717865584611835575b5061154561287d565b61154d61287d565b80518281116105f5577f80bb2b638cc20bc4d0a60d66940f3ab4a00c1d7b313497ca82fb0b4ab007930090806115838354611e23565b93601f948581116117ea575b5060209085831160011461176d575f92611762575b50505f19600383901b1c191690881b1790555b82519182116105f55781907f80bb2b638cc20bc4d0a60d66940f3ab4a00c1d7b313497ca82fb0b4ab0079301936115ee8554611e23565b82811161170d575b506020918311600114611690575f92611685575b50505f19600383901b1c191690851b1790555b61162561287d565b61162d61287d565b61163633612304565b50611640336123a1565b5061164757005b805468ff0000000000000000191690556040519081527fc7f505b2f371ae2175ee4913f4499e1f2633a7b5936321eed1cdaeb6115181d290602090a1005b01519050868061160a565b90879350601f19831691855f527ff4bad0a69248f59680a4f2b3000328cec71a413447c96781cfe5996daa8c456e925f5b8181106116f5575084116116dd575b505050811b01905561161d565b01515f1960f88460031b161c191690558680806116d0565b8284015185558a9690940193602093840193016116c1565b61175390865f527ff4bad0a69248f59680a4f2b3000328cec71a413447c96781cfe5996daa8c456e8480870160051c82019260208810611759575b0160051c01906121ef565b886115f6565b92508192611748565b0151905089806115a4565b908a9350601f19831691855f527f37c58c799b6609234b945e882912ee9ad34948a1dfaa20a97485e1a7752bbf81925f5b8181106117d2575084116117ba575b505050811b0190556115b7565b01515f1960f88460031b161c191690558980806117ad565b8284015185558d96909401936020938401930161179e565b61182f90855f527f37c58c799b6609234b945e882912ee9ad34948a1dfaa20a97485e1a7752bbf818780860160051c82019260208710611759570160051c01906121ef565b8a61158f565b68ffffffffffffffffff1916680100000000000000011785558661153c565b60405163f92ee8a960e01b8152600490fd5b90501588611521565b303b159150611519565b508461150d565b34610360576104d161189136611c91565b906040519261189f84611cd9565b5f8452610598838383611e5b565b34610360576040366003190112610360576118c6611c7b565b336001600160a01b038216036118e2576104d1906004356124e4565b60405163334bd91960e11b8152600490fd5b34610360576040366003190112610360576104d1600435611913611c7b565b90805f525f80516020612950833981519152602052611938600160405f2001546122b8565b612461565b34610360576020366003190112610360576004355f525f805160206129508339815191526020526020600160405f200154604051908152f35b34610360576104d161198736611c91565b91611e5b565b34610360576040366003190112610360576119a6611c65565b6024356119b281612272565b33151580611a5c575b80611a3e575b611a26576001600160a01b039283169282918491167f8c5be1e5ebec7d5bd14f71427d1e84f3dd0314c0f7b2291e5b200ac8c7c3b9255f80a45f9081525f805160206129908339815191526020526040902080546001600160a01b0319169091179055005b60405163a9fbf51f60e01b8152336004820152602490fd5b50611a48816120bc565b335f5260205260ff60405f205416156119c1565b506001600160a01b0381163314156119bb565b3461036057602036600319011261036057600435611a8c81612272565b505f525f80516020612990833981519152602052602060018060a01b0360405f205416604051908152f35b34610360575f366003190112610360576040517f80bb2b638cc20bc4d0a60d66940f3ab4a00c1d7b313497ca82fb0b4ab00793008054825f611af883611e23565b92838352602094600191866001821691825f146107bd575050600114611b2657505061074f92500383611cf4565b8592505f527f37c58c799b6609234b945e882912ee9ad34948a1dfaa20a97485e1a7752bbf81905f915b858310611b6857505061074f93508201018580610741565b80548389018501528794508693909201918101611b50565b34610360576020366003190112610360576004359063ffffffff60e01b821680920361036057602091632483248360e11b8114908115611bc2575b5015158152f35b6380ac58cd60e01b811491508115611c0e575b8115611be3575b5083611bbb565b637965db0b60e01b811491508115611bfd575b5083611bdc565b6301ffc9a760e01b14905083611bf6565b635b5e139f60e01b81149150611bd5565b5f5b838110611c305750505f910152565b8181015183820152602001611c21565b90602091611c5981518092818552858086019101611c1f565b601f01601f1916010190565b600435906001600160a01b038216820361036057565b602435906001600160a01b038216820361036057565b6060906003190112610360576001600160a01b0390600435828116810361036057916024359081168103610360579060443590565b6001600160401b0381116105f557604052565b602081019081106001600160401b038211176105f557604052565b90601f801991011681019081106001600160401b038211176105f557604052565b6001600160401b0381116105f557601f01601f191660200190565b929192611d3c82611d15565b91611d4a6040519384611cf4565b829481845281830111610360578281602093845f960137010152565b9080601f8301121561036057816020611d8193359101611d30565b90565b9081518082526020808093019301915f5b828110611da3575050505090565b83516001600160a01b031685529381019392810192600101611d95565b9081518082526020808093019301915f5b828110611ddf575050505090565b835185529381019392810192600101611dd1565b9181601f84011215610360578235916001600160401b038311610360576020808501948460051b01011161036057565b90600182811c92168015611e51575b6020831014611e3d57565b634e487b7160e01b5f52602260045260245ffd5b91607f1691611e32565b6001600160a01b0382811693918415610ec557825f52825f80516020612970833981519152958660205260409684885f2054169633151580611f3c575b50611ea79088611f1e57612084565b60018154019055825f52602052865f20816001600160601b0360a01b825416179055857fddf252ad1be2c89b69c2b068fc378daa952ba7f163c4a11628f55a4df523b3ef5f80a41692838303611efd5750505050565b6064945051926364283d7b60e01b8452600484015260248301526044820152fd5b611f2785612854565b611f3089612084565b80545f19019055612084565b929350909180611f8f575b15611f5657908592915f611e98565b878688611f73576024915190637e27328960e01b82526004820152fd5b604491519063177e802f60e01b82523360048301526024820152fd5b503387148015611fc1575b80611f475750855f525f805160206129908339815191526020523385895f20541614611f47565b50611fcb876120bc565b335f5260205260ff885f205416611f9a565b90604051918281549182825260209260208301915f5260205f20935f905b8282106120135750505061201192500383611cf4565b565b85546001600160a01b031684526001958601958895509381019390910190611ffb565b90604051918281549182825260209260208301915f5260205f20935f905b82821061206a5750505061201192500383611cf4565b855484526001958601958895509381019390910190612054565b6001600160a01b03165f9081527f80bb2b638cc20bc4d0a60d66940f3ab4a00c1d7b313497ca82fb0b4ab00793036020526040902090565b6001600160a01b03165f9081527f80bb2b638cc20bc4d0a60d66940f3ab4a00c1d7b313497ca82fb0b4ab00793056020526040902090565b91908110156121045760051b0190565b634e487b7160e01b5f52603260045260245ffd5b356001600160a01b03811681036103605790565b6001600160401b0381116105f55760051b60200190565b929161214e8261212c565b9161215c6040519384611cf4565b829481845260208094019160051b810192831161036057905b8282106121825750505050565b81356001600160a01b0381168103610360578152908301908301612175565b92916121ac8261212c565b916121ba6040519384611cf4565b829481845260208094019160051b810192831161036057905b8282106121e05750505050565b813581529083019083016121d3565b8181106121fa575050565b5f81556001016121ef565b80545f825580612213575050565b612011915f5260205f20908101906121ef565b906801000000000000000081116105f55781549080835581811061224957505050565b612011925f5260205f2091820191016121ef565b8054821015612104575f5260205f2001905f90565b5f8181525f8051602061297083398151915260205260409020546001600160a01b03169081156122a0575090565b60249060405190637e27328960e01b82526004820152fd5b805f525f8051602061295083398151915260205260405f20335f5260205260ff60405f205416156122e65750565b6044906040519063e2517d3f60e01b82523360048301526024820152fd5b6001600160a01b03165f8181527fb7db2dd08fcb62d0c9e08c51941cae53c267786a0b75803fb7960902fc8ef97d60205260409020545f805160206129508339815191529060ff1661239b575f805260205260405f20815f5260205260405f20600160ff1982541617905533905f7f2f8788117e7eff1d82e926ec794901d17c78024a50270940304540a733656f0d8180a4600190565b50505f90565b6001600160a01b03165f8181527f549fe2656c81d2947b3b913f0a53b9ea86c71e049f3a1b8aa23c09a8a05cb8d460205260409020547f9f2df0fed2c77648de5860a4cc508cd0818c85b8b8a1ab4ceeef8d981c8956a691905f805160206129508339815191529060ff1661245a57825f5260205260405f20815f5260205260405f20600160ff1982541617905533917f2f8788117e7eff1d82e926ec794901d17c78024a50270940304540a733656f0d5f80a4600190565b5050505f90565b90815f525f805160206129508339815191528060205260405f209160018060a01b031691825f5260205260ff60405f205416155f1461245a57825f5260205260405f20815f5260205260405f20600160ff1982541617905533917f2f8788117e7eff1d82e926ec794901d17c78024a50270940304540a733656f0d5f80a4600190565b90815f525f805160206129508339815191528060205260405f209160018060a01b031691825f5260205260ff60405f2054165f1461245a57825f5260205260405f20815f5260205260405f2060ff19815416905533917ff6391f5c32d9c69d2a47ea670b442974b53935d1edc7fd64eb21e047a839171b5f80a4600190565b7f9b779b17422d0df92223018b32b4d1fa46e071723d6817e2486d003becc55f0060028154146125935760029055565b604051633ee5aeb560e01b8152600490fd5b9293909193843b6125b8575b5050505050565b604051630a85bd0160e11b8082526001600160a01b03958616600483015293851660248201526044810191909152608060648201526020959490931693929085908290819061260b906084830190611c40565b03815f885af15f91816126af575b50612678575050503d5f14612670573d9161263383611d15565b926126416040519485611cf4565b83523d5f8285013e5b8251928361266b57604051633250574960e11b815260048101849052602490fd5b019050fd5b60609161264a565b9193506001600160e01b03199091160361269757505f808080806125b1565b60249060405190633250574960e11b82526004820152fd5b9091508581813d83116126e8575b6126c78183611cf4565b8101031261036057516001600160e01b03198116810361036057905f612619565b503d6126bd565b6126f881612272565b50604080519161270783611cd9565b5f8352805f5260207f0542a41881ee128a365a727b282c86fa859579490b9bb45aab8503648c8e79008152825f20938351945f8682549161274783611e23565b9283835286830194600191886001821691825f146128345750506001146127f7575b505061277792500387611cf4565b81519586156127ed5780516127b35750505050612795919250612272565b505f81516127a281611cd9565b52516127ad81611cd9565b5f815290565b90919293506127e1866127d2611d819751988996888089019101611c1f565b84019151809386840190611c1f565b01038084520182611cf4565b9550505050505090565b8792505f52815f20905f915b85831061281b57505061277793508201015f80612769565b8194848483969596549201015201910189928792612803565b925093505061277794915060ff19168552151560051b8201015f80612769565b5f525f8051602061299083398151915260205260405f206001600160601b0360a01b8154169055565b60ff7ff0c57e16840df040f15088dc2f81fe391c3923bec73e23a9662efc9c229c6a005460401c16156128ac57565b604051631afcd79f60e31b8152600490fd5b905f8091602081519101845af4808061293c575b156128f25750506040513d81523d5f602083013e60203d82010160405290565b1561291957604051639996b31560e01b81526001600160a01b039091166004820152602490fd5b3d1561292a576040513d5f823e3d90fd5b60405163d6bda27560e01b8152600490fd5b503d1515806128d25750813b15156128d256fe02dd7bc7dec4dceedda775e58dd541e08a116c6c53815c0bd028192f7b62680080bb2b638cc20bc4d0a60d66940f3ab4a00c1d7b313497ca82fb0b4ab007930280bb2b638cc20bc4d0a60d66940f3ab4a00c1d7b313497ca82fb0b4ab0079304a26469706673582212200111fbcaa28f4cbc96a0d9b966b8f960c5a0dca049929f797451072ef9da20d164736f6c63430008180033","linkReferences":{}},"methodIdentifiers":{"DEFAULT_ADMIN_ROLE()":"a217fddf","MINTER_ROLE()":"d5391393","UPGRADE_INTERFACE_VERSION()":"ad3cb1cc","approve(address,uint256)":"095ea7b3","balanceOf(address)":"70a08231","depositBundle(address[],uint256[],address[],uint256[],string)":"8dd946ef","getApproved(uint256)":"081812fc","getBundleContent(uint256)":"6e9fb8a5","getRoleAdmin(bytes32)":"248a9ca3","grantRole(bytes32,address)":"2f2ff15d","hasRole(bytes32,address)":"91d14854","initialize(string,string)":"4cd88b76","isApprovedForAll(address,address)":"e985e9c5","name()":"06fdde03","ownerOf(uint256)":"6352211e","proxiableUUID()":"52d1902d","renounceRole(bytes32,address)":"36568abe","revokeRole(bytes32,address)":"d547741f","safeTransferFrom(address,address,uint256)":"42842e0e","safeTransferFrom(address,address,uint256,bytes)":"b88d4fde","setApprovalForAll(address,bool)":"a22cb465","supportsInterface(bytes4)":"01ffc9a7","symbol()":"95d89b41","tokenURI(uint256)":"c87b56dd","transferFrom(address,address,uint256)":"23b872dd","upgradeToAndCall(address,bytes)":"4f1ef286","withdrawBundle(uint256)":"f008852d"},"id":0}