{"abi":[{"type":"constructor","inputs":[],"stateMutability":"nonpayable"},{"type":"function","name":"ADMIN_ROLE","inputs":[],"outputs":[{"name":"","type":"bytes32","internalType":"bytes32"}],"stateMutability":"view"},{"type":"function","name":"BROKER_FEE_BPS","inputs":[],"outputs":[{"name":"","type":"uint256","internalType":"uint256"}],"stateMutability":"view"},{"type":"function","name":"DEFAULT_ADMIN_ROLE","inputs":[],"outputs":[{"name":"","type":"bytes32","internalType":"bytes32"}],"stateMutability":"view"},{"type":"function","name":"MIN_DURATION","inputs":[],"outputs":[{"name":"","type":"uint256","internalType":"uint256"}],"stateMutability":"view"},{"type":"function","name":"UPGRADER_ROLE","inputs":[],"outputs":[{"name":"","type":"bytes32","internalType":"bytes32"}],"stateMutability":"view"},{"type":"function","name":"UPGRADE_INTERFACE_VERSION","inputs":[],"outputs":[{"name":"","type":"string","internalType":"string"}],"stateMutability":"view"},{"type":"function","name":"acceptLoan","inputs":[{"name":"loanId","type":"uint256","internalType":"uint256"},{"name":"priceUpdateData","type":"bytes[]","internalType":"bytes[]"}],"outputs":[],"stateMutability":"payable"},{"type":"function","name":"cancelLoanOffer","inputs":[{"name":"loanId","type":"uint256","internalType":"uint256"}],"outputs":[],"stateMutability":"nonpayable"},{"type":"function","name":"claimDefault","inputs":[{"name":"loanId","type":"uint256","internalType":"uint256"}],"outputs":[],"stateMutability":"nonpayable"},{"type":"function","name":"createLoanOffer","inputs":[{"name":"nftContract","type":"address","internalType":"address"},{"name":"nftId","type":"uint256","internalType":"uint256"},{"name":"principal","type":"uint256","internalType":"uint256"},{"name":"interest","type":"uint256","internalType":"uint256"},{"name":"duration","type":"uint256","internalType":"uint256"}],"outputs":[],"stateMutability":"nonpayable"},{"type":"function","name":"feeToken","inputs":[],"outputs":[{"name":"","type":"address","internalType":"contract IERC20"}],"stateMutability":"view"},{"type":"function","name":"getHealthScore","inputs":[{"name":"nftContract","type":"address","internalType":"address"},{"name":"nftId","type":"uint256","internalType":"uint256"},{"name":"principal","type":"uint256","internalType":"uint256"},{"name":"borrower","type":"address","internalType":"address"}],"outputs":[{"name":"","type":"uint256","internalType":"uint256"}],"stateMutability":"view"},{"type":"function","name":"getRoleAdmin","inputs":[{"name":"role","type":"bytes32","internalType":"bytes32"}],"outputs":[{"name":"","type":"bytes32","internalType":"bytes32"}],"stateMutability":"view"},{"type":"function","name":"grantRole","inputs":[{"name":"role","type":"bytes32","internalType":"bytes32"},{"name":"account","type":"address","internalType":"address"}],"outputs":[],"stateMutability":"nonpayable"},{"type":"function","name":"hasRole","inputs":[{"name":"role","type":"bytes32","internalType":"bytes32"},{"name":"account","type":"address","internalType":"address"}],"outputs":[{"name":"","type":"bool","internalType":"bool"}],"stateMutability":"view"},{"type":"function","name":"initialize","inputs":[{"name":"_feeToken","type":"address","internalType":"address"},{"name":"_pythOracle","type":"address","internalType":"address"},{"name":"_priceFeedId","type":"bytes32","internalType":"bytes32"}],"outputs":[],"stateMutability":"nonpayable"},{"type":"function","name":"loanCounter","inputs":[],"outputs":[{"name":"","type":"uint256","internalType":"uint256"}],"stateMutability":"view"},{"type":"function","name":"loans","inputs":[{"name":"","type":"uint256","internalType":"uint256"}],"outputs":[{"name":"borrower","type":"address","internalType":"address"},{"name":"lender","type":"address","internalType":"address"},{"name":"nftContract","type":"address","internalType":"address"},{"name":"nftId","type":"uint256","internalType":"uint256"},{"name":"principal","type":"uint256","internalType":"uint256"},{"name":"interest","type":"uint256","internalType":"uint256"},{"name":"duration","type":"uint256","internalType":"uint256"},{"name":"startTime","type":"uint256","internalType":"uint256"},{"name":"healthSnapshot","type":"uint256","internalType":"uint256"},{"name":"active","type":"bool","internalType":"bool"},{"name":"repaid","type":"bool","internalType":"bool"}],"stateMutability":"view"},{"type":"function","name":"pause","inputs":[],"outputs":[],"stateMutability":"nonpayable"},{"type":"function","name":"paused","inputs":[],"outputs":[{"name":"","type":"bool","internalType":"bool"}],"stateMutability":"view"},{"type":"function","name":"priceFeedId","inputs":[],"outputs":[{"name":"","type":"bytes32","internalType":"bytes32"}],"stateMutability":"view"},{"type":"function","name":"proxiableUUID","inputs":[],"outputs":[{"name":"","type":"bytes32","internalType":"bytes32"}],"stateMutability":"view"},{"type":"function","name":"pythOracle","inputs":[],"outputs":[{"name":"","type":"address","internalType":"contract IPyth"}],"stateMutability":"view"},{"type":"function","name":"renounceRole","inputs":[{"name":"role","type":"bytes32","internalType":"bytes32"},{"name":"callerConfirmation","type":"address","internalType":"address"}],"outputs":[],"stateMutability":"nonpayable"},{"type":"function","name":"repayLoan","inputs":[{"name":"loanId","type":"uint256","internalType":"uint256"}],"outputs":[],"stateMutability":"nonpayable"},{"type":"function","name":"reputationOracle","inputs":[],"outputs":[{"name":"","type":"address","internalType":"contract IAgentReputation"}],"stateMutability":"view"},{"type":"function","name":"revokeRole","inputs":[{"name":"role","type":"bytes32","internalType":"bytes32"},{"name":"account","type":"address","internalType":"address"}],"outputs":[],"stateMutability":"nonpayable"},{"type":"function","name":"setReputationOracle","inputs":[{"name":"_reputationOracle","type":"address","internalType":"address"}],"outputs":[],"stateMutability":"nonpayable"},{"type":"function","name":"setStakingContract","inputs":[{"name":"_stakingContract","type":"address","internalType":"address"}],"outputs":[],"stateMutability":"nonpayable"},{"type":"function","name":"stakingContract","inputs":[],"outputs":[{"name":"","type":"address","internalType":"contract IClawStreetStaking"}],"stateMutability":"view"},{"type":"function","name":"suggestLTV","inputs":[{"name":"health","type":"uint256","internalType":"uint256"}],"outputs":[{"name":"","type":"uint256","internalType":"uint256"}],"stateMutability":"pure"},{"type":"function","name":"supportsInterface","inputs":[{"name":"interfaceId","type":"bytes4","internalType":"bytes4"}],"outputs":[{"name":"","type":"bool","internalType":"bool"}],"stateMutability":"view"},{"type":"function","name":"unpause","inputs":[],"outputs":[],"stateMutability":"nonpayable"},{"type":"function","name":"upgradeToAndCall","inputs":[{"name":"newImplementation","type":"address","internalType":"address"},{"name":"data","type":"bytes","internalType":"bytes"}],"outputs":[],"stateMutability":"payable"},{"type":"function","name":"withdrawFees","inputs":[{"name":"to","type":"address","internalType":"address"}],"outputs":[],"stateMutability":"nonpayable"},{"type":"event","name":"FeeCollected","inputs":[{"name":"amount","type":"uint256","indexed":false,"internalType":"uint256"}],"anonymous":false},{"type":"event","name":"FeesWithdrawn","inputs":[{"name":"to","type":"address","indexed":true,"internalType":"address"},{"name":"amount","type":"uint256","indexed":false,"internalType":"uint256"}],"anonymous":false},{"type":"event","name":"Initialized","inputs":[{"name":"version","type":"uint64","indexed":false,"internalType":"uint64"}],"anonymous":false},{"type":"event","name":"LoanAccepted","inputs":[{"name":"loanId","type":"uint256","indexed":true,"internalType":"uint256"},{"name":"lender","type":"address","indexed":true,"internalType":"address"}],"anonymous":false},{"type":"event","name":"LoanCancelled","inputs":[{"name":"loanId","type":"uint256","indexed":true,"internalType":"uint256"}],"anonymous":false},{"type":"event","name":"LoanCreated","inputs":[{"name":"loanId","type":"uint256","indexed":true,"internalType":"uint256"},{"name":"borrower","type":"address","indexed":true,"internalType":"address"},{"name":"principal","type":"uint256","indexed":false,"internalType":"uint256"},{"name":"health","type":"uint256","indexed":false,"internalType":"uint256"}],"anonymous":false},{"type":"event","name":"LoanDefaulted","inputs":[{"name":"loanId","type":"uint256","indexed":true,"internalType":"uint256"}],"anonymous":false},{"type":"event","name":"LoanRepaid","inputs":[{"name":"loanId","type":"uint256","indexed":true,"internalType":"uint256"}],"anonymous":false},{"type":"event","name":"Paused","inputs":[{"name":"account","type":"address","indexed":false,"internalType":"address"}],"anonymous":false},{"type":"event","name":"RoleAdminChanged","inputs":[{"name":"role","type":"bytes32","indexed":true,"internalType":"bytes32"},{"name":"previousAdminRole","type":"bytes32","indexed":true,"internalType":"bytes32"},{"name":"newAdminRole","type":"bytes32","indexed":true,"internalType":"bytes32"}],"anonymous":false},{"type":"event","name":"RoleGranted","inputs":[{"name":"role","type":"bytes32","indexed":true,"internalType":"bytes32"},{"name":"account","type":"address","indexed":true,"internalType":"address"},{"name":"sender","type":"address","indexed":true,"internalType":"address"}],"anonymous":false},{"type":"event","name":"RoleRevoked","inputs":[{"name":"role","type":"bytes32","indexed":true,"internalType":"bytes32"},{"name":"account","type":"address","indexed":true,"internalType":"address"},{"name":"sender","type":"address","indexed":true,"internalType":"address"}],"anonymous":false},{"type":"event","name":"StakingContractSet","inputs":[{"name":"stakingContract","type":"address","indexed":true,"internalType":"address"}],"anonymous":false},{"type":"event","name":"Unpaused","inputs":[{"name":"account","type":"address","indexed":false,"internalType":"address"}],"anonymous":false},{"type":"event","name":"Upgraded","inputs":[{"name":"implementation","type":"address","indexed":true,"internalType":"address"}],"anonymous":false},{"type":"error","name":"AccessControlBadConfirmation","inputs":[]},{"type":"error","name":"AccessControlUnauthorizedAccount","inputs":[{"name":"account","type":"address","internalType":"address"},{"name":"neededRole","type":"bytes32","internalType":"bytes32"}]},{"type":"error","name":"AddressEmptyCode","inputs":[{"name":"target","type":"address","internalType":"address"}]},{"type":"error","name":"ERC1967InvalidImplementation","inputs":[{"name":"implementation","type":"address","internalType":"address"}]},{"type":"error","name":"ERC1967NonPayable","inputs":[]},{"type":"error","name":"EnforcedPause","inputs":[]},{"type":"error","name":"ExpectedPause","inputs":[]},{"type":"error","name":"FailedCall","inputs":[]},{"type":"error","name":"InvalidInitialization","inputs":[]},{"type":"error","name":"NotInitializing","inputs":[]},{"type":"error","name":"ReentrancyGuardReentrantCall","inputs":[]},{"type":"error","name":"UUPSUnauthorizedCallContext","inputs":[]},{"type":"error","name":"UUPSUnsupportedProxiableUUID","inputs":[{"name":"slot","type":"bytes32","internalType":"bytes32"}]}],"bytecode":{"object":"0x60a080604052346100f0573060805260017f9b779b17422d0df92223018b32b4d1fa46e071723d6817e2486d003becc55f00557ff0c57e16840df040f15088dc2f81fe391c3923bec73e23a9662efc9c229c6a009081549060ff8260401c166100e157506001600160401b036002600160401b03198282160161009c575b60405161293090816100f582396080518181816113f301526114d80152f35b6001600160401b031990911681179091556040519081527fc7f505b2f371ae2175ee4913f4499e1f2633a7b5936321eed1cdaeb6115181d290602090a15f808061007d565b63f92ee8a960e01b8152600490fd5b5f80fdfe6080806040526004361015610012575f80fd5b5f905f3560e01c90816301ffc9a714611d3a575080630900754314611cff578063164e68de14611b2f5780631999bb9e14611b125780631de2346a14611aec578063248a9ca314611ab35780632f2ff15d14611a685780632fca6371146117b157806334d9289e1461179357806336568abe1461174b5780633f4ba83a146116d45780634f1ef2861461145d57806352d1902d146113e05780635c975abb146113b15780636133f98514611230578063647846a51461120757806374cbe57e1461106657806375b238fc1461102b5780637eba024c14610a265780638456cb59146109bf57806391d14854146109695780639dd373b914610901578063a217fddf146108e5578063ab7b1c8914610659578063ad3cb1cc146105b6578063b6a6d17714610599578063c0f13b561461057d578063d19cfdac1461053d578063d547741f146104ef578063e1ec3c6814610442578063ee99205c14610419578063f5d6ac90146103f0578063f72c0d8b146103b5578063facd66c7146101ca5763fad844c11461019f575f80fd5b346101c757806003193601126101c7576005546040516001600160a01b039091168152602090f35b80fd5b50346101c75760203660031901126101c7576004356101e76126d0565b6101ef6126ff565b80825281602052604082206009810190815460ff811690816103a6575b50156103725760018101546001600160a01b0391908216801561033b5761023c60078301546006840154906123cf565b4211156103025760038693600284015416920154823b156102fe576040516323b872dd60e01b81523060048201526001600160a01b0392909216602483015260448201529082908290606490829084905af180156102f3576102db575b5050805460ff191690557f0789b7097e8066538cfaa1132488b132e14ba5f0c938c8b7aaf8cf40356aab0b8280a260015f805160206128db8339815191525580f35b6102e490611db9565b6102ef57825f610299565b8280fd5b6040513d84823e3d90fd5b8380fd5b60405162461bcd60e51b8152602060048201526011602482015270139bdd081e595d08191959985d5b1d1959607a1b6044820152606490fd5b60405162461bcd60e51b815260206004820152600f60248201526e131bd85b881b9bdd08199d5b991959608a1b6044820152606490fd5b60405162461bcd60e51b815260206004820152600c60248201526b24b73b30b634b2103637b0b760a11b6044820152606490fd5b60ff915060081c16155f61020c565b50346101c757806003193601126101c75760206040517f189ab7a9244df0848122154315af71fe140f3db0fe014031783b0946b8c9d2e38152f35b50346101c757806003193601126101c7576003546040516001600160a01b039091168152602090f35b50346101c757806003193601126101c7576006546040516001600160a01b039091168152602090f35b50346101c75760203660031901126101c7576040610160916004358152806020522060ff60018060a01b03808354169281600182015416916002820154166003820154600483015460058401549060068501549260078601549460096008880154970154976040519a8b5260208b015260408a01526060890152608088015260a087015260c086015260e0850152610100840152818116151561012084015260081c161515610140820152f35b50346101c75760403660031901126101c75761053960043561050f611da3565b908084525f8051602061289b8339815191526020526105346001604086200154612455565b612729565b5080f35b50346101c75760203660031901126101c757610557611d8d565b61055f6123dc565b60018060a01b03166001600160601b0360a01b600554161760055580f35b50346101c757806003193601126101c757602060405160648152f35b50346101c757806003193601126101c7576020604051610e108152f35b50346101c757806003193601126101c757604051604081018181106001600160401b038211176106455760405260058152602091640352e302e360dc1b602083015260405192839160208352835191826020850152815b83811061062e57505060408094508284010152601f80199101168101030190f35b80860182015187820160400152869450810161060d565b634e487b7160e01b5f52604160045260245ffd5b50346101c7576020806003193601126108e157600435906106786126d0565b6106806126ff565b818352828152604083206009810191825460ff811690816108d2575b50156108995781546001600160a01b03908116913383900361085557610717816106cf60048701546005880154906123cf565b8460025416856001890154168b6040518096819582946323b872dd60e01b9c8d85526004850160409194939294606082019560018060a01b0380921683521660208201520152565b03925af190811561084a57889161081d575b50156107e65750908160038493600289960154169184541693015490803b156107e2576040519283523060048401526001600160a01b0393909316602483015260448201529082908290606490829084905af180156102f3576107ce575b5050805461ffff19166101001790557f9a7851747cd7ffb3fe0a32caf3da48b31f27cebe131267051640f8b72fc471868280a260015f805160206128db8339815191525580f35b6107d790611db9565b6102ef57825f610787565b8480fd5b6064906040519062461bcd60e51b82526004820152601060248201526f14995c185e5b595b9d0819985a5b195960821b6044820152fd5b61083d9150823d8411610843575b6108358183611dcc565b81019061228a565b5f610729565b503d61082b565b6040513d8a823e3d90fd5b6064906040519062461bcd60e51b82526004820152601760248201527f4f6e6c7920626f72726f7765722063616e2072657061790000000000000000006044820152fd5b6064906040519062461bcd60e51b825260048201526012602482015271496e76616c6964206c6f616e20737461746560701b6044820152fd5b60ff915060081c16155f61069c565b5080fd5b50346101c757806003193601126101c757602090604051908152f35b50346101c75760203660031901126101c75761091b611d8d565b6109236123dc565b600680546001600160a01b0319166001600160a01b039290921691821790557f1253844b0fff3da7dd2829de816c9b4f94c238cf2bf6eb72c02c7d6f2b53beac8280a280f35b50346101c75760403660031901126101c7576040610985611da3565b9160043581525f8051602061289b833981519152602052209060018060a01b03165f52602052602060ff60405f2054166040519015158152f35b50346101c757806003193601126101c7576109d86123dc565b6109e06126ff565b5f805160206128bb833981519152600160ff198254161790557f62e78cea01bee320cd4e420270b5ea74000d11b0c9f74754ebdbfc544b05a2586020604051338152a180f35b5060403660031901126101c7576001600160401b036024803590600435908383116107e257366023840112156107e25782600401359384116107e257808301928136918660051b0101116107e257610a7c6126d0565b610a846126ff565b818552602092858452604086209460ff60098701541680611016575b15610fdd5785546001600160a01b03929083163314610fa35781610dfb575b50506004850154946064860286810460641487151715610de857612710610ae891048097611e9b565b60025482546040516323b872dd60e01b8082523360048301529186166001600160a01b0316602482015260448101939093529190879082908616818c816064810103925af1908115610ddd578991610dc0575b5015610d7c57600254604051918252336004830152306024830152604482018890528690829060649082908c9088165af190811561084a578891610d5f575b5015610d25576001810180546001600160a01b0319163317905542600790910155600654811680151580610d1c575b610c14575b5050507fc472cb3a7a659a876494d66b3063145f279701771d6150b9329c31611ed6405c926040519133907f3ad02261725390771e704d06848ed8e414d628daf1b8dbffe111f437c848d6208780a38152a160015f805160206128db8339815191525580f35b60025460405163a9059cbb60e01b81526001600160a01b03929092166004830152602482018790528590829060449082908b9087165af1908115610d11578791610cf4575b5015610cb0579085916006541690813b156102ef57829182916040518094819363fd5773a960e01b83528a60048401525af180156102f357610c9c575b80610bae565b610ca590611db9565b6102fe57835f610c96565b60405162461bcd60e51b815260048101859052601e818401527f466565207472616e7366657220746f207374616b696e67206661696c656400006044820152606490fd5b610d0b9150853d8711610843576108358183611dcc565b5f610c59565b6040513d89823e3d90fd5b50851515610ba9565b60405162461bcd60e51b81526004810186905260138185015272119959481d1c985b9cd9995c8819985a5b1959606a1b6044820152606490fd5b610d769150863d8811610843576108358183611dcc565b5f610b7a565b60405162461bcd60e51b8152600481018790526019818601527f5072696e636970616c207472616e73666572206661696c6564000000000000006044820152606490fd5b610dd79150873d8911610843576108358183611dcc565b5f610b3b565b6040513d8b823e3d90fd5b634e487b7160e01b885260116004528388fd5b8260035416906040519263d47eed4560e01b8452878480610e2084866004840161232e565b0381865afa938415610f98578a94610f65575b50833410610f21579082918a94933b156107e257610e6a92859285604051809681958294631df3cbc560e31b84526004840161232e565b03925af1908115610f16578391610f02575b505080341115610abf578180610e93819334611e9b565b335af13d15610efd573d610ea681611ded565b90610eb46040519283611dcc565b815287863d92013e5b15610ec957855f610abf565b60405162461bcd60e51b815260048101859052600d818401526c1499599d5b990819985a5b1959609a1b6044820152606490fd5b610ebd565b610f0b90611db9565b6108e157815f610e7c565b6040513d85823e3d90fd5b60405162461bcd60e51b8152600481018990526019818801527f496e73756666696369656e742066656520666f722050797468000000000000006044820152606490fd5b9093508781813d8311610f91575b610f7d8183611dcc565b81010312610f8d5751925f610e33565b5f80fd5b503d610f73565b6040513d8c823e3d90fd5b60405162461bcd60e51b8152600481018790526013818601527221b0b73737ba103632b732103a379039b2b63360691b6044820152606490fd5b60405162461bcd60e51b815260048101869052601281850152714c6f616e206e6f7420617661696c61626c6560701b6044820152606490fd5b5060018601546001600160a01b031615610aa0565b50346101c757806003193601126101c75760206040517fa49807205ce4d355092ef5a8a18f56e8913cf4a201fbe287825b095693c217758152f35b50346101c75760203660031901126101c7576004356110836126d0565b61108b6126ff565b8082528160205260408220600981019060ff825416806111f2575b156111a15780546001600160a01b03919082163381900361116d5760038693600284015416920154823b156102fe576040516323b872dd60e01b81523060048201526001600160a01b0392909216602483015260448201529082908290606490829084905af180156102f357611159575b5050805460ff191690557fb71becc91961a6b43bcc5b3b630f3dce02c7fd444cf3738c4f188062b1caf5bc8280a260015f805160206128db8339815191525580f35b61116290611db9565b6102ef57825f611117565b60405162461bcd60e51b815260206004820152600c60248201526b2737ba103137b93937bbb2b960a11b6044820152606490fd5b60405162461bcd60e51b815260206004820152602360248201527f43616e6e6f742063616e63656c20616374697665206f722066756e646564206c60448201526237b0b760e91b6064820152608490fd5b5060018101546001600160a01b0316156110a6565b50346101c757806003193601126101c7576002546040516001600160a01b039091168152602090f35b50346101c75760603660031901126101c75761124a611d8d565b611252611da3565b7ff0c57e16840df040f15088dc2f81fe391c3923bec73e23a9662efc9c229c6a009182549160ff8360401c1615926001600160401b038116801590816113a9575b600114908161139f575b159081611396575b506113845767ffffffffffffffff198116600117855583611365575b506112ca6127a8565b6112d26127a8565b6112db33612483565b506112e53361250d565b506112ef336125ba565b5060018060a01b0390816001600160601b0360a01b931683600254161760025516906003541617600355604435600455611327575080f35b68ff00000000000000001981541690557fc7f505b2f371ae2175ee4913f4499e1f2633a7b5936321eed1cdaeb6115181d2602060405160018152a180f35b68ffffffffffffffffff1916680100000000000000011784555f6112c1565b60405163f92ee8a960e01b8152600490fd5b9050155f6112a5565b303b15915061129d565b859150611293565b50346101c757806003193601126101c757602060ff5f805160206128bb83398151915254166040519015158152f35b50346101c757806003193601126101c7577f00000000000000000000000000000000000000000000000000000000000000006001600160a01b0316300361144b5760206040517f360894a13ba1a3210667c828492db98dca3e2076cc3735a920a3ca505d382bbc8152f35b60405163703e46dd60e11b8152600490fd5b5060403660031901126101c757611472611d8d565b6024918235916001600160401b0383116108e157366023840112156108e1578260040135906114a082611ded565b916114ae6040519384611dcc565b808352602094368783830101116107e2578185928888930183870137840101526001600160a01b037f000000000000000000000000000000000000000000000000000000000000000081163081149081156116a6575b5061144b577f189ab7a9244df0848122154315af71fe140f3db0fe014031783b0946b8c9d2e3805f525f8051602061289b833981519152865260405f20335f52865260ff60405f2054161561168957506040516352d1902d60e01b8152908216948082600481895afa9182918693611659575b505061159557604051634c9c8ce360e01b8152600481018690528690fd5b909192947f360894a13ba1a3210667c828492db98dca3e2076cc3735a920a3ca505d382bbc918281036116445750823b1561162e575080546001600160a01b03191684179055604051927fbc7cd75a20ee27fd9adebab32041f755214dbc6bffa90cc0225b39da2e5c2d3b8580a28151156116145761053992506127e9565b50503461161f575080f35b63b398979f60e01b8152600490fd5b604051634c9c8ce360e01b815260048101869052fd5b60405190632a87526960e21b82526004820152fd5b9080929350813d8311611682575b6116718183611dcc565b810103126107e25751905f80611577565b503d611667565b866044916040519163e2517d3f60e01b8352336004840152820152fd5b9050817f360894a13ba1a3210667c828492db98dca3e2076cc3735a920a3ca505d382bbc541614155f611504565b50346101c757806003193601126101c7576116ed6123dc565b5f805160206128bb833981519152805460ff8116156117395760ff191690557f5db9ee0a495bf2e6ff9c91a7834c1ba4fdd244a5e8aa4e537bd38aeae4b073aa6020604051338152a180f35b604051638dfc202b60e01b8152600490fd5b50346101c75760403660031901126101c757611765611da3565b336001600160a01b038216036117815761053990600435612729565b60405163334bd91960e11b8152600490fd5b50346101c757806003193601126101c7576020600154604051908152f35b5034610f8d5760a0366003190112610f8d576117cb611d8d565b60243560443591608435906117de6126d0565b6117e66126ff565b8315611a2b57610e1082106119f1576001600160a01b0316803b15610f8d576040516323b872dd60e01b8152336004820152306024820152604481018490525f8160648183865af180156119e6576119d3575b506118443385611ed4565b91600154935f1985146119bf57600185016001556040519261016084018481106001600160401b03821117610645576040523384528760208501526040840152606083015284608083015260643560a083015260c08201528460e0820152816101008201526001610120820152846101408201528285528460205260096040862060018060a01b038351166001600160601b0360a01b90818354161782556001820160018060a01b0360208601511682825416179055600282019060018060a01b0360408601511690825416179055606083015160038201556080830151600482015560a0830151600582015560c0830151600682015560e083015160078201556101008301516008820155019061012081015115159060ff61ff006101408554930151151560081b1692169061ffff19161717905560405192835260208301527f3373919ad665425d2cddb4072830e5935b6ee308440fa99b23383648da473bc060403393a360015f805160206128db8339815191525580f35b634e487b7160e01b87526011600452602487fd5b6119de919550611db9565b5f935f611839565b6040513d5f823e3d90fd5b60405162461bcd60e51b8152602060048201526012602482015271111d5c985d1a5bdb881d1bdbc81cda1bdc9d60721b6044820152606490fd5b60405162461bcd60e51b815260206004820152601560248201527405072696e636970616c206d757374206265203e203605c1b6044820152606490fd5b34610f8d576040366003190112610f8d57611ab1600435611a87611da3565b90805f525f8051602061289b833981519152602052611aac600160405f200154612455565b612660565b005b34610f8d576020366003190112610f8d576004355f525f8051602061289b8339815191526020526020600160405f200154604051908152f35b34610f8d576020366003190112610f8d576020611b0a6004356122a2565b604051908152f35b34610f8d575f366003190112610f8d576020600454604051908152f35b34610f8d57602080600319360112610f8d57611b49611d8d565b90611b526123dc565b6001600160a01b0382811692908315611ccb5760025416604051916370a0823160e01b83523060048401528383602481855afa9283156119e6575f93611c9c575b508215611c615760405163a9059cbb60e01b81526001600160a01b0391909116600482015260248101839052908390829060449082905f905af19081156119e6575f91611c44575b5015611c0d57907fc0819c13be868895eb93e40eaceb96de976442fa1d404e5c55f14bb65a8c489a91604051908152a2005b60405162461bcd60e51b815260048101839052600f60248201526e151c985b9cd9995c8819985a5b1959608a1b6044820152606490fd5b611c5b9150833d8511610843576108358183611dcc565b84611bdb565b60405162461bcd60e51b81526004810185905260136024820152724e6f206665657320746f20776974686472617760681b6044820152606490fd5b9092508381813d8311611cc4575b611cb48183611dcc565b81010312610f8d57519185611b93565b503d611caa565b60405162461bcd60e51b815260048101849052600c60248201526b5a65726f206164647265737360a01b6044820152606490fd5b34610f8d576080366003190112610f8d57611d18611d8d565b506064356001600160a01b0381168103610f8d57611b0a602091604435611ed4565b34610f8d576020366003190112610f8d576004359063ffffffff60e01b8216809203610f8d57602091637965db0b60e01b8114908115611d7c575b5015158152f35b6301ffc9a760e01b14905083611d75565b600435906001600160a01b0382168203610f8d57565b602435906001600160a01b0382168203610f8d57565b6001600160401b03811161064557604052565b90601f801991011681019081106001600160401b0382111761064557604052565b6001600160401b03811161064557601f01601f191660200190565b90816080910312610f8d57604051906001600160401b0360808301818111848210176106455760405281518060070b8103610f8d57835260208201519081168103610f8d5760208301526040810151908160030b8203610f8d5760609160408401520151606082015290565b81810292918115918404141715611e8757565b634e487b7160e01b5f52601160045260245ffd5b91908203918211611e8757565b604d8111611e8757600a0a90565b8115611ec0570490565b634e487b7160e01b5f52601260045260245ffd5b9060018060a01b03806003541660049182549260408051926396834ad360e01b8452858385015260809460249686868981855afa958615612280579087915f97612261575b5088855180948193639474f45b60e01b8352898301525afa958615612257575f96612228575b505083515f8160070b13801590612220575b61219d578285019081515f8160030b125f146121d95750505160030b637fffffff19811461218b575f0363ffffffff1660068111156121aa5784516001600160401b03169060051981019081116121325790611faf611fb592611ea8565b90611eb6565b801561219d5761271098898102908082048b14901517156121325790611fda91611eb6565b936064946113888111612144575b5060649551905f8260070b136120de575b505060649581600554169788612031575b505050505061202393509061201e91611e74565b611e74565b048060641081606418021890565b8394986020949897969851998a94859363682c9a9d60e11b855216908301525afa9081156120d557505f906120a1575b6120239450610320811115612085575061201e9150606e925b90915f80808061200a565b6101f411612098575b61201e919261207a565b605a915061208e565b506020843d6020116120cd575b816120bb60209383611dcc565b81010312610f8d576120239351612061565b3d91506120ae565b513d5f823e3d90fd5b516001600160401b03918216911681811015611ff9576120fe9082611e9b565b898102908082048b1490151715612132576101f49161211c91611eb6565b11612129575b5f80611ff9565b605a9450612122565b87601186634e487b7160e01b5f52525ffd5b909490611387198101908111612132578060011b90808204600214901517156121325781900481811061217c5750505f935b5f611fe8565b810390811161218b5793612176565b86601185634e487b7160e01b5f52525ffd5b5050505050505050505f90565b6001600160401b03855116906006036006811161213257906121ce6121d492611ea8565b90611e74565b611fb5565b90915063ffffffff80911660060181811161220e5716604d811161213257906001600160401b036121d492600a0a9116611e74565b88601187634e487b7160e01b5f52525ffd5b508815611f51565b612248929650803d10612250575b6122408183611dcc565b810190611e08565b935f80611f3f565b503d612236565b83513d5f823e3d90fd5b612279919750823d8411612250576122408183611dcc565b955f611f19565b84513d5f823e3d90fd5b90816020910312610f8d57518015158103610f8d5790565b606481116122f357603781106122ee57806064039060648211611e875760c8820291820460c814906064141715611e8757612328908103908111611e8757611b58818082109118021890565b505f90565b60405162461bcd60e51b81526020600482015260136024820152724865616c7468206f7574206f662072616e676560681b6044820152606490fd5b9160208181850182865252604084019360408360051b82010194845f925b85841061235d575050505050505090565b90919293949596603f198282030184528735601e1984360301811215610f8d5783018681019190356001600160401b038111610f8d578036038313610f8d5787828280600196849695859652848401375f828201840152601f01601f191601019901979695919091019301919061234c565b91908201809211611e8757565b335f9081527fb16e88c42fd4e48df2dd6a2eabd6bc9aec654ec170056b470819f8892cc6431c60205260409020547fa49807205ce4d355092ef5a8a18f56e8913cf4a201fbe287825b095693c217759060ff16156124375750565b6044906040519063e2517d3f60e01b82523360048301526024820152fd5b805f525f8051602061289b83398151915260205260405f20335f5260205260ff60405f205416156124375750565b6001600160a01b03165f8181527fb7db2dd08fcb62d0c9e08c51941cae53c267786a0b75803fb7960902fc8ef97d60205260409020545f8051602061289b8339815191529060ff16612507575f805260205260405f20815f5260205260405f20600160ff1982541617905533905f5f8051602061287b8339815191528180a4600190565b50505f90565b6001600160a01b03165f8181527fb16e88c42fd4e48df2dd6a2eabd6bc9aec654ec170056b470819f8892cc6431c60205260409020547fa49807205ce4d355092ef5a8a18f56e8913cf4a201fbe287825b095693c2177591905f8051602061289b8339815191529060ff166125b357825f5260205260405f20815f5260205260405f20600160ff1982541617905533915f8051602061287b8339815191525f80a4600190565b5050505f90565b6001600160a01b03165f8181527fab71e3f32666744d246edff3f96e4bdafee2e9867098cdd118a979a7464786a860205260409020547f189ab7a9244df0848122154315af71fe140f3db0fe014031783b0946b8c9d2e391905f8051602061289b8339815191529060ff166125b357825f5260205260405f20815f5260205260405f20600160ff1982541617905533915f8051602061287b8339815191525f80a4600190565b90815f525f8051602061289b8339815191528060205260405f209160018060a01b031691825f5260205260ff60405f205416155f146125b357825f5260205260405f20815f5260205260405f20600160ff1982541617905533915f8051602061287b8339815191525f80a4600190565b5f805160206128db83398151915260028154146126ed5760029055565b604051633ee5aeb560e01b8152600490fd5b60ff5f805160206128bb833981519152541661271757565b60405163d93c066560e01b8152600490fd5b90815f525f8051602061289b8339815191528060205260405f209160018060a01b031691825f5260205260ff60405f2054165f146125b357825f5260205260405f20815f5260205260405f2060ff19815416905533917ff6391f5c32d9c69d2a47ea670b442974b53935d1edc7fd64eb21e047a839171b5f80a4600190565b60ff7ff0c57e16840df040f15088dc2f81fe391c3923bec73e23a9662efc9c229c6a005460401c16156127d757565b604051631afcd79f60e31b8152600490fd5b905f8091602081519101845af48080612867575b1561281d5750506040513d81523d5f602083013e60203d82010160405290565b1561284457604051639996b31560e01b81526001600160a01b039091166004820152602490fd5b3d15612855576040513d5f823e3d90fd5b60405163d6bda27560e01b8152600490fd5b503d1515806127fd5750813b15156127fd56fe2f8788117e7eff1d82e926ec794901d17c78024a50270940304540a733656f0d02dd7bc7dec4dceedda775e58dd541e08a116c6c53815c0bd028192f7b626800cd5ed15c6e187e77e9aee88184c21f4f2182ab5827cb3b7e07fbedcd63f033009b779b17422d0df92223018b32b4d1fa46e071723d6817e2486d003becc55f00a264697066735822122018ca4f4d954d420876352bca70d4a7d87b62055f7e84f30b2042f6b5d962f95464736f6c63430008180033","linkReferences":{}},"methodIdentifiers":{"ADMIN_ROLE()":"75b238fc","BROKER_FEE_BPS()":"c0f13b56","DEFAULT_ADMIN_ROLE()":"a217fddf","MIN_DURATION()":"b6a6d177","UPGRADER_ROLE()":"f72c0d8b","UPGRADE_INTERFACE_VERSION()":"ad3cb1cc","acceptLoan(uint256,bytes[])":"7eba024c","cancelLoanOffer(uint256)":"74cbe57e","claimDefault(uint256)":"facd66c7","createLoanOffer(address,uint256,uint256,uint256,uint256)":"2fca6371","feeToken()":"647846a5","getHealthScore(address,uint256,uint256,address)":"09007543","getRoleAdmin(bytes32)":"248a9ca3","grantRole(bytes32,address)":"2f2ff15d","hasRole(bytes32,address)":"91d14854","initialize(address,address,bytes32)":"6133f985","loanCounter()":"34d9289e","loans(uint256)":"e1ec3c68","pause()":"8456cb59","paused()":"5c975abb","priceFeedId()":"1999bb9e","proxiableUUID()":"52d1902d","pythOracle()":"f5d6ac90","renounceRole(bytes32,address)":"36568abe","repayLoan(uint256)":"ab7b1c89","reputationOracle()":"fad844c1","revokeRole(bytes32,address)":"d547741f","setReputationOracle(address)":"d19cfdac","setStakingContract(address)":"9dd373b9","stakingContract()":"ee99205c","suggestLTV(uint256)":"1de2346a","supportsInterface(bytes4)":"01ffc9a7","unpause()":"3f4ba83a","upgradeToAndCall(address,bytes)":"4f1ef286","withdrawFees(address)":"164e68de"},"id":2}