{"abi":[{"type":"constructor","inputs":[],"stateMutability":"nonpayable"},{"type":"function","name":"ADMIN_ROLE","inputs":[],"outputs":[{"name":"","type":"bytes32","internalType":"bytes32"}],"stateMutability":"view"},{"type":"function","name":"BROKER_FEE_BPS","inputs":[],"outputs":[{"name":"","type":"uint256","internalType":"uint256"}],"stateMutability":"view"},{"type":"function","name":"DEFAULT_ADMIN_ROLE","inputs":[],"outputs":[{"name":"","type":"bytes32","internalType":"bytes32"}],"stateMutability":"view"},{"type":"function","name":"MIN_DURATION","inputs":[],"outputs":[{"name":"","type":"uint256","internalType":"uint256"}],"stateMutability":"view"},{"type":"function","name":"UPGRADER_ROLE","inputs":[],"outputs":[{"name":"","type":"bytes32","internalType":"bytes32"}],"stateMutability":"view"},{"type":"function","name":"UPGRADE_INTERFACE_VERSION","inputs":[],"outputs":[{"name":"","type":"string","internalType":"string"}],"stateMutability":"view"},{"type":"function","name":"acceptLoan","inputs":[{"name":"loanId","type":"uint256","internalType":"uint256"},{"name":"priceUpdateData","type":"bytes[]","internalType":"bytes[]"}],"outputs":[],"stateMutability":"payable"},{"type":"function","name":"bundleVault","inputs":[],"outputs":[{"name":"","type":"address","internalType":"address"}],"stateMutability":"view"},{"type":"function","name":"cancelLoanOffer","inputs":[{"name":"loanId","type":"uint256","internalType":"uint256"}],"outputs":[],"stateMutability":"nonpayable"},{"type":"function","name":"claimDefault","inputs":[{"name":"loanId","type":"uint256","internalType":"uint256"}],"outputs":[],"stateMutability":"nonpayable"},{"type":"function","name":"createLoanOffer","inputs":[{"name":"nftContract","type":"address","internalType":"address"},{"name":"nftId","type":"uint256","internalType":"uint256"},{"name":"principal","type":"uint256","internalType":"uint256"},{"name":"interest","type":"uint256","internalType":"uint256"},{"name":"duration","type":"uint256","internalType":"uint256"}],"outputs":[],"stateMutability":"nonpayable"},{"type":"function","name":"feeToken","inputs":[],"outputs":[{"name":"","type":"address","internalType":"contract IERC20"}],"stateMutability":"view"},{"type":"function","name":"getHealthScore","inputs":[{"name":"nftContract","type":"address","internalType":"address"},{"name":"nftId","type":"uint256","internalType":"uint256"},{"name":"principal","type":"uint256","internalType":"uint256"},{"name":"borrower","type":"address","internalType":"address"}],"outputs":[{"name":"","type":"uint256","internalType":"uint256"}],"stateMutability":"view"},{"type":"function","name":"getRoleAdmin","inputs":[{"name":"role","type":"bytes32","internalType":"bytes32"}],"outputs":[{"name":"","type":"bytes32","internalType":"bytes32"}],"stateMutability":"view"},{"type":"function","name":"grantRole","inputs":[{"name":"role","type":"bytes32","internalType":"bytes32"},{"name":"account","type":"address","internalType":"address"}],"outputs":[],"stateMutability":"nonpayable"},{"type":"function","name":"hasRole","inputs":[{"name":"role","type":"bytes32","internalType":"bytes32"},{"name":"account","type":"address","internalType":"address"}],"outputs":[{"name":"","type":"bool","internalType":"bool"}],"stateMutability":"view"},{"type":"function","name":"initialize","inputs":[{"name":"_feeToken","type":"address","internalType":"address"},{"name":"_pythOracle","type":"address","internalType":"address"},{"name":"_priceFeedId","type":"bytes32","internalType":"bytes32"}],"outputs":[],"stateMutability":"nonpayable"},{"type":"function","name":"loanCounter","inputs":[],"outputs":[{"name":"","type":"uint256","internalType":"uint256"}],"stateMutability":"view"},{"type":"function","name":"loans","inputs":[{"name":"","type":"uint256","internalType":"uint256"}],"outputs":[{"name":"borrower","type":"address","internalType":"address"},{"name":"lender","type":"address","internalType":"address"},{"name":"nftContract","type":"address","internalType":"address"},{"name":"nftId","type":"uint256","internalType":"uint256"},{"name":"principal","type":"uint256","internalType":"uint256"},{"name":"interest","type":"uint256","internalType":"uint256"},{"name":"duration","type":"uint256","internalType":"uint256"},{"name":"startTime","type":"uint256","internalType":"uint256"},{"name":"healthSnapshot","type":"uint256","internalType":"uint256"},{"name":"active","type":"bool","internalType":"bool"},{"name":"repaid","type":"bool","internalType":"bool"}],"stateMutability":"view"},{"type":"function","name":"pause","inputs":[],"outputs":[],"stateMutability":"nonpayable"},{"type":"function","name":"paused","inputs":[],"outputs":[{"name":"","type":"bool","internalType":"bool"}],"stateMutability":"view"},{"type":"function","name":"priceFeedId","inputs":[],"outputs":[{"name":"","type":"bytes32","internalType":"bytes32"}],"stateMutability":"view"},{"type":"function","name":"proxiableUUID","inputs":[],"outputs":[{"name":"","type":"bytes32","internalType":"bytes32"}],"stateMutability":"view"},{"type":"function","name":"pythOracle","inputs":[],"outputs":[{"name":"","type":"address","internalType":"contract IPyth"}],"stateMutability":"view"},{"type":"function","name":"renounceRole","inputs":[{"name":"role","type":"bytes32","internalType":"bytes32"},{"name":"callerConfirmation","type":"address","internalType":"address"}],"outputs":[],"stateMutability":"nonpayable"},{"type":"function","name":"repayLoan","inputs":[{"name":"loanId","type":"uint256","internalType":"uint256"}],"outputs":[],"stateMutability":"nonpayable"},{"type":"function","name":"reputationOracle","inputs":[],"outputs":[{"name":"","type":"address","internalType":"contract IAgentReputation"}],"stateMutability":"view"},{"type":"function","name":"revokeRole","inputs":[{"name":"role","type":"bytes32","internalType":"bytes32"},{"name":"account","type":"address","internalType":"address"}],"outputs":[],"stateMutability":"nonpayable"},{"type":"function","name":"setBundleVault","inputs":[{"name":"_bundleVault","type":"address","internalType":"address"}],"outputs":[],"stateMutability":"nonpayable"},{"type":"function","name":"setReputationOracle","inputs":[{"name":"_reputationOracle","type":"address","internalType":"address"}],"outputs":[],"stateMutability":"nonpayable"},{"type":"function","name":"setStakingContract","inputs":[{"name":"_stakingContract","type":"address","internalType":"address"}],"outputs":[],"stateMutability":"nonpayable"},{"type":"function","name":"setTokenPriceFeed","inputs":[{"name":"token","type":"address","internalType":"address"},{"name":"feedId","type":"bytes32","internalType":"bytes32"}],"outputs":[],"stateMutability":"nonpayable"},{"type":"function","name":"stakingContract","inputs":[],"outputs":[{"name":"","type":"address","internalType":"contract IClawStreetStaking"}],"stateMutability":"view"},{"type":"function","name":"suggestLTV","inputs":[{"name":"health","type":"uint256","internalType":"uint256"}],"outputs":[{"name":"","type":"uint256","internalType":"uint256"}],"stateMutability":"pure"},{"type":"function","name":"supportsInterface","inputs":[{"name":"interfaceId","type":"bytes4","internalType":"bytes4"}],"outputs":[{"name":"","type":"bool","internalType":"bool"}],"stateMutability":"view"},{"type":"function","name":"tokenPriceFeeds","inputs":[{"name":"","type":"address","internalType":"address"}],"outputs":[{"name":"","type":"bytes32","internalType":"bytes32"}],"stateMutability":"view"},{"type":"function","name":"unpause","inputs":[],"outputs":[],"stateMutability":"nonpayable"},{"type":"function","name":"upgradeToAndCall","inputs":[{"name":"newImplementation","type":"address","internalType":"address"},{"name":"data","type":"bytes","internalType":"bytes"}],"outputs":[],"stateMutability":"payable"},{"type":"function","name":"withdrawFees","inputs":[{"name":"to","type":"address","internalType":"address"}],"outputs":[],"stateMutability":"nonpayable"},{"type":"event","name":"FeeCollected","inputs":[{"name":"amount","type":"uint256","indexed":false,"internalType":"uint256"}],"anonymous":false},{"type":"event","name":"FeesWithdrawn","inputs":[{"name":"to","type":"address","indexed":true,"internalType":"address"},{"name":"amount","type":"uint256","indexed":false,"internalType":"uint256"}],"anonymous":false},{"type":"event","name":"Initialized","inputs":[{"name":"version","type":"uint64","indexed":false,"internalType":"uint64"}],"anonymous":false},{"type":"event","name":"LoanAccepted","inputs":[{"name":"loanId","type":"uint256","indexed":true,"internalType":"uint256"},{"name":"lender","type":"address","indexed":true,"internalType":"address"}],"anonymous":false},{"type":"event","name":"LoanCancelled","inputs":[{"name":"loanId","type":"uint256","indexed":true,"internalType":"uint256"}],"anonymous":false},{"type":"event","name":"LoanCreated","inputs":[{"name":"loanId","type":"uint256","indexed":true,"internalType":"uint256"},{"name":"borrower","type":"address","indexed":true,"internalType":"address"},{"name":"principal","type":"uint256","indexed":false,"internalType":"uint256"},{"name":"health","type":"uint256","indexed":false,"internalType":"uint256"}],"anonymous":false},{"type":"event","name":"LoanDefaulted","inputs":[{"name":"loanId","type":"uint256","indexed":true,"internalType":"uint256"}],"anonymous":false},{"type":"event","name":"LoanRepaid","inputs":[{"name":"loanId","type":"uint256","indexed":true,"internalType":"uint256"}],"anonymous":false},{"type":"event","name":"Paused","inputs":[{"name":"account","type":"address","indexed":false,"internalType":"address"}],"anonymous":false},{"type":"event","name":"RoleAdminChanged","inputs":[{"name":"role","type":"bytes32","indexed":true,"internalType":"bytes32"},{"name":"previousAdminRole","type":"bytes32","indexed":true,"internalType":"bytes32"},{"name":"newAdminRole","type":"bytes32","indexed":true,"internalType":"bytes32"}],"anonymous":false},{"type":"event","name":"RoleGranted","inputs":[{"name":"role","type":"bytes32","indexed":true,"internalType":"bytes32"},{"name":"account","type":"address","indexed":true,"internalType":"address"},{"name":"sender","type":"address","indexed":true,"internalType":"address"}],"anonymous":false},{"type":"event","name":"RoleRevoked","inputs":[{"name":"role","type":"bytes32","indexed":true,"internalType":"bytes32"},{"name":"account","type":"address","indexed":true,"internalType":"address"},{"name":"sender","type":"address","indexed":true,"internalType":"address"}],"anonymous":false},{"type":"event","name":"StakingContractSet","inputs":[{"name":"stakingContract","type":"address","indexed":true,"internalType":"address"}],"anonymous":false},{"type":"event","name":"Unpaused","inputs":[{"name":"account","type":"address","indexed":false,"internalType":"address"}],"anonymous":false},{"type":"event","name":"Upgraded","inputs":[{"name":"implementation","type":"address","indexed":true,"internalType":"address"}],"anonymous":false},{"type":"error","name":"AccessControlBadConfirmation","inputs":[]},{"type":"error","name":"AccessControlUnauthorizedAccount","inputs":[{"name":"account","type":"address","internalType":"address"},{"name":"neededRole","type":"bytes32","internalType":"bytes32"}]},{"type":"error","name":"AddressEmptyCode","inputs":[{"name":"target","type":"address","internalType":"address"}]},{"type":"error","name":"ERC1967InvalidImplementation","inputs":[{"name":"implementation","type":"address","internalType":"address"}]},{"type":"error","name":"ERC1967NonPayable","inputs":[]},{"type":"error","name":"EnforcedPause","inputs":[]},{"type":"error","name":"ExpectedPause","inputs":[]},{"type":"error","name":"FailedCall","inputs":[]},{"type":"error","name":"InvalidInitialization","inputs":[]},{"type":"error","name":"NotInitializing","inputs":[]},{"type":"error","name":"ReentrancyGuardReentrantCall","inputs":[]},{"type":"error","name":"SafeERC20FailedOperation","inputs":[{"name":"token","type":"address","internalType":"address"}]},{"type":"error","name":"UUPSUnauthorizedCallContext","inputs":[]},{"type":"error","name":"UUPSUnsupportedProxiableUUID","inputs":[{"name":"slot","type":"bytes32","internalType":"bytes32"}]}],"bytecode":{"object":"0x60a080604052346100f1573060805260017f9b779b17422d0df92223018b32b4d1fa46e071723d6817e2486d003becc55f00557ff0c57e16840df040f15088dc2f81fe391c3923bec73e23a9662efc9c229c6a009081549060ff8260401c166100e257506001600160401b036002600160401b03198282160161009d575b6040516133859081620000f682396080518181816118cd01526119f00152f35b6001600160401b031990911681179091556040519081527fc7f505b2f371ae2175ee4913f4499e1f2633a7b5936321eed1cdaeb6115181d290602090a15f808061007d565b63f92ee8a960e01b8152600490fd5b5f80fdfe6080806040526004361015610012575f80fd5b5f905f3560e01c90816301ffc9a7146122a057508063090075431461225f578063164e68de146120775780631999bb9e1461205a5780631de2346a14612034578063248a9ca314611ffb5780632f2ff15d14611fb05780632fca637114611cf257806334d9289e14611cd457806336568abe14611c8c5780633f4ba83a14611c1557806345ba733d14611bec5780634f1ef2861461197557806350abbd941461193757806352d1902d146118ba5780635c975abb1461188b5780635fd0740a1461184b5780636133f985146116ca578063647846a5146116a157806374cbe57e1461150057806375b238fc146114c55780637eba024c14610e705780638456cb5914610e0957806391d1485414610db35780639dd373b914610d4b578063a217fddf14610d2f578063ab7b1c8914610a9b578063ad3cb1cc146109f8578063b6a6d177146109db578063bd9c47e3146109a2578063c0f13b5614610986578063d19cfdac14610946578063d547741f146108f8578063e1ec3c681461084b578063ee99205c14610822578063f5d6ac90146107f9578063f72c0d8b146107be578063facd66c7146101f65763fad844c1146101cb575f80fd5b346101f357806003193601126101f3576005546040516001600160a01b039091168152602090f35b80fd5b50346101f35760203660031901126101f3576102106130a7565b6102186130d6565b60043581528060205260408120600981015460ff811690816107af575b501561077b5760018101546001600160a01b0316801561074457610262600783015460068401549061297c565b42111561070b5760028201546007546001600160a01b039182169291168083149081610701575b5015610691575050906102a5600483015460058401549061297c565b9060018060a01b036007541690600384015490604051636e9fb8a560e01b81528260048201528181602481875afa948515610686578293839584938598610655575b506102f182612be8565b91813b1561043a57859160248392604051948593849263f008852d60e01b845260048401525af1801561064a57908591610632575b505080158015610628575b1561048a575050815b835181101561037f576001906103796001600160a01b0361035b8388612bc0565b5116838060a01b03848b015416610372848a612bc0565b51916131c0565b0161033a565b5093925093849150815b845181101561043e576001600160a01b036103a48287612bc0565b5160018401549116906001600160a01b03166103c08387612bc0565b51823b1561043a576040516323b872dd60e01b81523060048201526001600160a01b0392909216602483015260448201529084908290606490829084905af190811561042f578491610417575b5050600101610389565b6104209061231f565b61042b57825f61040d565b8280fd5b6040513d86823e3d90fd5b8580fd5b50925050505b600901805460ff191690556004357f0789b7097e8066538cfaa1132488b132e14ba5f0c938c8b7aaf8cf40356aab0b8280a260015f805160206133308339815191525580f35b670de0b6b3a76400009794959793918481029080820486149015171561061457906104b491612401565b91815b865181101561055c5780806104ef8b6104e9896104e08a6104da60019986612bc0565b516123da565b04938492612bc0565b5161241f565b908061052f575b5080610504575b50016104b7565b61052990838060a01b03610518848c612bc0565b5116848060a01b038a5416906131c0565b5f6104fd565b61055690848060a01b03610543858d612bc0565b5116858060a01b03868c015416906131c0565b5f6104f6565b50959450955050508390815b845181101561060a576001600160a01b036105838287612bc0565b5160018401549116906001600160a01b031661059f8387612bc0565b51823b1561043a576040516323b872dd60e01b81523060048201526001600160a01b0392909216602483015260448201529084908290606490829084905af190811561042f5784916105f6575b5050600101610568565b6105ff9061231f565b61042b57825f6105ec565b5092505050610444565b634e487b7160e01b83526011600452602483fd5b5081811115610331565b61063b9061231f565b61064657835f610326565b8380fd5b6040513d87823e3d90fd5b9296509650935061067891503d8084833e6106708183612332565b810190612b4d565b96919592949092915f6102e7565b6040513d84823e3d90fd5b9083916003840154823b15610646576040516323b872dd60e01b81523060048201526001600160a01b0392909216602483015260448201529082908290606490829084905af18015610686576106e9575b5050610444565b6106f29061231f565b6106fd57815f6106e2565b5080fd5b905015155f610289565b60405162461bcd60e51b8152602060048201526011602482015270139bdd081e595d08191959985d5b1d1959607a1b6044820152606490fd5b60405162461bcd60e51b815260206004820152600f60248201526e131bd85b881b9bdd08199d5b991959608a1b6044820152606490fd5b60405162461bcd60e51b815260206004820152600c60248201526b24b73b30b634b2103637b0b760a11b6044820152606490fd5b60ff915060081c16155f610235565b50346101f357806003193601126101f35760206040517f189ab7a9244df0848122154315af71fe140f3db0fe014031783b0946b8c9d2e38152f35b50346101f357806003193601126101f3576003546040516001600160a01b039091168152602090f35b50346101f357806003193601126101f3576006546040516001600160a01b039091168152602090f35b50346101f35760203660031901126101f3576040610160916004358152806020522060ff60018060a01b03808354169281600182015416916002820154166003820154600483015460058401549060068501549260078601549460096008880154970154976040519a8b5260208b015260408a01526060890152608088015260a087015260c086015260e0850152610100840152818116151561012084015260081c161515610140820152f35b50346101f35760403660031901126101f357610942600435610918612309565b908084525f805160206132f083398151915260205261093d6001604086200154612e32565b613100565b5080f35b50346101f35760203660031901126101f3576109606122f3565b610968612db9565b60018060a01b03166001600160601b0360a01b600554161760055580f35b50346101f357806003193601126101f357602060405160648152f35b50346101f35760203660031901126101f3576020906040906001600160a01b036109ca6122f3565b168152600883522054604051908152f35b50346101f357806003193601126101f3576020604051610e108152f35b50346101f357806003193601126101f357604051604081018181106001600160401b03821117610a875760405260058152602091640352e302e360dc1b602083015260405192839160208352835191826020850152815b838110610a7057505060408094508284010152601f80199101168101030190f35b808601820151878201604001528694508101610a4f565b634e487b7160e01b5f52604160045260245ffd5b50346101f3576020806003193601126106fd5760043590610aba6130a7565b610ac26130d6565b818352828152604083206009810191825460ff81169081610d20575b5015610ce75781546001600160a01b039081169133839003610ca357610b5981610b11600487015460058801549061297c565b8460025416856001890154168b6040518096819582946323b872dd60e01b9c8d85526004850160409194939294606082019560018060a01b0380921683521660208201520152565b03925af1908115610c98578891610c5f575b5015610c285750908160038493600289960154169184541693015490803b15610c24576040519283523060048401526001600160a01b0393909316602483015260448201529082908290606490829084905af1801561068657610c10575b5050805461ffff19166101001790557f9a7851747cd7ffb3fe0a32caf3da48b31f27cebe131267051640f8b72fc471868280a260015f805160206133308339815191525580f35b610c199061231f565b61042b57825f610bc9565b8480fd5b6064906040519062461bcd60e51b82526004820152601060248201526f14995c185e5b595b9d0819985a5b195960821b6044820152fd5b90508181813d8311610c91575b610c768183612332565b81010312610c8d57610c879061242c565b5f610b6b565b8780fd5b503d610c6c565b6040513d8a823e3d90fd5b6064906040519062461bcd60e51b82526004820152601760248201527f4f6e6c7920626f72726f7765722063616e2072657061790000000000000000006044820152fd5b6064906040519062461bcd60e51b825260048201526012602482015271496e76616c6964206c6f616e20737461746560701b6044820152fd5b60ff915060081c16155f610ade565b50346101f357806003193601126101f357602090604051908152f35b50346101f35760203660031901126101f357610d656122f3565b610d6d612db9565b600680546001600160a01b0319166001600160a01b039290921691821790557f1253844b0fff3da7dd2829de816c9b4f94c238cf2bf6eb72c02c7d6f2b53beac8280a280f35b50346101f35760403660031901126101f3576040610dcf612309565b9160043581525f805160206132f0833981519152602052209060018060a01b03165f52602052602060ff60405f2054166040519015158152f35b50346101f357806003193601126101f357610e22612db9565b610e2a6130d6565b5f80516020613310833981519152600160ff198254161790557f62e78cea01bee320cd4e420270b5ea74000d11b0c9f74754ebdbfc544b05a2586020604051338152a180f35b5060403660031901126101f3576001600160401b03602480359060043590838311610c245736602384011215610c24578260040135938411610c2457808301928136918660051b010111610c2457610ec66130a7565b610ece6130d6565b818552602092858452604086209460ff600987015416806114b0575b156114775785546001600160a01b0392908316331461143d5781611295575b5050600485015494606486028681046064148715171561128257612710610f329104809761241f565b60025482546040516323b872dd60e01b8082523360048301529186166001600160a01b0316602482015260448101939093529190879082908616818c816064810103925af190811561127757899161123e575b50156111fa57600254604051918252336004830152306024830152604482018890528690829060649082908c9088165af1908115610c985788916111c5575b501561118b576001810180546001600160a01b0319163317905542600790910155600654811680151580611182575b61105e575b5050507fc472cb3a7a659a876494d66b3063145f279701771d6150b9329c31611ed6405c926040519133907f3ad02261725390771e704d06848ed8e414d628daf1b8dbffe111f437c848d6208780a38152a160015f805160206133308339815191525580f35b60025460405163a9059cbb60e01b81526001600160a01b03929092166004830152602482018790528590829060449082908b9087165af190811561117757879161113e575b50156110fa579085916006541690813b1561042b57829182916040518094819363fd5773a960e01b83528a60048401525af18015610686576110e6575b80610ff8565b6110ef9061231f565b61064657835f6110e0565b60405162461bcd60e51b815260048101859052601e818401527f466565207472616e7366657220746f207374616b696e67206661696c656400006044820152606490fd5b90508481813d8311611170575b6111558183612332565b8101031261116c576111669061242c565b5f6110a3565b8680fd5b503d61114b565b6040513d89823e3d90fd5b50851515610ff3565b60405162461bcd60e51b81526004810186905260138185015272119959481d1c985b9cd9995c8819985a5b1959606a1b6044820152606490fd5b90508581813d83116111f3575b6111dc8183612332565b81010312610c8d576111ed9061242c565b5f610fc4565b503d6111d2565b60405162461bcd60e51b8152600481018790526019818601527f5072696e636970616c207472616e73666572206661696c6564000000000000006044820152606490fd5b90508681813d8311611270575b6112558183612332565b8101031261126c576112669061242c565b5f610f85565b8880fd5b503d61124b565b6040513d8b823e3d90fd5b634e487b7160e01b885260116004528388fd5b8260035416906040519263d47eed4560e01b84528784806112ba8486600484016128db565b0381865afa938415611432578a946113ff575b508334106113bb579082918a94933b15610c245761130492859285604051809681958294631df3cbc560e31b8452600484016128db565b03925af19081156113b057839161139c575b505080341115610f0957818061132d81933461241f565b335af13d15611397573d61134081612353565b9061134e6040519283612332565b815287863d92013e5b1561136357855f610f09565b60405162461bcd60e51b815260048101859052600d818401526c1499599d5b990819985a5b1959609a1b6044820152606490fd5b611357565b6113a59061231f565b6106fd57815f611316565b6040513d85823e3d90fd5b60405162461bcd60e51b8152600481018990526019818801527f496e73756666696369656e742066656520666f722050797468000000000000006044820152606490fd5b9093508781813d831161142b575b6114178183612332565b810103126114275751925f6112cd565b5f80fd5b503d61140d565b6040513d8c823e3d90fd5b60405162461bcd60e51b8152600481018790526013818601527221b0b73737ba103632b732103a379039b2b63360691b6044820152606490fd5b60405162461bcd60e51b815260048101869052601281850152714c6f616e206e6f7420617661696c61626c6560701b6044820152606490fd5b5060018601546001600160a01b031615610eea565b50346101f357806003193601126101f35760206040517fa49807205ce4d355092ef5a8a18f56e8913cf4a201fbe287825b095693c217758152f35b50346101f35760203660031901126101f35760043561151d6130a7565b6115256130d6565b8082528160205260408220600981019060ff8254168061168c575b1561163b5780546001600160a01b0391908216338190036116075760038693600284015416920154823b15610646576040516323b872dd60e01b81523060048201526001600160a01b0392909216602483015260448201529082908290606490829084905af18015610686576115f3575b5050805460ff191690557fb71becc91961a6b43bcc5b3b630f3dce02c7fd444cf3738c4f188062b1caf5bc8280a260015f805160206133308339815191525580f35b6115fc9061231f565b61042b57825f6115b1565b60405162461bcd60e51b815260206004820152600c60248201526b2737ba103137b93937bbb2b960a11b6044820152606490fd5b60405162461bcd60e51b815260206004820152602360248201527f43616e6e6f742063616e63656c20616374697665206f722066756e646564206c60448201526237b0b760e91b6064820152608490fd5b5060018101546001600160a01b031615611540565b50346101f357806003193601126101f3576002546040516001600160a01b039091168152602090f35b50346101f35760603660031901126101f3576116e46122f3565b6116ec612309565b7ff0c57e16840df040f15088dc2f81fe391c3923bec73e23a9662efc9c229c6a009182549160ff8360401c1615926001600160401b03811680159081611843575b6001149081611839575b159081611830575b5061181e5767ffffffffffffffff1981166001178555836117ff575b5061176461317f565b61176c61317f565b61177533612e60565b5061177f33612ee4565b5061178933612f91565b5060018060a01b0390816001600160601b0360a01b9316836002541617600255169060035416176003556044356004556117c1575080f35b68ff00000000000000001981541690557fc7f505b2f371ae2175ee4913f4499e1f2633a7b5936321eed1cdaeb6115181d2602060405160018152a180f35b68ffffffffffffffffff1916680100000000000000011784555f61175b565b60405163f92ee8a960e01b8152600490fd5b9050155f61173f565b303b159150611737565b85915061172d565b50346101f35760203660031901126101f3576118656122f3565b61186d612db9565b60018060a01b03166001600160601b0360a01b600754161760075580f35b50346101f357806003193601126101f357602060ff5f8051602061331083398151915254166040519015158152f35b50346101f357806003193601126101f3577f00000000000000000000000000000000000000000000000000000000000000006001600160a01b031630036119255760206040517f360894a13ba1a3210667c828492db98dca3e2076cc3735a920a3ca505d382bbc8152f35b60405163703e46dd60e11b8152600490fd5b50346101f35760403660031901126101f3576119516122f3565b611959612db9565b6001600160a01b03168152600860205260408120602435905580f35b5060403660031901126101f35761198a6122f3565b6024918235916001600160401b0383116106fd57366023840112156106fd578260040135906119b882612353565b916119c66040519384612332565b80835260209436878383010111610c24578185928888930183870137840101526001600160a01b037f00000000000000000000000000000000000000000000000000000000000000008116308114908115611bbe575b50611925577f189ab7a9244df0848122154315af71fe140f3db0fe014031783b0946b8c9d2e3805f525f805160206132f0833981519152865260405f20335f52865260ff60405f20541615611ba157506040516352d1902d60e01b8152908216948082600481895afa9182918693611b71575b5050611aad57604051634c9c8ce360e01b8152600481018690528690fd5b909192947f360894a13ba1a3210667c828492db98dca3e2076cc3735a920a3ca505d382bbc91828103611b5c5750823b15611b46575080546001600160a01b03191684179055604051927fbc7cd75a20ee27fd9adebab32041f755214dbc6bffa90cc0225b39da2e5c2d3b8580a2815115611b2c57610942925061323e565b505034611b37575080f35b63b398979f60e01b8152600490fd5b604051634c9c8ce360e01b815260048101869052fd5b60405190632a87526960e21b82526004820152fd5b9080929350813d8311611b9a575b611b898183612332565b81010312610c245751905f80611a8f565b503d611b7f565b866044916040519163e2517d3f60e01b8352336004840152820152fd5b9050817f360894a13ba1a3210667c828492db98dca3e2076cc3735a920a3ca505d382bbc541614155f611a1c565b50346101f357806003193601126101f3576007546040516001600160a01b039091168152602090f35b50346101f357806003193601126101f357611c2e612db9565b5f80516020613310833981519152805460ff811615611c7a5760ff191690557f5db9ee0a495bf2e6ff9c91a7834c1ba4fdd244a5e8aa4e537bd38aeae4b073aa6020604051338152a180f35b604051638dfc202b60e01b8152600490fd5b50346101f35760403660031901126101f357611ca6612309565b336001600160a01b03821603611cc25761094290600435613100565b60405163334bd91960e11b8152600490fd5b50346101f357806003193601126101f3576020600154604051908152f35b50346114275760a036600319011261142757611d0c6122f3565b6024356044359160843590611d1f6130a7565b611d276130d6565b8315611f7357610e108210611f39576001600160a01b03811690813b15611427576040516323b872dd60e01b8152336004820152306024820152604481018590525f8160648183875af18015611f2e57611f19575b50611d8a9085853392612439565b91600154935f198514611f0557600185016001556040519261016084018481106001600160401b03821117610a87576040523384528760208501526040840152606083015284608083015260643560a083015260c08201528460e0820152816101008201526001610120820152846101408201528285528460205260096040862060018060a01b038351166001600160601b0360a01b90818354161782556001820160018060a01b0360208601511682825416179055600282019060018060a01b0360408601511690825416179055606083015160038201556080830151600482015560a0830151600582015560c0830151600682015560e083015160078201556101008301516008820155019061012081015115159060ff61ff006101408554930151151560081b1692169061ffff19161717905560405192835260208301527f3373919ad665425d2cddb4072830e5935b6ee308440fa99b23383648da473bc060403393a360015f805160206133308339815191525580f35b634e487b7160e01b87526011600452602487fd5b611f2491965061231f565b5f94611d8a611d7c565b6040513d5f823e3d90fd5b60405162461bcd60e51b8152602060048201526012602482015271111d5c985d1a5bdb881d1bdbc81cda1bdc9d60721b6044820152606490fd5b60405162461bcd60e51b815260206004820152601560248201527405072696e636970616c206d757374206265203e203605c1b6044820152606490fd5b3461142757604036600319011261142757611ff9600435611fcf612309565b90805f525f805160206132f0833981519152602052611ff4600160405f200154612e32565b613037565b005b34611427576020366003190112611427576004355f525f805160206132f08339815191526020526020600160405f200154604051908152f35b3461142757602036600319011261142757602061205260043561284f565b604051908152f35b34611427575f366003190112611427576020600454604051908152f35b3461142757602080600319360112611427576120916122f3565b9061209a612db9565b6001600160a01b038281169290831561222b5760025416604051916370a0823160e01b83523060048401528383602481855afa928315611f2e575f936121fc575b5082156121c15760405163a9059cbb60e01b81526001600160a01b0391909116600482015260248101839052908390829060449082905f905af1908115611f2e575f9161218c575b501561215557907fc0819c13be868895eb93e40eaceb96de976442fa1d404e5c55f14bb65a8c489a91604051908152a2005b60405162461bcd60e51b815260048101839052600f60248201526e151c985b9cd9995c8819985a5b1959608a1b6044820152606490fd5b90508281813d83116121ba575b6121a38183612332565b81010312611427576121b49061242c565b84612123565b503d612199565b60405162461bcd60e51b81526004810185905260136024820152724e6f206665657320746f20776974686472617760681b6044820152606490fd5b9092508381813d8311612224575b6122148183612332565b81010312611427575191856120db565b503d61220a565b60405162461bcd60e51b815260048101849052600c60248201526b5a65726f206164647265737360a01b6044820152606490fd5b34611427576080366003190112611427576122786122f3565b606435906001600160a01b038216820361142757602091612052916044359060243590612439565b34611427576020366003190112611427576004359063ffffffff60e01b821680920361142757602091637965db0b60e01b81149081156122e2575b5015158152f35b6301ffc9a760e01b149050836122db565b600435906001600160a01b038216820361142757565b602435906001600160a01b038216820361142757565b6001600160401b038111610a8757604052565b90601f801991011681019081106001600160401b03821117610a8757604052565b6001600160401b038111610a8757601f01601f191660200190565b9081608091031261142757604051906001600160401b036080830181811184821017610a875760405281518060070b8103611427578352602082015190811681036114275760208301526040810151908160030b82036114275760609160408401520151606082015290565b818102929181159184041417156123ed57565b634e487b7160e01b5f52601160045260245ffd5b811561240b570490565b634e487b7160e01b5f52601260045260245ffd5b919082039182116123ed57565b5190811515820361142757565b9092919283156127d0576007546001600160a01b039283169083169081149081612845575b50156127d85761246d90612be8565b80156127d0578160035416906004805494604090815194639474f45b60e01b8652878487015260809060249582888881855afa9788156126a1575f986127b1575b506127109a8b81029081048c0361279f57906124c991612401565b986064996113888111612755575b508290878651809481936396834ad360e01b83528a8301525afa90811561274b575f9161271e575b5060649651905f8260070b1380612711575b6126ab575b5050606496806005541680612614575b508060065416928361255a575b505050505050506125479061254c936123da565b6123da565b048060641081606418021890565b845163055f575160e41b81529116858201529160a0908390879082905afa92831561260b57505f926125ce575b5050612598575b8080808080612533565b60698493940292808404606914901517156125bd57505060649004908061254c61258e565b601190634e487b7160e01b5f52525ffd5b90915060a0823d60a011612603575b816125ea60a09383612332565b81010312611427576125fc910161242c565b5f80612587565b3d91506125dd565b513d5f823e3d90fd5b60208791869a939a519283809263682c9a9d60e11b82528d89168b8301525afa9081156126a1575f9161266f575b50610320811115612659575050606e965b5f612526565b6101f490989198101561265357605a9750612653565b90506020813d602011612699575b8161268a60209383612332565b8101031261142757515f612642565b3d915061267d565b85513d5f823e3d90fd5b516001600160401b03918216911681811015612516576126cb908261241f565b8a8102908082048c14901517156126ff576101f4916126e991612401565b116126f6575b5f80612516565b605a95506126ef565b86601187634e487b7160e01b5f52525ffd5b505f815160070b13612511565b61273e9150823d8411612744575b6127368183612332565b81019061236e565b5f6124ff565b503d61272c565b84513d5f823e3d90fd5b90999061138719810190811161279f578060011b908082046002149015171561279f5781900481811061278e575050815f995b906124d7565b81039081116126ff57829099612788565b87601188634e487b7160e01b5f52525ffd5b6127c9919850833d8511612744576127368183612332565b965f6124ae565b505050505f90565b50806003541660806004546024604051809481936396834ad360e01b835260048301525afa908115611f2e575f91612826575b505f815160070b13156127d05761282190612997565b61246d565b61283f915060803d608011612744576127368183612332565b5f61280b565b905015155f61245e565b606481116128a0576037811061289b578060640390606482116123ed5760c8820291820460c8149060641417156123ed576123289081039081116123ed57611b58818082109118021890565b505f90565b60405162461bcd60e51b81526020600482015260136024820152724865616c7468206f7574206f662072616e676560681b6044820152606490fd5b9160208181850182865252604084019360408360051b82010194845f925b85841061290a575050505050505090565b90919293949596603f198282030184528735601e19843603018112156114275783018681019190356001600160401b0381116114275780360383136114275787828280600196849695859652848401375f828201840152601f01601f19160101990197969591909101930191906128f9565b919082018092116123ed57565b604d81116123ed57600a0a90565b80515f8160070b1315612a5e57604082019081515f8160030b125f14612a285750505160030b637fffffff1981146123ed575f0363ffffffff16906001600160401b03906006831115612a0757511660051982019182116123ed576129fe612a0492612989565b90612401565b90565b51169060060390600682116123ed57612a22612a0492612989565b906123da565b9150915063ffffffff8091166006018181116123ed571690604d82116123ed576001600160401b03612a0492600a0a91166123da565b50505f90565b6001600160401b038111610a875760051b60200190565b9080601f8301121561142757815190602091612a9681612a64565b93612aa46040519586612332565b81855260208086019260051b82010192831161142757602001905b828210612acd575050505090565b81516001600160a01b0381168103611427578152908301908301612abf565b9080601f8301121561142757815190602091612b0781612a64565b93612b156040519586612332565b81855260208086019260051b82010192831161142757602001905b828210612b3e575050505090565b81518152908301908301612b30565b91608083830312611427578251906001600160401b03918281116114275783612b77918601612a7b565b9360208101518381116114275784612b90918301612aec565b9360408201518481116114275781612ba9918401612a7b565b93606083015190811161142757612a049201612aec565b8051821015612bd45760209160051b010190565b634e487b7160e01b5f52603260045260245ffd5b5f9160018060a01b03918260075416604092835190636e9fb8a560e01b825260049360048301525f8260248181965afa9081156126a1575f925f92612d96575b5095965f978060035416915b84518a1015612d8b5781612c488b87612bc0565b51165f52602060088152885f20548015612d63578951906396834ad360e01b82528982015260809081818a81895afa918215612d595790612c9292915f92612d6e575b5050612997565b8015612d6357888285612ca58f8b612bc0565b51168c519283809263313ce56760e01b82525afa928315612d5957908d915f94612d1b575b505060ff916104da612cdc9289612bc0565b9116604d8111612d095791612cfa612d0092600194600a0a90612401565b9061297c565b995b0198612c34565b8760118a634e487b7160e01b5f52525ffd5b819394508092503d8311612d52575b612d348183612332565b8101031261142757519060ff82168203611427578b816104da612cca565b503d612d2a565b8b513d5f823e3d90fd5b505098600190612d02565b612d849250803d10612744576127368183612332565b5f80612c8b565b985050505050505050565b909250612dad91503d805f833e6106708183612332565b5050919091905f612c28565b335f9081527fb16e88c42fd4e48df2dd6a2eabd6bc9aec654ec170056b470819f8892cc6431c60205260409020547fa49807205ce4d355092ef5a8a18f56e8913cf4a201fbe287825b095693c217759060ff1615612e145750565b6044906040519063e2517d3f60e01b82523360048301526024820152fd5b805f525f805160206132f083398151915260205260405f20335f5260205260ff60405f20541615612e145750565b6001600160a01b03165f8181527fb7db2dd08fcb62d0c9e08c51941cae53c267786a0b75803fb7960902fc8ef97d60205260409020545f805160206132f08339815191529060ff16612a5e575f805260205260405f20815f5260205260405f20600160ff1982541617905533905f5f805160206132d08339815191528180a4600190565b6001600160a01b03165f8181527fb16e88c42fd4e48df2dd6a2eabd6bc9aec654ec170056b470819f8892cc6431c60205260409020547fa49807205ce4d355092ef5a8a18f56e8913cf4a201fbe287825b095693c2177591905f805160206132f08339815191529060ff16612f8a57825f5260205260405f20815f5260205260405f20600160ff1982541617905533915f805160206132d08339815191525f80a4600190565b5050505f90565b6001600160a01b03165f8181527fab71e3f32666744d246edff3f96e4bdafee2e9867098cdd118a979a7464786a860205260409020547f189ab7a9244df0848122154315af71fe140f3db0fe014031783b0946b8c9d2e391905f805160206132f08339815191529060ff16612f8a57825f5260205260405f20815f5260205260405f20600160ff1982541617905533915f805160206132d08339815191525f80a4600190565b90815f525f805160206132f08339815191528060205260405f209160018060a01b031691825f5260205260ff60405f205416155f14612f8a57825f5260205260405f20815f5260205260405f20600160ff1982541617905533915f805160206132d08339815191525f80a4600190565b5f8051602061333083398151915260028154146130c45760029055565b604051633ee5aeb560e01b8152600490fd5b60ff5f8051602061331083398151915254166130ee57565b60405163d93c066560e01b8152600490fd5b90815f525f805160206132f08339815191528060205260405f209160018060a01b031691825f5260205260ff60405f2054165f14612f8a57825f5260205260405f20815f5260205260405f2060ff19815416905533917ff6391f5c32d9c69d2a47ea670b442974b53935d1edc7fd64eb21e047a839171b5f80a4600190565b60ff7ff0c57e16840df040f15088dc2f81fe391c3923bec73e23a9662efc9c229c6a005460401c16156131ae57565b604051631afcd79f60e31b8152600490fd5b60405163a9059cbb60e01b5f9081526001600160a01b039384166004526024949094529260209060448180855af160015f511481161561321f575b836040521561320957505050565b635274afe760e01b835216600482015260249150fd5b600181151661323557813b15153d1516166131fb565b833d5f823e3d90fd5b905f8091602081519101845af480806132bc575b156132725750506040513d81523d5f602083013e60203d82010160405290565b1561329957604051639996b31560e01b81526001600160a01b039091166004820152602490fd5b3d156132aa576040513d5f823e3d90fd5b60405163d6bda27560e01b8152600490fd5b503d1515806132525750813b151561325256fe2f8788117e7eff1d82e926ec794901d17c78024a50270940304540a733656f0d02dd7bc7dec4dceedda775e58dd541e08a116c6c53815c0bd028192f7b626800cd5ed15c6e187e77e9aee88184c21f4f2182ab5827cb3b7e07fbedcd63f033009b779b17422d0df92223018b32b4d1fa46e071723d6817e2486d003becc55f00a2646970667358221220328bcaee7e5e78b6c6624293ee7e2d30b8d5088cad3fd7b3e26e641561808fab64736f6c63430008180033","linkReferences":{}},"methodIdentifiers":{"ADMIN_ROLE()":"75b238fc","BROKER_FEE_BPS()":"c0f13b56","DEFAULT_ADMIN_ROLE()":"a217fddf","MIN_DURATION()":"b6a6d177","UPGRADER_ROLE()":"f72c0d8b","UPGRADE_INTERFACE_VERSION()":"ad3cb1cc","acceptLoan(uint256,bytes[])":"7eba024c","bundleVault()":"45ba733d","cancelLoanOffer(uint256)":"74cbe57e","claimDefault(uint256)":"facd66c7","createLoanOffer(address,uint256,uint256,uint256,uint256)":"2fca6371","feeToken()":"647846a5","getHealthScore(address,uint256,uint256,address)":"09007543","getRoleAdmin(bytes32)":"248a9ca3","grantRole(bytes32,address)":"2f2ff15d","hasRole(bytes32,address)":"91d14854","initialize(address,address,bytes32)":"6133f985","loanCounter()":"34d9289e","loans(uint256)":"e1ec3c68","pause()":"8456cb59","paused()":"5c975abb","priceFeedId()":"1999bb9e","proxiableUUID()":"52d1902d","pythOracle()":"f5d6ac90","renounceRole(bytes32,address)":"36568abe","repayLoan(uint256)":"ab7b1c89","reputationOracle()":"fad844c1","revokeRole(bytes32,address)":"d547741f","setBundleVault(address)":"5fd0740a","setReputationOracle(address)":"d19cfdac","setStakingContract(address)":"9dd373b9","setTokenPriceFeed(address,bytes32)":"50abbd94","stakingContract()":"ee99205c","suggestLTV(uint256)":"1de2346a","supportsInterface(bytes4)":"01ffc9a7","tokenPriceFeeds(address)":"bd9c47e3","unpause()":"3f4ba83a","upgradeToAndCall(address,bytes)":"4f1ef286","withdrawFees(address)":"164e68de"},"id":2}