{"abi":[{"type":"constructor","inputs":[],"stateMutability":"nonpayable"},{"type":"function","name":"ADMIN_ROLE","inputs":[],"outputs":[{"name":"","type":"bytes32","internalType":"bytes32"}],"stateMutability":"view"},{"type":"function","name":"BROKER_FEE_BPS","inputs":[],"outputs":[{"name":"","type":"uint256","internalType":"uint256"}],"stateMutability":"view"},{"type":"function","name":"DEFAULT_ADMIN_ROLE","inputs":[],"outputs":[{"name":"","type":"bytes32","internalType":"bytes32"}],"stateMutability":"view"},{"type":"function","name":"UPGRADER_ROLE","inputs":[],"outputs":[{"name":"","type":"bytes32","internalType":"bytes32"}],"stateMutability":"view"},{"type":"function","name":"UPGRADE_INTERFACE_VERSION","inputs":[],"outputs":[{"name":"","type":"string","internalType":"string"}],"stateMutability":"view"},{"type":"function","name":"acceptLoan","inputs":[{"name":"loanId","type":"uint256","internalType":"uint256"},{"name":"priceUpdateData","type":"bytes[]","internalType":"bytes[]"}],"outputs":[],"stateMutability":"payable"},{"type":"function","name":"cancelLoanOffer","inputs":[{"name":"loanId","type":"uint256","internalType":"uint256"}],"outputs":[],"stateMutability":"nonpayable"},{"type":"function","name":"claimDefault","inputs":[{"name":"loanId","type":"uint256","internalType":"uint256"}],"outputs":[],"stateMutability":"nonpayable"},{"type":"function","name":"createLoanOffer","inputs":[{"name":"nftContract","type":"address","internalType":"address"},{"name":"nftId","type":"uint256","internalType":"uint256"},{"name":"principal","type":"uint256","internalType":"uint256"},{"name":"interest","type":"uint256","internalType":"uint256"},{"name":"duration","type":"uint256","internalType":"uint256"}],"outputs":[],"stateMutability":"nonpayable"},{"type":"function","name":"feeToken","inputs":[],"outputs":[{"name":"","type":"address","internalType":"contract IERC20"}],"stateMutability":"view"},{"type":"function","name":"getHealthScore","inputs":[{"name":"nftContract","type":"address","internalType":"address"},{"name":"nftId","type":"uint256","internalType":"uint256"},{"name":"principal","type":"uint256","internalType":"uint256"},{"name":"borrower","type":"address","internalType":"address"}],"outputs":[{"name":"","type":"uint256","internalType":"uint256"}],"stateMutability":"view"},{"type":"function","name":"getRoleAdmin","inputs":[{"name":"role","type":"bytes32","internalType":"bytes32"}],"outputs":[{"name":"","type":"bytes32","internalType":"bytes32"}],"stateMutability":"view"},{"type":"function","name":"grantRole","inputs":[{"name":"role","type":"bytes32","internalType":"bytes32"},{"name":"account","type":"address","internalType":"address"}],"outputs":[],"stateMutability":"nonpayable"},{"type":"function","name":"hasRole","inputs":[{"name":"role","type":"bytes32","internalType":"bytes32"},{"name":"account","type":"address","internalType":"address"}],"outputs":[{"name":"","type":"bool","internalType":"bool"}],"stateMutability":"view"},{"type":"function","name":"initialize","inputs":[{"name":"_feeToken","type":"address","internalType":"address"},{"name":"_pythOracle","type":"address","internalType":"address"},{"name":"_priceFeedId","type":"bytes32","internalType":"bytes32"}],"outputs":[],"stateMutability":"nonpayable"},{"type":"function","name":"loanCounter","inputs":[],"outputs":[{"name":"","type":"uint256","internalType":"uint256"}],"stateMutability":"view"},{"type":"function","name":"loans","inputs":[{"name":"","type":"uint256","internalType":"uint256"}],"outputs":[{"name":"borrower","type":"address","internalType":"address"},{"name":"lender","type":"address","internalType":"address"},{"name":"nftContract","type":"address","internalType":"address"},{"name":"nftId","type":"uint256","internalType":"uint256"},{"name":"principal","type":"uint256","internalType":"uint256"},{"name":"interest","type":"uint256","internalType":"uint256"},{"name":"duration","type":"uint256","internalType":"uint256"},{"name":"startTime","type":"uint256","internalType":"uint256"},{"name":"healthSnapshot","type":"uint256","internalType":"uint256"},{"name":"active","type":"bool","internalType":"bool"},{"name":"repaid","type":"bool","internalType":"bool"}],"stateMutability":"view"},{"type":"function","name":"pause","inputs":[],"outputs":[],"stateMutability":"nonpayable"},{"type":"function","name":"paused","inputs":[],"outputs":[{"name":"","type":"bool","internalType":"bool"}],"stateMutability":"view"},{"type":"function","name":"priceFeedId","inputs":[],"outputs":[{"name":"","type":"bytes32","internalType":"bytes32"}],"stateMutability":"view"},{"type":"function","name":"proxiableUUID","inputs":[],"outputs":[{"name":"","type":"bytes32","internalType":"bytes32"}],"stateMutability":"view"},{"type":"function","name":"pythOracle","inputs":[],"outputs":[{"name":"","type":"address","internalType":"contract IPyth"}],"stateMutability":"view"},{"type":"function","name":"renounceRole","inputs":[{"name":"role","type":"bytes32","internalType":"bytes32"},{"name":"callerConfirmation","type":"address","internalType":"address"}],"outputs":[],"stateMutability":"nonpayable"},{"type":"function","name":"repayLoan","inputs":[{"name":"loanId","type":"uint256","internalType":"uint256"}],"outputs":[],"stateMutability":"nonpayable"},{"type":"function","name":"reputationOracle","inputs":[],"outputs":[{"name":"","type":"address","internalType":"contract IAgentReputation"}],"stateMutability":"view"},{"type":"function","name":"revokeRole","inputs":[{"name":"role","type":"bytes32","internalType":"bytes32"},{"name":"account","type":"address","internalType":"address"}],"outputs":[],"stateMutability":"nonpayable"},{"type":"function","name":"setReputationOracle","inputs":[{"name":"_reputationOracle","type":"address","internalType":"address"}],"outputs":[],"stateMutability":"nonpayable"},{"type":"function","name":"setStakingContract","inputs":[{"name":"_stakingContract","type":"address","internalType":"address"}],"outputs":[],"stateMutability":"nonpayable"},{"type":"function","name":"stakingContract","inputs":[],"outputs":[{"name":"","type":"address","internalType":"contract IClawStreetStaking"}],"stateMutability":"view"},{"type":"function","name":"suggestLTV","inputs":[{"name":"health","type":"uint256","internalType":"uint256"}],"outputs":[{"name":"","type":"uint256","internalType":"uint256"}],"stateMutability":"pure"},{"type":"function","name":"supportsInterface","inputs":[{"name":"interfaceId","type":"bytes4","internalType":"bytes4"}],"outputs":[{"name":"","type":"bool","internalType":"bool"}],"stateMutability":"view"},{"type":"function","name":"unpause","inputs":[],"outputs":[],"stateMutability":"nonpayable"},{"type":"function","name":"upgradeToAndCall","inputs":[{"name":"newImplementation","type":"address","internalType":"address"},{"name":"data","type":"bytes","internalType":"bytes"}],"outputs":[],"stateMutability":"payable"},{"type":"function","name":"withdrawFees","inputs":[{"name":"to","type":"address","internalType":"address"}],"outputs":[],"stateMutability":"nonpayable"},{"type":"event","name":"FeeCollected","inputs":[{"name":"amount","type":"uint256","indexed":false,"internalType":"uint256"}],"anonymous":false},{"type":"event","name":"FeesWithdrawn","inputs":[{"name":"to","type":"address","indexed":true,"internalType":"address"},{"name":"amount","type":"uint256","indexed":false,"internalType":"uint256"}],"anonymous":false},{"type":"event","name":"Initialized","inputs":[{"name":"version","type":"uint64","indexed":false,"internalType":"uint64"}],"anonymous":false},{"type":"event","name":"LoanAccepted","inputs":[{"name":"loanId","type":"uint256","indexed":true,"internalType":"uint256"},{"name":"lender","type":"address","indexed":true,"internalType":"address"}],"anonymous":false},{"type":"event","name":"LoanCancelled","inputs":[{"name":"loanId","type":"uint256","indexed":true,"internalType":"uint256"}],"anonymous":false},{"type":"event","name":"LoanCreated","inputs":[{"name":"loanId","type":"uint256","indexed":true,"internalType":"uint256"},{"name":"borrower","type":"address","indexed":true,"internalType":"address"},{"name":"principal","type":"uint256","indexed":false,"internalType":"uint256"},{"name":"health","type":"uint256","indexed":false,"internalType":"uint256"}],"anonymous":false},{"type":"event","name":"LoanDefaulted","inputs":[{"name":"loanId","type":"uint256","indexed":true,"internalType":"uint256"}],"anonymous":false},{"type":"event","name":"LoanRepaid","inputs":[{"name":"loanId","type":"uint256","indexed":true,"internalType":"uint256"}],"anonymous":false},{"type":"event","name":"Paused","inputs":[{"name":"account","type":"address","indexed":false,"internalType":"address"}],"anonymous":false},{"type":"event","name":"RoleAdminChanged","inputs":[{"name":"role","type":"bytes32","indexed":true,"internalType":"bytes32"},{"name":"previousAdminRole","type":"bytes32","indexed":true,"internalType":"bytes32"},{"name":"newAdminRole","type":"bytes32","indexed":true,"internalType":"bytes32"}],"anonymous":false},{"type":"event","name":"RoleGranted","inputs":[{"name":"role","type":"bytes32","indexed":true,"internalType":"bytes32"},{"name":"account","type":"address","indexed":true,"internalType":"address"},{"name":"sender","type":"address","indexed":true,"internalType":"address"}],"anonymous":false},{"type":"event","name":"RoleRevoked","inputs":[{"name":"role","type":"bytes32","indexed":true,"internalType":"bytes32"},{"name":"account","type":"address","indexed":true,"internalType":"address"},{"name":"sender","type":"address","indexed":true,"internalType":"address"}],"anonymous":false},{"type":"event","name":"StakingContractSet","inputs":[{"name":"stakingContract","type":"address","indexed":true,"internalType":"address"}],"anonymous":false},{"type":"event","name":"Unpaused","inputs":[{"name":"account","type":"address","indexed":false,"internalType":"address"}],"anonymous":false},{"type":"event","name":"Upgraded","inputs":[{"name":"implementation","type":"address","indexed":true,"internalType":"address"}],"anonymous":false},{"type":"error","name":"AccessControlBadConfirmation","inputs":[]},{"type":"error","name":"AccessControlUnauthorizedAccount","inputs":[{"name":"account","type":"address","internalType":"address"},{"name":"neededRole","type":"bytes32","internalType":"bytes32"}]},{"type":"error","name":"AddressEmptyCode","inputs":[{"name":"target","type":"address","internalType":"address"}]},{"type":"error","name":"ERC1967InvalidImplementation","inputs":[{"name":"implementation","type":"address","internalType":"address"}]},{"type":"error","name":"ERC1967NonPayable","inputs":[]},{"type":"error","name":"EnforcedPause","inputs":[]},{"type":"error","name":"ExpectedPause","inputs":[]},{"type":"error","name":"FailedCall","inputs":[]},{"type":"error","name":"InvalidInitialization","inputs":[]},{"type":"error","name":"NotInitializing","inputs":[]},{"type":"error","name":"ReentrancyGuardReentrantCall","inputs":[]},{"type":"error","name":"UUPSUnauthorizedCallContext","inputs":[]},{"type":"error","name":"UUPSUnsupportedProxiableUUID","inputs":[{"name":"slot","type":"bytes32","internalType":"bytes32"}]}],"bytecode":{"object":"0x60a06040523060805234801562000014575f80fd5b5060017f9b779b17422d0df92223018b32b4d1fa46e071723d6817e2486d003becc55f00556200004362000049565b620000fd565b7ff0c57e16840df040f15088dc2f81fe391c3923bec73e23a9662efc9c229c6a00805468010000000000000000900460ff16156200009a5760405163f92ee8a960e01b815260040160405180910390fd5b80546001600160401b0390811614620000fa5780546001600160401b0319166001600160401b0390811782556040519081527fc7f505b2f371ae2175ee4913f4499e1f2633a7b5936321eed1cdaeb6115181d29060200160405180910390a15b50565b608051612cf5620001245f395f81816120f60152818161211f01526122800152612cf55ff3fe6080604052600436106101f1575f3560e01c806375b238fc11610108578063c0f13b561161009d578063ee99205c1161006d578063ee99205c1461063f578063f5d6ac901461065e578063f72c0d8b1461067d578063facd66c7146106b0578063fad844c1146106cf575f80fd5b8063c0f13b5614610503578063d19cfdac14610517578063d547741f14610536578063e1ec3c6814610555575f80fd5b80639dd373b9116100d85780639dd373b914610475578063a217fddf14610494578063ab7b1c89146104a7578063ad3cb1cc146104c6575f80fd5b806375b238fc1461040f5780637eba024c1461042f5780638456cb591461044257806391d1485414610456575f80fd5b806334d9289e1161018957806352d1902d1161015957806352d1902d146103635780635c975abb146103775780636133f9851461039a578063647846a5146103b957806374cbe57e146103f0575f80fd5b806334d9289e1461030857806336568abe1461031d5780633f4ba83a1461033c5780634f1ef28614610350575f80fd5b80631de2346a116101c45780631de2346a1461028c578063248a9ca3146102ab5780632f2ff15d146102ca5780632fca6371146102e9575f80fd5b806301ffc9a7146101f55780630900754314610229578063164e68de146102565780631999bb9e14610277575b5f80fd5b348015610200575f80fd5b5061021461020f3660046125b2565b6106ee565b60405190151581526020015b60405180910390f35b348015610234575f80fd5b506102486102433660046125f4565b610724565b604051908152602001610220565b348015610261575f80fd5b50610275610270366004612637565b610ac4565b005b348015610282575f80fd5b5061024860045481565b348015610297575f80fd5b506102486102a6366004612650565b610cd0565b3480156102b6575f80fd5b506102486102c5366004612650565b610cfe565b3480156102d5575f80fd5b506102756102e4366004612667565b610d1e565b3480156102f4575f80fd5b50610275610303366004612691565b610d40565b348015610313575f80fd5b5061024860015481565b348015610328575f80fd5b50610275610337366004612667565b61104c565b348015610347575f80fd5b50610275611084565b61027561035e366004612714565b6110a6565b34801561036e575f80fd5b506102486110c5565b348015610382575f80fd5b505f80516020612c608339815191525460ff16610214565b3480156103a5575f80fd5b506102756103b43660046127b4565b6110e0565b3480156103c4575f80fd5b506002546103d8906001600160a01b031681565b6040516001600160a01b039091168152602001610220565b3480156103fb575f80fd5b5061027561040a366004612650565b611265565b34801561041a575f80fd5b506102485f80516020612ca083398151915281565b61027561043d3660046127ed565b6113f9565b34801561044d575f80fd5b50610275611a01565b348015610461575f80fd5b50610214610470366004612667565b611a20565b348015610480575f80fd5b5061027561048f366004612637565b611a56565b34801561049f575f80fd5b506102485f81565b3480156104b2575f80fd5b506102756104c1366004612650565b611ab7565b3480156104d1575f80fd5b506104f6604051806040016040528060058152602001640352e302e360dc1b81525081565b6040516102209190612865565b34801561050e575f80fd5b50610248606481565b348015610522575f80fd5b50610275610531366004612637565b611d25565b348015610541575f80fd5b50610275610550366004612667565b611d5f565b348015610560575f80fd5b506105d961056f366004612650565b5f6020819052908152604090208054600182015460028301546003840154600485015460058601546006870154600788015460088901546009909901546001600160a01b039889169997891698909616969495939492939192909160ff808216916101009004168b565b604080516001600160a01b039c8d1681529a8c1660208c015298909a16978901979097526060880195909552608087019390935260a086019190915260c085015260e0840152610100830152151561012082015290151561014082015261016001610220565b34801561064a575f80fd5b506006546103d8906001600160a01b031681565b348015610669575f80fd5b506003546103d8906001600160a01b031681565b348015610688575f80fd5b506102487f189ab7a9244df0848122154315af71fe140f3db0fe014031783b0946b8c9d2e381565b3480156106bb575f80fd5b506102756106ca366004612650565b611d7b565b3480156106da575f80fd5b506005546103d8906001600160a01b031681565b5f6001600160e01b03198216637965db0b60e01b148061071e57506301ffc9a760e01b6001600160e01b03198316145b92915050565b600354600480546040516396834ad360e01b8152918201525f9182916001600160a01b03909116906396834ad390602401608060405180830381865afa158015610770573d5f803e3d5ffd5b505050506040513d601f19601f8201168201806040525081019061079491906128b1565b60035460048054604051639474f45b60e01b8152918201529192505f916001600160a01b0390911690639474f45b90602401608060405180830381865afa1580156107e1573d5f803e3d5ffd5b505050506040513d601f19601f8201168201806040525081019061080591906128b1565b90505f825f015160070b13158061081a575084155b15610829575f92505050610abc565b5f80836040015160030b12156108c1575f836040015161084890612957565b63ffffffff169050600681111561088c57610864600682612978565b61086f90600a612a6b565b8451610885919067ffffffffffffffff16612a76565b91506108bb565b610897816006612978565b6108a290600a612a6b565b84516108b8919067ffffffffffffffff16612a95565b91505b506108f5565b60408301516108d1906006612aac565b6108dc90600a612ac9565b83516108f2919067ffffffffffffffff16612a95565b90505b805f03610907575f9350505050610abc565b5f8161091588612710612a95565b61091f9190612a76565b90506064611388821115610977575f61093a61138884612978565b90505f606461094a836002612a95565b6109549190612a76565b905060648110610966575f9250610974565b610971816064612978565b92505b50505b83516064905f60079190910b13156109db578551855167ffffffffffffffff9182169116808210156109d8575f816109af8482612978565b6109bb90612710612a95565b6109c59190612a76565b90506101f48111156109d657605a93505b505b50505b6005546064906001600160a01b031615610a815760055460405163682c9a9d60e11b81526001600160a01b038b811660048301525f92169063d059353a90602401602060405180830381865afa158015610a37573d5f803e3d5ffd5b505050506040513d601f19601f82011682018060405250810190610a5b9190612ada565b9050610320811115610a7057606e9150610a7f565b6101f4811015610a7f57605a91505b505b5f61271082610a908587612a95565b610a9a9190612a95565b610aa49190612a76565b9050610ab1606482611f02565b985050505050505050505b949350505050565b5f80516020612ca0833981519152610adb81611f14565b6001600160a01b038216610b255760405162461bcd60e51b815260206004820152600c60248201526b5a65726f206164647265737360a01b60448201526064015b60405180910390fd5b6002546040516370a0823160e01b81523060048201525f916001600160a01b0316906370a0823190602401602060405180830381865afa158015610b6b573d5f803e3d5ffd5b505050506040513d601f19601f82011682018060405250810190610b8f9190612ada565b90505f8111610bd65760405162461bcd60e51b81526020600482015260136024820152724e6f206665657320746f20776974686472617760681b6044820152606401610b1c565b60025460405163a9059cbb60e01b81526001600160a01b038581166004830152602482018490529091169063a9059cbb906044016020604051808303815f875af1158015610c26573d5f803e3d5ffd5b505050506040513d601f19601f82011682018060405250810190610c4a9190612af1565b610c885760405162461bcd60e51b815260206004820152600f60248201526e151c985b9cd9995c8819985a5b1959608a1b6044820152606401610b1c565b826001600160a01b03167fc0819c13be868895eb93e40eaceb96de976442fa1d404e5c55f14bb65a8c489a82604051610cc391815260200190565b60405180910390a2505050565b5f61071e611b58610ce2846064612978565b610ced9060c8612a95565b610cf990612328612978565b611f02565b5f9081525f80516020612c40833981519152602052604090206001015490565b610d2782610cfe565b610d3081611f14565b610d3a8383611f1e565b50505050565b610d48611fc6565b610d50611fe1565b5f8311610d975760405162461bcd60e51b815260206004820152601560248201527405072696e636970616c206d757374206265203e203605c1b6044820152606401610b1c565b5f8111610ddd5760405162461bcd60e51b815260206004820152601460248201527304475726174696f6e206d757374206265203e20360641b6044820152606401610b1c565b6040516323b872dd60e01b81526001600160a01b038616906323b872dd90610e0d90339030908990600401612b10565b5f604051808303815f87803b158015610e24575f80fd5b505af1158015610e36573d5f803e3d5ffd5b505050505f610e4786868633610724565b600180549192505f919082610e5b83612b34565b919050559050604051806101600160405280336001600160a01b031681526020015f6001600160a01b03168152602001886001600160a01b031681526020018781526020018681526020018581526020018481526020015f81526020018381526020016001151581526020015f15158152505f808381526020019081526020015f205f820151815f015f6101000a8154816001600160a01b0302191690836001600160a01b031602179055506020820151816001015f6101000a8154816001600160a01b0302191690836001600160a01b031602179055506040820151816002015f6101000a8154816001600160a01b0302191690836001600160a01b03160217905550606082015181600301556080820151816004015560a0820151816005015560c0820151816006015560e082015181600701556101008201518160080155610120820151816009015f6101000a81548160ff0219169083151502179055506101408201518160090160016101000a81548160ff021916908315150217905550905050336001600160a01b0316817f3373919ad665425d2cddb4072830e5935b6ee308440fa99b23383648da473bc08785604051611025929190918252602082015260400190565b60405180910390a3505061104560015f80516020612c8083398151915255565b5050505050565b6001600160a01b03811633146110755760405163334bd91960e11b815260040160405180910390fd5b61107f8282612013565b505050565b5f80516020612ca083398151915261109b81611f14565b6110a361208c565b50565b6110ae6120eb565b6110b78261218f565b6110c182826121b9565b5050565b5f6110ce612275565b505f80516020612c2083398151915290565b5f6110e96122be565b805490915060ff600160401b820416159067ffffffffffffffff165f811580156111105750825b90505f8267ffffffffffffffff16600114801561112c5750303b155b90508115801561113a575080155b156111585760405163f92ee8a960e01b815260040160405180910390fd5b845467ffffffffffffffff19166001178555831561118257845460ff60401b1916600160401b1785555b61118a6122e6565b6111926122e6565b61119c5f33611f1e565b506111b45f80516020612ca083398151915233611f1e565b506111df7f189ab7a9244df0848122154315af71fe140f3db0fe014031783b0946b8c9d2e333611f1e565b50600280546001600160a01b03808b166001600160a01b03199283161790925560038054928a16929091169190911790556004869055831561125b57845460ff60401b19168555604051600181527fc7f505b2f371ae2175ee4913f4499e1f2633a7b5936321eed1cdaeb6115181d29060200160405180910390a15b5050505050505050565b61126d611fc6565b611275611fe1565b5f818152602081905260409020600981015460ff1680156112a1575060018101546001600160a01b0316155b6112f95760405162461bcd60e51b815260206004820152602360248201527f43616e6e6f742063616e63656c20616374697665206f722066756e646564206c60448201526237b0b760e91b6064820152608401610b1c565b80546001600160a01b031633146113415760405162461bcd60e51b815260206004820152600c60248201526b2737ba103137b93937bbb2b960a11b6044820152606401610b1c565b6002810154815460038301546040516323b872dd60e01b81526001600160a01b03938416936323b872dd9361137f9330939290911691600401612b10565b5f604051808303815f87803b158015611396575f80fd5b505af11580156113a8573d5f803e3d5ffd5b50505060098201805460ff191690555060405182907fb71becc91961a6b43bcc5b3b630f3dce02c7fd444cf3738c4f188062b1caf5bc905f90a2506110a360015f80516020612c8083398151915255565b611401611fc6565b611409611fe1565b5f838152602081905260409020600981015460ff168015611435575060018101546001600160a01b0316155b6114765760405162461bcd60e51b81526020600482015260126024820152714c6f616e206e6f7420617661696c61626c6560701b6044820152606401610b1c565b80546001600160a01b031633036114c55760405162461bcd60e51b815260206004820152601360248201527221b0b73737ba103632b732103a379039b2b63360691b6044820152606401610b1c565b81156116875760035460405163d47eed4560e01b81525f916001600160a01b03169063d47eed45906114fd9087908790600401612b74565b602060405180830381865afa158015611518573d5f803e3d5ffd5b505050506040513d601f19601f8201168201806040525081019061153c9190612ada565b90508034101561158e5760405162461bcd60e51b815260206004820152601960248201527f496e73756666696369656e742066656520666f722050797468000000000000006044820152606401610b1c565b600354604051631df3cbc560e31b81526001600160a01b039091169063ef9e5e289083906115c29088908890600401612b74565b5f604051808303818588803b1580156115d9575f80fd5b505af11580156115eb573d5f803e3d5ffd5b505050505080341115611685575f336116048334612978565b6040515f81818185875af1925050503d805f811461163d576040519150601f19603f3d011682016040523d82523d5f602084013e611642565b606091505b50509050806116835760405162461bcd60e51b815260206004820152600d60248201526c1499599d5b990819985a5b1959609a1b6044820152606401610b1c565b505b505b5f6127106064836004015461169c9190612a95565b6116a69190612a76565b90505f8183600401546116b99190612978565b60025484546040516323b872dd60e01b81529293506001600160a01b03918216926323b872dd926116f39233929116908690600401612b10565b6020604051808303815f875af115801561170f573d5f803e3d5ffd5b505050506040513d601f19601f820116820180604052508101906117339190612af1565b61177f5760405162461bcd60e51b815260206004820152601960248201527f5072696e636970616c207472616e73666572206661696c6564000000000000006044820152606401610b1c565b6002546040516323b872dd60e01b81526001600160a01b03909116906323b872dd906117b390339030908790600401612b10565b6020604051808303815f875af11580156117cf573d5f803e3d5ffd5b505050506040513d601f19601f820116820180604052508101906117f39190612af1565b6118355760405162461bcd60e51b8152602060048201526013602482015272119959481d1c985b9cd9995c8819985a5b1959606a1b6044820152606401610b1c565b6001830180546001600160a01b031916331790554260078401556006546001600160a01b03161580159061186857505f82115b156119895760025460065460405163a9059cbb60e01b81526001600160a01b0391821660048201526024810185905291169063a9059cbb906044016020604051808303815f875af11580156118bf573d5f803e3d5ffd5b505050506040513d601f19601f820116820180604052508101906118e39190612af1565b61192f5760405162461bcd60e51b815260206004820152601e60248201527f466565207472616e7366657220746f207374616b696e67206661696c656400006044820152606401610b1c565b60065460405163fd5773a960e01b8152600481018490526001600160a01b039091169063fd5773a9906024015f604051808303815f87803b158015611972575f80fd5b505af1158015611984573d5f803e3d5ffd5b505050505b604051339087907f3ad02261725390771e704d06848ed8e414d628daf1b8dbffe111f437c848d620905f90a36040518281527fc472cb3a7a659a876494d66b3063145f279701771d6150b9329c31611ed6405c9060200160405180910390a150505061107f60015f80516020612c8083398151915255565b5f80516020612ca0833981519152611a1881611f14565b6110a36122ee565b5f9182525f80516020612c40833981519152602090815260408084206001600160a01b0393909316845291905290205460ff1690565b5f80516020612ca0833981519152611a6d81611f14565b600680546001600160a01b0319166001600160a01b0384169081179091556040517f1253844b0fff3da7dd2829de816c9b4f94c238cf2bf6eb72c02c7d6f2b53beac905f90a25050565b611abf611fc6565b611ac7611fe1565b5f818152602081905260409020600981015460ff168015611af257506009810154610100900460ff16155b611b335760405162461bcd60e51b8152602060048201526012602482015271496e76616c6964206c6f616e20737461746560701b6044820152606401610b1c565b80546001600160a01b0316331480611b57575060018101546001600160a01b031633145b611b945760405162461bcd60e51b815260206004820152600e60248201526d139bdd08185d5d1a1bdc9a5e995960921b6044820152606401610b1c565b5f81600501548260040154611ba99190612c0c565b600254835460018501546040516323b872dd60e01b81529394506001600160a01b03928316936323b872dd93611be89381169216908690600401612b10565b6020604051808303815f875af1158015611c04573d5f803e3d5ffd5b505050506040513d601f19601f82011682018060405250810190611c289190612af1565b611c675760405162461bcd60e51b815260206004820152601060248201526f14995c185e5b595b9d0819985a5b195960821b6044820152606401610b1c565b6002820154825460038401546040516323b872dd60e01b81526001600160a01b03938416936323b872dd93611ca59330939290911691600401612b10565b5f604051808303815f87803b158015611cbc575f80fd5b505af1158015611cce573d5f803e3d5ffd5b50505060098301805461ffff19166101001790555060405183907f9a7851747cd7ffb3fe0a32caf3da48b31f27cebe131267051640f8b72fc47186905f90a250506110a360015f80516020612c8083398151915255565b5f80516020612ca0833981519152611d3c81611f14565b50600580546001600160a01b0319166001600160a01b0392909216919091179055565b611d6882610cfe565b611d7181611f14565b610d3a8383612013565b611d83611fc6565b611d8b611fe1565b5f818152602081905260409020600981015460ff168015611db657506009810154610100900460ff16155b611df15760405162461bcd60e51b815260206004820152600c60248201526b24b73b30b634b2103637b0b760a11b6044820152606401610b1c565b80600601548160070154611e059190612c0c565b4211611e475760405162461bcd60e51b8152602060048201526011602482015270139bdd081e595d08191959985d5b1d1959607a1b6044820152606401610b1c565b6002810154600182015460038301546040516323b872dd60e01b81526001600160a01b03938416936323b872dd93611e889330939290911691600401612b10565b5f604051808303815f87803b158015611e9f575f80fd5b505af1158015611eb1573d5f803e3d5ffd5b50505060098201805460ff191690555060405182907f0789b7097e8066538cfaa1132488b132e14ba5f0c938c8b7aaf8cf40356aab0b905f90a2506110a360015f80516020612c8083398151915255565b5f8282188284100282185b9392505050565b6110a38133612336565b5f5f80516020612c40833981519152611f378484611a20565b611fb6575f848152602082815260408083206001600160a01b03871684529091529020805460ff19166001179055611f6c3390565b6001600160a01b0316836001600160a01b0316857f2f8788117e7eff1d82e926ec794901d17c78024a50270940304540a733656f0d60405160405180910390a4600191505061071e565b5f91505061071e565b5092915050565b611fce61236f565b60025f80516020612c8083398151915255565b5f80516020612c608339815191525460ff16156120115760405163d93c066560e01b815260040160405180910390fd5b565b5f5f80516020612c4083398151915261202c8484611a20565b15611fb6575f848152602082815260408083206001600160a01b0387168085529252808320805460ff1916905551339287917ff6391f5c32d9c69d2a47ea670b442974b53935d1edc7fd64eb21e047a839171b9190a4600191505061071e565b61209461239e565b5f80516020612c60833981519152805460ff191681557f5db9ee0a495bf2e6ff9c91a7834c1ba4fdd244a5e8aa4e537bd38aeae4b073aa335b6040516001600160a01b03909116815260200160405180910390a150565b306001600160a01b037f000000000000000000000000000000000000000000000000000000000000000016148061217157507f00000000000000000000000000000000000000000000000000000000000000006001600160a01b03166121655f80516020612c20833981519152546001600160a01b031690565b6001600160a01b031614155b156120115760405163703e46dd60e11b815260040160405180910390fd5b7f189ab7a9244df0848122154315af71fe140f3db0fe014031783b0946b8c9d2e36110c181611f14565b816001600160a01b03166352d1902d6040518163ffffffff1660e01b8152600401602060405180830381865afa925050508015612213575060408051601f3d908101601f1916820190925261221091810190612ada565b60015b61223b57604051634c9c8ce360e01b81526001600160a01b0383166004820152602401610b1c565b5f80516020612c20833981519152811461226b57604051632a87526960e21b815260048101829052602401610b1c565b61107f83836123cd565b306001600160a01b037f000000000000000000000000000000000000000000000000000000000000000016146120115760405163703e46dd60e11b815260040160405180910390fd5b5f807ff0c57e16840df040f15088dc2f81fe391c3923bec73e23a9662efc9c229c6a0061071e565b612011612422565b6122f6611fe1565b5f80516020612c60833981519152805460ff191660011781557f62e78cea01bee320cd4e420270b5ea74000d11b0c9f74754ebdbfc544b05a258336120cd565b6123408282611a20565b6110c15760405163e2517d3f60e01b81526001600160a01b038216600482015260248101839052604401610b1c565b5f80516020612c808339815191525460020361201157604051633ee5aeb560e01b815260040160405180910390fd5b5f80516020612c608339815191525460ff1661201157604051638dfc202b60e01b815260040160405180910390fd5b6123d682612447565b6040516001600160a01b038316907fbc7cd75a20ee27fd9adebab32041f755214dbc6bffa90cc0225b39da2e5c2d3b905f90a280511561241a5761107f82826124aa565b6110c1612543565b61242a612562565b61201157604051631afcd79f60e31b815260040160405180910390fd5b806001600160a01b03163b5f0361247c57604051634c9c8ce360e01b81526001600160a01b0382166004820152602401610b1c565b5f80516020612c2083398151915280546001600160a01b0319166001600160a01b0392909216919091179055565b60605f6124b7848461257b565b90508080156124d857505f3d11806124d857505f846001600160a01b03163b115b156124ed576124e561258e565b91505061071e565b801561251757604051639996b31560e01b81526001600160a01b0385166004820152602401610b1c565b3d1561252a576125256125a7565b611fbf565b60405163d6bda27560e01b815260040160405180910390fd5b34156120115760405163b398979f60e01b815260040160405180910390fd5b5f61256b6122be565b54600160401b900460ff16919050565b5f805f835160208501865af49392505050565b6040513d81523d5f602083013e3d602001810160405290565b6040513d5f823e3d81fd5b5f602082840312156125c2575f80fd5b81356001600160e01b031981168114611f0d575f80fd5b80356001600160a01b03811681146125ef575f80fd5b919050565b5f805f8060808587031215612607575f80fd5b612610856125d9565b9350602085013592506040850135915061262c606086016125d9565b905092959194509250565b5f60208284031215612647575f80fd5b611f0d826125d9565b5f60208284031215612660575f80fd5b5035919050565b5f8060408385031215612678575f80fd5b82359150612688602084016125d9565b90509250929050565b5f805f805f60a086880312156126a5575f80fd5b6126ae866125d9565b97602087013597506040870135966060810135965060800135945092505050565b634e487b7160e01b5f52604160045260245ffd5b604051601f8201601f1916810167ffffffffffffffff8111828210171561270c5761270c6126cf565b604052919050565b5f8060408385031215612725575f80fd5b61272e836125d9565b915060208084013567ffffffffffffffff8082111561274b575f80fd5b818601915086601f83011261275e575f80fd5b813581811115612770576127706126cf565b612782601f8201601f191685016126e3565b91508082528784828501011115612797575f80fd5b80848401858401375f848284010152508093505050509250929050565b5f805f606084860312156127c6575f80fd5b6127cf846125d9565b92506127dd602085016125d9565b9150604084013590509250925092565b5f805f604084860312156127ff575f80fd5b83359250602084013567ffffffffffffffff8082111561281d575f80fd5b818601915086601f830112612830575f80fd5b81358181111561283e575f80fd5b8760208260051b8501011115612852575f80fd5b6020830194508093505050509250925092565b5f602080835283518060208501525f5b8181101561289157858101830151858201604001528201612875565b505f604082860101526040601f19601f8301168501019250505092915050565b5f608082840312156128c1575f80fd5b6040516080810167ffffffffffffffff82821081831117156128e5576128e56126cf565b81604052845191508160070b82146128fb575f80fd5b9082526020840151908082168214612911575f80fd5b5060208201526040830151600381900b811461292b575f80fd5b60408201526060928301519281019290925250919050565b634e487b7160e01b5f52601160045260245ffd5b5f8160030b637fffffff19810361297057612970612943565b5f0392915050565b8181038181111561071e5761071e612943565b600181815b808511156129c557815f19048211156129ab576129ab612943565b808516156129b857918102915b93841c9390800290612990565b509250929050565b5f826129db5750600161071e565b816129e757505f61071e565b81600181146129fd5760028114612a0757612a23565b600191505061071e565b60ff841115612a1857612a18612943565b50506001821b61071e565b5060208310610133831016604e8410600b8410161715612a46575081810a61071e565b612a50838361298b565b805f1904821115612a6357612a63612943565b029392505050565b5f611f0d83836129cd565b5f82612a9057634e487b7160e01b5f52601260045260245ffd5b500490565b808202811582820484141761071e5761071e612943565b63ffffffff818116838216019080821115611fbf57611fbf612943565b5f611f0d63ffffffff8416836129cd565b5f60208284031215612aea575f80fd5b5051919050565b5f60208284031215612b01575f80fd5b81518015158114611f0d575f80fd5b6001600160a01b039384168152919092166020820152604081019190915260600190565b5f60018201612b4557612b45612943565b5060010190565b81835281816020850137505f828201602090810191909152601f909101601f19169091010190565b60208082528181018390525f906040600585901b8401810190840186845b87811015612bff57868403603f190183528135368a9003601e19018112612bb7575f80fd5b8901858101903567ffffffffffffffff811115612bd2575f80fd5b803603821315612be0575f80fd5b612beb868284612b4c565b955050509184019190840190600101612b92565b5091979650505050505050565b8082018082111561071e5761071e61294356fe360894a13ba1a3210667c828492db98dca3e2076cc3735a920a3ca505d382bbc02dd7bc7dec4dceedda775e58dd541e08a116c6c53815c0bd028192f7b626800cd5ed15c6e187e77e9aee88184c21f4f2182ab5827cb3b7e07fbedcd63f033009b779b17422d0df92223018b32b4d1fa46e071723d6817e2486d003becc55f00a49807205ce4d355092ef5a8a18f56e8913cf4a201fbe287825b095693c21775a2646970667358221220139d3e81c9319755b39e6652cd20f85a0d7901fbdeb028f2105f579a0ab1a90e64736f6c63430008180033","linkReferences":{}},"methodIdentifiers":{"ADMIN_ROLE()":"75b238fc","BROKER_FEE_BPS()":"c0f13b56","DEFAULT_ADMIN_ROLE()":"a217fddf","UPGRADER_ROLE()":"f72c0d8b","UPGRADE_INTERFACE_VERSION()":"ad3cb1cc","acceptLoan(uint256,bytes[])":"7eba024c","cancelLoanOffer(uint256)":"74cbe57e","claimDefault(uint256)":"facd66c7","createLoanOffer(address,uint256,uint256,uint256,uint256)":"2fca6371","feeToken()":"647846a5","getHealthScore(address,uint256,uint256,address)":"09007543","getRoleAdmin(bytes32)":"248a9ca3","grantRole(bytes32,address)":"2f2ff15d","hasRole(bytes32,address)":"91d14854","initialize(address,address,bytes32)":"6133f985","loanCounter()":"34d9289e","loans(uint256)":"e1ec3c68","pause()":"8456cb59","paused()":"5c975abb","priceFeedId()":"1999bb9e","proxiableUUID()":"52d1902d","pythOracle()":"f5d6ac90","renounceRole(bytes32,address)":"36568abe","repayLoan(uint256)":"ab7b1c89","reputationOracle()":"fad844c1","revokeRole(bytes32,address)":"d547741f","setReputationOracle(address)":"d19cfdac","setStakingContract(address)":"9dd373b9","stakingContract()":"ee99205c","suggestLTV(uint256)":"1de2346a","supportsInterface(bytes4)":"01ffc9a7","unpause()":"3f4ba83a","upgradeToAndCall(address,bytes)":"4f1ef286","withdrawFees(address)":"164e68de"},"id":2}