{"abi":[{"type":"constructor","inputs":[],"stateMutability":"nonpayable"},{"type":"function","name":"ADMIN_ROLE","inputs":[],"outputs":[{"name":"","type":"bytes32","internalType":"bytes32"}],"stateMutability":"view"},{"type":"function","name":"BROKER_FEE_BPS","inputs":[],"outputs":[{"name":"","type":"uint256","internalType":"uint256"}],"stateMutability":"view"},{"type":"function","name":"DEFAULT_ADMIN_ROLE","inputs":[],"outputs":[{"name":"","type":"bytes32","internalType":"bytes32"}],"stateMutability":"view"},{"type":"function","name":"MIN_DURATION","inputs":[],"outputs":[{"name":"","type":"uint256","internalType":"uint256"}],"stateMutability":"view"},{"type":"function","name":"UPGRADER_ROLE","inputs":[],"outputs":[{"name":"","type":"bytes32","internalType":"bytes32"}],"stateMutability":"view"},{"type":"function","name":"UPGRADE_INTERFACE_VERSION","inputs":[],"outputs":[{"name":"","type":"string","internalType":"string"}],"stateMutability":"view"},{"type":"function","name":"acceptLoan","inputs":[{"name":"loanId","type":"uint256","internalType":"uint256"},{"name":"priceUpdateData","type":"bytes[]","internalType":"bytes[]"}],"outputs":[],"stateMutability":"payable"},{"type":"function","name":"bundleVault","inputs":[],"outputs":[{"name":"","type":"address","internalType":"address"}],"stateMutability":"view"},{"type":"function","name":"cancelLoanOffer","inputs":[{"name":"loanId","type":"uint256","internalType":"uint256"}],"outputs":[],"stateMutability":"nonpayable"},{"type":"function","name":"claimDefault","inputs":[{"name":"loanId","type":"uint256","internalType":"uint256"}],"outputs":[],"stateMutability":"nonpayable"},{"type":"function","name":"createLoanOffer","inputs":[{"name":"nftContract","type":"address","internalType":"address"},{"name":"nftId","type":"uint256","internalType":"uint256"},{"name":"principal","type":"uint256","internalType":"uint256"},{"name":"interest","type":"uint256","internalType":"uint256"},{"name":"duration","type":"uint256","internalType":"uint256"}],"outputs":[],"stateMutability":"nonpayable"},{"type":"function","name":"feeToken","inputs":[],"outputs":[{"name":"","type":"address","internalType":"contract IERC20"}],"stateMutability":"view"},{"type":"function","name":"getHealthScore","inputs":[{"name":"nftContract","type":"address","internalType":"address"},{"name":"nftId","type":"uint256","internalType":"uint256"},{"name":"principal","type":"uint256","internalType":"uint256"},{"name":"borrower","type":"address","internalType":"address"}],"outputs":[{"name":"","type":"uint256","internalType":"uint256"}],"stateMutability":"view"},{"type":"function","name":"getRoleAdmin","inputs":[{"name":"role","type":"bytes32","internalType":"bytes32"}],"outputs":[{"name":"","type":"bytes32","internalType":"bytes32"}],"stateMutability":"view"},{"type":"function","name":"grantRole","inputs":[{"name":"role","type":"bytes32","internalType":"bytes32"},{"name":"account","type":"address","internalType":"address"}],"outputs":[],"stateMutability":"nonpayable"},{"type":"function","name":"hasRole","inputs":[{"name":"role","type":"bytes32","internalType":"bytes32"},{"name":"account","type":"address","internalType":"address"}],"outputs":[{"name":"","type":"bool","internalType":"bool"}],"stateMutability":"view"},{"type":"function","name":"initialize","inputs":[{"name":"_feeToken","type":"address","internalType":"address"},{"name":"_pythOracle","type":"address","internalType":"address"},{"name":"_priceFeedId","type":"bytes32","internalType":"bytes32"}],"outputs":[],"stateMutability":"nonpayable"},{"type":"function","name":"loanCounter","inputs":[],"outputs":[{"name":"","type":"uint256","internalType":"uint256"}],"stateMutability":"view"},{"type":"function","name":"loans","inputs":[{"name":"","type":"uint256","internalType":"uint256"}],"outputs":[{"name":"borrower","type":"address","internalType":"address"},{"name":"lender","type":"address","internalType":"address"},{"name":"nftContract","type":"address","internalType":"address"},{"name":"nftId","type":"uint256","internalType":"uint256"},{"name":"principal","type":"uint256","internalType":"uint256"},{"name":"interest","type":"uint256","internalType":"uint256"},{"name":"duration","type":"uint256","internalType":"uint256"},{"name":"startTime","type":"uint256","internalType":"uint256"},{"name":"healthSnapshot","type":"uint256","internalType":"uint256"},{"name":"active","type":"bool","internalType":"bool"},{"name":"repaid","type":"bool","internalType":"bool"}],"stateMutability":"view"},{"type":"function","name":"pause","inputs":[],"outputs":[],"stateMutability":"nonpayable"},{"type":"function","name":"paused","inputs":[],"outputs":[{"name":"","type":"bool","internalType":"bool"}],"stateMutability":"view"},{"type":"function","name":"priceFeedId","inputs":[],"outputs":[{"name":"","type":"bytes32","internalType":"bytes32"}],"stateMutability":"view"},{"type":"function","name":"proxiableUUID","inputs":[],"outputs":[{"name":"","type":"bytes32","internalType":"bytes32"}],"stateMutability":"view"},{"type":"function","name":"pythOracle","inputs":[],"outputs":[{"name":"","type":"address","internalType":"contract IPyth"}],"stateMutability":"view"},{"type":"function","name":"renounceRole","inputs":[{"name":"role","type":"bytes32","internalType":"bytes32"},{"name":"callerConfirmation","type":"address","internalType":"address"}],"outputs":[],"stateMutability":"nonpayable"},{"type":"function","name":"repayLoan","inputs":[{"name":"loanId","type":"uint256","internalType":"uint256"}],"outputs":[],"stateMutability":"nonpayable"},{"type":"function","name":"reputationOracle","inputs":[],"outputs":[{"name":"","type":"address","internalType":"contract IAgentReputation"}],"stateMutability":"view"},{"type":"function","name":"revokeRole","inputs":[{"name":"role","type":"bytes32","internalType":"bytes32"},{"name":"account","type":"address","internalType":"address"}],"outputs":[],"stateMutability":"nonpayable"},{"type":"function","name":"setBundleVault","inputs":[{"name":"_bundleVault","type":"address","internalType":"address"}],"outputs":[],"stateMutability":"nonpayable"},{"type":"function","name":"setReputationOracle","inputs":[{"name":"_reputationOracle","type":"address","internalType":"address"}],"outputs":[],"stateMutability":"nonpayable"},{"type":"function","name":"setStakingContract","inputs":[{"name":"_stakingContract","type":"address","internalType":"address"}],"outputs":[],"stateMutability":"nonpayable"},{"type":"function","name":"setTokenPriceFeed","inputs":[{"name":"token","type":"address","internalType":"address"},{"name":"feedId","type":"bytes32","internalType":"bytes32"}],"outputs":[],"stateMutability":"nonpayable"},{"type":"function","name":"stakingContract","inputs":[],"outputs":[{"name":"","type":"address","internalType":"contract IClawStreetStaking"}],"stateMutability":"view"},{"type":"function","name":"suggestLTV","inputs":[{"name":"health","type":"uint256","internalType":"uint256"}],"outputs":[{"name":"","type":"uint256","internalType":"uint256"}],"stateMutability":"pure"},{"type":"function","name":"supportsInterface","inputs":[{"name":"interfaceId","type":"bytes4","internalType":"bytes4"}],"outputs":[{"name":"","type":"bool","internalType":"bool"}],"stateMutability":"view"},{"type":"function","name":"tokenPriceFeeds","inputs":[{"name":"","type":"address","internalType":"address"}],"outputs":[{"name":"","type":"bytes32","internalType":"bytes32"}],"stateMutability":"view"},{"type":"function","name":"unpause","inputs":[],"outputs":[],"stateMutability":"nonpayable"},{"type":"function","name":"upgradeToAndCall","inputs":[{"name":"newImplementation","type":"address","internalType":"address"},{"name":"data","type":"bytes","internalType":"bytes"}],"outputs":[],"stateMutability":"payable"},{"type":"function","name":"withdrawFees","inputs":[{"name":"to","type":"address","internalType":"address"}],"outputs":[],"stateMutability":"nonpayable"},{"type":"event","name":"FeeCollected","inputs":[{"name":"amount","type":"uint256","indexed":false,"internalType":"uint256"}],"anonymous":false},{"type":"event","name":"FeesWithdrawn","inputs":[{"name":"to","type":"address","indexed":true,"internalType":"address"},{"name":"amount","type":"uint256","indexed":false,"internalType":"uint256"}],"anonymous":false},{"type":"event","name":"Initialized","inputs":[{"name":"version","type":"uint64","indexed":false,"internalType":"uint64"}],"anonymous":false},{"type":"event","name":"LoanAccepted","inputs":[{"name":"loanId","type":"uint256","indexed":true,"internalType":"uint256"},{"name":"lender","type":"address","indexed":true,"internalType":"address"}],"anonymous":false},{"type":"event","name":"LoanCancelled","inputs":[{"name":"loanId","type":"uint256","indexed":true,"internalType":"uint256"}],"anonymous":false},{"type":"event","name":"LoanCreated","inputs":[{"name":"loanId","type":"uint256","indexed":true,"internalType":"uint256"},{"name":"borrower","type":"address","indexed":true,"internalType":"address"},{"name":"principal","type":"uint256","indexed":false,"internalType":"uint256"},{"name":"health","type":"uint256","indexed":false,"internalType":"uint256"}],"anonymous":false},{"type":"event","name":"LoanDefaulted","inputs":[{"name":"loanId","type":"uint256","indexed":true,"internalType":"uint256"}],"anonymous":false},{"type":"event","name":"LoanRepaid","inputs":[{"name":"loanId","type":"uint256","indexed":true,"internalType":"uint256"}],"anonymous":false},{"type":"event","name":"Paused","inputs":[{"name":"account","type":"address","indexed":false,"internalType":"address"}],"anonymous":false},{"type":"event","name":"RoleAdminChanged","inputs":[{"name":"role","type":"bytes32","indexed":true,"internalType":"bytes32"},{"name":"previousAdminRole","type":"bytes32","indexed":true,"internalType":"bytes32"},{"name":"newAdminRole","type":"bytes32","indexed":true,"internalType":"bytes32"}],"anonymous":false},{"type":"event","name":"RoleGranted","inputs":[{"name":"role","type":"bytes32","indexed":true,"internalType":"bytes32"},{"name":"account","type":"address","indexed":true,"internalType":"address"},{"name":"sender","type":"address","indexed":true,"internalType":"address"}],"anonymous":false},{"type":"event","name":"RoleRevoked","inputs":[{"name":"role","type":"bytes32","indexed":true,"internalType":"bytes32"},{"name":"account","type":"address","indexed":true,"internalType":"address"},{"name":"sender","type":"address","indexed":true,"internalType":"address"}],"anonymous":false},{"type":"event","name":"StakingContractSet","inputs":[{"name":"stakingContract","type":"address","indexed":true,"internalType":"address"}],"anonymous":false},{"type":"event","name":"Unpaused","inputs":[{"name":"account","type":"address","indexed":false,"internalType":"address"}],"anonymous":false},{"type":"event","name":"Upgraded","inputs":[{"name":"implementation","type":"address","indexed":true,"internalType":"address"}],"anonymous":false},{"type":"error","name":"AccessControlBadConfirmation","inputs":[]},{"type":"error","name":"AccessControlUnauthorizedAccount","inputs":[{"name":"account","type":"address","internalType":"address"},{"name":"neededRole","type":"bytes32","internalType":"bytes32"}]},{"type":"error","name":"AddressEmptyCode","inputs":[{"name":"target","type":"address","internalType":"address"}]},{"type":"error","name":"ERC1967InvalidImplementation","inputs":[{"name":"implementation","type":"address","internalType":"address"}]},{"type":"error","name":"ERC1967NonPayable","inputs":[]},{"type":"error","name":"EnforcedPause","inputs":[]},{"type":"error","name":"ExpectedPause","inputs":[]},{"type":"error","name":"FailedCall","inputs":[]},{"type":"error","name":"InvalidInitialization","inputs":[]},{"type":"error","name":"NotInitializing","inputs":[]},{"type":"error","name":"ReentrancyGuardReentrantCall","inputs":[]},{"type":"error","name":"SafeERC20FailedOperation","inputs":[{"name":"token","type":"address","internalType":"address"}]},{"type":"error","name":"UUPSUnauthorizedCallContext","inputs":[]},{"type":"error","name":"UUPSUnsupportedProxiableUUID","inputs":[{"name":"slot","type":"bytes32","internalType":"bytes32"}]}],"bytecode":{"object":"0x60a080604052346100f1573060805260017f9b779b17422d0df92223018b32b4d1fa46e071723d6817e2486d003becc55f00557ff0c57e16840df040f15088dc2f81fe391c3923bec73e23a9662efc9c229c6a009081549060ff8260401c166100e257506001600160401b036002600160401b03198282160161009d575b60405161328c9081620000f6823960805181818161187101526119940152f35b6001600160401b031990911681179091556040519081527fc7f505b2f371ae2175ee4913f4499e1f2633a7b5936321eed1cdaeb6115181d290602090a15f808061007d565b63f92ee8a960e01b8152600490fd5b5f80fdfe6080806040526004361015610012575f80fd5b5f905f3560e01c90816301ffc9a71461222c5750806309007543146121eb578063164e68de1461201b5780631999bb9e14611ffe5780631de2346a14611fd8578063248a9ca314611f9f5780632f2ff15d14611f545780632fca637114611c9657806334d9289e14611c7857806336568abe14611c305780633f4ba83a14611bb957806345ba733d14611b905780634f1ef2861461191957806350abbd94146118db57806352d1902d1461185e5780635c975abb1461182f5780635fd0740a146117ef5780636133f9851461166e578063647846a51461164557806374cbe57e146114a457806375b238fc146114695780637eba024c14610e645780638456cb5914610dfd57806391d1485414610da75780639dd373b914610d3f578063a217fddf14610d23578063ab7b1c8914610a9b578063ad3cb1cc146109f8578063b6a6d177146109db578063bd9c47e3146109a2578063c0f13b5614610986578063d19cfdac14610946578063d547741f146108f8578063e1ec3c681461084b578063ee99205c14610822578063f5d6ac90146107f9578063f72c0d8b146107be578063facd66c7146101f65763fad844c1146101cb575f80fd5b346101f357806003193601126101f3576005546040516001600160a01b039091168152602090f35b80fd5b50346101f35760203660031901126101f357610210612fae565b610218612fdd565b60043581528060205260408120600981015460ff811690816107af575b501561077b5760018101546001600160a01b03168015610744576102626007830154600684015490612883565b42111561070b5760028201546007546001600160a01b039182169291168083149081610701575b5015610691575050906102a56004830154600584015490612883565b9060018060a01b036007541690600384015490604051636e9fb8a560e01b81528260048201528181602481875afa948515610686578293839584938598610655575b506102f182612aef565b91813b1561043a57859160248392604051948593849263f008852d60e01b845260048401525af1801561064a57908591610632575b505080158015610628575b1561048a575050815b835181101561037f576001906103796001600160a01b0361035b8388612ac7565b5116838060a01b03848b015416610372848a612ac7565b51916130c7565b0161033a565b5093925093849150815b845181101561043e576001600160a01b036103a48287612ac7565b5160018401549116906001600160a01b03166103c08387612ac7565b51823b1561043a576040516323b872dd60e01b81523060048201526001600160a01b0392909216602483015260448201529084908290606490829084905af190811561042f578491610417575b5050600101610389565b610420906122ab565b61042b57825f61040d565b8280fd5b6040513d86823e3d90fd5b8580fd5b50925050505b600901805460ff191690556004357f0789b7097e8066538cfaa1132488b132e14ba5f0c938c8b7aaf8cf40356aab0b8280a260015f805160206132378339815191525580f35b670de0b6b3a76400009794959793918481029080820486149015171561061457906104b49161238d565b91815b865181101561055c5780806104ef8b6104e9896104e08a6104da60019986612ac7565b51612366565b04938492612ac7565b516123ab565b908061052f575b5080610504575b50016104b7565b61052990838060a01b03610518848c612ac7565b5116848060a01b038a5416906130c7565b5f6104fd565b61055690848060a01b03610543858d612ac7565b5116858060a01b03868c015416906130c7565b5f6104f6565b50959450955050508390815b845181101561060a576001600160a01b036105838287612ac7565b5160018401549116906001600160a01b031661059f8387612ac7565b51823b1561043a576040516323b872dd60e01b81523060048201526001600160a01b0392909216602483015260448201529084908290606490829084905af190811561042f5784916105f6575b5050600101610568565b6105ff906122ab565b61042b57825f6105ec565b5092505050610444565b634e487b7160e01b83526011600452602483fd5b5081811115610331565b61063b906122ab565b61064657835f610326565b8380fd5b6040513d87823e3d90fd5b9296509650935061067891503d8084833e61067081836122be565b810190612a54565b96919592949092915f6102e7565b6040513d84823e3d90fd5b9083916003840154823b15610646576040516323b872dd60e01b81523060048201526001600160a01b0392909216602483015260448201529082908290606490829084905af18015610686576106e9575b5050610444565b6106f2906122ab565b6106fd57815f6106e2565b5080fd5b905015155f610289565b60405162461bcd60e51b8152602060048201526011602482015270139bdd081e595d08191959985d5b1d1959607a1b6044820152606490fd5b60405162461bcd60e51b815260206004820152600f60248201526e131bd85b881b9bdd08199d5b991959608a1b6044820152606490fd5b60405162461bcd60e51b815260206004820152600c60248201526b24b73b30b634b2103637b0b760a11b6044820152606490fd5b60ff915060081c16155f610235565b50346101f357806003193601126101f35760206040517f189ab7a9244df0848122154315af71fe140f3db0fe014031783b0946b8c9d2e38152f35b50346101f357806003193601126101f3576003546040516001600160a01b039091168152602090f35b50346101f357806003193601126101f3576006546040516001600160a01b039091168152602090f35b50346101f35760203660031901126101f3576040610160916004358152806020522060ff60018060a01b03808354169281600182015416916002820154166003820154600483015460058401549060068501549260078601549460096008880154970154976040519a8b5260208b015260408a01526060890152608088015260a087015260c086015260e0850152610100840152818116151561012084015260081c161515610140820152f35b50346101f35760403660031901126101f357610942600435610918612295565b908084525f805160206131f783398151915260205261093d6001604086200154612d39565b613007565b5080f35b50346101f35760203660031901126101f35761096061227f565b610968612cc0565b60018060a01b03166001600160601b0360a01b600554161760055580f35b50346101f357806003193601126101f357602060405160648152f35b50346101f35760203660031901126101f3576020906040906001600160a01b036109ca61227f565b168152600883522054604051908152f35b50346101f357806003193601126101f3576020604051610e108152f35b50346101f357806003193601126101f357604051604081018181106001600160401b03821117610a875760405260058152602091640352e302e360dc1b602083015260405192839160208352835191826020850152815b838110610a7057505060408094508284010152601f80199101168101030190f35b808601820151878201604001528694508101610a4f565b634e487b7160e01b5f52604160045260245ffd5b50346101f3576020806003193601126106fd5760043590610aba612fae565b610ac2612fdd565b818352828152604083206009810191825460ff81169081610d14575b5015610cdb5781546001600160a01b039081169133839003610c9757610b5981610b116004870154600588015490612883565b8460025416856001890154168b6040518096819582946323b872dd60e01b9c8d85526004850160409194939294606082019560018060a01b0380921683521660208201520152565b03925af1908115610c8c578891610c5f575b5015610c285750908160038493600289960154169184541693015490803b15610c24576040519283523060048401526001600160a01b0393909316602483015260448201529082908290606490829084905af1801561068657610c10575b5050805461ffff19166101001790557f9a7851747cd7ffb3fe0a32caf3da48b31f27cebe131267051640f8b72fc471868280a260015f805160206132378339815191525580f35b610c19906122ab565b61042b57825f610bc9565b8480fd5b6064906040519062461bcd60e51b82526004820152601060248201526f14995c185e5b595b9d0819985a5b195960821b6044820152fd5b610c7f9150823d8411610c85575b610c7781836122be565b81019061273e565b5f610b6b565b503d610c6d565b6040513d8a823e3d90fd5b6064906040519062461bcd60e51b82526004820152601760248201527f4f6e6c7920626f72726f7765722063616e2072657061790000000000000000006044820152fd5b6064906040519062461bcd60e51b825260048201526012602482015271496e76616c6964206c6f616e20737461746560701b6044820152fd5b60ff915060081c16155f610ade565b50346101f357806003193601126101f357602090604051908152f35b50346101f35760203660031901126101f357610d5961227f565b610d61612cc0565b600680546001600160a01b0319166001600160a01b039290921691821790557f1253844b0fff3da7dd2829de816c9b4f94c238cf2bf6eb72c02c7d6f2b53beac8280a280f35b50346101f35760403660031901126101f3576040610dc3612295565b9160043581525f805160206131f7833981519152602052209060018060a01b03165f52602052602060ff60405f2054166040519015158152f35b50346101f357806003193601126101f357610e16612cc0565b610e1e612fdd565b5f80516020613217833981519152600160ff198254161790557f62e78cea01bee320cd4e420270b5ea74000d11b0c9f74754ebdbfc544b05a2586020604051338152a180f35b5060403660031901126101f3576001600160401b03602480359060043590838311610c245736602384011215610c24578260040135938411610c2457808301928136918660051b010111610c2457610eba612fae565b610ec2612fdd565b818552602092858452604086209460ff60098701541680611454575b1561141b5785546001600160a01b039290831633146113e15781611239575b5050600485015494606486028681046064148715171561122657612710610f26910480976123ab565b60025482546040516323b872dd60e01b8082523360048301529186166001600160a01b0316602482015260448101939093529190879082908616818c816064810103925af190811561121b5789916111fe575b50156111ba57600254604051918252336004830152306024830152604482018890528690829060649082908c9088165af1908115610c8c57889161119d575b5015611163576001810180546001600160a01b031916331790554260079091015560065481168015158061115a575b611052575b5050507fc472cb3a7a659a876494d66b3063145f279701771d6150b9329c31611ed6405c926040519133907f3ad02261725390771e704d06848ed8e414d628daf1b8dbffe111f437c848d6208780a38152a160015f805160206132378339815191525580f35b60025460405163a9059cbb60e01b81526001600160a01b03929092166004830152602482018790528590829060449082908b9087165af190811561114f578791611132575b50156110ee579085916006541690813b1561042b57829182916040518094819363fd5773a960e01b83528a60048401525af18015610686576110da575b80610fec565b6110e3906122ab565b61064657835f6110d4565b60405162461bcd60e51b815260048101859052601e818401527f466565207472616e7366657220746f207374616b696e67206661696c656400006044820152606490fd5b6111499150853d8711610c8557610c7781836122be565b5f611097565b6040513d89823e3d90fd5b50851515610fe7565b60405162461bcd60e51b81526004810186905260138185015272119959481d1c985b9cd9995c8819985a5b1959606a1b6044820152606490fd5b6111b49150863d8811610c8557610c7781836122be565b5f610fb8565b60405162461bcd60e51b8152600481018790526019818601527f5072696e636970616c207472616e73666572206661696c6564000000000000006044820152606490fd5b6112159150873d8911610c8557610c7781836122be565b5f610f79565b6040513d8b823e3d90fd5b634e487b7160e01b885260116004528388fd5b8260035416906040519263d47eed4560e01b845287848061125e8486600484016127e2565b0381865afa9384156113d6578a946113a3575b5083341061135f579082918a94933b15610c24576112a892859285604051809681958294631df3cbc560e31b8452600484016127e2565b03925af1908115611354578391611340575b505080341115610efd5781806112d18193346123ab565b335af13d1561133b573d6112e4816122df565b906112f260405192836122be565b815287863d92013e5b1561130757855f610efd565b60405162461bcd60e51b815260048101859052600d818401526c1499599d5b990819985a5b1959609a1b6044820152606490fd5b6112fb565b611349906122ab565b6106fd57815f6112ba565b6040513d85823e3d90fd5b60405162461bcd60e51b8152600481018990526019818801527f496e73756666696369656e742066656520666f722050797468000000000000006044820152606490fd5b9093508781813d83116113cf575b6113bb81836122be565b810103126113cb5751925f611271565b5f80fd5b503d6113b1565b6040513d8c823e3d90fd5b60405162461bcd60e51b8152600481018790526013818601527221b0b73737ba103632b732103a379039b2b63360691b6044820152606490fd5b60405162461bcd60e51b815260048101869052601281850152714c6f616e206e6f7420617661696c61626c6560701b6044820152606490fd5b5060018601546001600160a01b031615610ede565b50346101f357806003193601126101f35760206040517fa49807205ce4d355092ef5a8a18f56e8913cf4a201fbe287825b095693c217758152f35b50346101f35760203660031901126101f3576004356114c1612fae565b6114c9612fdd565b8082528160205260408220600981019060ff82541680611630575b156115df5780546001600160a01b0391908216338190036115ab5760038693600284015416920154823b15610646576040516323b872dd60e01b81523060048201526001600160a01b0392909216602483015260448201529082908290606490829084905af1801561068657611597575b5050805460ff191690557fb71becc91961a6b43bcc5b3b630f3dce02c7fd444cf3738c4f188062b1caf5bc8280a260015f805160206132378339815191525580f35b6115a0906122ab565b61042b57825f611555565b60405162461bcd60e51b815260206004820152600c60248201526b2737ba103137b93937bbb2b960a11b6044820152606490fd5b60405162461bcd60e51b815260206004820152602360248201527f43616e6e6f742063616e63656c20616374697665206f722066756e646564206c60448201526237b0b760e91b6064820152608490fd5b5060018101546001600160a01b0316156114e4565b50346101f357806003193601126101f3576002546040516001600160a01b039091168152602090f35b50346101f35760603660031901126101f35761168861227f565b611690612295565b7ff0c57e16840df040f15088dc2f81fe391c3923bec73e23a9662efc9c229c6a009182549160ff8360401c1615926001600160401b038116801590816117e7575b60011490816117dd575b1590816117d4575b506117c25767ffffffffffffffff1981166001178555836117a3575b50611708613086565b611710613086565b61171933612d67565b5061172333612deb565b5061172d33612e98565b5060018060a01b0390816001600160601b0360a01b931683600254161760025516906003541617600355604435600455611765575080f35b68ff00000000000000001981541690557fc7f505b2f371ae2175ee4913f4499e1f2633a7b5936321eed1cdaeb6115181d2602060405160018152a180f35b68ffffffffffffffffff1916680100000000000000011784555f6116ff565b60405163f92ee8a960e01b8152600490fd5b9050155f6116e3565b303b1591506116db565b8591506116d1565b50346101f35760203660031901126101f35761180961227f565b611811612cc0565b60018060a01b03166001600160601b0360a01b600754161760075580f35b50346101f357806003193601126101f357602060ff5f8051602061321783398151915254166040519015158152f35b50346101f357806003193601126101f3577f00000000000000000000000000000000000000000000000000000000000000006001600160a01b031630036118c95760206040517f360894a13ba1a3210667c828492db98dca3e2076cc3735a920a3ca505d382bbc8152f35b60405163703e46dd60e11b8152600490fd5b50346101f35760403660031901126101f3576118f561227f565b6118fd612cc0565b6001600160a01b03168152600860205260408120602435905580f35b5060403660031901126101f35761192e61227f565b6024918235916001600160401b0383116106fd57366023840112156106fd5782600401359061195c826122df565b9161196a60405193846122be565b80835260209436878383010111610c24578185928888930183870137840101526001600160a01b037f00000000000000000000000000000000000000000000000000000000000000008116308114908115611b62575b506118c9577f189ab7a9244df0848122154315af71fe140f3db0fe014031783b0946b8c9d2e3805f525f805160206131f7833981519152865260405f20335f52865260ff60405f20541615611b4557506040516352d1902d60e01b8152908216948082600481895afa9182918693611b15575b5050611a5157604051634c9c8ce360e01b8152600481018690528690fd5b909192947f360894a13ba1a3210667c828492db98dca3e2076cc3735a920a3ca505d382bbc91828103611b005750823b15611aea575080546001600160a01b03191684179055604051927fbc7cd75a20ee27fd9adebab32041f755214dbc6bffa90cc0225b39da2e5c2d3b8580a2815115611ad0576109429250613145565b505034611adb575080f35b63b398979f60e01b8152600490fd5b604051634c9c8ce360e01b815260048101869052fd5b60405190632a87526960e21b82526004820152fd5b9080929350813d8311611b3e575b611b2d81836122be565b81010312610c245751905f80611a33565b503d611b23565b866044916040519163e2517d3f60e01b8352336004840152820152fd5b9050817f360894a13ba1a3210667c828492db98dca3e2076cc3735a920a3ca505d382bbc541614155f6119c0565b50346101f357806003193601126101f3576007546040516001600160a01b039091168152602090f35b50346101f357806003193601126101f357611bd2612cc0565b5f80516020613217833981519152805460ff811615611c1e5760ff191690557f5db9ee0a495bf2e6ff9c91a7834c1ba4fdd244a5e8aa4e537bd38aeae4b073aa6020604051338152a180f35b604051638dfc202b60e01b8152600490fd5b50346101f35760403660031901126101f357611c4a612295565b336001600160a01b03821603611c665761094290600435613007565b60405163334bd91960e11b8152600490fd5b50346101f357806003193601126101f3576020600154604051908152f35b50346113cb5760a03660031901126113cb57611cb061227f565b6024356044359160843590611cc3612fae565b611ccb612fdd565b8315611f1757610e108210611edd576001600160a01b03811690813b156113cb576040516323b872dd60e01b8152336004820152306024820152604481018590525f8160648183875af18015611ed257611ebd575b50611d2e90858533926123b8565b91600154935f198514611ea957600185016001556040519261016084018481106001600160401b03821117610a87576040523384528760208501526040840152606083015284608083015260643560a083015260c08201528460e0820152816101008201526001610120820152846101408201528285528460205260096040862060018060a01b038351166001600160601b0360a01b90818354161782556001820160018060a01b0360208601511682825416179055600282019060018060a01b0360408601511690825416179055606083015160038201556080830151600482015560a0830151600582015560c0830151600682015560e083015160078201556101008301516008820155019061012081015115159060ff61ff006101408554930151151560081b1692169061ffff19161717905560405192835260208301527f3373919ad665425d2cddb4072830e5935b6ee308440fa99b23383648da473bc060403393a360015f805160206132378339815191525580f35b634e487b7160e01b87526011600452602487fd5b611ec89196506122ab565b5f94611d2e611d20565b6040513d5f823e3d90fd5b60405162461bcd60e51b8152602060048201526012602482015271111d5c985d1a5bdb881d1bdbc81cda1bdc9d60721b6044820152606490fd5b60405162461bcd60e51b815260206004820152601560248201527405072696e636970616c206d757374206265203e203605c1b6044820152606490fd5b346113cb5760403660031901126113cb57611f9d600435611f73612295565b90805f525f805160206131f7833981519152602052611f98600160405f200154612d39565b612f3e565b005b346113cb5760203660031901126113cb576004355f525f805160206131f78339815191526020526020600160405f200154604051908152f35b346113cb5760203660031901126113cb576020611ff6600435612756565b604051908152f35b346113cb575f3660031901126113cb576020600454604051908152f35b346113cb576020806003193601126113cb5761203561227f565b9061203e612cc0565b6001600160a01b03828116929083156121b75760025416604051916370a0823160e01b83523060048401528383602481855afa928315611ed2575f93612188575b50821561214d5760405163a9059cbb60e01b81526001600160a01b0391909116600482015260248101839052908390829060449082905f905af1908115611ed2575f91612130575b50156120f957907fc0819c13be868895eb93e40eaceb96de976442fa1d404e5c55f14bb65a8c489a91604051908152a2005b60405162461bcd60e51b815260048101839052600f60248201526e151c985b9cd9995c8819985a5b1959608a1b6044820152606490fd5b6121479150833d8511610c8557610c7781836122be565b846120c7565b60405162461bcd60e51b81526004810185905260136024820152724e6f206665657320746f20776974686472617760681b6044820152606490fd5b9092508381813d83116121b0575b6121a081836122be565b810103126113cb5751918561207f565b503d612196565b60405162461bcd60e51b815260048101849052600c60248201526b5a65726f206164647265737360a01b6044820152606490fd5b346113cb5760803660031901126113cb5761220461227f565b606435906001600160a01b03821682036113cb57602091611ff69160443590602435906123b8565b346113cb5760203660031901126113cb576004359063ffffffff60e01b82168092036113cb57602091637965db0b60e01b811490811561226e575b5015158152f35b6301ffc9a760e01b14905083612267565b600435906001600160a01b03821682036113cb57565b602435906001600160a01b03821682036113cb57565b6001600160401b038111610a8757604052565b90601f801991011681019081106001600160401b03821117610a8757604052565b6001600160401b038111610a8757601f01601f191660200190565b908160809103126113cb57604051906001600160401b036080830181811184821017610a875760405281518060070b81036113cb578352602082015190811681036113cb5760208301526040810151908160030b82036113cb5760609160408401520151606082015290565b8181029291811591840414171561237957565b634e487b7160e01b5f52601160045260245ffd5b8115612397570490565b634e487b7160e01b5f52601260045260245ffd5b9190820391821161237957565b9092919283156126be576007546001600160a01b039283169083169081149081612734575b50156126c6576123ec90612aef565b905b81156126be578060035416906004805491604090815194639474f45b60e01b8652848487015260809060249782888a81855afa9788156126b4575f98612695575b506127109a8b81029081048c03612683579061244a9161238d565b956064966113888111612627575b508290898651809481936396834ad360e01b83528a8301525afa91821561261d575f926125f0575b505060649551905f8260070b13806125e3575b61257d575b5050606495816005541697886124d0575b50505050506124c29350906124bd91612366565b612366565b048060641081606418021890565b8394986020949897969851998a94859363682c9a9d60e11b855216908301525afa90811561257457505f90612540575b6124c2945061032081111561252457506124bd9150606e925b90915f8080806124a9565b6101f411612537575b6124bd9192612519565b605a915061252d565b506020843d60201161256c575b8161255a602093836122be565b810103126113cb576124c29351612500565b3d915061254d565b513d5f823e3d90fd5b516001600160401b039182169116818110156124985761259d90826123ab565b898102908082048b14901517156125d1576101f4916125bb9161238d565b116125c8575b5f80612498565b605a94506125c1565b87601186634e487b7160e01b5f52525ffd5b505f815160070b13612493565b61260f9250803d10612616575b61260781836122be565b8101906122fa565b5f80612480565b503d6125fd565b84513d5f823e3d90fd5b909690611387198101908111612683578060011b908082046002149015171561268357819004818110612660575050815f965b90612458565b81039081116126715782909661265a565b88601187634e487b7160e01b5f52525ffd5b89601188634e487b7160e01b5f52525ffd5b6126ad919850833d85116126165761260781836122be565b965f61242f565b85513d5f823e3d90fd5b505050505f90565b50806003541660806004546024604051809481936396834ad360e01b835260048301525afa908115611ed2575f91612715575b505f815160070b13156126be5761270f9061289e565b906123ee565b61272e915060803d6080116126165761260781836122be565b5f6126f9565b905015155f6123dd565b908160209103126113cb575180151581036113cb5790565b606481116127a757603781106127a2578060640390606482116123795760c8820291820460c8149060641417156123795761232890810390811161237957611b58818082109118021890565b505f90565b60405162461bcd60e51b81526020600482015260136024820152724865616c7468206f7574206f662072616e676560681b6044820152606490fd5b9160208181850182865252604084019360408360051b82010194845f925b858410612811575050505050505090565b90919293949596603f198282030184528735601e19843603018112156113cb5783018681019190356001600160401b0381116113cb5780360383136113cb5787828280600196849695859652848401375f828201840152601f01601f1916010199019796959190910193019190612800565b9190820180921161237957565b604d811161237957600a0a90565b80515f8160070b131561296557604082019081515f8160030b125f1461292f5750505160030b637fffffff198114612379575f0363ffffffff16906001600160401b0390600683111561290e57511660051982019182116123795761290561290b92612890565b9061238d565b90565b51169060060390600682116123795761292961290b92612890565b90612366565b9150915063ffffffff809116600601818111612379571690604d8211612379576001600160401b0361290b92600a0a9116612366565b50505f90565b6001600160401b038111610a875760051b60200190565b9080601f830112156113cb5781519060209161299d8161296b565b936129ab60405195866122be565b81855260208086019260051b8201019283116113cb57602001905b8282106129d4575050505090565b81516001600160a01b03811681036113cb5781529083019083016129c6565b9080601f830112156113cb57815190602091612a0e8161296b565b93612a1c60405195866122be565b81855260208086019260051b8201019283116113cb57602001905b828210612a45575050505090565b81518152908301908301612a37565b916080838303126113cb578251906001600160401b03918281116113cb5783612a7e918601612982565b9360208101518381116113cb5784612a979183016129f3565b9360408201518481116113cb5781612ab0918401612982565b9360608301519081116113cb5761290b92016129f3565b8051821015612adb5760209160051b010190565b634e487b7160e01b5f52603260045260245ffd5b5f9160018060a01b03918260075416604092835190636e9fb8a560e01b825260049360048301525f8260248181965afa9081156126b4575f925f92612c9d575b5095965f978060035416915b84518a1015612c925781612b4f8b87612ac7565b51165f52602060088152885f20548015612c6a578951906396834ad360e01b82528982015260809081818a81895afa918215612c605790612b9992915f92612c75575b505061289e565b8015612c6a57888285612bac8f8b612ac7565b51168c519283809263313ce56760e01b82525afa928315612c6057908d915f94612c22575b505060ff916104da612be39289612ac7565b9116604d8111612c105791612c01612c0792600194600a0a9061238d565b90612883565b995b0198612b3b565b8760118a634e487b7160e01b5f52525ffd5b819394508092503d8311612c59575b612c3b81836122be565b810103126113cb57519060ff821682036113cb578b816104da612bd1565b503d612c31565b8b513d5f823e3d90fd5b505098600190612c09565b612c8b9250803d106126165761260781836122be565b5f80612b92565b985050505050505050565b909250612cb491503d805f833e61067081836122be565b5050919091905f612b2f565b335f9081527fb16e88c42fd4e48df2dd6a2eabd6bc9aec654ec170056b470819f8892cc6431c60205260409020547fa49807205ce4d355092ef5a8a18f56e8913cf4a201fbe287825b095693c217759060ff1615612d1b5750565b6044906040519063e2517d3f60e01b82523360048301526024820152fd5b805f525f805160206131f783398151915260205260405f20335f5260205260ff60405f20541615612d1b5750565b6001600160a01b03165f8181527fb7db2dd08fcb62d0c9e08c51941cae53c267786a0b75803fb7960902fc8ef97d60205260409020545f805160206131f78339815191529060ff16612965575f805260205260405f20815f5260205260405f20600160ff1982541617905533905f5f805160206131d78339815191528180a4600190565b6001600160a01b03165f8181527fb16e88c42fd4e48df2dd6a2eabd6bc9aec654ec170056b470819f8892cc6431c60205260409020547fa49807205ce4d355092ef5a8a18f56e8913cf4a201fbe287825b095693c2177591905f805160206131f78339815191529060ff16612e9157825f5260205260405f20815f5260205260405f20600160ff1982541617905533915f805160206131d78339815191525f80a4600190565b5050505f90565b6001600160a01b03165f8181527fab71e3f32666744d246edff3f96e4bdafee2e9867098cdd118a979a7464786a860205260409020547f189ab7a9244df0848122154315af71fe140f3db0fe014031783b0946b8c9d2e391905f805160206131f78339815191529060ff16612e9157825f5260205260405f20815f5260205260405f20600160ff1982541617905533915f805160206131d78339815191525f80a4600190565b90815f525f805160206131f78339815191528060205260405f209160018060a01b031691825f5260205260ff60405f205416155f14612e9157825f5260205260405f20815f5260205260405f20600160ff1982541617905533915f805160206131d78339815191525f80a4600190565b5f805160206132378339815191526002815414612fcb5760029055565b604051633ee5aeb560e01b8152600490fd5b60ff5f805160206132178339815191525416612ff557565b60405163d93c066560e01b8152600490fd5b90815f525f805160206131f78339815191528060205260405f209160018060a01b031691825f5260205260ff60405f2054165f14612e9157825f5260205260405f20815f5260205260405f2060ff19815416905533917ff6391f5c32d9c69d2a47ea670b442974b53935d1edc7fd64eb21e047a839171b5f80a4600190565b60ff7ff0c57e16840df040f15088dc2f81fe391c3923bec73e23a9662efc9c229c6a005460401c16156130b557565b604051631afcd79f60e31b8152600490fd5b60405163a9059cbb60e01b5f9081526001600160a01b039384166004526024949094529260209060448180855af160015f5114811615613126575b836040521561311057505050565b635274afe760e01b835216600482015260249150fd5b600181151661313c57813b15153d151616613102565b833d5f823e3d90fd5b905f8091602081519101845af480806131c3575b156131795750506040513d81523d5f602083013e60203d82010160405290565b156131a057604051639996b31560e01b81526001600160a01b039091166004820152602490fd5b3d156131b1576040513d5f823e3d90fd5b60405163d6bda27560e01b8152600490fd5b503d1515806131595750813b151561315956fe2f8788117e7eff1d82e926ec794901d17c78024a50270940304540a733656f0d02dd7bc7dec4dceedda775e58dd541e08a116c6c53815c0bd028192f7b626800cd5ed15c6e187e77e9aee88184c21f4f2182ab5827cb3b7e07fbedcd63f033009b779b17422d0df92223018b32b4d1fa46e071723d6817e2486d003becc55f00a2646970667358221220688a9ec7cef7dfc9dbb0a524efb76a072f86c297806e52c02f1c761af804c97a64736f6c63430008180033","linkReferences":{}},"methodIdentifiers":{"ADMIN_ROLE()":"75b238fc","BROKER_FEE_BPS()":"c0f13b56","DEFAULT_ADMIN_ROLE()":"a217fddf","MIN_DURATION()":"b6a6d177","UPGRADER_ROLE()":"f72c0d8b","UPGRADE_INTERFACE_VERSION()":"ad3cb1cc","acceptLoan(uint256,bytes[])":"7eba024c","bundleVault()":"45ba733d","cancelLoanOffer(uint256)":"74cbe57e","claimDefault(uint256)":"facd66c7","createLoanOffer(address,uint256,uint256,uint256,uint256)":"2fca6371","feeToken()":"647846a5","getHealthScore(address,uint256,uint256,address)":"09007543","getRoleAdmin(bytes32)":"248a9ca3","grantRole(bytes32,address)":"2f2ff15d","hasRole(bytes32,address)":"91d14854","initialize(address,address,bytes32)":"6133f985","loanCounter()":"34d9289e","loans(uint256)":"e1ec3c68","pause()":"8456cb59","paused()":"5c975abb","priceFeedId()":"1999bb9e","proxiableUUID()":"52d1902d","pythOracle()":"f5d6ac90","renounceRole(bytes32,address)":"36568abe","repayLoan(uint256)":"ab7b1c89","reputationOracle()":"fad844c1","revokeRole(bytes32,address)":"d547741f","setBundleVault(address)":"5fd0740a","setReputationOracle(address)":"d19cfdac","setStakingContract(address)":"9dd373b9","setTokenPriceFeed(address,bytes32)":"50abbd94","stakingContract()":"ee99205c","suggestLTV(uint256)":"1de2346a","supportsInterface(bytes4)":"01ffc9a7","tokenPriceFeeds(address)":"bd9c47e3","unpause()":"3f4ba83a","upgradeToAndCall(address,bytes)":"4f1ef286","withdrawFees(address)":"164e68de"},"id":2}