{"abi":[{"type":"constructor","inputs":[],"stateMutability":"nonpayable"},{"type":"function","name":"DEFAULT_ADMIN_ROLE","inputs":[],"outputs":[{"name":"","type":"bytes32","internalType":"bytes32"}],"stateMutability":"view"},{"type":"function","name":"UPGRADER_ROLE","inputs":[],"outputs":[{"name":"","type":"bytes32","internalType":"bytes32"}],"stateMutability":"view"},{"type":"function","name":"UPGRADE_INTERFACE_VERSION","inputs":[],"outputs":[{"name":"","type":"string","internalType":"string"}],"stateMutability":"view"},{"type":"function","name":"bundleOptionCounter","inputs":[],"outputs":[{"name":"","type":"uint256","internalType":"uint256"}],"stateMutability":"view"},{"type":"function","name":"bundleOptions","inputs":[{"name":"","type":"uint256","internalType":"uint256"}],"outputs":[{"name":"writer","type":"address","internalType":"address"},{"name":"buyer","type":"address","internalType":"address"},{"name":"bundleVault","type":"address","internalType":"address"},{"name":"bundleId","type":"uint256","internalType":"uint256"},{"name":"strike","type":"uint256","internalType":"uint256"},{"name":"expiry","type":"uint256","internalType":"uint256"},{"name":"premium","type":"uint256","internalType":"uint256"},{"name":"exercised","type":"bool","internalType":"bool"},{"name":"active","type":"bool","internalType":"bool"}],"stateMutability":"view"},{"type":"function","name":"buyBundleOption","inputs":[{"name":"bundleOptId","type":"uint256","internalType":"uint256"}],"outputs":[],"stateMutability":"nonpayable"},{"type":"function","name":"buyOption","inputs":[{"name":"optionId","type":"uint256","internalType":"uint256"}],"outputs":[],"stateMutability":"nonpayable"},{"type":"function","name":"cancelBundleOption","inputs":[{"name":"bundleOptId","type":"uint256","internalType":"uint256"}],"outputs":[],"stateMutability":"nonpayable"},{"type":"function","name":"cancelOption","inputs":[{"name":"optionId","type":"uint256","internalType":"uint256"}],"outputs":[],"stateMutability":"nonpayable"},{"type":"function","name":"exercise","inputs":[{"name":"optionId","type":"uint256","internalType":"uint256"}],"outputs":[],"stateMutability":"nonpayable"},{"type":"function","name":"exerciseBundleOption","inputs":[{"name":"bundleOptId","type":"uint256","internalType":"uint256"}],"outputs":[],"stateMutability":"nonpayable"},{"type":"function","name":"getRoleAdmin","inputs":[{"name":"role","type":"bytes32","internalType":"bytes32"}],"outputs":[{"name":"","type":"bytes32","internalType":"bytes32"}],"stateMutability":"view"},{"type":"function","name":"grantRole","inputs":[{"name":"role","type":"bytes32","internalType":"bytes32"},{"name":"account","type":"address","internalType":"address"}],"outputs":[],"stateMutability":"nonpayable"},{"type":"function","name":"hasRole","inputs":[{"name":"role","type":"bytes32","internalType":"bytes32"},{"name":"account","type":"address","internalType":"address"}],"outputs":[{"name":"","type":"bool","internalType":"bool"}],"stateMutability":"view"},{"type":"function","name":"initialize","inputs":[{"name":"_premiumToken","type":"address","internalType":"address"}],"outputs":[],"stateMutability":"nonpayable"},{"type":"function","name":"optionCounter","inputs":[],"outputs":[{"name":"","type":"uint256","internalType":"uint256"}],"stateMutability":"view"},{"type":"function","name":"options","inputs":[{"name":"","type":"uint256","internalType":"uint256"}],"outputs":[{"name":"writer","type":"address","internalType":"address"},{"name":"buyer","type":"address","internalType":"address"},{"name":"underlying","type":"address","internalType":"address"},{"name":"amount","type":"uint256","internalType":"uint256"},{"name":"strike","type":"uint256","internalType":"uint256"},{"name":"expiry","type":"uint256","internalType":"uint256"},{"name":"premium","type":"uint256","internalType":"uint256"},{"name":"exercised","type":"bool","internalType":"bool"},{"name":"active","type":"bool","internalType":"bool"}],"stateMutability":"view"},{"type":"function","name":"premiumToken","inputs":[],"outputs":[{"name":"","type":"address","internalType":"contract IERC20"}],"stateMutability":"view"},{"type":"function","name":"proxiableUUID","inputs":[],"outputs":[{"name":"","type":"bytes32","internalType":"bytes32"}],"stateMutability":"view"},{"type":"function","name":"reclaimBundle","inputs":[{"name":"bundleOptId","type":"uint256","internalType":"uint256"}],"outputs":[],"stateMutability":"nonpayable"},{"type":"function","name":"reclaimUnderlying","inputs":[{"name":"optionId","type":"uint256","internalType":"uint256"}],"outputs":[],"stateMutability":"nonpayable"},{"type":"function","name":"renounceRole","inputs":[{"name":"role","type":"bytes32","internalType":"bytes32"},{"name":"callerConfirmation","type":"address","internalType":"address"}],"outputs":[],"stateMutability":"nonpayable"},{"type":"function","name":"revokeRole","inputs":[{"name":"role","type":"bytes32","internalType":"bytes32"},{"name":"account","type":"address","internalType":"address"}],"outputs":[],"stateMutability":"nonpayable"},{"type":"function","name":"setStakingContract","inputs":[{"name":"_staking","type":"address","internalType":"address"}],"outputs":[],"stateMutability":"nonpayable"},{"type":"function","name":"stakingContract","inputs":[],"outputs":[{"name":"","type":"address","internalType":"address"}],"stateMutability":"view"},{"type":"function","name":"supportsInterface","inputs":[{"name":"interfaceId","type":"bytes4","internalType":"bytes4"}],"outputs":[{"name":"","type":"bool","internalType":"bool"}],"stateMutability":"view"},{"type":"function","name":"upgradeToAndCall","inputs":[{"name":"newImplementation","type":"address","internalType":"address"},{"name":"data","type":"bytes","internalType":"bytes"}],"outputs":[],"stateMutability":"payable"},{"type":"function","name":"writeBundleCall","inputs":[{"name":"_bundleVault","type":"address","internalType":"address"},{"name":"bundleId","type":"uint256","internalType":"uint256"},{"name":"strike","type":"uint256","internalType":"uint256"},{"name":"expiry","type":"uint256","internalType":"uint256"},{"name":"premium","type":"uint256","internalType":"uint256"}],"outputs":[{"name":"","type":"uint256","internalType":"uint256"}],"stateMutability":"nonpayable"},{"type":"function","name":"writeCoveredCall","inputs":[{"name":"underlying","type":"address","internalType":"address"},{"name":"amount","type":"uint256","internalType":"uint256"},{"name":"strike","type":"uint256","internalType":"uint256"},{"name":"expiry","type":"uint256","internalType":"uint256"},{"name":"premium","type":"uint256","internalType":"uint256"}],"outputs":[{"name":"","type":"uint256","internalType":"uint256"}],"stateMutability":"nonpayable"},{"type":"event","name":"BundleOptionBought","inputs":[{"name":"bundleOptId","type":"uint256","indexed":true,"internalType":"uint256"},{"name":"buyer","type":"address","indexed":true,"internalType":"address"}],"anonymous":false},{"type":"event","name":"BundleOptionCancelled","inputs":[{"name":"bundleOptId","type":"uint256","indexed":true,"internalType":"uint256"}],"anonymous":false},{"type":"event","name":"BundleOptionExercised","inputs":[{"name":"bundleOptId","type":"uint256","indexed":true,"internalType":"uint256"},{"name":"buyer","type":"address","indexed":true,"internalType":"address"}],"anonymous":false},{"type":"event","name":"BundleOptionWritten","inputs":[{"name":"bundleOptId","type":"uint256","indexed":true,"internalType":"uint256"},{"name":"writer","type":"address","indexed":true,"internalType":"address"},{"name":"bundleVault","type":"address","indexed":false,"internalType":"address"},{"name":"bundleId","type":"uint256","indexed":false,"internalType":"uint256"},{"name":"strike","type":"uint256","indexed":false,"internalType":"uint256"},{"name":"premium","type":"uint256","indexed":false,"internalType":"uint256"}],"anonymous":false},{"type":"event","name":"BundleReclaimed","inputs":[{"name":"bundleOptId","type":"uint256","indexed":true,"internalType":"uint256"}],"anonymous":false},{"type":"event","name":"Initialized","inputs":[{"name":"version","type":"uint64","indexed":false,"internalType":"uint64"}],"anonymous":false},{"type":"event","name":"OptionBought","inputs":[{"name":"optionId","type":"uint256","indexed":true,"internalType":"uint256"},{"name":"buyer","type":"address","indexed":true,"internalType":"address"}],"anonymous":false},{"type":"event","name":"OptionCancelled","inputs":[{"name":"optionId","type":"uint256","indexed":true,"internalType":"uint256"}],"anonymous":false},{"type":"event","name":"OptionExercised","inputs":[{"name":"optionId","type":"uint256","indexed":true,"internalType":"uint256"},{"name":"buyer","type":"address","indexed":true,"internalType":"address"}],"anonymous":false},{"type":"event","name":"OptionWritten","inputs":[{"name":"optionId","type":"uint256","indexed":true,"internalType":"uint256"},{"name":"writer","type":"address","indexed":true,"internalType":"address"},{"name":"amount","type":"uint256","indexed":false,"internalType":"uint256"},{"name":"strike","type":"uint256","indexed":false,"internalType":"uint256"},{"name":"premium","type":"uint256","indexed":false,"internalType":"uint256"}],"anonymous":false},{"type":"event","name":"RoleAdminChanged","inputs":[{"name":"role","type":"bytes32","indexed":true,"internalType":"bytes32"},{"name":"previousAdminRole","type":"bytes32","indexed":true,"internalType":"bytes32"},{"name":"newAdminRole","type":"bytes32","indexed":true,"internalType":"bytes32"}],"anonymous":false},{"type":"event","name":"RoleGranted","inputs":[{"name":"role","type":"bytes32","indexed":true,"internalType":"bytes32"},{"name":"account","type":"address","indexed":true,"internalType":"address"},{"name":"sender","type":"address","indexed":true,"internalType":"address"}],"anonymous":false},{"type":"event","name":"RoleRevoked","inputs":[{"name":"role","type":"bytes32","indexed":true,"internalType":"bytes32"},{"name":"account","type":"address","indexed":true,"internalType":"address"},{"name":"sender","type":"address","indexed":true,"internalType":"address"}],"anonymous":false},{"type":"event","name":"UnderlyingReclaimed","inputs":[{"name":"optionId","type":"uint256","indexed":true,"internalType":"uint256"}],"anonymous":false},{"type":"event","name":"Upgraded","inputs":[{"name":"implementation","type":"address","indexed":true,"internalType":"address"}],"anonymous":false},{"type":"error","name":"AccessControlBadConfirmation","inputs":[]},{"type":"error","name":"AccessControlUnauthorizedAccount","inputs":[{"name":"account","type":"address","internalType":"address"},{"name":"neededRole","type":"bytes32","internalType":"bytes32"}]},{"type":"error","name":"AddressEmptyCode","inputs":[{"name":"target","type":"address","internalType":"address"}]},{"type":"error","name":"ERC1967InvalidImplementation","inputs":[{"name":"implementation","type":"address","internalType":"address"}]},{"type":"error","name":"ERC1967NonPayable","inputs":[]},{"type":"error","name":"FailedCall","inputs":[]},{"type":"error","name":"InvalidInitialization","inputs":[]},{"type":"error","name":"NotInitializing","inputs":[]},{"type":"error","name":"ReentrancyGuardReentrantCall","inputs":[]},{"type":"error","name":"UUPSUnauthorizedCallContext","inputs":[]},{"type":"error","name":"UUPSUnsupportedProxiableUUID","inputs":[{"name":"slot","type":"bytes32","internalType":"bytes32"}]}],"bytecode":{"object":"0x60a080604052346100f0573060805260017f9b779b17422d0df92223018b32b4d1fa46e071723d6817e2486d003becc55f00557ff0c57e16840df040f15088dc2f81fe391c3923bec73e23a9662efc9c229c6a009081549060ff8260401c166100e157506001600160401b036002600160401b03198282160161009c575b6040516125f090816100f5823960805181818161148c01526115720152f35b6001600160401b031990911681179091556040519081527fc7f505b2f371ae2175ee4913f4499e1f2633a7b5936321eed1cdaeb6115181d290602090a15f808061007d565b63f92ee8a960e01b8152600490fd5b5f80fdfe60806040818152600480361015610014575f80fd5b5f925f3560e01c90816301ffc9a714611c8f575080630aecd83014611b5b578063248a9ca314611b255780632f2ff15d14611afc578063344e739f1461199657806336568abe1461194f578063388b61a4146117f4578063409e2205146117875780634f1ef286146114f057806352d1902d1461147757806391d1485414611428578063926ca268146111d35780639dd373b914611152578063a217fddf14611137578063a4598b3914610f27578063ad3cb1cc14610e89578063b07f0a4114610cc9578063b180783d14610ca0578063b7cd63ee14610c83578063c4d66de814610b1c578063cf2a1e1614610aa7578063d547741f14610a5c578063de6bf6351461091a578063e5da42f114610777578063ee858bdb1461053f578063ee99205c14610516578063f72c0d8b146104db578063f8a35181146104bc5763fba225b91461015f575f80fd5b3461038557826020806003193601126104b85782359361017d61220f565b8483528282528083209360ff600786015460081c16806104a3575b6101a1906120f3565b6101b060058601544210612078565b600685015460055490936001600160a01b039182161561041157606485049486826102166101de898561217b565b60025489516323b872dd60e01b8152338a82019081523060208201526040810197909752919591948593918916928492839160600190565b03925af19081156103ea57906102339189916103f4575b5061212f565b86826102738560025416868c541694895194858094819363a9059cbb60e01b998a84528d840160209093929193604081019460018060a01b031681520152565b03925af19081156103ea576102cb9261029685938a938c916103cd575b50612188565b8560025416908a8760055416918a519687958694859384528c840160209093929193604081019460018060a01b031681520152565b03925af19182156103c357906102ea92918892610396575b50506121cd565b6005541692833b156103925760248592838551968794859363fd5773a960e01b85528401525af19081156103895750610371575b50506001905b01336001600160601b0360a01b82541617905533907ff818b60a04a5914080e463ac568206f291380303c88fc049b89d9acfa93139d28380a360015f8051602061259b8339815191525580f35b61037a90611d5c565b61038557825f61031e565b8280fd5b513d84823e3d90fd5b8480fd5b6103b59250803d106103bc575b6103ad8183611da1565b810190611ee4565b5f806102e3565b503d6103a3565b85513d89823e3d90fd5b6103e49150853d87116103bc576103ad8183611da1565b5f610290565b86513d8a823e3d90fd5b61040b9150843d86116103bc576103ad8183611da1565b5f61022d565b600254875485516323b872dd60e01b8152339581019586529084166001600160a01b0316602086015260408501969096529395909384938693909116918391829060600103925af192831561049a5750916104789160019493879261047d575b505061212f565b610324565b6104939250803d106103bc576103ad8183611da1565b5f80610471565b513d87823e3d90fd5b5060018501546001600160a01b031615610198565b5080fd5b5050346104b857816003193601126104b8576020906001549051908152f35b5050346104b857816003193601126104b857602090517f189ab7a9244df0848122154315af71fe140f3db0fe014031783b0946b8c9d2e38152f35b5050346104b857816003193601126104b85760055490516001600160a01b039091168152602090f35b503461038557826020806003193601126104b85782359361055e61220f565b848352600382528083209360ff600786015460081c1680610762575b610583906120f3565b61059260058601544210612078565b600685015460055490936001600160a01b03918216156106f757606485049486826105c06101de898561217b565b03925af19081156103ea57906105dc9189916103f4575061212f565b868261061c8560025416868c541694895194858094819363a9059cbb60e01b998a84528d840160209093929193604081019460018060a01b031681520152565b03925af19081156103ea5761063e9261029685938a938c916103cd5750612188565b03925af19182156103c3579061065c929188926103965750506121cd565b6005541692833b156103925760248592838551968794859363fd5773a960e01b85528401525af190811561038957506106e3575b50506001905b01336001600160601b0360a01b82541617905533907ff6d53c8347f56df586ee9bde1f1dd4bb854384593f063d53eafe71e0ed1fe8cd8380a360015f8051602061259b8339815191525580f35b6106ec90611d5c565b61038557825f610690565b600254875485516323b872dd60e01b8152339581019586529084166001600160a01b0316602086015260408501969096529395909384938693909116918391829060600103925af192831561049a57509161075d9160019493879261047d57505061212f565b610696565b5060018501546001600160a01b03161561057a565b509034610385576020366003190112610385578282359261079661220f565b838252600360205282822060018101546001600160a01b03949183916107bf9087163314612040565b60078101956107d260ff88541615611ea4565b6107e160058301544210612078565b61083060208260025416838554169086860154918a89518096819582946323b872dd60e01b9c8d85523390850160409194939294606082019560018060a01b0380921683521660208201520152565b03925af19081156103c357600392916108509189916108fb575b506120ae565b60028301541691015490803b156108f757835192835230948301948552336020860152604085019190915290928491849182908490829060600103925af190811561038957506108e3575b5050805461ffff1916600117905533907f276bfe0c9b93babe5cb4d0c31fe1e4143ed0677c15e2feaf4222f75844c70ab88380a360015f8051602061259b8339815191525580f35b6108ec90611d5c565b61038557825f61089b565b8580fd5b610914915060203d6020116103bc576103ad8183611da1565b5f61084a565b50346103855760203660031901126103855780359161093761220f565b828452836020526109c0602082862093600785019460ff865460081c1680610a47575b61096390611df5565b80546001600160a01b03908116908990600390610981338514611e31565b60028501549190940154885163a9059cbb60e01b81526001600160a01b0390941695840195865260208601529195869493909216928492839160400190565b03925af1918215610a3e5750906109de918591610a1f575b50611efc565b805461ff00191690557f7621a0eef8c39766512e6fd0e8f1bc133ec9b9b2ade3f1732962a1905002f1f98280a260015f8051602061259b8339815191525580f35b610a38915060203d6020116103bc576103ad8183611da1565b5f6109d8565b513d86823e3d90fd5b5060018101546001600160a01b03161561095a565b509034610385578060031936011261038557610aa39135610a9e6001610a80611ce1565b938387525f8051602061257b8339815191526020528620015461223e565b61246a565b5080f35b509134610b19576020366003190112610b195781610b1591843581526003602052209160018060a01b0392838154169084600182015416946002820154169560038201549082015460058301549160076006850154940154955198899860ff808960081c169816968a611d0d565b0390f35b80fd5b503461038557602036600319011261038557610b36611cf7565b907ff0c57e16840df040f15088dc2f81fe391c3923bec73e23a9662efc9c229c6a009182549160ff83861c16159267ffffffffffffffff811680159081610c7b575b6001149081610c71575b159081610c68575b50610c595767ffffffffffffffff198116600117855583610c3a575b5060ff8454861c1615610c2c5750610bbd3361228a565b50610bc733612327565b5060018060a01b03166001600160601b0360a01b6002541617600255610beb578280f35b805468ff00000000000000001916905551600181527fc7f505b2f371ae2175ee4913f4499e1f2633a7b5936321eed1cdaeb6115181d290602090a15f808280f35b8451631afcd79f60e31b8152fd5b68ffffffffffffffffff1916680100000000000000011784555f610ba6565b50845163f92ee8a960e01b8152fd5b9050155f610b8a565b303b159150610b82565b859150610b78565b503461038557826003193601126103855760209250549051908152f35b5050346104b857816003193601126104b85760025490516001600160a01b039091168152602090f35b50346103855760209081600319360112610e8557803591610ce861220f565b82855284815283852091610d7a60018060a01b0391610d0e836001870154163314612040565b6007850194610d2160ff87541615611ea4565b610d3060058201544210612078565b6002548154838301548a516323b872dd60e01b8152338187019081529288166001600160a01b03166020840152604083019190915294879286929088169183918e91839160600190565b03925af18015610e7b57610dd794610d9c60039288968d91610e6457506120ae565b6002830154169101549189895180968195829463a9059cbb60e01b84523390840160209093929193604081019460018060a01b031681520152565b03925af1918215610e5a57610df7939495508692610e3d575b5050611f3a565b805461ffff1916600117905533907f76b3900aee1539fba6bc0c92712c2959a1b89602c8a57aebbeff7c52bff1f1eb8380a360015f8051602061259b8339815191525580f35b610e539250803d106103bc576103ad8183611da1565b5f80610df0565b85513d88823e3d90fd5b6109149150873d89116103bc576103ad8183611da1565b88513d8b823e3d90fd5b8380fd5b50346103855782600319360112610385578151908282019082821067ffffffffffffffff831117610f145750825260058152602090640352e302e360dc1b6020820152825193849260208452825192836020860152825b848110610efe57505050828201840152601f01601f19168101030190f35b8181018301518882018801528795508201610ee0565b604190634e487b7160e01b5f525260245ffd5b50903461038557610f3736611dc3565b929093610f4261220f565b6001600160a01b03169384156110fd57428111156110c957821515806110c0575b1561107d57843b1561106f5785516323b872dd60e01b815233888201908152306020820152604081018490528990829081906060010381838a5af180156110735761105b575b5061100b9086602099895499610fbe8b611f86565b9055815192610fcc84611d84565b338452818c850152888385015285606085015286608085015260a08401528660c08401528060e0840152600161010084015289815260038b5220611fa8565b845193845286840152838301526060820152827f0ebbc05cc1a647fd18e1b083051b7ae0e8d5a74ae5fb8548ebac4887b9e796f360803393a360015f8051602061259b8339815191525551908152f35b6110658991611d5c565b61106f575f610fa9565b8780fd5b87513d8b823e3d90fd5b855162461bcd60e51b8152602081890152601a60248201527f537472696b652f7072656d69756d206d757374206265203e20300000000000006044820152606490fd5b50831515610f63565b855162461bcd60e51b8152602081890152600e60248201526d115e1c1a5c9e481a5b881c185cdd60921b6044820152606490fd5b855162461bcd60e51b81526020818901526014602482015273125b9d985b1a5908189d5b991b19481d985d5b1d60621b6044820152606490fd5b5050346104b857816003193601126104b85751908152602090f35b50346103855760203660031901126103855761116c611cf7565b915f80525f8051602061257b833981519152602052805f20335f5260205260ff815f205416156111b657505060018060a01b03166001600160601b0360a01b600554161760055580f35b60449250519063e2517d3f60e01b825233908201525f6024820152fd5b509190346104b8576111e436611dc3565b936111f49792939796919661220f565b428711156113e55787156113ad57831561137557841561133c5785516323b872dd60e01b81523393810193845230602085810191909152604085018a9052989594936001600160a01b039092169291899082908190606001038185875af1908115611332579161127188926112ca95948391611315575b50611f3a565b6001549861127e8a611f86565b60015582519361128d85611d84565b338552828c8601528385015287606085015285608085015260a08401528560c08401528060e08401526001610100840152888152808a5220611fa8565b83519283528583015282820152827f6c5e12adbc31f932078f380cad5566666037da5b387d8c7613a22b2c8a15beac60603393a360015f8051602061259b8339815191525551908152f35b61132c91508c8d3d106103bc576103ad8183611da1565b5f61126b565b87513d84823e3d90fd5b855162461bcd60e51b8152602081850152601360248201527205072656d69756d206d757374206265203e203606c1b6044820152606490fd5b855162461bcd60e51b815260208185015260126024820152710537472696b65206d757374206265203e20360741b6044820152606490fd5b855162461bcd60e51b815260208185015260126024820152710416d6f756e74206d757374206265203e20360741b6044820152606490fd5b855162461bcd60e51b8152602081850152601860248201527f457870697279206d75737420626520696e2066757475726500000000000000006044820152606490fd5b503461038557816003193601126103855781602093611445611ce1565b923581525f8051602061257b8339815191528552209060018060a01b03165f52825260ff815f20541690519015158152f35b509134610b195780600319360112610b1957507f00000000000000000000000000000000000000000000000000000000000000006001600160a01b031630036114e357602090517f360894a13ba1a3210667c828492db98dca3e2076cc3735a920a3ca505d382bbc8152f35b5163703e46dd60e11b8152fd5b50908060031936011261038557611505611cf7565b90602493843567ffffffffffffffff93848211610385573660238301121561038557818601359485116117755760209484519261154b87601f19601f8501160185611da1565b81845236898383010111610392578185928a89930183870137840101526001600160a01b037f00000000000000000000000000000000000000000000000000000000000000008116308114908115611747575b50611737577f189ab7a9244df0848122154315af71fe140f3db0fe014031783b0946b8c9d2e3805f525f8051602061257b8339815191528752855f20335f52875260ff865f2054161561171a575084516352d1902d60e01b815290821695808289818a5afa91829186936116ea575b505061162857505050505191634c9c8ce360e01b8352820152fd5b9093919492967f360894a13ba1a3210667c828492db98dca3e2076cc3735a920a3ca505d382bbc918281036116d55750843b156116c1575080546001600160a01b0319168317905551907fbc7cd75a20ee27fd9adebab32041f755214dbc6bffa90cc0225b39da2e5c2d3b8680a28251156116a85750610aa392506124e9565b915050346116b557505080f35b63b398979f60e01b8152fd5b8251634c9c8ce360e01b8152808801859052fd5b8351632a87526960e21b815280890191909152fd5b9080929350813d8311611713575b6117028183611da1565b810103126103925751905f8061160d565b503d6116f8565b855163e2517d3f60e01b815233818a0152808a0191909152604490fd5b845163703e46dd60e11b81528790fd5b9050817f360894a13ba1a3210667c828492db98dca3e2076cc3735a920a3ca505d382bbc541614155f61159e565b86604187634e487b7160e01b5f52525ffd5b509134610b19576020366003190112610b195781610b15918435815280602052209160018060a01b0392838154169084600182015416946002820154169560038201549082015460058301549160076006850154940154955198899860ff808960081c169816968a611d0d565b50346103855760209081600319360112610e855780359161181361220f565b82855284815283852080546001600160a01b039391908416611836338214611e31565b61184560058301544211611e6a565b600782019460ff865461185a82821615611ea4565b60081c161561191f576002830154600390930154885163a9059cbb60e01b81526001600160a01b039093169483019485526020850152909284928492169082908a90829060400103925af1918215610e5a576118c1939495508692611902575b5050611efc565b805461ff00191690557f5b5751684de9c5a675619642e3b365bcb674974ef7e71d5890d486217a4756b98280a260015f8051602061259b8339815191525580f35b6119189250803d106103bc576103ad8183611da1565b5f806118ba565b875162461bcd60e51b8152808501869052600a6024820152694e6f742061637469766560b01b6044820152606490fd5b509190346104b857806003193601126104b85761196a611ce1565b90336001600160a01b038316036119875750610aa391923561246a565b5163334bd91960e11b81528390fd5b5034610385576020366003190112610385578035916119b361220f565b828452600360205280842080546001600160a01b039390841692916119d9338514611e31565b6119e860058201544211611e6a565b6007810194855460ff8116159081611aee575b5015611abb57906003889594939260028301541691015490803b156108f75783516323b872dd60e01b8152309381019384526001600160a01b0390951660208401526040830191909152849184919082908490829060600103925af19081156103895750611aa7575b5050805461ff00191690557fdf26dca62fe43cfafa6a9fd044ce1dcd9ed92d12ffee923d92aa00393de5a2478280a260015f8051602061259b8339815191525580f35b611ab090611d5c565b61038557825f611a64565b835162461bcd60e51b8152602081850152600d60248201526c496e76616c696420737461746560981b6044820152606490fd5b60ff915060081c165f6119fb565b509034610385578060031936011261038557610aa39135611b206001610a80611ce1565b6123e7565b503461038557602036600319011261038557816020936001923581525f8051602061257b83398151915285522001549051908152f35b5034611c76576020366003190112611c7657803591611b7861220f565b825f526003602052805f2090600782019260ff845460081c1680611c7a575b611ba090611df5565b82546001600160a01b039081169390600390611bbd338714611e31565b60028301541691015490803b15611c765783516323b872dd60e01b8152309381019384526001600160a01b03909516602084015260408301919091525f9184919082908490829060600103925af1908115611c6d5750611c5a575b50805461ff00191690557f0e36024b8a542366aeabc29a5a68a92c3c1a45156ad73d7ac5028e89bb2db7e08280a260015f8051602061259b8339815191525580f35b611c65919350611d5c565b5f915f611c18565b513d5f823e3d90fd5b5f80fd5b5060018301546001600160a01b031615611b97565b8234611c76576020366003190112611c7657359063ffffffff60e01b8216809203611c7657602091637965db0b60e01b8114908115611cd0575b5015158152f35b6301ffc9a760e01b14905083611cc9565b602435906001600160a01b0382168203611c7657565b600435906001600160a01b0382168203611c7657565b9794916101009794919a9996936101208a019b60018060a01b0392838092168c521660208b01521660408901526060880152608087015260a086015260c0850152151560e08401521515910152565b67ffffffffffffffff8111611d7057604052565b634e487b7160e01b5f52604160045260245ffd5b610120810190811067ffffffffffffffff821117611d7057604052565b90601f8019910116810190811067ffffffffffffffff821117611d7057604052565b60a0906003190112611c76576004356001600160a01b0381168103611c76579060243590604435906064359060843590565b15611dfc57565b60405162461bcd60e51b815260206004820152600d60248201526c10d85b9b9bdd0818d85b98d95b609a1b6044820152606490fd5b15611e3857565b60405162461bcd60e51b815260206004820152600a6024820152692737ba103bb934ba32b960b11b6044820152606490fd5b15611e7157565b60405162461bcd60e51b815260206004820152600b60248201526a139bdd08195e1c1a5c995960aa1b6044820152606490fd5b15611eab57565b60405162461bcd60e51b8152602060048201526011602482015270105b1c9958591e48195e195c98da5cd959607a1b6044820152606490fd5b90816020910312611c7657518015158103611c765790565b15611f0357565b60405162461bcd60e51b815260206004820152600f60248201526e151c985b9cd9995c8819985a5b1959608a1b6044820152606490fd5b15611f4157565b60405162461bcd60e51b815260206004820152601a60248201527f556e6465726c79696e67207472616e73666572206661696c65640000000000006044820152606490fd5b5f198114611f945760010190565b634e487b7160e01b5f52601160045260245ffd5b60079060018060a01b03808451166001600160601b0360a01b9081845416178355600183018260208701511682825416179055600283019160408601511690825416179055606083015160038201556080830151600482015560a0830151600582015560c08301516006820155019060e081015115159060ff61ff006101008554930151151560081b1692169061ffff191617179055565b1561204757565b60405162461bcd60e51b81526020600482015260096024820152682737ba10313abcb2b960b91b6044820152606490fd5b1561207f57565b60405162461bcd60e51b8152602060048201526007602482015266115e1c1a5c995960ca1b6044820152606490fd5b156120b557565b60405162461bcd60e51b815260206004820152601660248201527514dd1c9a5ad9481d1c985b9cd9995c8819985a5b195960521b6044820152606490fd5b156120fa57565b60405162461bcd60e51b815260206004820152600d60248201526c4e6f7420617661696c61626c6560981b6044820152606490fd5b1561213657565b60405162461bcd60e51b815260206004820152601760248201527f5072656d69756d207472616e73666572206661696c65640000000000000000006044820152606490fd5b91908203918211611f9457565b1561218f57565b60405162461bcd60e51b815260206004820152601660248201527515dc9a5d195c881d1c985b9cd9995c8819985a5b195960521b6044820152606490fd5b156121d457565b60405162461bcd60e51b8152602060048201526013602482015272119959481d1c985b9cd9995c8819985a5b1959606a1b6044820152606490fd5b5f8051602061259b833981519152600281541461222c5760029055565b604051633ee5aeb560e01b8152600490fd5b805f525f8051602061257b83398151915260205260405f20335f5260205260ff60405f2054161561226c5750565b6044906040519063e2517d3f60e01b82523360048301526024820152fd5b6001600160a01b03165f8181527fb7db2dd08fcb62d0c9e08c51941cae53c267786a0b75803fb7960902fc8ef97d60205260409020545f8051602061257b8339815191529060ff16612321575f805260205260405f20815f5260205260405f20600160ff1982541617905533905f7f2f8788117e7eff1d82e926ec794901d17c78024a50270940304540a733656f0d8180a4600190565b50505f90565b6001600160a01b03165f8181527fab71e3f32666744d246edff3f96e4bdafee2e9867098cdd118a979a7464786a860205260409020547f189ab7a9244df0848122154315af71fe140f3db0fe014031783b0946b8c9d2e391905f8051602061257b8339815191529060ff166123e057825f5260205260405f20815f5260205260405f20600160ff1982541617905533917f2f8788117e7eff1d82e926ec794901d17c78024a50270940304540a733656f0d5f80a4600190565b5050505f90565b90815f525f8051602061257b8339815191528060205260405f209160018060a01b031691825f5260205260ff60405f205416155f146123e057825f5260205260405f20815f5260205260405f20600160ff1982541617905533917f2f8788117e7eff1d82e926ec794901d17c78024a50270940304540a733656f0d5f80a4600190565b90815f525f8051602061257b8339815191528060205260405f209160018060a01b031691825f5260205260ff60405f2054165f146123e057825f5260205260405f20815f5260205260405f2060ff19815416905533917ff6391f5c32d9c69d2a47ea670b442974b53935d1edc7fd64eb21e047a839171b5f80a4600190565b905f8091602081519101845af48080612567575b1561251d5750506040513d81523d5f602083013e60203d82010160405290565b1561254457604051639996b31560e01b81526001600160a01b039091166004820152602490fd5b3d15612555576040513d5f823e3d90fd5b60405163d6bda27560e01b8152600490fd5b503d1515806124fd5750813b15156124fd56fe02dd7bc7dec4dceedda775e58dd541e08a116c6c53815c0bd028192f7b6268009b779b17422d0df92223018b32b4d1fa46e071723d6817e2486d003becc55f00a2646970667358221220b06dba87d8e7629a58bb68eaf496e14b2403b16d58b03cdd72cbdfaccebfbb3264736f6c63430008180033","linkReferences":{}},"methodIdentifiers":{"DEFAULT_ADMIN_ROLE()":"a217fddf","UPGRADER_ROLE()":"f72c0d8b","UPGRADE_INTERFACE_VERSION()":"ad3cb1cc","bundleOptionCounter()":"b7cd63ee","bundleOptions(uint256)":"cf2a1e16","buyBundleOption(uint256)":"ee858bdb","buyOption(uint256)":"fba225b9","cancelBundleOption(uint256)":"0aecd830","cancelOption(uint256)":"de6bf635","exercise(uint256)":"b07f0a41","exerciseBundleOption(uint256)":"e5da42f1","getRoleAdmin(bytes32)":"248a9ca3","grantRole(bytes32,address)":"2f2ff15d","hasRole(bytes32,address)":"91d14854","initialize(address)":"c4d66de8","optionCounter()":"f8a35181","options(uint256)":"409e2205","premiumToken()":"b180783d","proxiableUUID()":"52d1902d","reclaimBundle(uint256)":"344e739f","reclaimUnderlying(uint256)":"388b61a4","renounceRole(bytes32,address)":"36568abe","revokeRole(bytes32,address)":"d547741f","setStakingContract(address)":"9dd373b9","stakingContract()":"ee99205c","supportsInterface(bytes4)":"01ffc9a7","upgradeToAndCall(address,bytes)":"4f1ef286","writeBundleCall(address,uint256,uint256,uint256,uint256)":"a4598b39","writeCoveredCall(address,uint256,uint256,uint256,uint256)":"926ca268"},"id":1}