{"abi":[{"type":"constructor","inputs":[],"stateMutability":"nonpayable"},{"type":"function","name":"DEFAULT_ADMIN_ROLE","inputs":[],"outputs":[{"name":"","type":"bytes32","internalType":"bytes32"}],"stateMutability":"view"},{"type":"function","name":"UPGRADER_ROLE","inputs":[],"outputs":[{"name":"","type":"bytes32","internalType":"bytes32"}],"stateMutability":"view"},{"type":"function","name":"UPGRADE_INTERFACE_VERSION","inputs":[],"outputs":[{"name":"","type":"string","internalType":"string"}],"stateMutability":"view"},{"type":"function","name":"buyOption","inputs":[{"name":"optionId","type":"uint256","internalType":"uint256"}],"outputs":[],"stateMutability":"nonpayable"},{"type":"function","name":"cancelOption","inputs":[{"name":"optionId","type":"uint256","internalType":"uint256"}],"outputs":[],"stateMutability":"nonpayable"},{"type":"function","name":"exercise","inputs":[{"name":"optionId","type":"uint256","internalType":"uint256"}],"outputs":[],"stateMutability":"nonpayable"},{"type":"function","name":"getRoleAdmin","inputs":[{"name":"role","type":"bytes32","internalType":"bytes32"}],"outputs":[{"name":"","type":"bytes32","internalType":"bytes32"}],"stateMutability":"view"},{"type":"function","name":"grantRole","inputs":[{"name":"role","type":"bytes32","internalType":"bytes32"},{"name":"account","type":"address","internalType":"address"}],"outputs":[],"stateMutability":"nonpayable"},{"type":"function","name":"hasRole","inputs":[{"name":"role","type":"bytes32","internalType":"bytes32"},{"name":"account","type":"address","internalType":"address"}],"outputs":[{"name":"","type":"bool","internalType":"bool"}],"stateMutability":"view"},{"type":"function","name":"initialize","inputs":[{"name":"_premiumToken","type":"address","internalType":"address"}],"outputs":[],"stateMutability":"nonpayable"},{"type":"function","name":"optionCounter","inputs":[],"outputs":[{"name":"","type":"uint256","internalType":"uint256"}],"stateMutability":"view"},{"type":"function","name":"options","inputs":[{"name":"","type":"uint256","internalType":"uint256"}],"outputs":[{"name":"writer","type":"address","internalType":"address"},{"name":"buyer","type":"address","internalType":"address"},{"name":"underlying","type":"address","internalType":"address"},{"name":"amount","type":"uint256","internalType":"uint256"},{"name":"strike","type":"uint256","internalType":"uint256"},{"name":"expiry","type":"uint256","internalType":"uint256"},{"name":"premium","type":"uint256","internalType":"uint256"},{"name":"exercised","type":"bool","internalType":"bool"},{"name":"active","type":"bool","internalType":"bool"}],"stateMutability":"view"},{"type":"function","name":"premiumToken","inputs":[],"outputs":[{"name":"","type":"address","internalType":"contract IERC20"}],"stateMutability":"view"},{"type":"function","name":"proxiableUUID","inputs":[],"outputs":[{"name":"","type":"bytes32","internalType":"bytes32"}],"stateMutability":"view"},{"type":"function","name":"reclaimUnderlying","inputs":[{"name":"optionId","type":"uint256","internalType":"uint256"}],"outputs":[],"stateMutability":"nonpayable"},{"type":"function","name":"renounceRole","inputs":[{"name":"role","type":"bytes32","internalType":"bytes32"},{"name":"callerConfirmation","type":"address","internalType":"address"}],"outputs":[],"stateMutability":"nonpayable"},{"type":"function","name":"revokeRole","inputs":[{"name":"role","type":"bytes32","internalType":"bytes32"},{"name":"account","type":"address","internalType":"address"}],"outputs":[],"stateMutability":"nonpayable"},{"type":"function","name":"supportsInterface","inputs":[{"name":"interfaceId","type":"bytes4","internalType":"bytes4"}],"outputs":[{"name":"","type":"bool","internalType":"bool"}],"stateMutability":"view"},{"type":"function","name":"upgradeToAndCall","inputs":[{"name":"newImplementation","type":"address","internalType":"address"},{"name":"data","type":"bytes","internalType":"bytes"}],"outputs":[],"stateMutability":"payable"},{"type":"function","name":"writeCoveredCall","inputs":[{"name":"underlying","type":"address","internalType":"address"},{"name":"amount","type":"uint256","internalType":"uint256"},{"name":"strike","type":"uint256","internalType":"uint256"},{"name":"expiry","type":"uint256","internalType":"uint256"},{"name":"premium","type":"uint256","internalType":"uint256"}],"outputs":[{"name":"","type":"uint256","internalType":"uint256"}],"stateMutability":"nonpayable"},{"type":"event","name":"Initialized","inputs":[{"name":"version","type":"uint64","indexed":false,"internalType":"uint64"}],"anonymous":false},{"type":"event","name":"OptionBought","inputs":[{"name":"optionId","type":"uint256","indexed":true,"internalType":"uint256"},{"name":"buyer","type":"address","indexed":true,"internalType":"address"}],"anonymous":false},{"type":"event","name":"OptionCancelled","inputs":[{"name":"optionId","type":"uint256","indexed":true,"internalType":"uint256"}],"anonymous":false},{"type":"event","name":"OptionExercised","inputs":[{"name":"optionId","type":"uint256","indexed":true,"internalType":"uint256"},{"name":"buyer","type":"address","indexed":true,"internalType":"address"}],"anonymous":false},{"type":"event","name":"OptionWritten","inputs":[{"name":"optionId","type":"uint256","indexed":true,"internalType":"uint256"},{"name":"writer","type":"address","indexed":true,"internalType":"address"},{"name":"amount","type":"uint256","indexed":false,"internalType":"uint256"},{"name":"strike","type":"uint256","indexed":false,"internalType":"uint256"},{"name":"premium","type":"uint256","indexed":false,"internalType":"uint256"}],"anonymous":false},{"type":"event","name":"RoleAdminChanged","inputs":[{"name":"role","type":"bytes32","indexed":true,"internalType":"bytes32"},{"name":"previousAdminRole","type":"bytes32","indexed":true,"internalType":"bytes32"},{"name":"newAdminRole","type":"bytes32","indexed":true,"internalType":"bytes32"}],"anonymous":false},{"type":"event","name":"RoleGranted","inputs":[{"name":"role","type":"bytes32","indexed":true,"internalType":"bytes32"},{"name":"account","type":"address","indexed":true,"internalType":"address"},{"name":"sender","type":"address","indexed":true,"internalType":"address"}],"anonymous":false},{"type":"event","name":"RoleRevoked","inputs":[{"name":"role","type":"bytes32","indexed":true,"internalType":"bytes32"},{"name":"account","type":"address","indexed":true,"internalType":"address"},{"name":"sender","type":"address","indexed":true,"internalType":"address"}],"anonymous":false},{"type":"event","name":"UnderlyingReclaimed","inputs":[{"name":"optionId","type":"uint256","indexed":true,"internalType":"uint256"}],"anonymous":false},{"type":"event","name":"Upgraded","inputs":[{"name":"implementation","type":"address","indexed":true,"internalType":"address"}],"anonymous":false},{"type":"error","name":"AccessControlBadConfirmation","inputs":[]},{"type":"error","name":"AccessControlUnauthorizedAccount","inputs":[{"name":"account","type":"address","internalType":"address"},{"name":"neededRole","type":"bytes32","internalType":"bytes32"}]},{"type":"error","name":"AddressEmptyCode","inputs":[{"name":"target","type":"address","internalType":"address"}]},{"type":"error","name":"ERC1967InvalidImplementation","inputs":[{"name":"implementation","type":"address","internalType":"address"}]},{"type":"error","name":"ERC1967NonPayable","inputs":[]},{"type":"error","name":"FailedCall","inputs":[]},{"type":"error","name":"InvalidInitialization","inputs":[]},{"type":"error","name":"NotInitializing","inputs":[]},{"type":"error","name":"ReentrancyGuardReentrantCall","inputs":[]},{"type":"error","name":"UUPSUnauthorizedCallContext","inputs":[]},{"type":"error","name":"UUPSUnsupportedProxiableUUID","inputs":[{"name":"slot","type":"bytes32","internalType":"bytes32"}]}],"bytecode":{"object":"0x60a060405230608052348015610013575f80fd5b5060017f9b779b17422d0df92223018b32b4d1fa46e071723d6817e2486d003becc55f0055610040610045565b6100f7565b7ff0c57e16840df040f15088dc2f81fe391c3923bec73e23a9662efc9c229c6a00805468010000000000000000900460ff16156100955760405163f92ee8a960e01b815260040160405180910390fd5b80546001600160401b03908116146100f45780546001600160401b0319166001600160401b0390811782556040519081527fc7f505b2f371ae2175ee4913f4499e1f2633a7b5936321eed1cdaeb6115181d29060200160405180910390a15b50565b608051611b6661011d5f395f81816114320152818161145b01526115be0152611b665ff3fe60806040526004361061011b575f3560e01c8063a217fddf1161009d578063d547741f11610062578063d547741f146103d6578063de6bf635146103f5578063f72c0d8b14610414578063f8a3518114610447578063fba225b91461045c575f80fd5b8063a217fddf14610311578063ad3cb1cc14610324578063b07f0a4114610361578063b180783d14610380578063c4d66de8146103b7575f80fd5b8063409e2205116100e3578063409e2205146101df5780634f1ef286146102ac57806352d1902d146102bf57806391d14854146102d3578063926ca268146102f2575f80fd5b806301ffc9a71461011f578063248a9ca3146101535780632f2ff15d1461018057806336568abe146101a1578063388b61a4146101c0575b5f80fd5b34801561012a575f80fd5b5061013e610139366004611879565b61047b565b60405190151581526020015b60405180910390f35b34801561015e575f80fd5b5061017261016d3660046118a7565b6104b1565b60405190815260200161014a565b34801561018b575f80fd5b5061019f61019a3660046118d9565b6104d1565b005b3480156101ac575f80fd5b5061019f6101bb3660046118d9565b6104f3565b3480156101cb575f80fd5b5061019f6101da3660046118a7565b61052b565b3480156101ea575f80fd5b506102556101f93660046118a7565b5f60208190529081526040902080546001820154600283015460038401546004850154600586015460068701546007909701546001600160a01b0396871697958716969094169492939192909160ff8082169161010090041689565b604080516001600160a01b039a8b168152988a1660208a015296909816958701959095526060860193909352608085019190915260a084015260c0830152151560e08201529015156101008201526101200161014a565b61019f6102ba366004611917565b610767565b3480156102ca575f80fd5b50610172610786565b3480156102de575f80fd5b5061013e6102ed3660046118d9565b6107a1565b3480156102fd575f80fd5b5061017261030c3660046119d3565b6107d7565b34801561031c575f80fd5b506101725f81565b34801561032f575f80fd5b50610354604051806040016040528060058152602001640352e302e360dc1b81525081565b60405161014a9190611a11565b34801561036c575f80fd5b5061019f61037b3660046118a7565b610b1e565b34801561038b575f80fd5b5060025461039f906001600160a01b031681565b6040516001600160a01b03909116815260200161014a565b3480156103c2575f80fd5b5061019f6103d1366004611a5d565b610de1565b3480156103e1575f80fd5b5061019f6103f03660046118d9565b610f2a565b348015610400575f80fd5b5061019f61040f3660046118a7565b610f46565b34801561041f575f80fd5b506101727f189ab7a9244df0848122154315af71fe140f3db0fe014031783b0946b8c9d2e381565b348015610452575f80fd5b5061017260015481565b348015610467575f80fd5b5061019f6104763660046118a7565b61110a565b5f6001600160e01b03198216637965db0b60e01b14806104ab57506301ffc9a760e01b6001600160e01b03198316145b92915050565b5f9081525f80516020611af1833981519152602052604090206001015490565b6104da826104b1565b6104e3816112e1565b6104ed83836112eb565b50505050565b6001600160a01b038116331461051c5760405163334bd91960e11b815260040160405180910390fd5b6105268282611393565b505050565b61053361140c565b5f81815260208190526040902080546001600160a01b0316331461058b5760405162461bcd60e51b815260206004820152600a6024820152692737ba103bb934ba32b960b11b60448201526064015b60405180910390fd5b806005015442116105cc5760405162461bcd60e51b815260206004820152600b60248201526a139bdd08195e1c1a5c995960aa1b6044820152606401610582565b600781015460ff16156106155760405162461bcd60e51b8152602060048201526011602482015270105b1c9958591e48195e195c98da5cd959607a1b6044820152606401610582565b6007810154610100900460ff1661065b5760405162461bcd60e51b815260206004820152600a6024820152694e6f742061637469766560b01b6044820152606401610582565b60028101548154600383015460405163a9059cbb60e01b81526001600160a01b039283166004820152602481019190915291169063a9059cbb906044016020604051808303815f875af11580156106b4573d5f803e3d5ffd5b505050506040513d601f19601f820116820180604052508101906106d89190611a76565b6107165760405162461bcd60e51b815260206004820152600f60248201526e151c985b9cd9995c8819985a5b1959608a1b6044820152606401610582565b60078101805461ff001916905560405182907f5b5751684de9c5a675619642e3b365bcb674974ef7e71d5890d486217a4756b9905f90a25061076460015f80516020611b1183398151915255565b50565b61076f611427565b610778826114cd565b61078282826114f7565b5050565b5f61078f6115b3565b505f80516020611ad183398151915290565b5f9182525f80516020611af1833981519152602090815260408084206001600160a01b0393909316845291905290205460ff1690565b5f6107e061140c565b42831161082f5760405162461bcd60e51b815260206004820152601860248201527f457870697279206d75737420626520696e2066757475726500000000000000006044820152606401610582565b5f85116108735760405162461bcd60e51b81526020600482015260126024820152710416d6f756e74206d757374206265203e20360741b6044820152606401610582565b6040516323b872dd60e01b8152336004820152306024820152604481018690526001600160a01b038716906323b872dd906064016020604051808303815f875af11580156108c3573d5f803e3d5ffd5b505050506040513d601f19601f820116820180604052508101906108e79190611a76565b6109335760405162461bcd60e51b815260206004820152601a60248201527f556e6465726c79696e67207472616e73666572206661696c65640000000000006044820152606401610582565b600180545f918261094383611a95565b919050559050604051806101200160405280336001600160a01b031681526020015f6001600160a01b03168152602001886001600160a01b031681526020018781526020018681526020018581526020018481526020015f15158152602001600115158152505f808381526020019081526020015f205f820151815f015f6101000a8154816001600160a01b0302191690836001600160a01b031602179055506020820151816001015f6101000a8154816001600160a01b0302191690836001600160a01b031602179055506040820151816002015f6101000a8154816001600160a01b0302191690836001600160a01b03160217905550606082015181600301556080820151816004015560a0820151816005015560c0820151816006015560e0820151816007015f6101000a81548160ff0219169083151502179055506101008201518160070160016101000a81548160ff021916908315150217905550905050336001600160a01b0316817f6c5e12adbc31f932078f380cad5566666037da5b387d8c7613a22b2c8a15beac888887604051610af5939291909283526020830191909152604082015260600190565b60405180910390a39050610b1560015f80516020611b1183398151915255565b95945050505050565b610b2661140c565b5f81815260208190526040902060018101546001600160a01b03163314610b7b5760405162461bcd60e51b81526020600482015260096024820152682737ba10313abcb2b960b91b6044820152606401610582565b600781015460ff1615610bc45760405162461bcd60e51b8152602060048201526011602482015270105b1c9958591e48195e195c98da5cd959607a1b6044820152606401610582565b8060050154421115610c025760405162461bcd60e51b8152602060048201526007602482015266115e1c1a5c995960ca1b6044820152606401610582565b60025481546004808401546040516323b872dd60e01b815233928101929092526001600160a01b03928316602483015260448201529116906323b872dd906064016020604051808303815f875af1158015610c5f573d5f803e3d5ffd5b505050506040513d601f19601f82011682018060405250810190610c839190611a76565b610cc85760405162461bcd60e51b815260206004820152601660248201527514dd1c9a5ad9481d1c985b9cd9995c8819985a5b195960521b6044820152606401610582565b6002810154600382015460405163a9059cbb60e01b815233600482015260248101919091526001600160a01b039091169063a9059cbb906044016020604051808303815f875af1158015610d1e573d5f803e3d5ffd5b505050506040513d601f19601f82011682018060405250810190610d429190611a76565b610d8e5760405162461bcd60e51b815260206004820152601a60248201527f556e6465726c79696e67207472616e73666572206661696c65640000000000006044820152606401610582565b60078101805461ffff19166001179055604051339083907f76b3900aee1539fba6bc0c92712c2959a1b89602c8a57aebbeff7c52bff1f1eb905f90a35061076460015f80516020611b1183398151915255565b5f610dea6115fc565b805490915060ff600160401b820416159067ffffffffffffffff165f81158015610e115750825b90505f8267ffffffffffffffff166001148015610e2d5750303b155b905081158015610e3b575080155b15610e595760405163f92ee8a960e01b815260040160405180910390fd5b845467ffffffffffffffff191660011785558315610e8357845460ff60401b1916600160401b1785555b610e8b611624565b610e955f336112eb565b50610ec07f189ab7a9244df0848122154315af71fe140f3db0fe014031783b0946b8c9d2e3336112eb565b50600280546001600160a01b0319166001600160a01b0388161790558315610f2257845460ff60401b19168555604051600181527fc7f505b2f371ae2175ee4913f4499e1f2633a7b5936321eed1cdaeb6115181d29060200160405180910390a15b505050505050565b610f33826104b1565b610f3c816112e1565b6104ed8383611393565b610f4e61140c565b5f8181526020819052604090206007810154610100900460ff168015610f7f575060018101546001600160a01b0316155b610fbb5760405162461bcd60e51b815260206004820152600d60248201526c10d85b9b9bdd0818d85b98d95b609a1b6044820152606401610582565b80546001600160a01b031633146110015760405162461bcd60e51b815260206004820152600a6024820152692737ba103bb934ba32b960b11b6044820152606401610582565b60028101548154600383015460405163a9059cbb60e01b81526001600160a01b039283166004820152602481019190915291169063a9059cbb906044016020604051808303815f875af115801561105a573d5f803e3d5ffd5b505050506040513d601f19601f8201168201806040525081019061107e9190611a76565b6110bc5760405162461bcd60e51b815260206004820152600f60248201526e151c985b9cd9995c8819985a5b1959608a1b6044820152606401610582565b60078101805461ff001916905560405182907f7621a0eef8c39766512e6fd0e8f1bc133ec9b9b2ade3f1732962a1905002f1f9905f90a25061076460015f80516020611b1183398151915255565b61111261140c565b5f8181526020819052604090206007810154610100900460ff168015611143575060018101546001600160a01b0316155b61117f5760405162461bcd60e51b815260206004820152600d60248201526c4e6f7420617661696c61626c6560981b6044820152606401610582565b806005015442106111bc5760405162461bcd60e51b8152602060048201526007602482015266115e1c1a5c995960ca1b6044820152606401610582565b600254815460068301546040516323b872dd60e01b81523360048201526001600160a01b03928316602482015260448101919091529116906323b872dd906064016020604051808303815f875af1158015611219573d5f803e3d5ffd5b505050506040513d601f19601f8201168201806040525081019061123d9190611a76565b6112895760405162461bcd60e51b815260206004820152601760248201527f5072656d69756d207472616e73666572206661696c65640000000000000000006044820152606401610582565b6001810180546001600160a01b0319163390811790915560405183907ff818b60a04a5914080e463ac568206f291380303c88fc049b89d9acfa93139d2905f90a35061076460015f80516020611b1183398151915255565b610764813361162c565b5f5f80516020611af183398151915261130484846107a1565b611383575f848152602082815260408083206001600160a01b03871684529091529020805460ff191660011790556113393390565b6001600160a01b0316836001600160a01b0316857f2f8788117e7eff1d82e926ec794901d17c78024a50270940304540a733656f0d60405160405180910390a460019150506104ab565b5f9150506104ab565b5092915050565b5f5f80516020611af18339815191526113ac84846107a1565b15611383575f848152602082815260408083206001600160a01b0387168085529252808320805460ff1916905551339287917ff6391f5c32d9c69d2a47ea670b442974b53935d1edc7fd64eb21e047a839171b9190a460019150506104ab565b611414611665565b60025f80516020611b1183398151915255565b306001600160a01b037f00000000000000000000000000000000000000000000000000000000000000001614806114ad57507f00000000000000000000000000000000000000000000000000000000000000006001600160a01b03166114a15f80516020611ad1833981519152546001600160a01b031690565b6001600160a01b031614155b156114cb5760405163703e46dd60e11b815260040160405180910390fd5b565b7f189ab7a9244df0848122154315af71fe140f3db0fe014031783b0946b8c9d2e3610782816112e1565b816001600160a01b03166352d1902d6040518163ffffffff1660e01b8152600401602060405180830381865afa925050508015611551575060408051601f3d908101601f1916820190925261154e91810190611ab9565b60015b61157957604051634c9c8ce360e01b81526001600160a01b0383166004820152602401610582565b5f80516020611ad183398151915281146115a957604051632a87526960e21b815260048101829052602401610582565b6105268383611694565b306001600160a01b037f000000000000000000000000000000000000000000000000000000000000000016146114cb5760405163703e46dd60e11b815260040160405180910390fd5b5f807ff0c57e16840df040f15088dc2f81fe391c3923bec73e23a9662efc9c229c6a006104ab565b6114cb6116e9565b61163682826107a1565b6107825760405163e2517d3f60e01b81526001600160a01b038216600482015260248101839052604401610582565b5f80516020611b11833981519152546002036114cb57604051633ee5aeb560e01b815260040160405180910390fd5b61169d8261170e565b6040516001600160a01b038316907fbc7cd75a20ee27fd9adebab32041f755214dbc6bffa90cc0225b39da2e5c2d3b905f90a28051156116e1576105268282611771565b61078261180a565b6116f1611829565b6114cb57604051631afcd79f60e31b815260040160405180910390fd5b806001600160a01b03163b5f0361174357604051634c9c8ce360e01b81526001600160a01b0382166004820152602401610582565b5f80516020611ad183398151915280546001600160a01b0319166001600160a01b0392909216919091179055565b60605f61177e8484611842565b905080801561179f57505f3d118061179f57505f846001600160a01b03163b115b156117b4576117ac611855565b9150506104ab565b80156117de57604051639996b31560e01b81526001600160a01b0385166004820152602401610582565b3d156117f1576117ec61186e565b61138c565b60405163d6bda27560e01b815260040160405180910390fd5b34156114cb5760405163b398979f60e01b815260040160405180910390fd5b5f6118326115fc565b54600160401b900460ff16919050565b5f805f835160208501865af49392505050565b6040513d81523d5f602083013e3d602001810160405290565b6040513d5f823e3d81fd5b5f60208284031215611889575f80fd5b81356001600160e01b0319811681146118a0575f80fd5b9392505050565b5f602082840312156118b7575f80fd5b5035919050565b80356001600160a01b03811681146118d4575f80fd5b919050565b5f80604083850312156118ea575f80fd5b823591506118fa602084016118be565b90509250929050565b634e487b7160e01b5f52604160045260245ffd5b5f8060408385031215611928575f80fd5b611931836118be565b9150602083013567ffffffffffffffff8082111561194d575f80fd5b818501915085601f830112611960575f80fd5b81358181111561197257611972611903565b604051601f8201601f19908116603f0116810190838211818310171561199a5761199a611903565b816040528281528860208487010111156119b2575f80fd5b826020860160208301375f6020848301015280955050505050509250929050565b5f805f805f60a086880312156119e7575f80fd5b6119f0866118be565b97602087013597506040870135966060810135965060800135945092505050565b5f602080835283518060208501525f5b81811015611a3d57858101830151858201604001528201611a21565b505f604082860101526040601f19601f8301168501019250505092915050565b5f60208284031215611a6d575f80fd5b6118a0826118be565b5f60208284031215611a86575f80fd5b815180151581146118a0575f80fd5b5f60018201611ab257634e487b7160e01b5f52601160045260245ffd5b5060010190565b5f60208284031215611ac9575f80fd5b505191905056fe360894a13ba1a3210667c828492db98dca3e2076cc3735a920a3ca505d382bbc02dd7bc7dec4dceedda775e58dd541e08a116c6c53815c0bd028192f7b6268009b779b17422d0df92223018b32b4d1fa46e071723d6817e2486d003becc55f00a2646970667358221220ccb86754bc096c5908c404f0c472f229181aa1c2047b037477bf866d7fa397eb64736f6c63430008180033","linkReferences":{}},"methodIdentifiers":{"DEFAULT_ADMIN_ROLE()":"a217fddf","UPGRADER_ROLE()":"f72c0d8b","UPGRADE_INTERFACE_VERSION()":"ad3cb1cc","buyOption(uint256)":"fba225b9","cancelOption(uint256)":"de6bf635","exercise(uint256)":"b07f0a41","getRoleAdmin(bytes32)":"248a9ca3","grantRole(bytes32,address)":"2f2ff15d","hasRole(bytes32,address)":"91d14854","initialize(address)":"c4d66de8","optionCounter()":"f8a35181","options(uint256)":"409e2205","premiumToken()":"b180783d","proxiableUUID()":"52d1902d","reclaimUnderlying(uint256)":"388b61a4","renounceRole(bytes32,address)":"36568abe","revokeRole(bytes32,address)":"d547741f","supportsInterface(bytes4)":"01ffc9a7","upgradeToAndCall(address,bytes)":"4f1ef286","writeCoveredCall(address,uint256,uint256,uint256,uint256)":"926ca268"},"id":1}