{"abi":[{"type":"constructor","inputs":[],"stateMutability":"nonpayable"},{"type":"function","name":"DEFAULT_ADMIN_ROLE","inputs":[],"outputs":[{"name":"","type":"bytes32","internalType":"bytes32"}],"stateMutability":"view"},{"type":"function","name":"UPGRADER_ROLE","inputs":[],"outputs":[{"name":"","type":"bytes32","internalType":"bytes32"}],"stateMutability":"view"},{"type":"function","name":"UPGRADE_INTERFACE_VERSION","inputs":[],"outputs":[{"name":"","type":"string","internalType":"string"}],"stateMutability":"view"},{"type":"function","name":"buyOption","inputs":[{"name":"optionId","type":"uint256","internalType":"uint256"}],"outputs":[],"stateMutability":"nonpayable"},{"type":"function","name":"cancelOption","inputs":[{"name":"optionId","type":"uint256","internalType":"uint256"}],"outputs":[],"stateMutability":"nonpayable"},{"type":"function","name":"exercise","inputs":[{"name":"optionId","type":"uint256","internalType":"uint256"}],"outputs":[],"stateMutability":"nonpayable"},{"type":"function","name":"getRoleAdmin","inputs":[{"name":"role","type":"bytes32","internalType":"bytes32"}],"outputs":[{"name":"","type":"bytes32","internalType":"bytes32"}],"stateMutability":"view"},{"type":"function","name":"grantRole","inputs":[{"name":"role","type":"bytes32","internalType":"bytes32"},{"name":"account","type":"address","internalType":"address"}],"outputs":[],"stateMutability":"nonpayable"},{"type":"function","name":"hasRole","inputs":[{"name":"role","type":"bytes32","internalType":"bytes32"},{"name":"account","type":"address","internalType":"address"}],"outputs":[{"name":"","type":"bool","internalType":"bool"}],"stateMutability":"view"},{"type":"function","name":"initialize","inputs":[{"name":"_premiumToken","type":"address","internalType":"address"}],"outputs":[],"stateMutability":"nonpayable"},{"type":"function","name":"optionCounter","inputs":[],"outputs":[{"name":"","type":"uint256","internalType":"uint256"}],"stateMutability":"view"},{"type":"function","name":"options","inputs":[{"name":"","type":"uint256","internalType":"uint256"}],"outputs":[{"name":"writer","type":"address","internalType":"address"},{"name":"buyer","type":"address","internalType":"address"},{"name":"underlying","type":"address","internalType":"address"},{"name":"amount","type":"uint256","internalType":"uint256"},{"name":"strike","type":"uint256","internalType":"uint256"},{"name":"expiry","type":"uint256","internalType":"uint256"},{"name":"premium","type":"uint256","internalType":"uint256"},{"name":"exercised","type":"bool","internalType":"bool"},{"name":"active","type":"bool","internalType":"bool"}],"stateMutability":"view"},{"type":"function","name":"premiumToken","inputs":[],"outputs":[{"name":"","type":"address","internalType":"contract IERC20"}],"stateMutability":"view"},{"type":"function","name":"proxiableUUID","inputs":[],"outputs":[{"name":"","type":"bytes32","internalType":"bytes32"}],"stateMutability":"view"},{"type":"function","name":"reclaimUnderlying","inputs":[{"name":"optionId","type":"uint256","internalType":"uint256"}],"outputs":[],"stateMutability":"nonpayable"},{"type":"function","name":"renounceRole","inputs":[{"name":"role","type":"bytes32","internalType":"bytes32"},{"name":"callerConfirmation","type":"address","internalType":"address"}],"outputs":[],"stateMutability":"nonpayable"},{"type":"function","name":"revokeRole","inputs":[{"name":"role","type":"bytes32","internalType":"bytes32"},{"name":"account","type":"address","internalType":"address"}],"outputs":[],"stateMutability":"nonpayable"},{"type":"function","name":"supportsInterface","inputs":[{"name":"interfaceId","type":"bytes4","internalType":"bytes4"}],"outputs":[{"name":"","type":"bool","internalType":"bool"}],"stateMutability":"view"},{"type":"function","name":"upgradeToAndCall","inputs":[{"name":"newImplementation","type":"address","internalType":"address"},{"name":"data","type":"bytes","internalType":"bytes"}],"outputs":[],"stateMutability":"payable"},{"type":"function","name":"writeCoveredCall","inputs":[{"name":"underlying","type":"address","internalType":"address"},{"name":"amount","type":"uint256","internalType":"uint256"},{"name":"strike","type":"uint256","internalType":"uint256"},{"name":"expiry","type":"uint256","internalType":"uint256"},{"name":"premium","type":"uint256","internalType":"uint256"}],"outputs":[{"name":"","type":"uint256","internalType":"uint256"}],"stateMutability":"nonpayable"},{"type":"event","name":"Initialized","inputs":[{"name":"version","type":"uint64","indexed":false,"internalType":"uint64"}],"anonymous":false},{"type":"event","name":"OptionBought","inputs":[{"name":"optionId","type":"uint256","indexed":true,"internalType":"uint256"},{"name":"buyer","type":"address","indexed":true,"internalType":"address"}],"anonymous":false},{"type":"event","name":"OptionCancelled","inputs":[{"name":"optionId","type":"uint256","indexed":true,"internalType":"uint256"}],"anonymous":false},{"type":"event","name":"OptionExercised","inputs":[{"name":"optionId","type":"uint256","indexed":true,"internalType":"uint256"},{"name":"buyer","type":"address","indexed":true,"internalType":"address"}],"anonymous":false},{"type":"event","name":"OptionWritten","inputs":[{"name":"optionId","type":"uint256","indexed":true,"internalType":"uint256"},{"name":"writer","type":"address","indexed":true,"internalType":"address"},{"name":"amount","type":"uint256","indexed":false,"internalType":"uint256"},{"name":"strike","type":"uint256","indexed":false,"internalType":"uint256"},{"name":"premium","type":"uint256","indexed":false,"internalType":"uint256"}],"anonymous":false},{"type":"event","name":"RoleAdminChanged","inputs":[{"name":"role","type":"bytes32","indexed":true,"internalType":"bytes32"},{"name":"previousAdminRole","type":"bytes32","indexed":true,"internalType":"bytes32"},{"name":"newAdminRole","type":"bytes32","indexed":true,"internalType":"bytes32"}],"anonymous":false},{"type":"event","name":"RoleGranted","inputs":[{"name":"role","type":"bytes32","indexed":true,"internalType":"bytes32"},{"name":"account","type":"address","indexed":true,"internalType":"address"},{"name":"sender","type":"address","indexed":true,"internalType":"address"}],"anonymous":false},{"type":"event","name":"RoleRevoked","inputs":[{"name":"role","type":"bytes32","indexed":true,"internalType":"bytes32"},{"name":"account","type":"address","indexed":true,"internalType":"address"},{"name":"sender","type":"address","indexed":true,"internalType":"address"}],"anonymous":false},{"type":"event","name":"UnderlyingReclaimed","inputs":[{"name":"optionId","type":"uint256","indexed":true,"internalType":"uint256"}],"anonymous":false},{"type":"event","name":"Upgraded","inputs":[{"name":"implementation","type":"address","indexed":true,"internalType":"address"}],"anonymous":false},{"type":"error","name":"AccessControlBadConfirmation","inputs":[]},{"type":"error","name":"AccessControlUnauthorizedAccount","inputs":[{"name":"account","type":"address","internalType":"address"},{"name":"neededRole","type":"bytes32","internalType":"bytes32"}]},{"type":"error","name":"AddressEmptyCode","inputs":[{"name":"target","type":"address","internalType":"address"}]},{"type":"error","name":"ERC1967InvalidImplementation","inputs":[{"name":"implementation","type":"address","internalType":"address"}]},{"type":"error","name":"ERC1967NonPayable","inputs":[]},{"type":"error","name":"FailedCall","inputs":[]},{"type":"error","name":"InvalidInitialization","inputs":[]},{"type":"error","name":"NotInitializing","inputs":[]},{"type":"error","name":"ReentrancyGuardReentrantCall","inputs":[]},{"type":"error","name":"UUPSUnauthorizedCallContext","inputs":[]},{"type":"error","name":"UUPSUnsupportedProxiableUUID","inputs":[{"name":"slot","type":"bytes32","internalType":"bytes32"}]}],"bytecode":{"object":"0x60a080604052346100f0573060805260017f9b779b17422d0df92223018b32b4d1fa46e071723d6817e2486d003becc55f00557ff0c57e16840df040f15088dc2f81fe391c3923bec73e23a9662efc9c229c6a009081549060ff8260401c166100e157506001600160401b036002600160401b03198282160161009c575b60405161183290816100f58239608051818181610ca40152610d900152f35b6001600160401b031990911681179091556040519081527fc7f505b2f371ae2175ee4913f4499e1f2633a7b5936321eed1cdaeb6115181d290602090a15f808061007d565b63f92ee8a960e01b8152600490fd5b5f80fdfe6080806040526004361015610012575f80fd5b5f3560e01c90816301ffc9a71461125f57508063248a9ca3146112265780632f2ff15d146111dd57806336568abe14611196578063388b61a41461102f578063409e220514610f9a5780634f1ef28614610d0e57806352d1902d14610c9257806391d1485414610c3d578063926ca2681461090f578063a217fddf146108f5578063ad3cb1cc1461084f578063b07f0a4114610651578063b180783d14610629578063c4d66de8146104c2578063d547741f14610477578063de6bf6351461030d578063f72c0d8b146102d3578063f8a35181146102b65763fba225b9146100f8575f80fd5b346102b2576020806003193601126102b257600435906101166116fc565b815f525f815260405f209060ff600783015460081c168061029d575b15610269576101466005830154421061141b565b600254825460068401546040516323b872dd60e01b81523360048201526001600160a01b0392831660248201526044810191909152918391839160649183915f91165af190811561025e575f91610231575b50156101ed5750600101336001600160601b0360a01b82541617905533907ff818b60a04a5914080e463ac568206f291380303c88fc049b89d9acfa93139d25f80a360015f805160206117dd83398151915255005b6064906040519062461bcd60e51b82526004820152601760248201527f5072656d69756d207472616e73666572206661696c65640000000000000000006044820152fd5b6102519150823d8411610257575b61024981836112de565b810190611379565b5f610198565b503d61023f565b6040513d5f823e3d90fd5b6064906040519062461bcd60e51b82526004820152600d60248201526c4e6f7420617661696c61626c6560981b6044820152fd5b5060018201546001600160a01b031615610132565b5f80fd5b346102b2575f3660031901126102b2576020600154604051908152f35b346102b2575f3660031901126102b25760206040517f189ab7a9244df0848122154315af71fe140f3db0fe014031783b0946b8c9d2e38152f35b346102b2576020806003193601126102b2576004359061032b6116fc565b815f525f815260405f2090600782019160ff835460081c1680610462575b1561042d5780546103b39183916001600160a01b039081169190600390610371338514611300565b6002830154919092015460405163a9059cbb60e01b81526001600160a01b039094166004850152602484015291938492919091169082905f9082906044820190565b03925af190811561025e576103d0925f92610410575b5050611391565b805461ff00191690557f7621a0eef8c39766512e6fd0e8f1bc133ec9b9b2ade3f1732962a1905002f1f95f80a260015f805160206117dd83398151915255005b6104269250803d106102575761024981836112de565b84806103c9565b60405162461bcd60e51b815260048101839052600d60248201526c10d85b9b9bdd0818d85b98d95b609a1b6044820152606490fd5b5060018101546001600160a01b031615610349565b346102b25760403660031901126102b2576104c06004356104966112b2565b90805f525f805160206117bd8339815191526020526104bb600160405f200154611451565b61167d565b005b346102b25760203660031901126102b2576104db6112c8565b7ff0c57e16840df040f15088dc2f81fe391c3923bec73e23a9662efc9c229c6a009081549060ff8260401c16159167ffffffffffffffff811680159081610621575b6001149081610617575b15908161060e575b506105fc5767ffffffffffffffff1981166001178455826105dd575b5060ff835460401c16156105cb576105623361149d565b5061056c3361153a565b5060018060a01b03166001600160601b0360a01b600254161760025561058e57005b68ff00000000000000001981541690557fc7f505b2f371ae2175ee4913f4499e1f2633a7b5936321eed1cdaeb6115181d2602060405160018152a1005b604051631afcd79f60e31b8152600490fd5b68ffffffffffffffffff1916680100000000000000011783558361054b565b60405163f92ee8a960e01b8152600490fd5b9050158561052f565b303b159150610527565b84915061051d565b346102b2575f3660031901126102b2576002546040516001600160a01b039091168152602090f35b346102b2576020806003193601126102b2576004359061066f6116fc565b5f8281528082526040902060018101546001600160a01b039291908316330361081e5760078101926106a560ff85541615611339565b6106b46005830154421061141b565b60025482546004808501546040516323b872dd60e01b815233928101929092529184166001600160a01b03166024820152604481019190915290849082908416815f816064810103925af190811561025e575f91610801575b50156107c357600282015460039092015460405163a9059cbb60e01b81523360048201526024810191909152918391839160449183915f91165af190811561025e57610761925f926107a6575b50506113cf565b805461ffff1916600117905533907f76b3900aee1539fba6bc0c92712c2959a1b89602c8a57aebbeff7c52bff1f1eb5f80a360015f805160206117dd83398151915255005b6107bc9250803d106102575761024981836112de565b848061075a565b60405162461bcd60e51b815260048101849052601660248201527514dd1c9a5ad9481d1c985b9cd9995c8819985a5b195960521b6044820152606490fd5b6108189150843d86116102575761024981836112de565b8661070d565b60405162461bcd60e51b81526004810183905260096024820152682737ba10313abcb2b960b91b6044820152606490fd5b346102b2575f3660031901126102b2576040516040810181811067ffffffffffffffff8211176108e15760405260058152602090640352e302e360dc1b60208201526040518092602082528251908160208401525f935b8285106108c8575050604092505f838284010152601f80199101168101030190f35b84810182015186860160400152938101938593506108a6565b634e487b7160e01b5f52604160045260245ffd5b346102b2575f3660031901126102b25760206040515f8152f35b346102b25760a03660031901126102b2576109286112c8565b60249081356044359160643592608435916109416116fc565b42851115610bf9578315610bc0578115610b87578215610b4d576040516323b872dd60e01b8152336004820152306024820152604481018590526001600160a01b0391909116906020816064815f865af1801561025e576109a9915f91610b2e575b506113cf565b600154945f198614610b1b576001860160015560405191610120830183811067ffffffffffffffff821117610b0857602098506040523383525f88840152604083015284606083015282608083015260a08201528260c082015260e08101905f82526001610100820152855f525f8752600760405f2060018060a01b038351166001600160601b0360a01b90818354161782556001820160018060a01b038b8601511682825416179055600282019060018060a01b0360408601511690825416179055606083015160038201556080830151600482015560a0830151600582015560c0830151600682015501915115159060ff61ff006101008554930151151560081b1692169061ffff191617179055604051928352848301526040820152817f6c5e12adbc31f932078f380cad5566666037da5b387d8c7613a22b2c8a15beac60603393a360015f805160206117dd83398151915255604051908152f35b88634e487b7160e01b5f5260416004525ffd5b86634e487b7160e01b5f5260116004525ffd5b610b47915060203d6020116102575761024981836112de565b886109a3565b60405162461bcd60e51b8152602060048201526013818801527205072656d69756d206d757374206265203e203606c1b6044820152606490fd5b60405162461bcd60e51b815260206004820152601281880152710537472696b65206d757374206265203e20360741b6044820152606490fd5b60405162461bcd60e51b815260206004820152601281880152710416d6f756e74206d757374206265203e20360741b6044820152606490fd5b60405162461bcd60e51b8152602060048201526018818801527f457870697279206d75737420626520696e2066757475726500000000000000006044820152606490fd5b346102b25760403660031901126102b257610c566112b2565b6004355f525f805160206117bd83398151915260205260405f209060018060a01b03165f52602052602060ff60405f2054166040519015158152f35b346102b2575f3660031901126102b2577f00000000000000000000000000000000000000000000000000000000000000006001600160a01b03163003610cfc5760206040517f360894a13ba1a3210667c828492db98dca3e2076cc3735a920a3ca505d382bbc8152f35b60405163703e46dd60e11b8152600490fd5b60403660031901126102b257610d226112c8565b602490813567ffffffffffffffff918282116102b257366023830112156102b2578160040135928311610f875760209260405192610d6985601f19601f85011601856112de565b818452368683830101116102b257815f928787930183870137840101526001600160a01b037f00000000000000000000000000000000000000000000000000000000000000008116308114908115610f59575b50610cfc577f189ab7a9244df0848122154315af71fe140f3db0fe014031783b0946b8c9d2e3805f525f805160206117bd833981519152855260405f20335f52855260ff60405f20541615610f3c57506040516352d1902d60e01b8152908216938082600481885afa9182915f93610f0c575b5050610e4d5750505060405190634c9c8ce360e01b82526004820152fd5b847f360894a13ba1a3210667c828492db98dca3e2076cc3735a920a3ca505d382bbc91828103610ef75750823b15610ee1575080546001600160a01b03191684179055604051927fbc7cd75a20ee27fd9adebab32041f755214dbc6bffa90cc0225b39da2e5c2d3b5f80a2815115610ec9576104c0925061172b565b505034610ed257005b63b398979f60e01b8152600490fd5b604051634c9c8ce360e01b815260048101869052fd5b60405190632a87526960e21b82526004820152fd5b9080929350813d8311610f35575b610f2481836112de565b810103126102b25751908680610e2f565b503d610f1a565b856044916040519163e2517d3f60e01b8352336004840152820152fd5b9050817f360894a13ba1a3210667c828492db98dca3e2076cc3735a920a3ca505d382bbc5416141586610dbc565b83634e487b7160e01b5f5260416004525ffd5b346102b25760203660031901126102b2576004355f525f60205261012060405f2060ff60018060a01b038083541692816001820154169160028201541660038201546004830154906005840154926007600686015495015495604051988952602089015260408801526060870152608086015260a085015260c0840152818116151560e084015260081c161515610100820152f35b346102b2576020806003193601126102b2576004359061104d6116fc565b5f8281528082526040902080546001600160a01b03929190831690611073338314611300565b600581015442111561116357600781019360ff855461109482821615611339565b60081c161561113157600282015460039092015460405163a9059cbb60e01b81526001600160a01b0394909416600485015260248401528391839160449183915f91165af190811561025e576110f1925f92610410575050611391565b805461ff00191690557f5b5751684de9c5a675619642e3b365bcb674974ef7e71d5890d486217a4756b95f80a260015f805160206117dd83398151915255005b60405162461bcd60e51b815260048101859052600a6024820152694e6f742061637469766560b01b6044820152606490fd5b60405162461bcd60e51b815260048101849052600b60248201526a139bdd08195e1c1a5c995960aa1b6044820152606490fd5b346102b25760403660031901126102b2576111af6112b2565b336001600160a01b038216036111cb576104c09060043561167d565b60405163334bd91960e11b8152600490fd5b346102b25760403660031901126102b2576104c06004356111fc6112b2565b90805f525f805160206117bd833981519152602052611221600160405f200154611451565b6115fa565b346102b25760203660031901126102b2576004355f525f805160206117bd8339815191526020526020600160405f200154604051908152f35b346102b25760203660031901126102b2576004359063ffffffff60e01b82168092036102b257602091637965db0b60e01b81149081156112a1575b5015158152f35b6301ffc9a760e01b1490508361129a565b602435906001600160a01b03821682036102b257565b600435906001600160a01b03821682036102b257565b90601f8019910116810190811067ffffffffffffffff8211176108e157604052565b1561130757565b60405162461bcd60e51b815260206004820152600a6024820152692737ba103bb934ba32b960b11b6044820152606490fd5b1561134057565b60405162461bcd60e51b8152602060048201526011602482015270105b1c9958591e48195e195c98da5cd959607a1b6044820152606490fd5b908160209103126102b2575180151581036102b25790565b1561139857565b60405162461bcd60e51b815260206004820152600f60248201526e151c985b9cd9995c8819985a5b1959608a1b6044820152606490fd5b156113d657565b60405162461bcd60e51b815260206004820152601a60248201527f556e6465726c79696e67207472616e73666572206661696c65640000000000006044820152606490fd5b1561142257565b60405162461bcd60e51b8152602060048201526007602482015266115e1c1a5c995960ca1b6044820152606490fd5b805f525f805160206117bd83398151915260205260405f20335f5260205260ff60405f2054161561147f5750565b6044906040519063e2517d3f60e01b82523360048301526024820152fd5b6001600160a01b03165f8181527fb7db2dd08fcb62d0c9e08c51941cae53c267786a0b75803fb7960902fc8ef97d60205260409020545f805160206117bd8339815191529060ff16611534575f805260205260405f20815f5260205260405f20600160ff1982541617905533905f7f2f8788117e7eff1d82e926ec794901d17c78024a50270940304540a733656f0d8180a4600190565b50505f90565b6001600160a01b03165f8181527fab71e3f32666744d246edff3f96e4bdafee2e9867098cdd118a979a7464786a860205260409020547f189ab7a9244df0848122154315af71fe140f3db0fe014031783b0946b8c9d2e391905f805160206117bd8339815191529060ff166115f357825f5260205260405f20815f5260205260405f20600160ff1982541617905533917f2f8788117e7eff1d82e926ec794901d17c78024a50270940304540a733656f0d5f80a4600190565b5050505f90565b90815f525f805160206117bd8339815191528060205260405f209160018060a01b031691825f5260205260ff60405f205416155f146115f357825f5260205260405f20815f5260205260405f20600160ff1982541617905533917f2f8788117e7eff1d82e926ec794901d17c78024a50270940304540a733656f0d5f80a4600190565b90815f525f805160206117bd8339815191528060205260405f209160018060a01b031691825f5260205260ff60405f2054165f146115f357825f5260205260405f20815f5260205260405f2060ff19815416905533917ff6391f5c32d9c69d2a47ea670b442974b53935d1edc7fd64eb21e047a839171b5f80a4600190565b5f805160206117dd83398151915260028154146117195760029055565b604051633ee5aeb560e01b8152600490fd5b905f8091602081519101845af480806117a9575b1561175f5750506040513d81523d5f602083013e60203d82010160405290565b1561178657604051639996b31560e01b81526001600160a01b039091166004820152602490fd5b3d15611797576040513d5f823e3d90fd5b60405163d6bda27560e01b8152600490fd5b503d15158061173f5750813b151561173f56fe02dd7bc7dec4dceedda775e58dd541e08a116c6c53815c0bd028192f7b6268009b779b17422d0df92223018b32b4d1fa46e071723d6817e2486d003becc55f00a2646970667358221220ca1d13d0f4739f8440c71c8dd13696ba19f9f52cc6de50eb46d9bea40b67c53f64736f6c63430008180033","linkReferences":{}},"methodIdentifiers":{"DEFAULT_ADMIN_ROLE()":"a217fddf","UPGRADER_ROLE()":"f72c0d8b","UPGRADE_INTERFACE_VERSION()":"ad3cb1cc","buyOption(uint256)":"fba225b9","cancelOption(uint256)":"de6bf635","exercise(uint256)":"b07f0a41","getRoleAdmin(bytes32)":"248a9ca3","grantRole(bytes32,address)":"2f2ff15d","hasRole(bytes32,address)":"91d14854","initialize(address)":"c4d66de8","optionCounter()":"f8a35181","options(uint256)":"409e2205","premiumToken()":"b180783d","proxiableUUID()":"52d1902d","reclaimUnderlying(uint256)":"388b61a4","renounceRole(bytes32,address)":"36568abe","revokeRole(bytes32,address)":"d547741f","supportsInterface(bytes4)":"01ffc9a7","upgradeToAndCall(address,bytes)":"4f1ef286","writeCoveredCall(address,uint256,uint256,uint256,uint256)":"926ca268"},"id":1}