{"abi":[{"type":"constructor","inputs":[],"stateMutability":"nonpayable"},{"type":"function","name":"DEFAULT_ADMIN_ROLE","inputs":[],"outputs":[{"name":"","type":"bytes32","internalType":"bytes32"}],"stateMutability":"view"},{"type":"function","name":"UPGRADER_ROLE","inputs":[],"outputs":[{"name":"","type":"bytes32","internalType":"bytes32"}],"stateMutability":"view"},{"type":"function","name":"UPGRADE_INTERFACE_VERSION","inputs":[],"outputs":[{"name":"","type":"string","internalType":"string"}],"stateMutability":"view"},{"type":"function","name":"bundleOptionCounter","inputs":[],"outputs":[{"name":"","type":"uint256","internalType":"uint256"}],"stateMutability":"view"},{"type":"function","name":"bundleOptions","inputs":[{"name":"","type":"uint256","internalType":"uint256"}],"outputs":[{"name":"writer","type":"address","internalType":"address"},{"name":"buyer","type":"address","internalType":"address"},{"name":"bundleVault","type":"address","internalType":"address"},{"name":"bundleId","type":"uint256","internalType":"uint256"},{"name":"strike","type":"uint256","internalType":"uint256"},{"name":"expiry","type":"uint256","internalType":"uint256"},{"name":"premium","type":"uint256","internalType":"uint256"},{"name":"exercised","type":"bool","internalType":"bool"},{"name":"active","type":"bool","internalType":"bool"}],"stateMutability":"view"},{"type":"function","name":"buyBundleOption","inputs":[{"name":"bundleOptId","type":"uint256","internalType":"uint256"}],"outputs":[],"stateMutability":"nonpayable"},{"type":"function","name":"buyOption","inputs":[{"name":"optionId","type":"uint256","internalType":"uint256"}],"outputs":[],"stateMutability":"nonpayable"},{"type":"function","name":"cancelBundleOption","inputs":[{"name":"bundleOptId","type":"uint256","internalType":"uint256"}],"outputs":[],"stateMutability":"nonpayable"},{"type":"function","name":"cancelOption","inputs":[{"name":"optionId","type":"uint256","internalType":"uint256"}],"outputs":[],"stateMutability":"nonpayable"},{"type":"function","name":"exercise","inputs":[{"name":"optionId","type":"uint256","internalType":"uint256"}],"outputs":[],"stateMutability":"nonpayable"},{"type":"function","name":"exerciseBundleOption","inputs":[{"name":"bundleOptId","type":"uint256","internalType":"uint256"}],"outputs":[],"stateMutability":"nonpayable"},{"type":"function","name":"getRoleAdmin","inputs":[{"name":"role","type":"bytes32","internalType":"bytes32"}],"outputs":[{"name":"","type":"bytes32","internalType":"bytes32"}],"stateMutability":"view"},{"type":"function","name":"grantRole","inputs":[{"name":"role","type":"bytes32","internalType":"bytes32"},{"name":"account","type":"address","internalType":"address"}],"outputs":[],"stateMutability":"nonpayable"},{"type":"function","name":"hasRole","inputs":[{"name":"role","type":"bytes32","internalType":"bytes32"},{"name":"account","type":"address","internalType":"address"}],"outputs":[{"name":"","type":"bool","internalType":"bool"}],"stateMutability":"view"},{"type":"function","name":"initialize","inputs":[{"name":"_premiumToken","type":"address","internalType":"address"}],"outputs":[],"stateMutability":"nonpayable"},{"type":"function","name":"optionCounter","inputs":[],"outputs":[{"name":"","type":"uint256","internalType":"uint256"}],"stateMutability":"view"},{"type":"function","name":"options","inputs":[{"name":"","type":"uint256","internalType":"uint256"}],"outputs":[{"name":"writer","type":"address","internalType":"address"},{"name":"buyer","type":"address","internalType":"address"},{"name":"underlying","type":"address","internalType":"address"},{"name":"amount","type":"uint256","internalType":"uint256"},{"name":"strike","type":"uint256","internalType":"uint256"},{"name":"expiry","type":"uint256","internalType":"uint256"},{"name":"premium","type":"uint256","internalType":"uint256"},{"name":"exercised","type":"bool","internalType":"bool"},{"name":"active","type":"bool","internalType":"bool"}],"stateMutability":"view"},{"type":"function","name":"premiumToken","inputs":[],"outputs":[{"name":"","type":"address","internalType":"contract IERC20"}],"stateMutability":"view"},{"type":"function","name":"proxiableUUID","inputs":[],"outputs":[{"name":"","type":"bytes32","internalType":"bytes32"}],"stateMutability":"view"},{"type":"function","name":"reclaimBundle","inputs":[{"name":"bundleOptId","type":"uint256","internalType":"uint256"}],"outputs":[],"stateMutability":"nonpayable"},{"type":"function","name":"reclaimUnderlying","inputs":[{"name":"optionId","type":"uint256","internalType":"uint256"}],"outputs":[],"stateMutability":"nonpayable"},{"type":"function","name":"renounceRole","inputs":[{"name":"role","type":"bytes32","internalType":"bytes32"},{"name":"callerConfirmation","type":"address","internalType":"address"}],"outputs":[],"stateMutability":"nonpayable"},{"type":"function","name":"revokeRole","inputs":[{"name":"role","type":"bytes32","internalType":"bytes32"},{"name":"account","type":"address","internalType":"address"}],"outputs":[],"stateMutability":"nonpayable"},{"type":"function","name":"supportsInterface","inputs":[{"name":"interfaceId","type":"bytes4","internalType":"bytes4"}],"outputs":[{"name":"","type":"bool","internalType":"bool"}],"stateMutability":"view"},{"type":"function","name":"upgradeToAndCall","inputs":[{"name":"newImplementation","type":"address","internalType":"address"},{"name":"data","type":"bytes","internalType":"bytes"}],"outputs":[],"stateMutability":"payable"},{"type":"function","name":"writeBundleCall","inputs":[{"name":"_bundleVault","type":"address","internalType":"address"},{"name":"bundleId","type":"uint256","internalType":"uint256"},{"name":"strike","type":"uint256","internalType":"uint256"},{"name":"expiry","type":"uint256","internalType":"uint256"},{"name":"premium","type":"uint256","internalType":"uint256"}],"outputs":[{"name":"","type":"uint256","internalType":"uint256"}],"stateMutability":"nonpayable"},{"type":"function","name":"writeCoveredCall","inputs":[{"name":"underlying","type":"address","internalType":"address"},{"name":"amount","type":"uint256","internalType":"uint256"},{"name":"strike","type":"uint256","internalType":"uint256"},{"name":"expiry","type":"uint256","internalType":"uint256"},{"name":"premium","type":"uint256","internalType":"uint256"}],"outputs":[{"name":"","type":"uint256","internalType":"uint256"}],"stateMutability":"nonpayable"},{"type":"event","name":"BundleOptionBought","inputs":[{"name":"bundleOptId","type":"uint256","indexed":true,"internalType":"uint256"},{"name":"buyer","type":"address","indexed":true,"internalType":"address"}],"anonymous":false},{"type":"event","name":"BundleOptionCancelled","inputs":[{"name":"bundleOptId","type":"uint256","indexed":true,"internalType":"uint256"}],"anonymous":false},{"type":"event","name":"BundleOptionExercised","inputs":[{"name":"bundleOptId","type":"uint256","indexed":true,"internalType":"uint256"},{"name":"buyer","type":"address","indexed":true,"internalType":"address"}],"anonymous":false},{"type":"event","name":"BundleOptionWritten","inputs":[{"name":"bundleOptId","type":"uint256","indexed":true,"internalType":"uint256"},{"name":"writer","type":"address","indexed":true,"internalType":"address"},{"name":"bundleVault","type":"address","indexed":false,"internalType":"address"},{"name":"bundleId","type":"uint256","indexed":false,"internalType":"uint256"},{"name":"strike","type":"uint256","indexed":false,"internalType":"uint256"},{"name":"premium","type":"uint256","indexed":false,"internalType":"uint256"}],"anonymous":false},{"type":"event","name":"BundleReclaimed","inputs":[{"name":"bundleOptId","type":"uint256","indexed":true,"internalType":"uint256"}],"anonymous":false},{"type":"event","name":"Initialized","inputs":[{"name":"version","type":"uint64","indexed":false,"internalType":"uint64"}],"anonymous":false},{"type":"event","name":"OptionBought","inputs":[{"name":"optionId","type":"uint256","indexed":true,"internalType":"uint256"},{"name":"buyer","type":"address","indexed":true,"internalType":"address"}],"anonymous":false},{"type":"event","name":"OptionCancelled","inputs":[{"name":"optionId","type":"uint256","indexed":true,"internalType":"uint256"}],"anonymous":false},{"type":"event","name":"OptionExercised","inputs":[{"name":"optionId","type":"uint256","indexed":true,"internalType":"uint256"},{"name":"buyer","type":"address","indexed":true,"internalType":"address"}],"anonymous":false},{"type":"event","name":"OptionWritten","inputs":[{"name":"optionId","type":"uint256","indexed":true,"internalType":"uint256"},{"name":"writer","type":"address","indexed":true,"internalType":"address"},{"name":"amount","type":"uint256","indexed":false,"internalType":"uint256"},{"name":"strike","type":"uint256","indexed":false,"internalType":"uint256"},{"name":"premium","type":"uint256","indexed":false,"internalType":"uint256"}],"anonymous":false},{"type":"event","name":"RoleAdminChanged","inputs":[{"name":"role","type":"bytes32","indexed":true,"internalType":"bytes32"},{"name":"previousAdminRole","type":"bytes32","indexed":true,"internalType":"bytes32"},{"name":"newAdminRole","type":"bytes32","indexed":true,"internalType":"bytes32"}],"anonymous":false},{"type":"event","name":"RoleGranted","inputs":[{"name":"role","type":"bytes32","indexed":true,"internalType":"bytes32"},{"name":"account","type":"address","indexed":true,"internalType":"address"},{"name":"sender","type":"address","indexed":true,"internalType":"address"}],"anonymous":false},{"type":"event","name":"RoleRevoked","inputs":[{"name":"role","type":"bytes32","indexed":true,"internalType":"bytes32"},{"name":"account","type":"address","indexed":true,"internalType":"address"},{"name":"sender","type":"address","indexed":true,"internalType":"address"}],"anonymous":false},{"type":"event","name":"UnderlyingReclaimed","inputs":[{"name":"optionId","type":"uint256","indexed":true,"internalType":"uint256"}],"anonymous":false},{"type":"event","name":"Upgraded","inputs":[{"name":"implementation","type":"address","indexed":true,"internalType":"address"}],"anonymous":false},{"type":"error","name":"AccessControlBadConfirmation","inputs":[]},{"type":"error","name":"AccessControlUnauthorizedAccount","inputs":[{"name":"account","type":"address","internalType":"address"},{"name":"neededRole","type":"bytes32","internalType":"bytes32"}]},{"type":"error","name":"AddressEmptyCode","inputs":[{"name":"target","type":"address","internalType":"address"}]},{"type":"error","name":"ERC1967InvalidImplementation","inputs":[{"name":"implementation","type":"address","internalType":"address"}]},{"type":"error","name":"ERC1967NonPayable","inputs":[]},{"type":"error","name":"FailedCall","inputs":[]},{"type":"error","name":"InvalidInitialization","inputs":[]},{"type":"error","name":"NotInitializing","inputs":[]},{"type":"error","name":"ReentrancyGuardReentrantCall","inputs":[]},{"type":"error","name":"UUPSUnauthorizedCallContext","inputs":[]},{"type":"error","name":"UUPSUnsupportedProxiableUUID","inputs":[{"name":"slot","type":"bytes32","internalType":"bytes32"}]}],"bytecode":{"object":"0x60a080604052346100f0573060805260017f9b779b17422d0df92223018b32b4d1fa46e071723d6817e2486d003becc55f00557ff0c57e16840df040f15088dc2f81fe391c3923bec73e23a9662efc9c229c6a009081549060ff8260401c166100e157506001600160401b036002600160401b03198282160161009c575b60405161212a90816100f58239608051818181611056015261113c0152f35b6001600160401b031990911681179091556040519081527fc7f505b2f371ae2175ee4913f4499e1f2633a7b5936321eed1cdaeb6115181d290602090a15f808061007d565b63f92ee8a960e01b8152600490fd5b5f80fdfe60806040818152600480361015610014575f80fd5b5f925f3560e01c90816301ffc9a71461185d575080630aecd83014611729578063248a9ca3146116f35780632f2ff15d146116ca578063344e739f1461156457806336568abe1461151d578063388b61a4146113c2578063409e2205146113555780634f1ef286146110ba57806352d1902d1461104157806391d1485414610ff2578063926ca26814610d9d578063a217fddf14610d82578063a4598b3914610b72578063ad3cb1cc14610ad4578063b07f0a4114610914578063b180783d146108eb578063b7cd63ee146108ce578063c4d66de814610767578063cf2a1e16146106f2578063d547741f146106a7578063de6bf6351461056e578063e5da42f1146103b8578063ee858bdb14610304578063f72c0d8b146102c9578063f8a35181146102a65763fba225b914610149575f80fd5b346102a25760203660031901126102a257803591610165611d49565b828452836020526101e760208286209360ff600786015460081c168061028d575b61018f90611cc1565b61019e60058601544210611c46565b6002548554600687015486516323b872dd60e01b8152339481019485526001600160a01b0392831660208601526040850191909152948593919092169183918a91839160600190565b03925af1918215610284575060019291610208918691610255575b50611cfd565b01336001600160601b0360a01b82541617905533907ff818b60a04a5914080e463ac568206f291380303c88fc049b89d9acfa93139d28380a360015f805160206120d58339815191525580f35b610277915060203d60201161027d575b61026f818361196f565b810190611ab2565b5f610202565b503d610265565b513d86823e3d90fd5b5060018501546001600160a01b031615610186565b8280fd5b5050346102c557816003193601126102c5576020906001549051908152f35b5080fd5b5050346102c557816003193601126102c557602090517f189ab7a9244df0848122154315af71fe140f3db0fe014031783b0946b8c9d2e38152f35b50346102a25760203660031901126102a257803591610321611d49565b828452600360205261034b60208286209360ff600786015460081c168061028d5761018f90611cc1565b03925af191821561028457506001929161036b9186916102555750611cfd565b01336001600160601b0360a01b82541617905533907ff6d53c8347f56df586ee9bde1f1dd4bb854384593f063d53eafe71e0ed1fe8cd8380a360015f805160206120d58339815191525580f35b5090346102a25760203660031901126102a257828235926103d7611d49565b838252600360205282822060018101546001600160a01b03949183916104009087163314611c0e565b600781019561041360ff88541615611a72565b61042260058301544210611c46565b61047160208260025416838554169086860154918a89518096819582946323b872dd60e01b9c8d85523390850160409194939294606082019560018060a01b0380921683521660208201520152565b03925af19081156105645760039291610491918991610545575b50611c7c565b60028301541691015490803b1561054157835192835230948301948552336020860152604085019190915290928491849182908490829060600103925af19081156105385750610524575b5050805461ffff1916600117905533907f276bfe0c9b93babe5cb4d0c31fe1e4143ed0677c15e2feaf4222f75844c70ab88380a360015f805160206120d58339815191525580f35b61052d9061192a565b6102a257825f6104dc565b513d84823e3d90fd5b8580fd5b61055e915060203d60201161027d5761026f818361196f565b5f61048b565b85513d89823e3d90fd5b50346102a25760203660031901126102a25780359161058b611d49565b82845283602052610614602082862093600785019460ff865460081c1680610692575b6105b7906119c3565b80546001600160a01b039081169089906003906105d53385146119ff565b60028501549190940154885163a9059cbb60e01b81526001600160a01b0390941695840195865260208601529195869493909216928492839160400190565b03925af1918215610284575090610632918591610673575b50611aca565b805461ff00191690557f7621a0eef8c39766512e6fd0e8f1bc133ec9b9b2ade3f1732962a1905002f1f98280a260015f805160206120d58339815191525580f35b61068c915060203d60201161027d5761026f818361196f565b5f61062c565b5060018101546001600160a01b0316156105ae565b5090346102a257806003193601126102a2576106ee91356106e960016106cb6118af565b938387525f805160206120b583398151915260205286200154611d78565b611fa4565b5080f35b509134610764576020366003190112610764578161076091843581526003602052209160018060a01b0392838154169084600182015416946002820154169560038201549082015460058301549160076006850154940154955198899860ff808960081c169816968a6118db565b0390f35b80fd5b50346102a25760203660031901126102a2576107816118c5565b907ff0c57e16840df040f15088dc2f81fe391c3923bec73e23a9662efc9c229c6a009182549160ff83861c16159267ffffffffffffffff8116801590816108c6575b60011490816108bc575b1590816108b3575b506108a45767ffffffffffffffff198116600117855583610885575b5060ff8454861c1615610877575061080833611dc4565b5061081233611e61565b5060018060a01b03166001600160601b0360a01b6002541617600255610836578280f35b805468ff00000000000000001916905551600181527fc7f505b2f371ae2175ee4913f4499e1f2633a7b5936321eed1cdaeb6115181d290602090a15f808280f35b8451631afcd79f60e31b8152fd5b68ffffffffffffffffff1916680100000000000000011784555f6107f1565b50845163f92ee8a960e01b8152fd5b9050155f6107d5565b303b1591506107cd565b8591506107c3565b50346102a257826003193601126102a25760209250549051908152f35b5050346102c557816003193601126102c55760025490516001600160a01b039091168152602090f35b50346102a25760209081600319360112610ad057803591610933611d49565b828552848152838520916109c560018060a01b0391610959836001870154163314611c0e565b600785019461096c60ff87541615611a72565b61097b60058201544210611c46565b6002548154838301548a516323b872dd60e01b8152338187019081529288166001600160a01b03166020840152604083019190915294879286929088169183918e91839160600190565b03925af18015610ac657610a22946109e760039288968d91610aaf5750611c7c565b6002830154169101549189895180968195829463a9059cbb60e01b84523390840160209093929193604081019460018060a01b031681520152565b03925af1918215610aa557610a42939495508692610a88575b5050611b08565b805461ffff1916600117905533907f76b3900aee1539fba6bc0c92712c2959a1b89602c8a57aebbeff7c52bff1f1eb8380a360015f805160206120d58339815191525580f35b610a9e9250803d1061027d5761026f818361196f565b5f80610a3b565b85513d88823e3d90fd5b61055e9150873d891161027d5761026f818361196f565b88513d8b823e3d90fd5b8380fd5b50346102a257826003193601126102a2578151908282019082821067ffffffffffffffff831117610b5f5750825260058152602090640352e302e360dc1b6020820152825193849260208452825192836020860152825b848110610b4957505050828201840152601f01601f19168101030190f35b8181018301518882018801528795508201610b2b565b604190634e487b7160e01b5f525260245ffd5b5090346102a257610b8236611991565b929093610b8d611d49565b6001600160a01b0316938415610d485742811115610d145782151580610d0b575b15610cc857843b15610cba5785516323b872dd60e01b815233888201908152306020820152604081018490528990829081906060010381838a5af18015610cbe57610ca6575b50610c569086602099895499610c098b611b54565b9055815192610c1784611952565b338452818c850152888385015285606085015286608085015260a08401528660c08401528060e0840152600161010084015289815260038b5220611b76565b845193845286840152838301526060820152827f0ebbc05cc1a647fd18e1b083051b7ae0e8d5a74ae5fb8548ebac4887b9e796f360803393a360015f805160206120d58339815191525551908152f35b610cb0899161192a565b610cba575f610bf4565b8780fd5b87513d8b823e3d90fd5b855162461bcd60e51b8152602081890152601a60248201527f537472696b652f7072656d69756d206d757374206265203e20300000000000006044820152606490fd5b50831515610bae565b855162461bcd60e51b8152602081890152600e60248201526d115e1c1a5c9e481a5b881c185cdd60921b6044820152606490fd5b855162461bcd60e51b81526020818901526014602482015273125b9d985b1a5908189d5b991b19481d985d5b1d60621b6044820152606490fd5b5050346102c557816003193601126102c55751908152602090f35b509190346102c557610dae36611991565b93610dbe97929397969196611d49565b42871115610faf578715610f77578315610f3f578415610f065785516323b872dd60e01b81523393810193845230602085810191909152604085018a9052989594936001600160a01b039092169291899082908190606001038185875af1908115610efc5791610e3b8892610e9495948391610edf575b50611b08565b60015498610e488a611b54565b600155825193610e5785611952565b338552828c8601528385015287606085015285608085015260a08401528560c08401528060e08401526001610100840152888152808a5220611b76565b83519283528583015282820152827f6c5e12adbc31f932078f380cad5566666037da5b387d8c7613a22b2c8a15beac60603393a360015f805160206120d58339815191525551908152f35b610ef691508c8d3d1061027d5761026f818361196f565b5f610e35565b87513d84823e3d90fd5b855162461bcd60e51b8152602081850152601360248201527205072656d69756d206d757374206265203e203606c1b6044820152606490fd5b855162461bcd60e51b815260208185015260126024820152710537472696b65206d757374206265203e20360741b6044820152606490fd5b855162461bcd60e51b815260208185015260126024820152710416d6f756e74206d757374206265203e20360741b6044820152606490fd5b855162461bcd60e51b8152602081850152601860248201527f457870697279206d75737420626520696e2066757475726500000000000000006044820152606490fd5b50346102a257816003193601126102a2578160209361100f6118af565b923581525f805160206120b58339815191528552209060018060a01b03165f52825260ff815f20541690519015158152f35b509134610764578060031936011261076457507f00000000000000000000000000000000000000000000000000000000000000006001600160a01b031630036110ad57602090517f360894a13ba1a3210667c828492db98dca3e2076cc3735a920a3ca505d382bbc8152f35b5163703e46dd60e11b8152fd5b5090806003193601126102a2576110cf6118c5565b90602493843567ffffffffffffffff938482116102a257366023830112156102a257818601359485116113435760209484519261111587601f19601f850116018561196f565b818452368983830101116112dd578185928a89930183870137840101526001600160a01b037f00000000000000000000000000000000000000000000000000000000000000008116308114908115611315575b50611305577f189ab7a9244df0848122154315af71fe140f3db0fe014031783b0946b8c9d2e3805f525f805160206120b58339815191528752855f20335f52875260ff865f205416156112e8575084516352d1902d60e01b815290821695808289818a5afa91829186936112b4575b50506111f257505050505191634c9c8ce360e01b8352820152fd5b9093919492967f360894a13ba1a3210667c828492db98dca3e2076cc3735a920a3ca505d382bbc9182810361129f5750843b1561128b575080546001600160a01b0319168317905551907fbc7cd75a20ee27fd9adebab32041f755214dbc6bffa90cc0225b39da2e5c2d3b8680a282511561127257506106ee9250612023565b9150503461127f57505080f35b63b398979f60e01b8152fd5b8251634c9c8ce360e01b8152808801859052fd5b8351632a87526960e21b815280890191909152fd5b9080929350813d83116112e1575b6112cc818361196f565b810103126112dd5751905f806111d7565b8480fd5b503d6112c2565b855163e2517d3f60e01b815233818a0152808a0191909152604490fd5b845163703e46dd60e11b81528790fd5b9050817f360894a13ba1a3210667c828492db98dca3e2076cc3735a920a3ca505d382bbc541614155f611168565b86604187634e487b7160e01b5f52525ffd5b5091346107645760203660031901126107645781610760918435815280602052209160018060a01b0392838154169084600182015416946002820154169560038201549082015460058301549160076006850154940154955198899860ff808960081c169816968a6118db565b50346102a25760209081600319360112610ad0578035916113e1611d49565b82855284815283852080546001600160a01b0393919084166114043382146119ff565b61141360058301544211611a38565b600782019460ff865461142882821615611a72565b60081c16156114ed576002830154600390930154885163a9059cbb60e01b81526001600160a01b039093169483019485526020850152909284928492169082908a90829060400103925af1918215610aa55761148f9394955086926114d0575b5050611aca565b805461ff00191690557f5b5751684de9c5a675619642e3b365bcb674974ef7e71d5890d486217a4756b98280a260015f805160206120d58339815191525580f35b6114e69250803d1061027d5761026f818361196f565b5f80611488565b875162461bcd60e51b8152808501869052600a6024820152694e6f742061637469766560b01b6044820152606490fd5b509190346102c557806003193601126102c5576115386118af565b90336001600160a01b0383160361155557506106ee919235611fa4565b5163334bd91960e11b81528390fd5b50346102a25760203660031901126102a257803591611581611d49565b828452600360205280842080546001600160a01b039390841692916115a73385146119ff565b6115b660058201544211611a38565b6007810194855460ff81161590816116bc575b501561168957906003889594939260028301541691015490803b156105415783516323b872dd60e01b8152309381019384526001600160a01b0390951660208401526040830191909152849184919082908490829060600103925af19081156105385750611675575b5050805461ff00191690557fdf26dca62fe43cfafa6a9fd044ce1dcd9ed92d12ffee923d92aa00393de5a2478280a260015f805160206120d58339815191525580f35b61167e9061192a565b6102a257825f611632565b835162461bcd60e51b8152602081850152600d60248201526c496e76616c696420737461746560981b6044820152606490fd5b60ff915060081c165f6115c9565b5090346102a257806003193601126102a2576106ee91356116ee60016106cb6118af565b611f21565b50346102a25760203660031901126102a257816020936001923581525f805160206120b583398151915285522001549051908152f35b503461184457602036600319011261184457803591611746611d49565b825f526003602052805f2090600782019260ff845460081c1680611848575b61176e906119c3565b82546001600160a01b03908116939060039061178b3387146119ff565b60028301541691015490803b156118445783516323b872dd60e01b8152309381019384526001600160a01b03909516602084015260408301919091525f9184919082908490829060600103925af190811561183b5750611828575b50805461ff00191690557f0e36024b8a542366aeabc29a5a68a92c3c1a45156ad73d7ac5028e89bb2db7e08280a260015f805160206120d58339815191525580f35b61183391935061192a565b5f915f6117e6565b513d5f823e3d90fd5b5f80fd5b5060018301546001600160a01b031615611765565b823461184457602036600319011261184457359063ffffffff60e01b821680920361184457602091637965db0b60e01b811490811561189e575b5015158152f35b6301ffc9a760e01b14905083611897565b602435906001600160a01b038216820361184457565b600435906001600160a01b038216820361184457565b9794916101009794919a9996936101208a019b60018060a01b0392838092168c521660208b01521660408901526060880152608087015260a086015260c0850152151560e08401521515910152565b67ffffffffffffffff811161193e57604052565b634e487b7160e01b5f52604160045260245ffd5b610120810190811067ffffffffffffffff82111761193e57604052565b90601f8019910116810190811067ffffffffffffffff82111761193e57604052565b60a0906003190112611844576004356001600160a01b0381168103611844579060243590604435906064359060843590565b156119ca57565b60405162461bcd60e51b815260206004820152600d60248201526c10d85b9b9bdd0818d85b98d95b609a1b6044820152606490fd5b15611a0657565b60405162461bcd60e51b815260206004820152600a6024820152692737ba103bb934ba32b960b11b6044820152606490fd5b15611a3f57565b60405162461bcd60e51b815260206004820152600b60248201526a139bdd08195e1c1a5c995960aa1b6044820152606490fd5b15611a7957565b60405162461bcd60e51b8152602060048201526011602482015270105b1c9958591e48195e195c98da5cd959607a1b6044820152606490fd5b90816020910312611844575180151581036118445790565b15611ad157565b60405162461bcd60e51b815260206004820152600f60248201526e151c985b9cd9995c8819985a5b1959608a1b6044820152606490fd5b15611b0f57565b60405162461bcd60e51b815260206004820152601a60248201527f556e6465726c79696e67207472616e73666572206661696c65640000000000006044820152606490fd5b5f198114611b625760010190565b634e487b7160e01b5f52601160045260245ffd5b60079060018060a01b03808451166001600160601b0360a01b9081845416178355600183018260208701511682825416179055600283019160408601511690825416179055606083015160038201556080830151600482015560a0830151600582015560c08301516006820155019060e081015115159060ff61ff006101008554930151151560081b1692169061ffff191617179055565b15611c1557565b60405162461bcd60e51b81526020600482015260096024820152682737ba10313abcb2b960b91b6044820152606490fd5b15611c4d57565b60405162461bcd60e51b8152602060048201526007602482015266115e1c1a5c995960ca1b6044820152606490fd5b15611c8357565b60405162461bcd60e51b815260206004820152601660248201527514dd1c9a5ad9481d1c985b9cd9995c8819985a5b195960521b6044820152606490fd5b15611cc857565b60405162461bcd60e51b815260206004820152600d60248201526c4e6f7420617661696c61626c6560981b6044820152606490fd5b15611d0457565b60405162461bcd60e51b815260206004820152601760248201527f5072656d69756d207472616e73666572206661696c65640000000000000000006044820152606490fd5b5f805160206120d58339815191526002815414611d665760029055565b604051633ee5aeb560e01b8152600490fd5b805f525f805160206120b583398151915260205260405f20335f5260205260ff60405f20541615611da65750565b6044906040519063e2517d3f60e01b82523360048301526024820152fd5b6001600160a01b03165f8181527fb7db2dd08fcb62d0c9e08c51941cae53c267786a0b75803fb7960902fc8ef97d60205260409020545f805160206120b58339815191529060ff16611e5b575f805260205260405f20815f5260205260405f20600160ff1982541617905533905f7f2f8788117e7eff1d82e926ec794901d17c78024a50270940304540a733656f0d8180a4600190565b50505f90565b6001600160a01b03165f8181527fab71e3f32666744d246edff3f96e4bdafee2e9867098cdd118a979a7464786a860205260409020547f189ab7a9244df0848122154315af71fe140f3db0fe014031783b0946b8c9d2e391905f805160206120b58339815191529060ff16611f1a57825f5260205260405f20815f5260205260405f20600160ff1982541617905533917f2f8788117e7eff1d82e926ec794901d17c78024a50270940304540a733656f0d5f80a4600190565b5050505f90565b90815f525f805160206120b58339815191528060205260405f209160018060a01b031691825f5260205260ff60405f205416155f14611f1a57825f5260205260405f20815f5260205260405f20600160ff1982541617905533917f2f8788117e7eff1d82e926ec794901d17c78024a50270940304540a733656f0d5f80a4600190565b90815f525f805160206120b58339815191528060205260405f209160018060a01b031691825f5260205260ff60405f2054165f14611f1a57825f5260205260405f20815f5260205260405f2060ff19815416905533917ff6391f5c32d9c69d2a47ea670b442974b53935d1edc7fd64eb21e047a839171b5f80a4600190565b905f8091602081519101845af480806120a1575b156120575750506040513d81523d5f602083013e60203d82010160405290565b1561207e57604051639996b31560e01b81526001600160a01b039091166004820152602490fd5b3d1561208f576040513d5f823e3d90fd5b60405163d6bda27560e01b8152600490fd5b503d1515806120375750813b151561203756fe02dd7bc7dec4dceedda775e58dd541e08a116c6c53815c0bd028192f7b6268009b779b17422d0df92223018b32b4d1fa46e071723d6817e2486d003becc55f00a2646970667358221220f7e162a2fbec1dd856e9287398600d067816bd1005e150d9e69851ab01e0fdd264736f6c63430008180033","linkReferences":{}},"methodIdentifiers":{"DEFAULT_ADMIN_ROLE()":"a217fddf","UPGRADER_ROLE()":"f72c0d8b","UPGRADE_INTERFACE_VERSION()":"ad3cb1cc","bundleOptionCounter()":"b7cd63ee","bundleOptions(uint256)":"cf2a1e16","buyBundleOption(uint256)":"ee858bdb","buyOption(uint256)":"fba225b9","cancelBundleOption(uint256)":"0aecd830","cancelOption(uint256)":"de6bf635","exercise(uint256)":"b07f0a41","exerciseBundleOption(uint256)":"e5da42f1","getRoleAdmin(bytes32)":"248a9ca3","grantRole(bytes32,address)":"2f2ff15d","hasRole(bytes32,address)":"91d14854","initialize(address)":"c4d66de8","optionCounter()":"f8a35181","options(uint256)":"409e2205","premiumToken()":"b180783d","proxiableUUID()":"52d1902d","reclaimBundle(uint256)":"344e739f","reclaimUnderlying(uint256)":"388b61a4","renounceRole(bytes32,address)":"36568abe","revokeRole(bytes32,address)":"d547741f","supportsInterface(bytes4)":"01ffc9a7","upgradeToAndCall(address,bytes)":"4f1ef286","writeBundleCall(address,uint256,uint256,uint256,uint256)":"a4598b39","writeCoveredCall(address,uint256,uint256,uint256,uint256)":"926ca268"},"id":1}