{"abi":[{"type":"constructor","inputs":[{"name":"initialOwner","type":"address","internalType":"address"}],"stateMutability":"nonpayable"},{"type":"function","name":"allowance","inputs":[{"name":"owner","type":"address","internalType":"address"},{"name":"spender","type":"address","internalType":"address"}],"outputs":[{"name":"","type":"uint256","internalType":"uint256"}],"stateMutability":"view"},{"type":"function","name":"approve","inputs":[{"name":"spender","type":"address","internalType":"address"},{"name":"value","type":"uint256","internalType":"uint256"}],"outputs":[{"name":"","type":"bool","internalType":"bool"}],"stateMutability":"nonpayable"},{"type":"function","name":"balanceHuman","inputs":[{"name":"addr","type":"address","internalType":"address"}],"outputs":[{"name":"","type":"uint256","internalType":"uint256"}],"stateMutability":"view"},{"type":"function","name":"balanceOf","inputs":[{"name":"account","type":"address","internalType":"address"}],"outputs":[{"name":"","type":"uint256","internalType":"uint256"}],"stateMutability":"view"},{"type":"function","name":"decimals","inputs":[],"outputs":[{"name":"","type":"uint8","internalType":"uint8"}],"stateMutability":"pure"},{"type":"function","name":"disperseCustom","inputs":[{"name":"recipients","type":"address[]","internalType":"address[]"},{"name":"amounts","type":"uint256[]","internalType":"uint256[]"}],"outputs":[],"stateMutability":"nonpayable"},{"type":"function","name":"disperseEqual","inputs":[{"name":"recipients","type":"address[]","internalType":"address[]"},{"name":"amountEach","type":"uint256","internalType":"uint256"}],"outputs":[],"stateMutability":"nonpayable"},{"type":"function","name":"mint","inputs":[{"name":"to","type":"address","internalType":"address"},{"name":"amount","type":"uint256","internalType":"uint256"}],"outputs":[],"stateMutability":"nonpayable"},{"type":"function","name":"mintHuman","inputs":[{"name":"to","type":"address","internalType":"address"},{"name":"humanAmount","type":"uint256","internalType":"uint256"}],"outputs":[],"stateMutability":"nonpayable"},{"type":"function","name":"name","inputs":[],"outputs":[{"name":"","type":"string","internalType":"string"}],"stateMutability":"view"},{"type":"function","name":"owner","inputs":[],"outputs":[{"name":"","type":"address","internalType":"address"}],"stateMutability":"view"},{"type":"function","name":"renounceOwnership","inputs":[],"outputs":[],"stateMutability":"nonpayable"},{"type":"function","name":"symbol","inputs":[],"outputs":[{"name":"","type":"string","internalType":"string"}],"stateMutability":"view"},{"type":"function","name":"totalSupply","inputs":[],"outputs":[{"name":"","type":"uint256","internalType":"uint256"}],"stateMutability":"view"},{"type":"function","name":"transfer","inputs":[{"name":"to","type":"address","internalType":"address"},{"name":"value","type":"uint256","internalType":"uint256"}],"outputs":[{"name":"","type":"bool","internalType":"bool"}],"stateMutability":"nonpayable"},{"type":"function","name":"transferFrom","inputs":[{"name":"from","type":"address","internalType":"address"},{"name":"to","type":"address","internalType":"address"},{"name":"value","type":"uint256","internalType":"uint256"}],"outputs":[{"name":"","type":"bool","internalType":"bool"}],"stateMutability":"nonpayable"},{"type":"function","name":"transferOwnership","inputs":[{"name":"newOwner","type":"address","internalType":"address"}],"outputs":[],"stateMutability":"nonpayable"},{"type":"event","name":"Approval","inputs":[{"name":"owner","type":"address","indexed":true,"internalType":"address"},{"name":"spender","type":"address","indexed":true,"internalType":"address"},{"name":"value","type":"uint256","indexed":false,"internalType":"uint256"}],"anonymous":false},{"type":"event","name":"BatchDispersed","inputs":[{"name":"by","type":"address","indexed":true,"internalType":"address"},{"name":"recipientCount","type":"uint256","indexed":false,"internalType":"uint256"},{"name":"totalAmount","type":"uint256","indexed":false,"internalType":"uint256"}],"anonymous":false},{"type":"event","name":"OwnershipTransferred","inputs":[{"name":"previousOwner","type":"address","indexed":true,"internalType":"address"},{"name":"newOwner","type":"address","indexed":true,"internalType":"address"}],"anonymous":false},{"type":"event","name":"Transfer","inputs":[{"name":"from","type":"address","indexed":true,"internalType":"address"},{"name":"to","type":"address","indexed":true,"internalType":"address"},{"name":"value","type":"uint256","indexed":false,"internalType":"uint256"}],"anonymous":false},{"type":"error","name":"ERC20InsufficientAllowance","inputs":[{"name":"spender","type":"address","internalType":"address"},{"name":"allowance","type":"uint256","internalType":"uint256"},{"name":"needed","type":"uint256","internalType":"uint256"}]},{"type":"error","name":"ERC20InsufficientBalance","inputs":[{"name":"sender","type":"address","internalType":"address"},{"name":"balance","type":"uint256","internalType":"uint256"},{"name":"needed","type":"uint256","internalType":"uint256"}]},{"type":"error","name":"ERC20InvalidApprover","inputs":[{"name":"approver","type":"address","internalType":"address"}]},{"type":"error","name":"ERC20InvalidReceiver","inputs":[{"name":"receiver","type":"address","internalType":"address"}]},{"type":"error","name":"ERC20InvalidSender","inputs":[{"name":"sender","type":"address","internalType":"address"}]},{"type":"error","name":"ERC20InvalidSpender","inputs":[{"name":"spender","type":"address","internalType":"address"}]},{"type":"error","name":"OwnableInvalidOwner","inputs":[{"name":"owner","type":"address","internalType":"address"}]},{"type":"error","name":"OwnableUnauthorizedAccount","inputs":[{"name":"account","type":"address","internalType":"address"}]}],"bytecode":{"object":"0x60803462000395576001600160401b03601f601f196200116838819003838101831686018581118782101762000399578692829160405283396020958691810103126200039557516001600160a01b03948582169491859003620003955762000067620003ad565b601d81527f55534420436f696e2028436c617753747265657420546573746e657429000000828201526200009a620003ad565b94600495868152635553444360e01b84820152825193858511620002a6576003948554946001958681811c911680156200038a575b84821014620003775790818684931162000324575b508390868311600114620002c5575f92620002b9575b50505f1982881b1c191690851b1785555b8151958611620002a65787548481811c911680156200029b575b82821014620002885783811162000240575b5080928611600114620001d85750849550908492915f95620001cc575b50501b925f19911b1c19161781555b8115620001b55750600580546001600160a01b03198116831790915560405192167f8be0079c531659141344cd1fd0a4f28419497f9722a3daafe3b4186f6b6457e05f80a3610d9a9081620003ce8239f35b6024905f60405191631e4fbdf760e01b8352820152fd5b015193505f8062000154565b93929585908116885f52855f20955f905b898383106200022557505050106200020b575b50505050811b01815562000163565b01519060f8845f19921b161c191690555f808080620001fc565b858701518955909701969485019488935090810190620001e9565b885f52815f208480890160051c820192848a106200027e575b0160051c019085905b8281106200027257505062000137565b5f815501859062000262565b9250819262000259565b602289634e487b7160e01b5f525260245ffd5b90607f169062000125565b604188634e487b7160e01b5f525260245ffd5b015190505f80620000fa565b908a88941691895f52855f20925f5b878282106200030d5750508411620002f5575b505050811b0185556200010b565b01515f19838a1b60f8161c191690555f8080620002e7565b8385015186558b97909501949384019301620002d4565b909150875f52835f208680850160051c8201928686106200036d575b918991869594930160051c01915b8281106200035e575050620000e4565b5f81558594508991016200034e565b9250819262000340565b60228b634e487b7160e01b5f525260245ffd5b90607f1690620000cf565b5f80fd5b634e487b7160e01b5f52604160045260245ffd5b60408051919082016001600160401b03811183821017620003995760405256fe6080604081815260049182361015610015575f80fd5b5f3560e01c90816306fdde031461094657508063095ea7b31461089e57806313b7018d146106ec57806318160ddd146106ce57806323b872dd146105dc578063313ce567146105c157806340c10f191461058157806370a082311461054b578063715018a6146104f05780637b19a744146103d35780638bbb598a146103985780638da5cb5b1461037057806395d89b4114610251578063a9059cbb14610221578063dd62ed3e146101d8578063f2fde38b146101495763f5617031146100da575f80fd5b3461014557366003190112610145576100f1610a67565b602435906100fd610c01565b6101116001600160a01b0382161515610bb5565b620f424091828102928184041490151715610132576101309250610c2d565b005b601183634e487b7160e01b5f525260245ffd5b5f80fd5b50903461014557602036600319011261014557610164610a67565b9061016d610c01565b6001600160a01b039182169283156101c2575050600554826bffffffffffffffffffffffff60a01b821617600555167f8be0079c531659141344cd1fd0a4f28419497f9722a3daafe3b4186f6b6457e05f80a3005b905f6024925191631e4fbdf760e01b8352820152fd5b50346101455780600319360112610145576020906101f4610a67565b6101fc610a7d565b9060018060a01b038091165f5260018452825f2091165f528252805f20549051908152f35b503461014557806003193601126101455760209061024a610240610a67565b6024359033610ca2565b5160018152f35b5034610145575f366003190112610145578051905f835460018160011c9060018316928315610366575b60209384841081146103535783885290811561033757506001146102e3575b505050829003601f01601f191682019267ffffffffffffffff8411838510176102d057508291826102cc925282610a20565b0390f35b604190634e487b7160e01b5f525260245ffd5b5f878152929350837f8a35acfbc15ff81a39ae7d344fd709f28e8600b4aa8c65c6b64bfe7fe36bd19b5b83851061032357505050508301015f808061029a565b80548886018301529301928490820161030d565b60ff1916878501525050151560051b84010190505f808061029a565b602289634e487b7160e01b5f525260245ffd5b91607f169161027b565b5034610145575f3660031901126101455760055490516001600160a01b039091168152602090f35b5034610145576020366003190112610145576020906001600160a01b036103bd610a67565b165f525f8252620f4240815f2054049051908152f35b5034610145578060031936011261014557813567ffffffffffffffff8111610145576104029036908401610a93565b929060243591610410610c01565b61041b851515610ac4565b82156104b55750905f915f915b85831061046257857f34f18ce52a55f15d6c9ab3c72b693092aac4ec24bea6d36654a6ad6eabd920108686815193845260208401523392a2005b9091926104ac82600192610490848060a01b036104886104838a8d8b610b10565b610b34565b161515610b48565b6104a7826104a26104838a8d8b610b10565b610c2d565b610b94565b93019190610428565b606490602085519162461bcd60e51b83528201526015602482015274135bd8dad554d110ce881e995c9bc8185b5bdd5b9d605a1b6044820152fd5b34610145575f36600319011261014557610508610c01565b600580546001600160a01b031981169091555f906001600160a01b03167f8be0079c531659141344cd1fd0a4f28419497f9722a3daafe3b4186f6b6457e08280a3005b5034610145576020366003190112610145576020906001600160a01b03610570610a67565b165f525f8252805f20549051908152f35b5034610145573660031901126101455761013061059c610a67565b6105a4610c01565b6105b86001600160a01b0382161515610bb5565b60243590610c2d565b5034610145575f366003190112610145576020905160068152f35b509034610145576060366003190112610145576105f7610a67565b6105ff610a7d565b906044359260018060a01b038216805f526001602052855f20335f52602052855f2054915f19831061063a575b60208761024a888888610ca2565b8583106106a257811561068c57331561067657505f9081526001602090815286822033835281529086902091859003909155829061024a61062c565b6024905f885191634a1406b160e11b8352820152fd5b6024905f88519163e602df0560e01b8352820152fd5b8651637dc7a0d960e11b8152339181019182526020820193909352604081018690528291506060010390fd5b5034610145575f366003190112610145576020906002549051908152f35b503461014557806003193601126101455767ffffffffffffffff9180358381116101455761071d9036908301610a93565b9390602491602435908111610145576107399036908501610a93565b91610742610c01565b61074d871515610ac4565b82870361085b57939291905f945f945b88861061079757887f34f18ce52a55f15d6c9ab3c72b693092aac4ec24bea6d36654a6ad6eabd920108989815193845260208401523392a2005b9091929394956107b560018060a01b036104886104838a8d88610b10565b6107c0878686610b10565b351561080d576108016001916107ef6107dd6104838b8e89610b10565b6107e88b8a8a610b10565b3590610c2d565b6107fa898888610b10565b3590610b94565b9601949392919061075d565b875162461bcd60e51b81526020818401526023818801527f4d6f636b555344433a207a65726f20616d6f756e7420666f7220726563697069604482015262195b9d60ea1b6064820152608490fd5b855162461bcd60e51b8152602081870152601960248201527f4d6f636b555344433a206c656e677468206d69736d61746368000000000000006044820152606490fd5b50346101455780600319360112610145576108b7610a67565b602435903315610930576001600160a01b031690811561091a5760209350335f5260018452825f20825f52845280835f205582519081527f8c5be1e5ebec7d5bd14f71427d1e84f3dd0314c0f7b2291e5b200ac8c7c3b925843392a35160018152f35b8251634a1406b160e11b81525f81860152602490fd5b825163e602df0560e01b81525f81860152602490fd5b91905034610145575f366003190112610145575f60035460018160011c9060018316928315610a16575b60209384841081146103535783885290811561033757506001146109c057505050829003601f01601f191682019267ffffffffffffffff8411838510176102d057508291826102cc925282610a20565b60035f908152929350837fc2575a0e9e593c00f959f8c92f12db2869c3395a3b0502d05e2516446f71f85b5b838510610a0257505050508301015f808061029a565b8054888601830152930192849082016109ec565b91607f1691610970565b602080825282518183018190529093925f5b828110610a5357505060409293505f838284010152601f8019910116010190565b818101860151848201604001528501610a32565b600435906001600160a01b038216820361014557565b602435906001600160a01b038216820361014557565b9181601f840112156101455782359167ffffffffffffffff8311610145576020808501948460051b01011161014557565b15610acb57565b60405162461bcd60e51b815260206004820152601a60248201527f4d6f636b555344433a20656d70747920726563697069656e74730000000000006044820152606490fd5b9190811015610b205760051b0190565b634e487b7160e01b5f52603260045260245ffd5b356001600160a01b03811681036101455790565b15610b4f57565b60405162461bcd60e51b815260206004820152601e60248201527f4d6f636b555344433a207a65726f206164647265737320696e206c69737400006044820152606490fd5b91908201809211610ba157565b634e487b7160e01b5f52601160045260245ffd5b15610bbc57565b60405162461bcd60e51b815260206004820152601e60248201527f4d6f636b555344433a206d696e7420746f207a65726f206164647265737300006044820152606490fd5b6005546001600160a01b03163303610c1557565b60405163118cdaa760e01b8152336004820152602490fd5b6001600160a01b0316908115610c8a577fddf252ad1be2c89b69c2b068fc378daa952ba7f163c4a11628f55a4df523b3ef602082610c6e5f94600254610b94565b60025584845283825260408420818154019055604051908152a3565b60405163ec442f0560e01b81525f6004820152602490fd5b916001600160a01b03808416928315610d4c5716928315610c8a57825f525f60205260405f205490828210610d1a5750817fddf252ad1be2c89b69c2b068fc378daa952ba7f163c4a11628f55a4df523b3ef92602092855f525f84520360405f2055845f5260405f20818154019055604051908152a3565b60405163391434e360e21b81526001600160a01b03919091166004820152602481019190915260448101829052606490fd5b604051634b637e8f60e11b81525f6004820152602490fdfea26469706673582212200de31d116e7f1ea4401c0b08d2f572eb77bc57e7c53cd2ea6da4e591101fd40364736f6c63430008180033","linkReferences":{}},"methodIdentifiers":{"allowance(address,address)":"dd62ed3e","approve(address,uint256)":"095ea7b3","balanceHuman(address)":"8bbb598a","balanceOf(address)":"70a08231","decimals()":"313ce567","disperseCustom(address[],uint256[])":"13b7018d","disperseEqual(address[],uint256)":"7b19a744","mint(address,uint256)":"40c10f19","mintHuman(address,uint256)":"f5617031","name()":"06fdde03","owner()":"8da5cb5b","renounceOwnership()":"715018a6","symbol()":"95d89b41","totalSupply()":"18160ddd","transfer(address,uint256)":"a9059cbb","transferFrom(address,address,uint256)":"23b872dd","transferOwnership(address)":"f2fde38b"},"id":5}