{"abi":[{"type":"constructor","inputs":[{"name":"initialOwner","type":"address","internalType":"address"}],"stateMutability":"nonpayable"},{"type":"function","name":"MAX_SUPPLY","inputs":[],"outputs":[{"name":"","type":"uint256","internalType":"uint256"}],"stateMutability":"view"},{"type":"function","name":"allowance","inputs":[{"name":"owner","type":"address","internalType":"address"},{"name":"spender","type":"address","internalType":"address"}],"outputs":[{"name":"","type":"uint256","internalType":"uint256"}],"stateMutability":"view"},{"type":"function","name":"approve","inputs":[{"name":"spender","type":"address","internalType":"address"},{"name":"value","type":"uint256","internalType":"uint256"}],"outputs":[{"name":"","type":"bool","internalType":"bool"}],"stateMutability":"nonpayable"},{"type":"function","name":"balanceOf","inputs":[{"name":"account","type":"address","internalType":"address"}],"outputs":[{"name":"","type":"uint256","internalType":"uint256"}],"stateMutability":"view"},{"type":"function","name":"burn","inputs":[{"name":"value","type":"uint256","internalType":"uint256"}],"outputs":[],"stateMutability":"nonpayable"},{"type":"function","name":"burnFrom","inputs":[{"name":"account","type":"address","internalType":"address"},{"name":"value","type":"uint256","internalType":"uint256"}],"outputs":[],"stateMutability":"nonpayable"},{"type":"function","name":"decimals","inputs":[],"outputs":[{"name":"","type":"uint8","internalType":"uint8"}],"stateMutability":"view"},{"type":"function","name":"mint","inputs":[{"name":"to","type":"address","internalType":"address"},{"name":"amount","type":"uint256","internalType":"uint256"}],"outputs":[],"stateMutability":"nonpayable"},{"type":"function","name":"name","inputs":[],"outputs":[{"name":"","type":"string","internalType":"string"}],"stateMutability":"view"},{"type":"function","name":"owner","inputs":[],"outputs":[{"name":"","type":"address","internalType":"address"}],"stateMutability":"view"},{"type":"function","name":"renounceOwnership","inputs":[],"outputs":[],"stateMutability":"nonpayable"},{"type":"function","name":"symbol","inputs":[],"outputs":[{"name":"","type":"string","internalType":"string"}],"stateMutability":"view"},{"type":"function","name":"totalSupply","inputs":[],"outputs":[{"name":"","type":"uint256","internalType":"uint256"}],"stateMutability":"view"},{"type":"function","name":"transfer","inputs":[{"name":"to","type":"address","internalType":"address"},{"name":"value","type":"uint256","internalType":"uint256"}],"outputs":[{"name":"","type":"bool","internalType":"bool"}],"stateMutability":"nonpayable"},{"type":"function","name":"transferFrom","inputs":[{"name":"from","type":"address","internalType":"address"},{"name":"to","type":"address","internalType":"address"},{"name":"value","type":"uint256","internalType":"uint256"}],"outputs":[{"name":"","type":"bool","internalType":"bool"}],"stateMutability":"nonpayable"},{"type":"function","name":"transferOwnership","inputs":[{"name":"newOwner","type":"address","internalType":"address"}],"outputs":[],"stateMutability":"nonpayable"},{"type":"event","name":"Approval","inputs":[{"name":"owner","type":"address","indexed":true,"internalType":"address"},{"name":"spender","type":"address","indexed":true,"internalType":"address"},{"name":"value","type":"uint256","indexed":false,"internalType":"uint256"}],"anonymous":false},{"type":"event","name":"Minted","inputs":[{"name":"to","type":"address","indexed":true,"internalType":"address"},{"name":"amount","type":"uint256","indexed":false,"internalType":"uint256"}],"anonymous":false},{"type":"event","name":"OwnershipTransferred","inputs":[{"name":"previousOwner","type":"address","indexed":true,"internalType":"address"},{"name":"newOwner","type":"address","indexed":true,"internalType":"address"}],"anonymous":false},{"type":"event","name":"Transfer","inputs":[{"name":"from","type":"address","indexed":true,"internalType":"address"},{"name":"to","type":"address","indexed":true,"internalType":"address"},{"name":"value","type":"uint256","indexed":false,"internalType":"uint256"}],"anonymous":false},{"type":"error","name":"ERC20InsufficientAllowance","inputs":[{"name":"spender","type":"address","internalType":"address"},{"name":"allowance","type":"uint256","internalType":"uint256"},{"name":"needed","type":"uint256","internalType":"uint256"}]},{"type":"error","name":"ERC20InsufficientBalance","inputs":[{"name":"sender","type":"address","internalType":"address"},{"name":"balance","type":"uint256","internalType":"uint256"},{"name":"needed","type":"uint256","internalType":"uint256"}]},{"type":"error","name":"ERC20InvalidApprover","inputs":[{"name":"approver","type":"address","internalType":"address"}]},{"type":"error","name":"ERC20InvalidReceiver","inputs":[{"name":"receiver","type":"address","internalType":"address"}]},{"type":"error","name":"ERC20InvalidSender","inputs":[{"name":"sender","type":"address","internalType":"address"}]},{"type":"error","name":"ERC20InvalidSpender","inputs":[{"name":"spender","type":"address","internalType":"address"}]},{"type":"error","name":"OwnableInvalidOwner","inputs":[{"name":"owner","type":"address","internalType":"address"}]},{"type":"error","name":"OwnableUnauthorizedAccount","inputs":[{"name":"account","type":"address","internalType":"address"}]}],"bytecode":{"object":"0x6080346200038757601f906001600160401b0390601f1962000e3938819003858101831684018581118582101762000296578492829160405283396020938491810103126200038757516001600160a01b039485821694918590036200038757620000696200038b565b600a81526910db185dd4dd1c99595d60b21b85820152620000896200038b565b91600683526514d51491515560d21b86840152815192848411620002965760039384546001948582811c921680156200037c575b8a8310146200036857818584931162000315575b508990858311600114620002b6575f92620002aa575b50505f1982871b1c191690841b1784555b8051948511620002965760049687548481811c911680156200028b575b82821014620002785783811162000230575b5080928611600114620001c85750849550908492915f95620001bc575b50501b925f19911b1c19161781555b8115620001a55750600580546001600160a01b03198116831790915560405192167f8be0079c531659141344cd1fd0a4f28419497f9722a3daafe3b4186f6b6457e05f80a3610a8d9081620003ac8239f35b6024905f60405191631e4fbdf760e01b8352820152fd5b015193505f8062000144565b93929585908116885f52855f20955f905b89838310620002155750505010620001fb575b50505050811b01815562000153565b01519060f8845f19921b161c191690555f808080620001ec565b858701518955909701969485019488935090810190620001d9565b885f52815f208480890160051c820192848a106200026e575b0160051c019085905b8281106200026257505062000127565b5f815501859062000252565b9250819262000249565b602289634e487b7160e01b5f525260245ffd5b90607f169062000115565b634e487b7160e01b5f52604160045260245ffd5b015190505f80620000e7565b908987941691885f528b5f20925f5b8d828210620002fe5750508411620002e6575b505050811b018455620000f8565b01515f1983891b60f8161c191690555f8080620002d8565b8385015186558a97909501949384019301620002c5565b909150865f52895f208580850160051c8201928c86106200035e575b918891869594930160051c01915b8281106200034f575050620000d1565b5f81558594508891016200033f565b9250819262000331565b634e487b7160e01b5f52602260045260245ffd5b91607f1691620000bd565b5f80fd5b60408051919082016001600160401b03811183821017620002965760405256fe608060409080825260049081361015610016575f80fd5b5f3560e01c90816306fdde031461065b57508063095ea7b3146105b257806318160ddd1461059457806323b872dd14610558578063313ce5671461053d57806332cb6b0c1461051857806340c10f191461040157806342966c68146103e457806370a08231146103ae578063715018a61461035357806379cc6790146103225780638da5cb5b146102fa57806395d89b41146101da578063a9059cbb146101aa578063dd62ed3e146101615763f2fde38b146100d0575f80fd5b3461015d57602036600319011261015d576100e9610798565b906100f261098c565b6001600160a01b03918216928315610147575050600554826bffffffffffffffffffffffff60a01b821617600555167f8be0079c531659141344cd1fd0a4f28419497f9722a3daafe3b4186f6b6457e05f80a3005b905f6024925191631e4fbdf760e01b8352820152fd5b5f80fd5b823461015d578060031936011261015d5760209061017d610798565b6101856107ae565b9060018060a01b038091165f5260018452825f2091165f528252805f20549051908152f35b823461015d578060031936011261015d576020906101d36101c9610798565b60243590336108b2565b5160018152f35b50903461015d575f36600319011261015d578051905f835460018160011c90600183169283156102f0575b60209384841081146102dd578388529081156102c1575060011461026d575b505050829003601f01601f191682019267ffffffffffffffff84118385101761025a5750829182610256925282610751565b0390f35b604190634e487b7160e01b5f525260245ffd5b5f878152929350837f8a35acfbc15ff81a39ae7d344fd709f28e8600b4aa8c65c6b64bfe7fe36bd19b5b8385106102ad57505050508301015f8080610224565b805488860183015293019284908201610297565b60ff1916878501525050151560051b84010190505f8080610224565b602289634e487b7160e01b5f525260245ffd5b91607f1691610205565b823461015d575f36600319011261015d5760055490516001600160a01b039091168152602090f35b823461015d5736600319011261015d5761035161033d610798565b6024359061034c8233836107e5565b6109b8565b005b3461015d575f36600319011261015d5761036b61098c565b600580546001600160a01b031981169091555f906001600160a01b03167f8be0079c531659141344cd1fd0a4f28419497f9722a3daafe3b4186f6b6457e08280a3005b823461015d57602036600319011261015d576020906001600160a01b036103d3610798565b165f525f8252805f20549051908152f35b503461015d57602036600319011261015d576103519035336109b8565b50903461015d578060031936011261015d5761041b610798565b906024359161042861098c565b600254906a52b7d2dcc80cd2e400000061044285846107c4565b116104e0576001600160a01b03169384156104ca575091602091610487827f30385c845b448a36257a6a1716e6ad2e1bc2cbe333cde1e69fe849ad6511adfe956107c4565b600255845f525f8352805f20828154019055845f7fddf252ad1be2c89b69c2b068fc378daa952ba7f163c4a11628f55a4df523b3ef858451868152a351908152a2005b6024905f84519163ec442f0560e01b8352820152fd5b825162461bcd60e51b8152602081870152601260248201527110d31055ce8818d85c08195e18d95959195960721b6044820152606490fd5b823461015d575f36600319011261015d57602090516a52b7d2dcc80cd2e40000008152f35b823461015d575f36600319011261015d576020905160128152f35b823461015d57606036600319011261015d576020906101d3610578610798565b6105806107ae565b6044359161058f8333836107e5565b6108b2565b823461015d575f36600319011261015d576020906002549051908152f35b50903461015d578060031936011261015d576105cc610798565b602435903315610645576001600160a01b031690811561062f5760209350335f5260018452825f20825f52845280835f205582519081527f8c5be1e5ebec7d5bd14f71427d1e84f3dd0314c0f7b2291e5b200ac8c7c3b925843392a35160018152f35b8251634a1406b160e11b81525f81860152602490fd5b825163e602df0560e01b81525f81860152602490fd5b9050823461015d575f36600319011261015d575f60035460018160011c9060018316928315610747575b60209384841081146102dd5783885290811561072b57506001146106d557505050829003601f01601f191682019267ffffffffffffffff84118385101761025a5750829182610256925282610751565b60035f908152929350837fc2575a0e9e593c00f959f8c92f12db2869c3395a3b0502d05e2516446f71f85b5b8385106107175750505050830101848080610224565b805488860183015293019284908201610701565b60ff1916878501525050151560051b8401019050848080610224565b91607f1691610685565b602080825282518183018190529093925f5b82811061078457505060409293505f838284010152601f8019910116010190565b818101860151848201604001528501610763565b600435906001600160a01b038216820361015d57565b602435906001600160a01b038216820361015d57565b919082018092116107d157565b634e487b7160e01b5f52601160045260245ffd5b919060018060a01b0380931692835f526001602052604093845f2091831691825f52602052845f2054925f198410610820575b505050505050565b8484106108825750801561086b578115610854575f526001602052835f20905f5260205203905f20555f8080808080610818565b8451634a1406b160e11b81525f6004820152602490fd5b845163e602df0560e01b81525f6004820152602490fd5b8551637dc7a0d960e11b81526001600160a01b039190911660048201526024810184905260448101859052606490fd5b916001600160a01b03808416928315610974571692831561095c57825f525f60205260405f20549082821061092a5750817fddf252ad1be2c89b69c2b068fc378daa952ba7f163c4a11628f55a4df523b3ef92602092855f525f84520360405f2055845f5260405f20818154019055604051908152a3565b60405163391434e360e21b81526001600160a01b03919091166004820152602481019190915260448101829052606490fd5b60405163ec442f0560e01b81525f6004820152602490fd5b604051634b637e8f60e11b81525f6004820152602490fd5b6005546001600160a01b031633036109a057565b60405163118cdaa760e01b8152336004820152602490fd5b91906001600160a01b03831690811561097457815f525f60205260405f205493818510610a2557506020817fddf252ad1be2c89b69c2b068fc378daa952ba7f163c4a11628f55a4df523b3ef925f95968587528684520360408620558060025403600255604051908152a3565b60405163391434e360e21b81526001600160a01b03919091166004820152602481018590526044810191909152606490fdfea2646970667358221220889562f9783847e2ba8d21ef9efc8e21f91363fc782693dadf009f247c2bc5ea64736f6c63430008180033","linkReferences":{}},"methodIdentifiers":{"MAX_SUPPLY()":"32cb6b0c","allowance(address,address)":"dd62ed3e","approve(address,uint256)":"095ea7b3","balanceOf(address)":"70a08231","burn(uint256)":"42966c68","burnFrom(address,uint256)":"79cc6790","decimals()":"313ce567","mint(address,uint256)":"40c10f19","name()":"06fdde03","owner()":"8da5cb5b","renounceOwnership()":"715018a6","symbol()":"95d89b41","totalSupply()":"18160ddd","transfer(address,uint256)":"a9059cbb","transferFrom(address,address,uint256)":"23b872dd","transferOwnership(address)":"f2fde38b"},"id":4}