{"abi":[{"type":"constructor","inputs":[{"name":"initialOwner","type":"address","internalType":"address"}],"stateMutability":"nonpayable"},{"type":"function","name":"MAX_SUPPLY","inputs":[],"outputs":[{"name":"","type":"uint256","internalType":"uint256"}],"stateMutability":"view"},{"type":"function","name":"allowance","inputs":[{"name":"owner","type":"address","internalType":"address"},{"name":"spender","type":"address","internalType":"address"}],"outputs":[{"name":"","type":"uint256","internalType":"uint256"}],"stateMutability":"view"},{"type":"function","name":"approve","inputs":[{"name":"spender","type":"address","internalType":"address"},{"name":"value","type":"uint256","internalType":"uint256"}],"outputs":[{"name":"","type":"bool","internalType":"bool"}],"stateMutability":"nonpayable"},{"type":"function","name":"balanceOf","inputs":[{"name":"account","type":"address","internalType":"address"}],"outputs":[{"name":"","type":"uint256","internalType":"uint256"}],"stateMutability":"view"},{"type":"function","name":"burn","inputs":[{"name":"value","type":"uint256","internalType":"uint256"}],"outputs":[],"stateMutability":"nonpayable"},{"type":"function","name":"burnFrom","inputs":[{"name":"account","type":"address","internalType":"address"},{"name":"value","type":"uint256","internalType":"uint256"}],"outputs":[],"stateMutability":"nonpayable"},{"type":"function","name":"decimals","inputs":[],"outputs":[{"name":"","type":"uint8","internalType":"uint8"}],"stateMutability":"view"},{"type":"function","name":"mint","inputs":[{"name":"to","type":"address","internalType":"address"},{"name":"amount","type":"uint256","internalType":"uint256"}],"outputs":[],"stateMutability":"nonpayable"},{"type":"function","name":"name","inputs":[],"outputs":[{"name":"","type":"string","internalType":"string"}],"stateMutability":"view"},{"type":"function","name":"owner","inputs":[],"outputs":[{"name":"","type":"address","internalType":"address"}],"stateMutability":"view"},{"type":"function","name":"renounceOwnership","inputs":[],"outputs":[],"stateMutability":"nonpayable"},{"type":"function","name":"symbol","inputs":[],"outputs":[{"name":"","type":"string","internalType":"string"}],"stateMutability":"view"},{"type":"function","name":"totalSupply","inputs":[],"outputs":[{"name":"","type":"uint256","internalType":"uint256"}],"stateMutability":"view"},{"type":"function","name":"transfer","inputs":[{"name":"to","type":"address","internalType":"address"},{"name":"value","type":"uint256","internalType":"uint256"}],"outputs":[{"name":"","type":"bool","internalType":"bool"}],"stateMutability":"nonpayable"},{"type":"function","name":"transferFrom","inputs":[{"name":"from","type":"address","internalType":"address"},{"name":"to","type":"address","internalType":"address"},{"name":"value","type":"uint256","internalType":"uint256"}],"outputs":[{"name":"","type":"bool","internalType":"bool"}],"stateMutability":"nonpayable"},{"type":"function","name":"transferOwnership","inputs":[{"name":"newOwner","type":"address","internalType":"address"}],"outputs":[],"stateMutability":"nonpayable"},{"type":"event","name":"Approval","inputs":[{"name":"owner","type":"address","indexed":true,"internalType":"address"},{"name":"spender","type":"address","indexed":true,"internalType":"address"},{"name":"value","type":"uint256","indexed":false,"internalType":"uint256"}],"anonymous":false},{"type":"event","name":"Minted","inputs":[{"name":"to","type":"address","indexed":true,"internalType":"address"},{"name":"amount","type":"uint256","indexed":false,"internalType":"uint256"}],"anonymous":false},{"type":"event","name":"OwnershipTransferred","inputs":[{"name":"previousOwner","type":"address","indexed":true,"internalType":"address"},{"name":"newOwner","type":"address","indexed":true,"internalType":"address"}],"anonymous":false},{"type":"event","name":"Transfer","inputs":[{"name":"from","type":"address","indexed":true,"internalType":"address"},{"name":"to","type":"address","indexed":true,"internalType":"address"},{"name":"value","type":"uint256","indexed":false,"internalType":"uint256"}],"anonymous":false},{"type":"error","name":"ERC20InsufficientAllowance","inputs":[{"name":"spender","type":"address","internalType":"address"},{"name":"allowance","type":"uint256","internalType":"uint256"},{"name":"needed","type":"uint256","internalType":"uint256"}]},{"type":"error","name":"ERC20InsufficientBalance","inputs":[{"name":"sender","type":"address","internalType":"address"},{"name":"balance","type":"uint256","internalType":"uint256"},{"name":"needed","type":"uint256","internalType":"uint256"}]},{"type":"error","name":"ERC20InvalidApprover","inputs":[{"name":"approver","type":"address","internalType":"address"}]},{"type":"error","name":"ERC20InvalidReceiver","inputs":[{"name":"receiver","type":"address","internalType":"address"}]},{"type":"error","name":"ERC20InvalidSender","inputs":[{"name":"sender","type":"address","internalType":"address"}]},{"type":"error","name":"ERC20InvalidSpender","inputs":[{"name":"spender","type":"address","internalType":"address"}]},{"type":"error","name":"OwnableInvalidOwner","inputs":[{"name":"owner","type":"address","internalType":"address"}]},{"type":"error","name":"OwnableUnauthorizedAccount","inputs":[{"name":"account","type":"address","internalType":"address"}]}],"bytecode":{"object":"0x608060405234801562000010575f80fd5b5060405162000ce438038062000ce4833981016040819052620000339162000129565b806040518060400160405280600a81526020016910db185dd4dd1c99595d60b21b81525060405180604001604052806004815260200163434c415760e01b8152508160039081620000859190620001f6565b506004620000948282620001f6565b5050506001600160a01b038116620000c557604051631e4fbdf760e01b81525f600482015260240160405180910390fd5b620000d081620000d8565b5050620002c2565b600580546001600160a01b038381166001600160a01b0319831681179093556040519116919082907f8be0079c531659141344cd1fd0a4f28419497f9722a3daafe3b4186f6b6457e0905f90a35050565b5f602082840312156200013a575f80fd5b81516001600160a01b038116811462000151575f80fd5b9392505050565b634e487b7160e01b5f52604160045260245ffd5b600181811c908216806200018157607f821691505b602082108103620001a057634e487b7160e01b5f52602260045260245ffd5b50919050565b601f821115620001f157805f5260205f20601f840160051c81016020851015620001cd5750805b601f840160051c820191505b81811015620001ee575f8155600101620001d9565b50505b505050565b81516001600160401b0381111562000212576200021262000158565b6200022a816200022384546200016c565b84620001a6565b602080601f83116001811462000260575f8415620002485750858301515b5f19600386901b1c1916600185901b178555620002ba565b5f85815260208120601f198616915b8281101562000290578886015182559484019460019091019084016200026f565b5085821015620002ae57878501515f19600388901b60f8161c191681555b505060018460011b0185555b505050505050565b610a1480620002d05f395ff3fe608060405234801561000f575f80fd5b50600436106100fb575f3560e01c806370a082311161009357806395d89b411161006357806395d89b411461020c578063a9059cbb14610214578063dd62ed3e14610227578063f2fde38b1461025f575f80fd5b806370a08231146101ae578063715018a6146101d657806379cc6790146101de5780638da5cb5b146101f1575f80fd5b8063313ce567116100ce578063313ce5671461016557806332cb6b0c1461017457806340c10f191461018657806342966c681461019b575f80fd5b806306fdde03146100ff578063095ea7b31461011d57806318160ddd1461014057806323b872dd14610152575b5f80fd5b610107610272565b6040516101149190610857565b60405180910390f35b61013061012b3660046108be565b610302565b6040519015158152602001610114565b6002545b604051908152602001610114565b6101306101603660046108e6565b61031b565b60405160128152602001610114565b6101446a52b7d2dcc80cd2e400000081565b6101996101943660046108be565b61033e565b005b6101996101a936600461091f565b6103ff565b6101446101bc366004610936565b6001600160a01b03165f9081526020819052604090205490565b61019961040c565b6101996101ec3660046108be565b61041f565b6005546040516001600160a01b039091168152602001610114565b610107610438565b6101306102223660046108be565b610447565b610144610235366004610956565b6001600160a01b039182165f90815260016020908152604080832093909416825291909152205490565b61019961026d366004610936565b610454565b60606003805461028190610987565b80601f01602080910402602001604051908101604052809291908181526020018280546102ad90610987565b80156102f85780601f106102cf576101008083540402835291602001916102f8565b820191905f5260205f20905b8154815290600101906020018083116102db57829003601f168201915b5050505050905090565b5f3361030f81858561048e565b60019150505b92915050565b5f336103288582856104a0565b61033385858561051c565b506001949350505050565b610346610579565b6a52b7d2dcc80cd2e40000008161035c60025490565b61036691906109bf565b11156103ae5760405162461bcd60e51b815260206004820152601260248201527110d31055ce8818d85c08195e18d95959195960721b60448201526064015b60405180910390fd5b6103b882826105a6565b816001600160a01b03167f30385c845b448a36257a6a1716e6ad2e1bc2cbe333cde1e69fe849ad6511adfe826040516103f391815260200190565b60405180910390a25050565b61040933826105da565b50565b610414610579565b61041d5f61060e565b565b61042a8233836104a0565b61043482826105da565b5050565b60606004805461028190610987565b5f3361030f81858561051c565b61045c610579565b6001600160a01b03811661048557604051631e4fbdf760e01b81525f60048201526024016103a5565b6104098161060e565b61049b838383600161065f565b505050565b6001600160a01b038381165f908152600160209081526040808320938616835292905220545f19811015610516578181101561050857604051637dc7a0d960e11b81526001600160a01b038416600482015260248101829052604481018390526064016103a5565b61051684848484035f61065f565b50505050565b6001600160a01b03831661054557604051634b637e8f60e11b81525f60048201526024016103a5565b6001600160a01b03821661056e5760405163ec442f0560e01b81525f60048201526024016103a5565b61049b838383610731565b6005546001600160a01b0316331461041d5760405163118cdaa760e01b81523360048201526024016103a5565b6001600160a01b0382166105cf5760405163ec442f0560e01b81525f60048201526024016103a5565b6104345f8383610731565b6001600160a01b03821661060357604051634b637e8f60e11b81525f60048201526024016103a5565b610434825f83610731565b600580546001600160a01b038381166001600160a01b0319831681179093556040519116919082907f8be0079c531659141344cd1fd0a4f28419497f9722a3daafe3b4186f6b6457e0905f90a35050565b6001600160a01b0384166106885760405163e602df0560e01b81525f60048201526024016103a5565b6001600160a01b0383166106b157604051634a1406b160e11b81525f60048201526024016103a5565b6001600160a01b038085165f908152600160209081526040808320938716835292905220829055801561051657826001600160a01b0316846001600160a01b03167f8c5be1e5ebec7d5bd14f71427d1e84f3dd0314c0f7b2291e5b200ac8c7c3b9258460405161072391815260200190565b60405180910390a350505050565b6001600160a01b03831661075b578060025f82825461075091906109bf565b909155506107cb9050565b6001600160a01b0383165f90815260208190526040902054818110156107ad5760405163391434e360e21b81526001600160a01b038516600482015260248101829052604481018390526064016103a5565b6001600160a01b0384165f9081526020819052604090209082900390555b6001600160a01b0382166107e757600280548290039055610805565b6001600160a01b0382165f9081526020819052604090208054820190555b816001600160a01b0316836001600160a01b03167fddf252ad1be2c89b69c2b068fc378daa952ba7f163c4a11628f55a4df523b3ef8360405161084a91815260200190565b60405180910390a3505050565b5f602080835283518060208501525f5b8181101561088357858101830151858201604001528201610867565b505f604082860101526040601f19601f8301168501019250505092915050565b80356001600160a01b03811681146108b9575f80fd5b919050565b5f80604083850312156108cf575f80fd5b6108d8836108a3565b946020939093013593505050565b5f805f606084860312156108f8575f80fd5b610901846108a3565b925061090f602085016108a3565b9150604084013590509250925092565b5f6020828403121561092f575f80fd5b5035919050565b5f60208284031215610946575f80fd5b61094f826108a3565b9392505050565b5f8060408385031215610967575f80fd5b610970836108a3565b915061097e602084016108a3565b90509250929050565b600181811c9082168061099b57607f821691505b6020821081036109b957634e487b7160e01b5f52602260045260245ffd5b50919050565b8082018082111561031557634e487b7160e01b5f52601160045260245ffdfea2646970667358221220b762793bd39e55f8e0e8242c6ed83f6fe9c2dbf614935edae8ba9f56aed789bd64736f6c63430008180033","linkReferences":{}},"methodIdentifiers":{"MAX_SUPPLY()":"32cb6b0c","allowance(address,address)":"dd62ed3e","approve(address,uint256)":"095ea7b3","balanceOf(address)":"70a08231","burn(uint256)":"42966c68","burnFrom(address,uint256)":"79cc6790","decimals()":"313ce567","mint(address,uint256)":"40c10f19","name()":"06fdde03","owner()":"8da5cb5b","renounceOwnership()":"715018a6","symbol()":"95d89b41","totalSupply()":"18160ddd","transfer(address,uint256)":"a9059cbb","transferFrom(address,address,uint256)":"23b872dd","transferOwnership(address)":"f2fde38b"},"id":4}